{
  "address": "0x5fcFc64b63796AD735C3cEB67eE8f0AFe9588068",
  "abi": [
    {
      "inputs": [],
      "stateMutability": "nonpayable",
      "type": "constructor"
    },
    {
      "inputs": [
        {
          "internalType": "address",
          "name": "target",
          "type": "address"
        }
      ],
      "name": "AddressEmptyCode",
      "type": "error"
    },
    {
      "inputs": [
        {
          "internalType": "address",
          "name": "implementation",
          "type": "address"
        }
      ],
      "name": "ERC1967InvalidImplementation",
      "type": "error"
    },
    {
      "inputs": [],
      "name": "ERC1967NonPayable",
      "type": "error"
    },
    {
      "inputs": [],
      "name": "FailedCall",
      "type": "error"
    },
    {
      "inputs": [],
      "name": "InvalidInitialization",
      "type": "error"
    },
    {
      "inputs": [],
      "name": "NotInitializing",
      "type": "error"
    },
    {
      "inputs": [
        {
          "internalType": "address",
          "name": "owner",
          "type": "address"
        }
      ],
      "name": "OwnableInvalidOwner",
      "type": "error"
    },
    {
      "inputs": [
        {
          "internalType": "address",
          "name": "account",
          "type": "address"
        }
      ],
      "name": "OwnableUnauthorizedAccount",
      "type": "error"
    },
    {
      "inputs": [],
      "name": "ReentrancyGuardReentrantCall",
      "type": "error"
    },
    {
      "inputs": [],
      "name": "UUPSUnauthorizedCallContext",
      "type": "error"
    },
    {
      "inputs": [
        {
          "internalType": "bytes32",
          "name": "slot",
          "type": "bytes32"
        }
      ],
      "name": "UUPSUnsupportedProxiableUUID",
      "type": "error"
    },
    {
      "anonymous": false,
      "inputs": [
        {
          "indexed": true,
          "internalType": "address",
          "name": "user",
          "type": "address"
        },
        {
          "indexed": false,
          "internalType": "uint256",
          "name": "amount",
          "type": "uint256"
        },
        {
          "indexed": false,
          "internalType": "uint8",
          "name": "level",
          "type": "uint8"
        }
      ],
      "name": "CommissionPaid",
      "type": "event"
    },
    {
      "anonymous": false,
      "inputs": [
        {
          "indexed": true,
          "internalType": "address",
          "name": "user",
          "type": "address"
        },
        {
          "indexed": false,
          "internalType": "uint256",
          "name": "amount",
          "type": "uint256"
        },
        {
          "indexed": true,
          "internalType": "address",
          "name": "referrer",
          "type": "address"
        }
      ],
      "name": "Deposited",
      "type": "event"
    },
    {
      "anonymous": false,
      "inputs": [
        {
          "indexed": false,
          "internalType": "uint64",
          "name": "version",
          "type": "uint64"
        }
      ],
      "name": "Initialized",
      "type": "event"
    },
    {
      "anonymous": false,
      "inputs": [
        {
          "indexed": true,
          "internalType": "address",
          "name": "owner",
          "type": "address"
        },
        {
          "indexed": false,
          "internalType": "address",
          "name": "referral",
          "type": "address"
        },
        {
          "indexed": false,
          "internalType": "address",
          "name": "liquidityMgr",
          "type": "address"
        }
      ],
      "name": "Initialized",
      "type": "event"
    },
    {
      "anonymous": false,
      "inputs": [
        {
          "indexed": true,
          "internalType": "address",
          "name": "user",
          "type": "address"
        },
        {
          "indexed": false,
          "internalType": "uint256",
          "name": "usdtAmount",
          "type": "uint256"
        },
        {
          "indexed": false,
          "internalType": "uint256",
          "name": "lpAmount",
          "type": "uint256"
        }
      ],
      "name": "LiquidityAdded",
      "type": "event"
    },
    {
      "anonymous": false,
      "inputs": [
        {
          "indexed": true,
          "internalType": "address",
          "name": "previousOwner",
          "type": "address"
        },
        {
          "indexed": true,
          "internalType": "address",
          "name": "newOwner",
          "type": "address"
        }
      ],
      "name": "OwnershipTransferred",
      "type": "event"
    },
    {
      "anonymous": false,
      "inputs": [
        {
          "indexed": true,
          "internalType": "address",
          "name": "implementation",
          "type": "address"
        }
      ],
      "name": "Upgraded",
      "type": "event"
    },
    {
      "inputs": [],
      "name": "MAX_DEPOSIT",
      "outputs": [
        {
          "internalType": "uint256",
          "name": "",
          "type": "uint256"
        }
      ],
      "stateMutability": "view",
      "type": "function"
    },
    {
      "inputs": [],
      "name": "MIN_DEPOSIT",
      "outputs": [
        {
          "internalType": "uint256",
          "name": "",
          "type": "uint256"
        }
      ],
      "stateMutability": "view",
      "type": "function"
    },
    {
      "inputs": [],
      "name": "UPGRADE_INTERFACE_VERSION",
      "outputs": [
        {
          "internalType": "string",
          "name": "",
          "type": "string"
        }
      ],
      "stateMutability": "view",
      "type": "function"
    },
    {
      "inputs": [],
      "name": "USDT",
      "outputs": [
        {
          "internalType": "address",
          "name": "",
          "type": "address"
        }
      ],
      "stateMutability": "view",
      "type": "function"
    },
    {
      "inputs": [],
      "name": "dappAddress",
      "outputs": [
        {
          "internalType": "address",
          "name": "",
          "type": "address"
        }
      ],
      "stateMutability": "view",
      "type": "function"
    },
    {
      "inputs": [
        {
          "internalType": "uint256",
          "name": "amount",
          "type": "uint256"
        },
        {
          "internalType": "address",
          "name": "referrer",
          "type": "address"
        }
      ],
      "name": "deposit",
      "outputs": [],
      "stateMutability": "nonpayable",
      "type": "function"
    },
    {
      "inputs": [
        {
          "internalType": "address",
          "name": "",
          "type": "address"
        }
      ],
      "name": "depositCount",
      "outputs": [
        {
          "internalType": "uint256",
          "name": "",
          "type": "uint256"
        }
      ],
      "stateMutability": "view",
      "type": "function"
    },
    {
      "inputs": [
        {
          "internalType": "address",
          "name": "token",
          "type": "address"
        },
        {
          "internalType": "uint256",
          "name": "amount",
          "type": "uint256"
        }
      ],
      "name": "emergencyWithdraw",
      "outputs": [],
      "stateMutability": "nonpayable",
      "type": "function"
    },
    {
      "inputs": [
        {
          "internalType": "address",
          "name": "user",
          "type": "address"
        }
      ],
      "name": "getMaxLevel",
      "outputs": [
        {
          "internalType": "uint256",
          "name": "",
          "type": "uint256"
        }
      ],
      "stateMutability": "view",
      "type": "function"
    },
    {
      "inputs": [
        {
          "internalType": "address",
          "name": "user",
          "type": "address"
        }
      ],
      "name": "getReferrals",
      "outputs": [
        {
          "internalType": "address[]",
          "name": "",
          "type": "address[]"
        }
      ],
      "stateMutability": "view",
      "type": "function"
    },
    {
      "inputs": [
        {
          "internalType": "address",
          "name": "user",
          "type": "address"
        }
      ],
      "name": "getReferrer",
      "outputs": [
        {
          "internalType": "address",
          "name": "",
          "type": "address"
        }
      ],
      "stateMutability": "view",
      "type": "function"
    },
    {
      "inputs": [
        {
          "internalType": "address",
          "name": "_referralContract",
          "type": "address"
        },
        {
          "internalType": "address",
          "name": "_liquidityManager",
          "type": "address"
        },
        {
          "internalType": "address",
          "name": "_operationAddress",
          "type": "address"
        },
        {
          "internalType": "address",
          "name": "_dappAddress",
          "type": "address"
        }
      ],
      "name": "initialize",
      "outputs": [],
      "stateMutability": "nonpayable",
      "type": "function"
    },
    {
      "inputs": [],
      "name": "liquidityManager",
      "outputs": [
        {
          "internalType": "contract IPDALiquidityManager",
          "name": "",
          "type": "address"
        }
      ],
      "stateMutability": "view",
      "type": "function"
    },
    {
      "inputs": [],
      "name": "operationAddress",
      "outputs": [
        {
          "internalType": "address",
          "name": "",
          "type": "address"
        }
      ],
      "stateMutability": "view",
      "type": "function"
    },
    {
      "inputs": [],
      "name": "owner",
      "outputs": [
        {
          "internalType": "address",
          "name": "",
          "type": "address"
        }
      ],
      "stateMutability": "view",
      "type": "function"
    },
    {
      "inputs": [],
      "name": "proxiableUUID",
      "outputs": [
        {
          "internalType": "bytes32",
          "name": "",
          "type": "bytes32"
        }
      ],
      "stateMutability": "view",
      "type": "function"
    },
    {
      "inputs": [],
      "name": "referralContract",
      "outputs": [
        {
          "internalType": "contract IPDAReferral",
          "name": "",
          "type": "address"
        }
      ],
      "stateMutability": "view",
      "type": "function"
    },
    {
      "inputs": [],
      "name": "renounceOwnership",
      "outputs": [],
      "stateMutability": "nonpayable",
      "type": "function"
    },
    {
      "inputs": [
        {
          "internalType": "address",
          "name": "_dappAddress",
          "type": "address"
        }
      ],
      "name": "setDappAddress",
      "outputs": [],
      "stateMutability": "nonpayable",
      "type": "function"
    },
    {
      "inputs": [
        {
          "internalType": "address",
          "name": "_operationAddress",
          "type": "address"
        }
      ],
      "name": "setOperationAddress",
      "outputs": [],
      "stateMutability": "nonpayable",
      "type": "function"
    },
    {
      "inputs": [
        {
          "internalType": "address",
          "name": "",
          "type": "address"
        }
      ],
      "name": "totalDeposited",
      "outputs": [
        {
          "internalType": "uint256",
          "name": "",
          "type": "uint256"
        }
      ],
      "stateMutability": "view",
      "type": "function"
    },
    {
      "inputs": [
        {
          "internalType": "address",
          "name": "newOwner",
          "type": "address"
        }
      ],
      "name": "transferOwnership",
      "outputs": [],
      "stateMutability": "nonpayable",
      "type": "function"
    },
    {
      "inputs": [
        {
          "internalType": "address",
          "name": "newImplementation",
          "type": "address"
        },
        {
          "internalType": "bytes",
          "name": "data",
          "type": "bytes"
        }
      ],
      "name": "upgradeToAndCall",
      "outputs": [],
      "stateMutability": "payable",
      "type": "function"
    }
  ],
  "transactionHash": "0xcc56bd91b22ce081a5a65f899b9c569c324a7a30f24e118581c036b84712ee20",
  "numDeployments": 1,
  "bytecode": "0x60a080604052346100cc57306080527ff0c57e16840df040f15088dc2f81fe391c3923bec73e23a9662efc9c229c6a009081549060ff8260401c166100bd57506001600160401b036002600160401b031982821601610078575b604051611c0090816100d28239608051818181610f3401526110130152f35b6001600160401b031990911681179091556040519081527fc7f505b2f371ae2175ee4913f4499e1f2633a7b5936321eed1cdaeb6115181d290602090a1388080610059565b63f92ee8a960e01b8152600490fd5b600080fdfe6080604081815260048036101561001557600080fd5b600092833560e01c9081631a721b7b1461146857508063338274381461143f57806341a0894d146112e857806348aa44dd1461129c5780634a9fefc7146111fe5780634f1ef28614610f9857806352d1902d14610f1f5780635305548114610eea5780636e553f651461083f578063715018a6146107d457806375d20f3b1461073d5780637dad19db146107155780638da5cb5b146106df57806395ccea67146105e9578063a441c302146105c0578063ad3cb1cc14610520578063c54e44eb146104f1578063d53ce956146104a5578063dd5967c314610483578063e1e158a514610461578063f2fde38b14610431578063f4443d9a146103f55763f8c8765e1461012057600080fd5b346103f15760803660031901126103f15761013961148d565b906101426114a3565b6001600160a01b03604435818116949192908590036103ec576064358381168091036103ec577ff0c57e16840df040f15088dc2f81fe391c3923bec73e23a9662efc9c229c6a009586549560ff878a1c16159567ffffffffffffffff8816978815806103e5575b6001809a1490816103db575b1590816103d2575b506103c25767ffffffffffffffff19811689178a55876103a3575b5080861690811561036057851691821561031d5750826102d194928c926102227fad307780531f6353137c35adc50ad58d71b76e76aa891e729387f2e720f2de20989615156115c2565b61022d851515611535565b610235611b2f565b61023d611b2f565b6102463361160e565b61024e611b2f565b610256611b2f565b61025e611b2f565b8a7f9b779b17422d0df92223018b32b4d1fa46e071723d6817e2486d003becc55f00556001600160601b0360a01b80945416178d55828a54161789558160025416176002556003541617600355875191829133958390602090939293604083019460018060a01b03809216845216910152565b0390a26102dc578380f35b7fc7f505b2f371ae2175ee4913f4499e1f2633a7b5936321eed1cdaeb6115181d29260209268ff000000000000000019815416905551908152a13880808380f35b60649060208c519162461bcd60e51b8352820152601960248201527f496e76616c6964206c6971756964697479206d616e61676572000000000000006044820152fd5b8a5162461bcd60e51b8152602081850152601960248201527f496e76616c696420726566657272616c20636f6e7472616374000000000000006044820152606490fd5b68ffffffffffffffffff191668010000000000000001178955386101d8565b8a5163f92ee8a960e01b81528390fd5b905015386101bd565b303b1591506101b5565b50876101a9565b600080fd5b8280fd5b50503461042d57602036600319011261042d5760209181906001600160a01b0361041d61148d565b1681526005845220549051908152f35b5080fd5b833461045e57602036600319011261045e5761045b61044e61148d565b610456611682565b61160e565b80f35b80fd5b50503461042d578160031936011261042d576020905166038d7ea4c680008152f35b50503461042d578160031936011261042d5760209051662386f26fc100008152f35b833461045e57602036600319011261045e576104bf61148d565b6104c7611682565b6001600160a01b03166104db8115156115c2565b6001600160601b0360a01b600254161760025580f35b50503461042d578160031936011261042d57602090517355d398326f99059ff775485246999027b31979558152f35b50346103f157826003193601126103f1578151908282019082821067ffffffffffffffff8311176105ab5750825260058152602090640352e302e360dc1b6020820152825193849260208452825192836020860152825b84811061059557505050828201840152601f01601f19168101030190f35b8181018301518882018801528795508201610577565b604190634e487b7160e01b6000525260246000fd5b50503461042d578160031936011261042d5760025490516001600160a01b039091168152602090f35b5090346103f157806003193601126103f15761060361148d565b61060b611682565b600080516020611bd483398151915254825163a9059cbb60e01b81526001600160a01b03918216858201908152602435602082810191909152919391928492918391899183906040010393165af19081156106d55784916106a6575b5015610671578280f35b906020606492519162461bcd60e51b8352820152600f60248201526e151c985b9cd9995c8819985a5b1959608a1b6044820152fd5b6106c8915060203d6020116106ce575b6106c081836114e3565b810190611578565b38610667565b503d6106b6565b82513d86823e3d90fd5b50503461042d578160031936011261042d57600080516020611bd48339815191525490516001600160a01b039091168152602090f35b50503461042d578160031936011261042d57905490516001600160a01b039091168152602090f35b5091903461042d57602092836003193601126103f1578361075c61148d565b845484516375d20f3b60e01b81526001600160a01b039283169481019490945283916024918391165afa9283156107c9579261079a575b5051908152f35b9091508281813d83116107c2575b6107b281836114e3565b810103126103ec57519038610793565b503d6107a8565b8251903d90823e3d90fd5b833461045e578060031936011261045e576107ed611682565b600080516020611bd483398151915280546001600160a01b031981169091556000906001600160a01b03167f8be0079c531659141344cd1fd0a4f28419497f9722a3daafe3b4186f6b6457e08280a380f35b50346103f157816003193601126103f157803561085a6114a3565b907f9b779b17422d0df92223018b32b4d1fa46e071723d6817e2486d003becc55f00926002845414610edc576002845566038d7ea4c6800082101580610ecb575b15610e8f5785548551630308a59b60e31b815233818401526001600160a01b0396602095602494919391929189169187818781865afa908115610dba578b91610e72575b5015610dc4575b505081516323b872dd60e01b815233828201523084820152604481018590527355d398326f99059ff775485246999027b319795590606490878183818e875af1908115610dba578b91610d9d575b5015610d67578989815416803b1561042d5781809188885180948193632d2b3f8760e21b8352338b8401525af18015610d5d57610d45575b5050338a52828752838a20610982878254611590565b9055338a5260058752838a2061099881546115b3565b90556109ad6109a787336116c8565b876116bb565b906005870291871592888104600514841715610cca57600254875163a9059cbb60e01b808252918e166001600160a01b031688820190815292859004602084018190529195949391928f91908d90829081906040010381858c5af1918215610d3a5791610d1d575b5015610cdc5790610a25916116bb565b91600a890290898204600a141715610cca5760035487519485528c166001600160a01b0316868501908152908290046020820181905293908a9082908f90829081906040010391895af1908115610cc0578d91610ca3575b5015610c6d5750610a92610ac99289926116bb565b80938b600154168d885180968195829463095ea7b360e01b84528b840160209093929193604081019460018060a01b031681520152565b03925af18015610c4657610c50575b50600154835163324741e760e21b815233848201908152602081018490529091889183918c169082908e90829060400103925af1908115610c465790879392918b91610c17575b508451918252838201527fac1d76749e5447b7b16f5ab61447e1bd502f3bb4807af3b28e620d1700a6ee45843392a2878954169383518095819363167801e160e11b835233908301525afa918215610c0d578792610bac575b50947fb4e1304f97b5093610f51b33ddab6622388422e2dac138b0d32f93dcfbd39edf916001965193845216923392a35580f35b9150948382813d8311610c06575b610bc481836114e3565b81010312610c0257600195610bf97fb4e1304f97b5093610f51b33ddab6622388422e2dac138b0d32f93dcfbd39edf93611521565b92509095610b78565b8680fd5b503d610bba565b81513d89823e3d90fd5b84819592503d8311610c3f575b610c2e81836114e3565b810103126103ec5786925138610b1f565b503d610c24565b84513d8c823e3d90fd5b610c6690873d89116106ce576106c081836114e3565b5038610ad8565b855162461bcd60e51b81528086018a90526014818901527311185c1c081d1c985b9cd9995c8819985a5b195960621b6044820152fd5b610cba91508a3d8c116106ce576106c081836114e3565b38610a7d565b87513d8f823e3d90fd5b634e487b7160e01b8d5260118652878dfd5b875162461bcd60e51b81528088018c90526019818b01527f4f7065726174696f6e207472616e73666572206661696c65640000000000000060448201528390fd5b610d3491508c8d3d106106ce576106c081836114e3565b38610a15565b8a51903d90823e3d90fd5b610d4e906114b9565b610d5957893861096c565b8980fd5b86513d84823e3d90fd5b835162461bcd60e51b8152808401889052601481870152731554d115081d1c985b9cd9995c8819985a5b195960621b6044820152fd5b610db49150883d8a116106ce576106c081836114e3565b38610934565b85513d8d823e3d90fd5b88811615610e3857908991813b156103f1578451637e540b2b60e01b8152338582019081526001600160a01b0390921660208301529291839182908490829060400103925af18015610e2e57610e1b575b806108e6565b610e27909891986114b9565b9638610e15565b83513d8b823e3d90fd5b835162461bcd60e51b81528084018890526015818701527426bab9ba10383937bb34b232903932b332b93932b960591b6044820152606490fd5b610e899150883d8a116106ce576106c081836114e3565b386108df565b606490602086519162461bcd60e51b83528201526016602482015275125b9d985b1a590819195c1bdcda5d08185b5bdd5b9d60521b6044820152fd5b50662386f26fc1000082111561089b565b8451633ee5aeb560e01b8152fd5b50346103f15760203660031901126103f15760209282916001600160a01b03610f1161148d565b168252845220549051908152f35b50913461045e578060031936011261045e57507f00000000000000000000000000000000000000000000000000000000000000006001600160a01b03163003610f8b57602090517f360894a13ba1a3210667c828492db98dca3e2076cc3735a920a3ca505d382bbc8152f35b5163703e46dd60e11b8152fd5b5090806003193601126103f157610fad61148d565b90602493843567ffffffffffffffff811161042d573660238201121561042d5780850135610fda81611505565b94610fe7855196876114e3565b81865260209182870193368a83830101116111fa578186928b8693018737880101526001600160a01b037f000000000000000000000000000000000000000000000000000000000000000081163081149081156111cc575b506111bc5761104c611682565b81169585516352d1902d60e01b815283818a818b5afa86918161118d575b50611086575050505050505191634c9c8ce360e01b8352820152fd5b9088888894938c7f360894a13ba1a3210667c828492db98dca3e2076cc3735a920a3ca505d382bbc918281036111785750853b15611164575080546001600160a01b031916821790558451889392917fbc7cd75a20ee27fd9adebab32041f755214dbc6bffa90cc0225b39da2e5c2d3b8580a28251156111465750506111389582915190845af4913d1561113c573d61112a61112182611505565b925192836114e3565b81528581943d92013e611b70565b5080f35b5060609250611b70565b95509550505050503461115857505080f35b63b398979f60e01b8152fd5b8651634c9c8ce360e01b8152808501849052fd5b8751632a87526960e21b815280860191909152fd5b9091508481813d83116111b5575b6111a581836114e3565b81010312610c025751903861106a565b503d61119b565b855163703e46dd60e11b81528890fd5b9050817f360894a13ba1a3210667c828492db98dca3e2076cc3735a920a3ca505d382bbc541614153861103f565b8580fd5b5091903461042d57602092836003193601126103f157906024918461122161148d565b8554845163167801e160e11b81526001600160a01b039283169481019490945290948391829087165afa9384156107c9578094611262575b50505191168152f35b909193508482813d8311611295575b61127b81836114e3565b8101031261045e575061128d90611521565b913880611259565b503d611271565b833461045e57602036600319011261045e576112b661148d565b6112be611682565b6001600160a01b03166112d2811515611535565b6001600160601b0360a01b600354161760035580f35b5082903461042d57602092836003193601126103f15761130661148d565b835482516341a0894d60e01b81526001600160a01b0392831685820152919591908590829060249082908a165afa93841561143557859461137f575b505092908051938080860192818752855180945286019401925b8281106113695785850386f35b835187168552938101939281019260010161135c565b909193503d8086843e61139281846114e3565b82019084838303126111fa57825167ffffffffffffffff9384821161143157019082601f83011215610c0257815193841161141e57508260051b908451936113dc878401866114e3565b84528580850192820101928311610c025785809101915b8383106114065750505050918580611342565b819061141184611521565b81520191019085906113f3565b634e487b7160e01b875260419052602486fd5b8780fd5b83513d87823e3d90fd5b50503461042d578160031936011261042d5760015490516001600160a01b039091168152602090f35b84903461042d578160031936011261042d576003546001600160a01b03168152602090f35b600435906001600160a01b03821682036103ec57565b602435906001600160a01b03821682036103ec57565b67ffffffffffffffff81116114cd57604052565b634e487b7160e01b600052604160045260246000fd5b90601f8019910116810190811067ffffffffffffffff8211176114cd57604052565b67ffffffffffffffff81116114cd57601f01601f191660200190565b51906001600160a01b03821682036103ec57565b1561153c57565b60405162461bcd60e51b8152602060048201526014602482015273496e76616c69642064617070206164647265737360601b6044820152606490fd5b908160209103126103ec575180151581036103ec5790565b9190820180921161159d57565b634e487b7160e01b600052601160045260246000fd5b600019811461159d5760010190565b156115c957565b60405162461bcd60e51b815260206004820152601960248201527f496e76616c6964206f7065726174696f6e2061646472657373000000000000006044820152606490fd5b6001600160a01b0390811690811561166957600080516020611bd483398151915280546001600160a01b031981168417909155167f8be0079c531659141344cd1fd0a4f28419497f9722a3daafe3b4186f6b6457e0600080a3565b604051631e4fbdf760e01b815260006004820152602490fd5b600080516020611bd4833981519152546001600160a01b031633036116a357565b60405163118cdaa760e01b8152336004820152602490fd5b9190820391821161159d57565b6000805460405163167801e160e11b81526001600160a01b03938416600482015294939260209186916024918391165afa938415611b22578194611ae2575b506001600160a01b03841615611add57809181945b601e861080611acb575b15611ac357600054604051631080b48560e21b81526001600160a01b03838116600483015290911690602081602481855afa9081156117f657600091611aa4575b50611802575b5060005460405163167801e160e11b81526001600160a01b0392831660048201529160209183916024918391165afa80156117f6576000906117bb575b6117b59150956115b3565b9461171c565b6020823d6020116117ee575b816117d4602093836114e3565b8101031261045e57506117e96117b591611521565b6117aa565b3d91506117c7565b6040513d6000823e3d90fd5b9360206118106024926115b3565b6040516375d20f3b60e01b81526001600160a01b038516600482015290969092839182905afa9081156117f657600091611a72575b50841115611854575b3861176d565b60008260018681036119935750905060021b8281046004148315171561159d57606490045b80611885575b5061184e565b60405163a9059cbb60e01b81526001600160a01b03831660048201526024810182905290939060208160448160007355d398326f99059ff775485246999027b31979555af19081156117f657600091611974575b501561192f57836118e991611590565b6040805194855260ff8616602086015290936001600160a01b038316917f4b84cdc8f2d1b9b6be433a7d5adaf3f8a237fb2dc7dfde0233244fdef1673ca091a23861187f565b60405162461bcd60e51b815260206004820152601a60248201527f436f6d6d697373696f6e207472616e73666572206661696c65640000000000006044820152606490fd5b61198d915060203d6020116106ce576106c081836114e3565b386118d9565b6002928784036119b657501b90838204148315171561159d57606490045b611879565b91509150600386101580611a67575b156119e05750828004148215171561159d5760648204611879565b9050600b85101580611a5c575b15611a0f5750600680830290838204148315171561159d576103e89004611879565b601585101580611a51575b156119b157600590818402918483041484151715611a3d57506103e89004611879565b634e487b7160e01b81526011600452602490fd5b50601e851115611a1a565b5060148511156119ed565b50600a8611156119c5565b906020823d602011611a9c575b81611a8c602093836114e3565b8101031261045e57505138611845565b3d9150611a7f565b611abd915060203d6020116106ce576106c081836114e3565b38611767565b509093505050565b506001600160a01b0381161515611726565b925050565b9093506020813d602011611b1a575b81611afe602093836114e3565b81010312611b1657611b0f90611521565b9238611707565b8380fd5b3d9150611af1565b50604051903d90823e3d90fd5b60ff7ff0c57e16840df040f15088dc2f81fe391c3923bec73e23a9662efc9c229c6a005460401c1615611b5e57565b604051631afcd79f60e31b8152600490fd5b90611b975750805115611b8557602081519101fd5b60405163d6bda27560e01b8152600490fd5b81511580611bca575b611ba8575090565b604051639996b31560e01b81526001600160a01b039091166004820152602490fd5b50803b15611ba056fe9016d09d72d40fdae2fd8ceac6b6234c7706214fd39c1cd1e609a0528c199300a164736f6c6343000816000a",
  "implementation": "0xb7036708B7b80a3dd6db90988aafAdE82df6F446"
}