{
  "address": "0x0C737142078366C627F37B978933b26ed4fC784F",
  "abi": [
    {
      "inputs": [],
      "stateMutability": "nonpayable",
      "type": "constructor"
    },
    {
      "inputs": [
        {
          "internalType": "address",
          "name": "target",
          "type": "address"
        }
      ],
      "name": "AddressEmptyCode",
      "type": "error"
    },
    {
      "inputs": [
        {
          "internalType": "address",
          "name": "implementation",
          "type": "address"
        }
      ],
      "name": "ERC1967InvalidImplementation",
      "type": "error"
    },
    {
      "inputs": [],
      "name": "ERC1967NonPayable",
      "type": "error"
    },
    {
      "inputs": [],
      "name": "FailedCall",
      "type": "error"
    },
    {
      "inputs": [],
      "name": "InvalidInitialization",
      "type": "error"
    },
    {
      "inputs": [],
      "name": "NotInitializing",
      "type": "error"
    },
    {
      "inputs": [
        {
          "internalType": "address",
          "name": "owner",
          "type": "address"
        }
      ],
      "name": "OwnableInvalidOwner",
      "type": "error"
    },
    {
      "inputs": [
        {
          "internalType": "address",
          "name": "account",
          "type": "address"
        }
      ],
      "name": "OwnableUnauthorizedAccount",
      "type": "error"
    },
    {
      "inputs": [],
      "name": "ReentrancyGuardReentrantCall",
      "type": "error"
    },
    {
      "inputs": [],
      "name": "UUPSUnauthorizedCallContext",
      "type": "error"
    },
    {
      "inputs": [
        {
          "internalType": "bytes32",
          "name": "slot",
          "type": "bytes32"
        }
      ],
      "name": "UUPSUnsupportedProxiableUUID",
      "type": "error"
    },
    {
      "anonymous": false,
      "inputs": [
        {
          "indexed": true,
          "internalType": "address",
          "name": "user",
          "type": "address"
        },
        {
          "indexed": false,
          "internalType": "uint256",
          "name": "amount",
          "type": "uint256"
        },
        {
          "indexed": false,
          "internalType": "uint8",
          "name": "level",
          "type": "uint8"
        }
      ],
      "name": "CommissionPaid",
      "type": "event"
    },
    {
      "anonymous": false,
      "inputs": [
        {
          "indexed": true,
          "internalType": "address",
          "name": "user",
          "type": "address"
        },
        {
          "indexed": false,
          "internalType": "uint256",
          "name": "amount",
          "type": "uint256"
        },
        {
          "indexed": true,
          "internalType": "address",
          "name": "referrer",
          "type": "address"
        }
      ],
      "name": "Deposited",
      "type": "event"
    },
    {
      "anonymous": false,
      "inputs": [
        {
          "indexed": false,
          "internalType": "uint64",
          "name": "version",
          "type": "uint64"
        }
      ],
      "name": "Initialized",
      "type": "event"
    },
    {
      "anonymous": false,
      "inputs": [
        {
          "indexed": true,
          "internalType": "address",
          "name": "owner",
          "type": "address"
        },
        {
          "indexed": false,
          "internalType": "address",
          "name": "referral",
          "type": "address"
        },
        {
          "indexed": false,
          "internalType": "address",
          "name": "liquidityMgr",
          "type": "address"
        }
      ],
      "name": "Initialized",
      "type": "event"
    },
    {
      "anonymous": false,
      "inputs": [
        {
          "indexed": true,
          "internalType": "address",
          "name": "user",
          "type": "address"
        },
        {
          "indexed": false,
          "internalType": "uint256",
          "name": "usdtAmount",
          "type": "uint256"
        },
        {
          "indexed": false,
          "internalType": "uint256",
          "name": "lpAmount",
          "type": "uint256"
        }
      ],
      "name": "LiquidityAdded",
      "type": "event"
    },
    {
      "anonymous": false,
      "inputs": [
        {
          "indexed": true,
          "internalType": "address",
          "name": "previousOwner",
          "type": "address"
        },
        {
          "indexed": true,
          "internalType": "address",
          "name": "newOwner",
          "type": "address"
        }
      ],
      "name": "OwnershipTransferred",
      "type": "event"
    },
    {
      "anonymous": false,
      "inputs": [
        {
          "indexed": true,
          "internalType": "address",
          "name": "implementation",
          "type": "address"
        }
      ],
      "name": "Upgraded",
      "type": "event"
    },
    {
      "inputs": [],
      "name": "MAX_DEPOSIT",
      "outputs": [
        {
          "internalType": "uint256",
          "name": "",
          "type": "uint256"
        }
      ],
      "stateMutability": "view",
      "type": "function"
    },
    {
      "inputs": [],
      "name": "MIN_DEPOSIT",
      "outputs": [
        {
          "internalType": "uint256",
          "name": "",
          "type": "uint256"
        }
      ],
      "stateMutability": "view",
      "type": "function"
    },
    {
      "inputs": [],
      "name": "UPGRADE_INTERFACE_VERSION",
      "outputs": [
        {
          "internalType": "string",
          "name": "",
          "type": "string"
        }
      ],
      "stateMutability": "view",
      "type": "function"
    },
    {
      "inputs": [],
      "name": "USDT",
      "outputs": [
        {
          "internalType": "address",
          "name": "",
          "type": "address"
        }
      ],
      "stateMutability": "view",
      "type": "function"
    },
    {
      "inputs": [],
      "name": "dappAddress",
      "outputs": [
        {
          "internalType": "address",
          "name": "",
          "type": "address"
        }
      ],
      "stateMutability": "view",
      "type": "function"
    },
    {
      "inputs": [
        {
          "internalType": "uint256",
          "name": "amount",
          "type": "uint256"
        },
        {
          "internalType": "address",
          "name": "referrer",
          "type": "address"
        }
      ],
      "name": "deposit",
      "outputs": [],
      "stateMutability": "nonpayable",
      "type": "function"
    },
    {
      "inputs": [
        {
          "internalType": "address",
          "name": "",
          "type": "address"
        }
      ],
      "name": "depositCount",
      "outputs": [
        {
          "internalType": "uint256",
          "name": "",
          "type": "uint256"
        }
      ],
      "stateMutability": "view",
      "type": "function"
    },
    {
      "inputs": [
        {
          "internalType": "address",
          "name": "token",
          "type": "address"
        },
        {
          "internalType": "uint256",
          "name": "amount",
          "type": "uint256"
        }
      ],
      "name": "emergencyWithdraw",
      "outputs": [],
      "stateMutability": "nonpayable",
      "type": "function"
    },
    {
      "inputs": [
        {
          "internalType": "address",
          "name": "user",
          "type": "address"
        }
      ],
      "name": "getMaxLevel",
      "outputs": [
        {
          "internalType": "uint256",
          "name": "",
          "type": "uint256"
        }
      ],
      "stateMutability": "view",
      "type": "function"
    },
    {
      "inputs": [
        {
          "internalType": "address",
          "name": "user",
          "type": "address"
        }
      ],
      "name": "getReferrals",
      "outputs": [
        {
          "internalType": "address[]",
          "name": "",
          "type": "address[]"
        }
      ],
      "stateMutability": "view",
      "type": "function"
    },
    {
      "inputs": [
        {
          "internalType": "address",
          "name": "user",
          "type": "address"
        }
      ],
      "name": "getReferrer",
      "outputs": [
        {
          "internalType": "address",
          "name": "",
          "type": "address"
        }
      ],
      "stateMutability": "view",
      "type": "function"
    },
    {
      "inputs": [
        {
          "internalType": "address",
          "name": "_referralContract",
          "type": "address"
        },
        {
          "internalType": "address",
          "name": "_liquidityManager",
          "type": "address"
        },
        {
          "internalType": "address",
          "name": "_operationAddress",
          "type": "address"
        },
        {
          "internalType": "address",
          "name": "_dappAddress",
          "type": "address"
        }
      ],
      "name": "initialize",
      "outputs": [],
      "stateMutability": "nonpayable",
      "type": "function"
    },
    {
      "inputs": [],
      "name": "liquidityManager",
      "outputs": [
        {
          "internalType": "contract IPDALiquidityManager",
          "name": "",
          "type": "address"
        }
      ],
      "stateMutability": "view",
      "type": "function"
    },
    {
      "inputs": [],
      "name": "operationAddress",
      "outputs": [
        {
          "internalType": "address",
          "name": "",
          "type": "address"
        }
      ],
      "stateMutability": "view",
      "type": "function"
    },
    {
      "inputs": [],
      "name": "owner",
      "outputs": [
        {
          "internalType": "address",
          "name": "",
          "type": "address"
        }
      ],
      "stateMutability": "view",
      "type": "function"
    },
    {
      "inputs": [],
      "name": "proxiableUUID",
      "outputs": [
        {
          "internalType": "bytes32",
          "name": "",
          "type": "bytes32"
        }
      ],
      "stateMutability": "view",
      "type": "function"
    },
    {
      "inputs": [],
      "name": "referralContract",
      "outputs": [
        {
          "internalType": "contract IPDAReferral",
          "name": "",
          "type": "address"
        }
      ],
      "stateMutability": "view",
      "type": "function"
    },
    {
      "inputs": [],
      "name": "renounceOwnership",
      "outputs": [],
      "stateMutability": "nonpayable",
      "type": "function"
    },
    {
      "inputs": [
        {
          "internalType": "address",
          "name": "_dappAddress",
          "type": "address"
        }
      ],
      "name": "setDappAddress",
      "outputs": [],
      "stateMutability": "nonpayable",
      "type": "function"
    },
    {
      "inputs": [
        {
          "internalType": "address",
          "name": "_operationAddress",
          "type": "address"
        }
      ],
      "name": "setOperationAddress",
      "outputs": [],
      "stateMutability": "nonpayable",
      "type": "function"
    },
    {
      "inputs": [
        {
          "internalType": "address",
          "name": "",
          "type": "address"
        }
      ],
      "name": "totalDeposited",
      "outputs": [
        {
          "internalType": "uint256",
          "name": "",
          "type": "uint256"
        }
      ],
      "stateMutability": "view",
      "type": "function"
    },
    {
      "inputs": [
        {
          "internalType": "address",
          "name": "newOwner",
          "type": "address"
        }
      ],
      "name": "transferOwnership",
      "outputs": [],
      "stateMutability": "nonpayable",
      "type": "function"
    },
    {
      "inputs": [
        {
          "internalType": "address",
          "name": "newImplementation",
          "type": "address"
        },
        {
          "internalType": "bytes",
          "name": "data",
          "type": "bytes"
        }
      ],
      "name": "upgradeToAndCall",
      "outputs": [],
      "stateMutability": "payable",
      "type": "function"
    }
  ],
  "transactionHash": "0x5980da843b00fbd2ca1f7d0d69f53df492356d3b5b7be0de4f5479c716bcda05",
  "numDeployments": 1,
  "bytecode": "0x60a080604052346100cc57306080527ff0c57e16840df040f15088dc2f81fe391c3923bec73e23a9662efc9c229c6a009081549060ff8260401c166100bd57506001600160401b036002600160401b031982821601610078575b604051611c3290816100d28239608051818181610f3f015261101e0152f35b6001600160401b031990911681179091556040519081527fc7f505b2f371ae2175ee4913f4499e1f2633a7b5936321eed1cdaeb6115181d290602090a1388080610059565b63f92ee8a960e01b8152600490fd5b600080fdfe6080604081815260048036101561001557600080fd5b600092833560e01c9081631a721b7b1461147357508063338274381461144a57806341a0894d146112f357806348aa44dd146112a75780634a9fefc7146112095780634f1ef28614610fa357806352d1902d14610f2a5780635305548114610ef55780636e553f651461083f578063715018a6146107d457806375d20f3b1461073d5780637dad19db146107155780638da5cb5b146106df57806395ccea67146105e9578063a441c302146105c0578063ad3cb1cc14610520578063c54e44eb146104f1578063d53ce956146104a5578063dd5967c314610483578063e1e158a514610461578063f2fde38b14610431578063f4443d9a146103f55763f8c8765e1461012057600080fd5b346103f15760803660031901126103f157610139611498565b906101426114ae565b6001600160a01b03604435818116949192908590036103ec576064358381168091036103ec577ff0c57e16840df040f15088dc2f81fe391c3923bec73e23a9662efc9c229c6a009586549560ff878a1c16159567ffffffffffffffff8816978815806103e5575b6001809a1490816103db575b1590816103d2575b506103c25767ffffffffffffffff19811689178a55876103a3575b5080861690811561036057851691821561031d5750826102d194928c926102227fad307780531f6353137c35adc50ad58d71b76e76aa891e729387f2e720f2de20989615156115cd565b61022d851515611540565b610235611b61565b61023d611b61565b61024633611619565b61024e611b61565b610256611b61565b61025e611b61565b8a7f9b779b17422d0df92223018b32b4d1fa46e071723d6817e2486d003becc55f00556001600160601b0360a01b80945416178d55828a54161789558160025416176002556003541617600355875191829133958390602090939293604083019460018060a01b03809216845216910152565b0390a26102dc578380f35b7fc7f505b2f371ae2175ee4913f4499e1f2633a7b5936321eed1cdaeb6115181d29260209268ff000000000000000019815416905551908152a13880808380f35b60649060208c519162461bcd60e51b8352820152601960248201527f496e76616c6964206c6971756964697479206d616e61676572000000000000006044820152fd5b8a5162461bcd60e51b8152602081850152601960248201527f496e76616c696420726566657272616c20636f6e7472616374000000000000006044820152606490fd5b68ffffffffffffffffff191668010000000000000001178955386101d8565b8a5163f92ee8a960e01b81528390fd5b905015386101bd565b303b1591506101b5565b50876101a9565b600080fd5b8280fd5b50503461042d57602036600319011261042d5760209181906001600160a01b0361041d611498565b1681526005845220549051908152f35b5080fd5b833461045e57602036600319011261045e5761045b61044e611498565b61045661168d565b611619565b80f35b80fd5b50503461042d578160031936011261042d576020905166038d7ea4c680008152f35b50503461042d578160031936011261042d5760209051662386f26fc100008152f35b833461045e57602036600319011261045e576104bf611498565b6104c761168d565b6001600160a01b03166104db8115156115cd565b6001600160601b0360a01b600254161760025580f35b50503461042d578160031936011261042d57602090517355d398326f99059ff775485246999027b31979558152f35b50346103f157826003193601126103f1578151908282019082821067ffffffffffffffff8311176105ab5750825260058152602090640352e302e360dc1b6020820152825193849260208452825192836020860152825b84811061059557505050828201840152601f01601f19168101030190f35b8181018301518882018801528795508201610577565b604190634e487b7160e01b6000525260246000fd5b50503461042d578160031936011261042d5760025490516001600160a01b039091168152602090f35b5090346103f157806003193601126103f157610603611498565b61060b61168d565b600080516020611c0683398151915254825163a9059cbb60e01b81526001600160a01b03918216858201908152602435602082810191909152919391928492918391899183906040010393165af19081156106d55784916106a6575b5015610671578280f35b906020606492519162461bcd60e51b8352820152600f60248201526e151c985b9cd9995c8819985a5b1959608a1b6044820152fd5b6106c8915060203d6020116106ce575b6106c081836114ee565b810190611583565b38610667565b503d6106b6565b82513d86823e3d90fd5b50503461042d578160031936011261042d57600080516020611c068339815191525490516001600160a01b039091168152602090f35b50503461042d578160031936011261042d57905490516001600160a01b039091168152602090f35b5091903461042d57602092836003193601126103f1578361075c611498565b845484516375d20f3b60e01b81526001600160a01b039283169481019490945283916024918391165afa9283156107c9579261079a575b5051908152f35b9091508281813d83116107c2575b6107b281836114ee565b810103126103ec57519038610793565b503d6107a8565b8251903d90823e3d90fd5b833461045e578060031936011261045e576107ed61168d565b600080516020611c0683398151915280546001600160a01b031981169091556000906001600160a01b03167f8be0079c531659141344cd1fd0a4f28419497f9722a3daafe3b4186f6b6457e08280a380f35b50346103f157816003193601126103f157803561085a6114ae565b907f9b779b17422d0df92223018b32b4d1fa46e071723d6817e2486d003becc55f00926002845414610ee7576002845566038d7ea4c6800082101580610ed6575b15610e9a5785548551630308a59b60e31b815233818401526001600160a01b0396602095602494919391929189169187818781865afa908115610dc5578b91610e7d575b5015610dcf575b505081516323b872dd60e01b815233828201523084820152604481018590527355d398326f99059ff775485246999027b319795590606490878183818e875af1908115610dc5578b91610da8575b5015610d72578989815416803b1561042d5781809188885180948193632d2b3f8760e21b8352338b8401525af18015610d6857610d50575b5050338a52828752838a2061098287825461159b565b9055338a5260058752838a2061099881546115be565b90556109a486336116c6565b5060058602861590878104600514821715610d3e57600254865163a9059cbb60e01b808252918d166001600160a01b031687820190815292859004602084015290918a9082908f90829081906040010391895af1908115610d34578d91610d17575b5015610cd657600a8802888104600a14831715610cc45760035487519283526001600160a01b03908d161686830190815290849004602082015289908290819003604001818f885af1908115610cba578c91610c9d575b5015610c6657603c870290878204603c141715610c5457600154855163095ea7b360e01b8152908b166001600160a01b031685820190815292909104602083018190529290918891839182908e90829060400103925af18015610c2d57610c37575b50600154835163324741e760e21b815233848201908152602081018490529091889183918c169082908e90829060400103925af1908115610c2d5790879392918b91610bfe575b508451918252838201527fac1d76749e5447b7b16f5ab61447e1bd502f3bb4807af3b28e620d1700a6ee45843392a2878954169383518095819363167801e160e11b835233908301525afa918215610bf4578792610b93575b50947fb4e1304f97b5093610f51b33ddab6622388422e2dac138b0d32f93dcfbd39edf916001965193845216923392a35580f35b9150948382813d8311610bed575b610bab81836114ee565b81010312610be957600195610be07fb4e1304f97b5093610f51b33ddab6622388422e2dac138b0d32f93dcfbd39edf9361152c565b92509095610b5f565b8680fd5b503d610ba1565b81513d89823e3d90fd5b84819592503d8311610c26575b610c1581836114ee565b810103126103ec5786925138610b06565b503d610c0b565b84513d8c823e3d90fd5b610c4d90873d89116106ce576106c081836114ee565b5038610abf565b634e487b7160e01b8b5260118452858bfd5b50835162461bcd60e51b81528084018890526014818701527311185c1c081d1c985b9cd9995c8819985a5b195960621b6044820152fd5b610cb49150893d8b116106ce576106c081836114ee565b38610a5d565b86513d8e823e3d90fd5b634e487b7160e01b8d5260118652878dfd5b855162461bcd60e51b81528086018a90526019818901527f4f7065726174696f6e207472616e73666572206661696c65640000000000000060448201528390fd5b610d2e91508a3d8c116106ce576106c081836114ee565b38610a06565b87513d8f823e3d90fd5b634e487b7160e01b8c5260118552868cfd5b610d59906114c4565b610d6457893861096c565b8980fd5b86513d84823e3d90fd5b835162461bcd60e51b8152808401889052601481870152731554d115081d1c985b9cd9995c8819985a5b195960621b6044820152fd5b610dbf9150883d8a116106ce576106c081836114ee565b38610934565b85513d8d823e3d90fd5b88811615610e4357908991813b156103f1578451637e540b2b60e01b8152338582019081526001600160a01b0390921660208301529291839182908490829060400103925af18015610e3957610e26575b806108e6565b610e32909891986114c4565b9638610e20565b83513d8b823e3d90fd5b835162461bcd60e51b81528084018890526015818701527426bab9ba10383937bb34b232903932b332b93932b960591b6044820152606490fd5b610e949150883d8a116106ce576106c081836114ee565b386108df565b606490602086519162461bcd60e51b83528201526016602482015275125b9d985b1a590819195c1bdcda5d08185b5bdd5b9d60521b6044820152fd5b50662386f26fc1000082111561089b565b8451633ee5aeb560e01b8152fd5b50346103f15760203660031901126103f15760209282916001600160a01b03610f1c611498565b168252845220549051908152f35b50913461045e578060031936011261045e57507f00000000000000000000000000000000000000000000000000000000000000006001600160a01b03163003610f9657602090517f360894a13ba1a3210667c828492db98dca3e2076cc3735a920a3ca505d382bbc8152f35b5163703e46dd60e11b8152fd5b5090806003193601126103f157610fb8611498565b90602493843567ffffffffffffffff811161042d573660238201121561042d5780850135610fe581611510565b94610ff2855196876114ee565b81865260209182870193368a8383010111611205578186928b8693018737880101526001600160a01b037f000000000000000000000000000000000000000000000000000000000000000081163081149081156111d7575b506111c75761105761168d565b81169585516352d1902d60e01b815283818a818b5afa869181611198575b50611091575050505050505191634c9c8ce360e01b8352820152fd5b9088888894938c7f360894a13ba1a3210667c828492db98dca3e2076cc3735a920a3ca505d382bbc918281036111835750853b1561116f575080546001600160a01b031916821790558451889392917fbc7cd75a20ee27fd9adebab32041f755214dbc6bffa90cc0225b39da2e5c2d3b8580a28251156111515750506111439582915190845af4913d15611147573d61113561112c82611510565b925192836114ee565b81528581943d92013e611ba2565b5080f35b5060609250611ba2565b95509550505050503461116357505080f35b63b398979f60e01b8152fd5b8651634c9c8ce360e01b8152808501849052fd5b8751632a87526960e21b815280860191909152fd5b9091508481813d83116111c0575b6111b081836114ee565b81010312610be957519038611075565b503d6111a6565b855163703e46dd60e11b81528890fd5b9050817f360894a13ba1a3210667c828492db98dca3e2076cc3735a920a3ca505d382bbc541614153861104a565b8580fd5b5091903461042d57602092836003193601126103f157906024918461122c611498565b8554845163167801e160e11b81526001600160a01b039283169481019490945290948391829087165afa9384156107c957809461126d575b50505191168152f35b909193508482813d83116112a0575b61128681836114ee565b8101031261045e57506112989061152c565b913880611264565b503d61127c565b833461045e57602036600319011261045e576112c1611498565b6112c961168d565b6001600160a01b03166112dd811515611540565b6001600160601b0360a01b600354161760035580f35b5082903461042d57602092836003193601126103f157611311611498565b835482516341a0894d60e01b81526001600160a01b0392831685820152919591908590829060249082908a165afa93841561144057859461138a575b505092908051938080860192818752855180945286019401925b8281106113745785850386f35b8351871685529381019392810192600101611367565b909193503d8086843e61139d81846114ee565b820190848383031261120557825167ffffffffffffffff9384821161143c57019082601f83011215610be957815193841161142957508260051b908451936113e7878401866114ee565b84528580850192820101928311610be95785809101915b838310611411575050505091858061134d565b819061141c8461152c565b81520191019085906113fe565b634e487b7160e01b875260419052602486fd5b8780fd5b83513d87823e3d90fd5b50503461042d578160031936011261042d5760015490516001600160a01b039091168152602090f35b84903461042d578160031936011261042d576003546001600160a01b03168152602090f35b600435906001600160a01b03821682036103ec57565b602435906001600160a01b03821682036103ec57565b67ffffffffffffffff81116114d857604052565b634e487b7160e01b600052604160045260246000fd5b90601f8019910116810190811067ffffffffffffffff8211176114d857604052565b67ffffffffffffffff81116114d857601f01601f191660200190565b51906001600160a01b03821682036103ec57565b1561154757565b60405162461bcd60e51b8152602060048201526014602482015273496e76616c69642064617070206164647265737360601b6044820152606490fd5b908160209103126103ec575180151581036103ec5790565b919082018092116115a857565b634e487b7160e01b600052601160045260246000fd5b60001981146115a85760010190565b156115d457565b60405162461bcd60e51b815260206004820152601960248201527f496e76616c6964206f7065726174696f6e2061646472657373000000000000006044820152606490fd5b6001600160a01b0390811690811561167457600080516020611c0683398151915280546001600160a01b031981168417909155167f8be0079c531659141344cd1fd0a4f28419497f9722a3daafe3b4186f6b6457e0600080a3565b604051631e4fbdf760e01b815260006004820152602490fd5b600080516020611c06833981519152546001600160a01b031633036116ae57565b60405163118cdaa760e01b8152336004820152602490fd5b91600060018060a01b0380825416946040928351968793849263167801e160e11b92838552826004961686860152602096879160249687915afa998a15611b5557819a611b1e575b50818a1615611b11576001995b601e8b1115908180611b06575b15611af7576000548951631080b48560e21b815282861689820181905293918616908a818a81855afa908115611aec57898b8e8e948994600091611acf575b506117eb575b5050505092505050836000541691868a51809481938983528b8301525afa80156117e0576000906117aa575b6117a491509a6115be565b9961171b565b8782813d83116117d9575b6117bf81836114ee565b8101031261045e57506117d46117a49161152c565b611799565b503d6117b5565b88513d6000823e3d90fd5b5194859384926375d20f3b60e01b84528301525afa908115611ac457908e9291600091611a92575b50821115611826575b8984898b8e61176d565b896000916001841460001461198657505050508a60021b8b810488148c151715611972576064899104915b8261185f575b8d915061181c565b8a5163a9059cbb60e01b81526001600160a01b03909116898201908152602081018490529394929390919082908190604001038160007355d398326f99059ff775485246999027b31979555af19081156119675760009161194a575b501561190857917f4b84cdc8f2d1b9b6be433a7d5adaf3f8a237fb2dc7dfde0233244fdef1673ca0898360ff8f9685966118f49161159b565b968351928352168b820152a2388781611857565b885162461bcd60e51b8152808801899052601a818801527f436f6d6d697373696f6e207472616e73666572206661696c65640000000000006044820152606490fd5b6119619150893d8b116106ce576106c081836114ee565b386118bb565b8a513d6000823e3d90fd5b86601189634e487b7160e01b600052526000fd5b6002938085036119b157505050508b60011b908c8204148c151715611972576064899104915b611851565b9091929350600381101580611a87575b156119f757505050508a80046001148b1517156119e3578760648c0491611851565b85601188634e487b7160e01b600052526000fd5b600b81101580611a7c575b15611a2957505050506006808c02908c8204148c151715611972576103e889910491611851565b6015909492939410159081611a74575b50156119ac57919050600590818d02918d8304148d151715611a6257506103e889910491611851565b634e487b7160e01b8152601189528790fd5b905038611a39565b506014811115611a02565b50600a8111156119c1565b9192508a82813d8311611abd575b611aaa81836114ee565b8101031261045e5750908d915138611813565b503d611aa0565b8b513d6000823e3d90fd5b611ae69150863d88116106ce576106c081836114ee565b38611767565b8c513d6000823e3d90fd5b50509750505050505050915090565b508381161515611728565b9750505050505050915090565b9099508581813d8311611b4e575b611b3681836114ee565b81010312610d6457611b479061152c565b983861170e565b503d611b2c565b508651903d90823e3d90fd5b60ff7ff0c57e16840df040f15088dc2f81fe391c3923bec73e23a9662efc9c229c6a005460401c1615611b9057565b604051631afcd79f60e31b8152600490fd5b90611bc95750805115611bb757602081519101fd5b60405163d6bda27560e01b8152600490fd5b81511580611bfc575b611bda575090565b604051639996b31560e01b81526001600160a01b039091166004820152602490fd5b50803b15611bd256fe9016d09d72d40fdae2fd8ceac6b6234c7706214fd39c1cd1e609a0528c199300a164736f6c6343000816000a",
  "implementation": "0x9c8E30A87Dd8234F37E43E5bDEC23B942E539525"
}