{
  "address": "0x4b14C65D1B193fe32971b5C4DeAb4Ba3F949E7aE",
  "abi": [
    {
      "inputs": [
        {
          "internalType": "address",
          "name": "_burnAddress",
          "type": "address"
        },
        {
          "internalType": "address",
          "name": "_operationAddress",
          "type": "address"
        },
        {
          "internalType": "address",
          "name": "_deviceAddress",
          "type": "address"
        },
        {
          "internalType": "address",
          "name": "_burnSetter",
          "type": "address"
        }
      ],
      "stateMutability": "nonpayable",
      "type": "constructor"
    },
    {
      "inputs": [
        {
          "internalType": "address",
          "name": "owner",
          "type": "address"
        }
      ],
      "name": "OwnableInvalidOwner",
      "type": "error"
    },
    {
      "inputs": [
        {
          "internalType": "address",
          "name": "account",
          "type": "address"
        }
      ],
      "name": "OwnableUnauthorizedAccount",
      "type": "error"
    },
    {
      "anonymous": false,
      "inputs": [
        {
          "indexed": true,
          "internalType": "address",
          "name": "owner",
          "type": "address"
        },
        {
          "indexed": true,
          "internalType": "address",
          "name": "spender",
          "type": "address"
        },
        {
          "indexed": false,
          "internalType": "uint256",
          "name": "value",
          "type": "uint256"
        }
      ],
      "name": "Approval",
      "type": "event"
    },
    {
      "anonymous": false,
      "inputs": [
        {
          "indexed": true,
          "internalType": "address",
          "name": "previousOwner",
          "type": "address"
        },
        {
          "indexed": true,
          "internalType": "address",
          "name": "newOwner",
          "type": "address"
        }
      ],
      "name": "OwnershipTransferred",
      "type": "event"
    },
    {
      "anonymous": false,
      "inputs": [
        {
          "indexed": true,
          "internalType": "address",
          "name": "from",
          "type": "address"
        },
        {
          "indexed": true,
          "internalType": "address",
          "name": "to",
          "type": "address"
        },
        {
          "indexed": false,
          "internalType": "uint256",
          "name": "value",
          "type": "uint256"
        }
      ],
      "name": "Transfer",
      "type": "event"
    },
    {
      "inputs": [],
      "name": "BURN_INTERVAL",
      "outputs": [
        {
          "internalType": "uint256",
          "name": "",
          "type": "uint256"
        }
      ],
      "stateMutability": "view",
      "type": "function"
    },
    {
      "inputs": [],
      "name": "DAILY_BURN_RATE",
      "outputs": [
        {
          "internalType": "uint256",
          "name": "",
          "type": "uint256"
        }
      ],
      "stateMutability": "view",
      "type": "function"
    },
    {
      "inputs": [],
      "name": "DEAD_ADDRESS",
      "outputs": [
        {
          "internalType": "address",
          "name": "",
          "type": "address"
        }
      ],
      "stateMutability": "view",
      "type": "function"
    },
    {
      "inputs": [],
      "name": "ROUTER",
      "outputs": [
        {
          "internalType": "address",
          "name": "",
          "type": "address"
        }
      ],
      "stateMutability": "view",
      "type": "function"
    },
    {
      "inputs": [],
      "name": "USDT",
      "outputs": [
        {
          "internalType": "address",
          "name": "",
          "type": "address"
        }
      ],
      "stateMutability": "view",
      "type": "function"
    },
    {
      "inputs": [
        {
          "internalType": "address",
          "name": "user",
          "type": "address"
        }
      ],
      "name": "addWhiteList",
      "outputs": [],
      "stateMutability": "nonpayable",
      "type": "function"
    },
    {
      "inputs": [
        {
          "internalType": "address",
          "name": "owner",
          "type": "address"
        },
        {
          "internalType": "address",
          "name": "spender",
          "type": "address"
        }
      ],
      "name": "allowance",
      "outputs": [
        {
          "internalType": "uint256",
          "name": "",
          "type": "uint256"
        }
      ],
      "stateMutability": "view",
      "type": "function"
    },
    {
      "inputs": [
        {
          "internalType": "address",
          "name": "spender",
          "type": "address"
        },
        {
          "internalType": "uint256",
          "name": "amount",
          "type": "uint256"
        }
      ],
      "name": "approve",
      "outputs": [
        {
          "internalType": "bool",
          "name": "",
          "type": "bool"
        }
      ],
      "stateMutability": "nonpayable",
      "type": "function"
    },
    {
      "inputs": [
        {
          "internalType": "address",
          "name": "account",
          "type": "address"
        }
      ],
      "name": "balanceOf",
      "outputs": [
        {
          "internalType": "uint256",
          "name": "",
          "type": "uint256"
        }
      ],
      "stateMutability": "view",
      "type": "function"
    },
    {
      "inputs": [
        {
          "internalType": "address[]",
          "name": "users",
          "type": "address[]"
        }
      ],
      "name": "batchAddWhiteList",
      "outputs": [],
      "stateMutability": "nonpayable",
      "type": "function"
    },
    {
      "inputs": [
        {
          "internalType": "address[]",
          "name": "users",
          "type": "address[]"
        }
      ],
      "name": "batchRemoveWhiteList",
      "outputs": [],
      "stateMutability": "nonpayable",
      "type": "function"
    },
    {
      "inputs": [],
      "name": "burnAddress",
      "outputs": [
        {
          "internalType": "address",
          "name": "",
          "type": "address"
        }
      ],
      "stateMutability": "view",
      "type": "function"
    },
    {
      "inputs": [],
      "name": "burnPoolTokens",
      "outputs": [
        {
          "internalType": "uint256",
          "name": "burnAmount",
          "type": "uint256"
        }
      ],
      "stateMutability": "nonpayable",
      "type": "function"
    },
    {
      "inputs": [],
      "name": "burnSetter",
      "outputs": [
        {
          "internalType": "address",
          "name": "",
          "type": "address"
        }
      ],
      "stateMutability": "view",
      "type": "function"
    },
    {
      "inputs": [],
      "name": "buyStatus",
      "outputs": [
        {
          "internalType": "bool",
          "name": "",
          "type": "bool"
        }
      ],
      "stateMutability": "view",
      "type": "function"
    },
    {
      "inputs": [],
      "name": "decimals",
      "outputs": [
        {
          "internalType": "uint8",
          "name": "",
          "type": "uint8"
        }
      ],
      "stateMutability": "view",
      "type": "function"
    },
    {
      "inputs": [],
      "name": "deviceAddress",
      "outputs": [
        {
          "internalType": "address",
          "name": "",
          "type": "address"
        }
      ],
      "stateMutability": "view",
      "type": "function"
    },
    {
      "inputs": [
        {
          "internalType": "address",
          "name": "user",
          "type": "address"
        }
      ],
      "name": "isWhiteListed",
      "outputs": [
        {
          "internalType": "bool",
          "name": "",
          "type": "bool"
        }
      ],
      "stateMutability": "view",
      "type": "function"
    },
    {
      "inputs": [],
      "name": "lastBurnTime",
      "outputs": [
        {
          "internalType": "uint256",
          "name": "",
          "type": "uint256"
        }
      ],
      "stateMutability": "view",
      "type": "function"
    },
    {
      "inputs": [],
      "name": "name",
      "outputs": [
        {
          "internalType": "string",
          "name": "",
          "type": "string"
        }
      ],
      "stateMutability": "view",
      "type": "function"
    },
    {
      "inputs": [],
      "name": "operationAddress",
      "outputs": [
        {
          "internalType": "address",
          "name": "",
          "type": "address"
        }
      ],
      "stateMutability": "view",
      "type": "function"
    },
    {
      "inputs": [],
      "name": "owner",
      "outputs": [
        {
          "internalType": "address",
          "name": "",
          "type": "address"
        }
      ],
      "stateMutability": "view",
      "type": "function"
    },
    {
      "inputs": [],
      "name": "pair",
      "outputs": [
        {
          "internalType": "address",
          "name": "",
          "type": "address"
        }
      ],
      "stateMutability": "view",
      "type": "function"
    },
    {
      "inputs": [
        {
          "internalType": "address",
          "name": "user",
          "type": "address"
        }
      ],
      "name": "removeWhiteList",
      "outputs": [],
      "stateMutability": "nonpayable",
      "type": "function"
    },
    {
      "inputs": [],
      "name": "renounceOwnership",
      "outputs": [],
      "stateMutability": "nonpayable",
      "type": "function"
    },
    {
      "inputs": [],
      "name": "sellDeviceFeeRate",
      "outputs": [
        {
          "internalType": "uint256",
          "name": "",
          "type": "uint256"
        }
      ],
      "stateMutability": "view",
      "type": "function"
    },
    {
      "inputs": [],
      "name": "sellOperationFeeRate",
      "outputs": [
        {
          "internalType": "uint256",
          "name": "",
          "type": "uint256"
        }
      ],
      "stateMutability": "view",
      "type": "function"
    },
    {
      "inputs": [],
      "name": "sellStatus",
      "outputs": [
        {
          "internalType": "bool",
          "name": "",
          "type": "bool"
        }
      ],
      "stateMutability": "view",
      "type": "function"
    },
    {
      "inputs": [
        {
          "internalType": "address",
          "name": "_burnAddress",
          "type": "address"
        }
      ],
      "name": "setBurnAddress",
      "outputs": [],
      "stateMutability": "nonpayable",
      "type": "function"
    },
    {
      "inputs": [
        {
          "internalType": "address",
          "name": "_burnSetter",
          "type": "address"
        }
      ],
      "name": "setBurnSetter",
      "outputs": [],
      "stateMutability": "nonpayable",
      "type": "function"
    },
    {
      "inputs": [
        {
          "internalType": "bool",
          "name": "_status",
          "type": "bool"
        }
      ],
      "name": "setBuyStatus",
      "outputs": [],
      "stateMutability": "nonpayable",
      "type": "function"
    },
    {
      "inputs": [
        {
          "internalType": "address",
          "name": "_deviceAddress",
          "type": "address"
        }
      ],
      "name": "setDeviceAddress",
      "outputs": [],
      "stateMutability": "nonpayable",
      "type": "function"
    },
    {
      "inputs": [
        {
          "internalType": "address",
          "name": "_operationAddress",
          "type": "address"
        }
      ],
      "name": "setOperationAddress",
      "outputs": [],
      "stateMutability": "nonpayable",
      "type": "function"
    },
    {
      "inputs": [
        {
          "internalType": "uint256",
          "name": "_sellDeviceFeeRate",
          "type": "uint256"
        }
      ],
      "name": "setSellDeviceFeeRate",
      "outputs": [],
      "stateMutability": "nonpayable",
      "type": "function"
    },
    {
      "inputs": [
        {
          "internalType": "uint256",
          "name": "_sellOperationFeeRate",
          "type": "uint256"
        }
      ],
      "name": "setSellOperationFeeRate",
      "outputs": [],
      "stateMutability": "nonpayable",
      "type": "function"
    },
    {
      "inputs": [
        {
          "internalType": "bool",
          "name": "_status",
          "type": "bool"
        }
      ],
      "name": "setSellStatus",
      "outputs": [],
      "stateMutability": "nonpayable",
      "type": "function"
    },
    {
      "inputs": [],
      "name": "symbol",
      "outputs": [
        {
          "internalType": "string",
          "name": "",
          "type": "string"
        }
      ],
      "stateMutability": "view",
      "type": "function"
    },
    {
      "inputs": [],
      "name": "totalSupply",
      "outputs": [
        {
          "internalType": "uint256",
          "name": "",
          "type": "uint256"
        }
      ],
      "stateMutability": "view",
      "type": "function"
    },
    {
      "inputs": [
        {
          "internalType": "address",
          "name": "recipient",
          "type": "address"
        },
        {
          "internalType": "uint256",
          "name": "amount",
          "type": "uint256"
        }
      ],
      "name": "transfer",
      "outputs": [
        {
          "internalType": "bool",
          "name": "",
          "type": "bool"
        }
      ],
      "stateMutability": "nonpayable",
      "type": "function"
    },
    {
      "inputs": [
        {
          "internalType": "address",
          "name": "sender",
          "type": "address"
        },
        {
          "internalType": "address",
          "name": "recipient",
          "type": "address"
        },
        {
          "internalType": "uint256",
          "name": "amount",
          "type": "uint256"
        }
      ],
      "name": "transferFrom",
      "outputs": [
        {
          "internalType": "bool",
          "name": "",
          "type": "bool"
        }
      ],
      "stateMutability": "nonpayable",
      "type": "function"
    },
    {
      "inputs": [
        {
          "internalType": "address",
          "name": "newOwner",
          "type": "address"
        }
      ],
      "name": "transferOwnership",
      "outputs": [],
      "stateMutability": "nonpayable",
      "type": "function"
    },
    {
      "inputs": [
        {
          "internalType": "address",
          "name": "",
          "type": "address"
        }
      ],
      "name": "whiteList",
      "outputs": [
        {
          "internalType": "bool",
          "name": "",
          "type": "bool"
        }
      ],
      "stateMutability": "view",
      "type": "function"
    }
  ],
  "transactionHash": "0xef209a9c5159043aec777f3871980f48726c80fc80977a921491364528c0d5e1",
  "args": [
    "0xb680ad3b50143500a785388fa0a9dd084697ea5e",
    "0xc53DDE6CEc19907182E129A1771dc35690c21890",
    "0x1e0f55df4f48a6008ac848f7a3e2587ccdba2305",
    "0xb680ad3b50143500a785388fa0a9dd084697ea5e"
  ],
  "numDeployments": 1,
  "solcInputHash": "4b7cd45c6dad58cbac3a5ac8a01797ac",
  "bytecode": "0x60a060409080825234620004fe5760808162002388803803809162000025828562000503565b833981010312620004fe576200003b816200053d565b906020916200004c8383016200053d565b90620000686060620000608786016200053d565b94016200053d565b903315620004e657600080546001600160a01b03198082163390811784558951939791956001600160a01b03959294929390919086167f8be0079c531659141344cd1fd0a4f28419497f9722a3daafe3b4186f6b6457e08a80a3600354956001968781811c91168015620004db575b8b821014620004c757601f811162000498575b5060066250444160e81b01948560035560049586548981811c911680156200048d575b8d8210146200047a57601f81116200044c575b50865560ff199860128a60055416176005556aadb53acfa41aee1200000060065587600a54966014600b55601e600c55169485156200040b57508716908115620003c85787169283156200038557871693841562000342578260075416176007558160085416176008556009541617600955600160a81b9160018060b01b0319161717600a5586519063c45a015560e01b8252868282817310ed43c718714eb63d5aa57b78b54704e256024e5afa9182156200033857908792918792620002f1575b50604490878a5195869485936364e329cb60e11b855230908501527355d398326f99059ff775485246999027b31979556024850152165af1908115620002e7578491620002a6575b5060805260065433845281855285842055600e84528483209182541617905542600d557fddf252ad1be2c89b69c2b068fc378daa952ba7f163c4a11628f55a4df523b3ef6006549284519384523393a351611e35908162000553823960805181818161052f0152818161090f015281816113e00152611b8b0152f35b90508481813d8311620002df575b620002c0818362000503565b81010312620002db57620002d4906200053d565b386200022a565b8380fd5b503d620002b4565b86513d86823e3d90fd5b8092508391933d831162000330575b6200030c818362000503565b810103126200032c579060446200032488936200053d565b9190620001e2565b8580fd5b503d62000300565b88513d88823e3d90fd5b8c5162461bcd60e51b81528088018d9052601b60248201527f496e76616c6964206275726e20736574746572206164647265737300000000006044820152606490fd5b8c5162461bcd60e51b81528088018d9052601660248201527f496e76616c6964206465766963652061646472657373000000000000000000006044820152606490fd5b8c5162461bcd60e51b81528088018d9052601960248201527f496e76616c6964206f7065726174696f6e2061646472657373000000000000006044820152606490fd5b62461bcd60e51b81528781018d9052601460248201527f496e76616c6964206275726e20616464726573730000000000000000000000006044820152606490fd5b89601f8e8e8b815220920160051c8201915b8281106200046e57505062000120565b8d8155018a906200045e565b634e487b7160e01b8c526022885260248cfd5b90607f16906200010d565b60038a5287601f8c8c20920160051c8201915b828110620004bb575050620000ea565b8b8155018890620004ab565b634e487b7160e01b8a52602260045260248afd5b90607f1690620000d7565b8551631e4fbdf760e01b815260006004820152602490fd5b600080fd5b601f909101601f19168101906001600160401b038211908210176200052757604052565b634e487b7160e01b600052604160045260246000fd5b51906001600160a01b0382168203620004fe5756fe608060408181526004918236101561001657600080fd5b600092833560e01c91826306fdde0314610efd57508163095ea7b314610ed35781630d02e05c14610e8d57816318160ddd14610e6e5781632042e5c214610e2e57816323b872dd14610d69578163313ce56714610d4757816332fe7b2614610d185781633415650e14610cf1578163372c12b114610be5578163413d29ab14610cd25781634b0e721614610c865781634e6fd6c414610c695781635b4be32b14610c235781636f9170f614610be557816370a0823114610bad57816370d5ae0514610b84578163715018a614610b2a5781637b1648e214610b0c5781638b6116ae14610adc5781638da5cb5b14610ab457816395d89b41146109af578163975798251461098657816397bcd18414610967578163a441c3021461093e578163a8aa1b31146108fa578163a9059cbb146108c9578163b1d0b725146108a2578163bcb04de114610849578163c015ef3c146107bb578163c364e1d5146104ef578163c54e44eb146104c0578163c955542914610490578163ca2a625314610444578163cd059237146103ca578163d53ce9561461037b578163dd62ed3e14610332578163e306744914610313578163e6a957e7146102f7578163e7cd4a04146102a9578163f2fde38b1461021e575063f81e5a9a146101f357600080fd5b3461021a578160031936011261021a57600a5490516001600160a01b039091168152602090f35b5080fd5b9050346102a55760203660031901126102a55761023961103b565b9061024261135f565b6001600160a01b0391821692831561028f57505082546001600160a01b0319811683178455167f8be0079c531659141344cd1fd0a4f28419497f9722a3daafe3b4186f6b6457e08380a380f35b51631e4fbdf760e01b8152908101849052602490fd5b8280fd5b50503461021a57602036600319011261021a576102c461103b565b6102cc61135f565b6001600160a01b03166102e081151561121f565b8252600e6020528120805460ff1916600117905580f35b50503461021a578160031936011261021a576020905160148152f35b50503461021a578160031936011261021a57602090600d549051908152f35b50503461021a578060031936011261021a578060209261035061103b565b610358611056565b6001600160a01b0391821683526002865283832091168252845220549051908152f35b83346103c75760203660031901126103c75761039561103b565b61039d61135f565b6001600160a01b03166103b1811515611114565b6001600160601b0360a01b600854161760085580f35b80fd5b50503461021a576103da3661106c565b91906103e461135f565b835b8381106103f1578480f35b6001906001600160a01b0361041b8161041361040e858a896111a5565b6111cb565b16151561121f565b61042961040e8388876111a5565b168652600e602052838620805460ff191683179055016103e6565b83346103c75760203660031901126103c75761045e61103b565b61046661135f565b6001600160a01b031661047a811515611114565b6001600160601b0360a01b600954161760095580f35b83903461021a57602036600319011261021a57356104ac61135f565b6104ba6103e8821115611159565b600c5580f35b50503461021a578160031936011261021a57602090517355d398326f99059ff775485246999027b31979558152f35b83833461021a578160031936011261021a57600a546001600160a01b0392908316330361077857600d5462015180810180911161076557421061072257827f00000000000000000000000000000000000000000000000000000000000000001693848252602094600186528383205480156106eb57601481029081046014036106d8576103e8900494851561069d57818660011c9161058e83896110f1565b9282875260018a528787206105a48a82546110f1565b905580610665575b508883610626575b5050505042600d55803b156102a557908280928286518096819363fff6cae960e01b83525af1801561061c576105ee575b50505051908152f35b67ffffffffffffffff831161060957505081528380806105e5565b634e487b7160e01b825260419052602490fd5b84513d84823e3d90fd5b81600080516020611e09833981519152926007541688526001825288882061064f8682546111df565b905560075416938851908152a3868181886105b4565b82600080516020611e098339815191528b61dead93848b52600182528b8b2061068f8282546111df565b90558b51908152a3896105ac565b845162461bcd60e51b81528084018890526015602482015274109d5c9b88185b5bdd5b9d081d1bdbc81cdb585b1b605a1b6044820152606490fd5b634e487b7160e01b845260118352602484fd5b845162461bcd60e51b81528084018890526011602482015270139bc81d1bdad95b9cc81a5b881c1bdbdb607a1b6044820152606490fd5b815162461bcd60e51b8152602081860152601960248201527f4275726e20696e74657276616c206e6f742072656163686564000000000000006044820152606490fd5b634e487b7160e01b825260118552602482fd5b815162461bcd60e51b8152602081860152601960248201527f4f6e6c79206275726e207365747465722063616e2063616c6c000000000000006044820152606490fd5b9050346102a55760203660031901126102a5576107d661103b565b6107de61135f565b6001600160a01b03169182156108065750506001600160601b0360a01b600a541617600a5580f35b906020606492519162461bcd60e51b8352820152601b60248201527f496e76616c6964206275726e20736574746572206164647265737300000000006044820152fd5b50503461021a576108593661106c565b919061086361135f565b835b838110610870578480f35b6001906001600160a01b0361088961040e8388876111a5565b168652600e602052838620805460ff1916905501610865565b50503461021a578160031936011261021a5760209060ff600a5460a81c1690519015158152f35b50503461021a578060031936011261021a576020906108f36108e961103b565b602435903361138b565b5160018152f35b50503461021a578160031936011261021a57517f00000000000000000000000000000000000000000000000000000000000000006001600160a01b03168152602090f35b50503461021a578160031936011261021a5760085490516001600160a01b039091168152602090f35b50503461021a578160031936011261021a57602090600c549051908152f35b50503461021a578160031936011261021a5760095490516001600160a01b039091168152602090f35b83833461021a578160031936011261021a5780519180938054916001908360011c9260018516948515610aaa575b6020958686108114610a9757858952908115610a735750600114610a1b575b610a178787610a0d828c03836110b9565b5191829182610ff2565b0390f35b81529295507f8a35acfbc15ff81a39ae7d344fd709f28e8600b4aa8c65c6b64bfe7fe36bd19b5b828410610a605750505082610a1794610a0d928201019486806109fc565b8054868501880152928601928101610a42565b60ff19168887015250505050151560051b8301019250610a0d82610a1786806109fc565b634e487b7160e01b845260228352602484fd5b93607f16936109dd565b50503461021a578160031936011261021a57905490516001600160a01b039091168152602090f35b83903461021a57602036600319011261021a5735610af861135f565b610b066103e8821115611159565b600b5580f35b50503461021a578160031936011261021a5760209051620151808152f35b83346103c757806003193601126103c757610b4361135f565b80546001600160a01b03198116825581906001600160a01b03167f8be0079c531659141344cd1fd0a4f28419497f9722a3daafe3b4186f6b6457e08280a380f35b50503461021a578160031936011261021a5760075490516001600160a01b039091168152602090f35b50503461021a57602036600319011261021a5760209181906001600160a01b03610bd561103b565b1681526001845220549051908152f35b50503461021a57602036600319011261021a5760209160ff9082906001600160a01b03610c1061103b565b168152600e855220541690519015158152f35b83903461021a57602036600319011261021a573580151580910361021a57610c4961135f565b600a805460ff60a81b191660a89290921b60ff60a81b1691909117905580f35b50503461021a578160031936011261021a576020905161dead8152f35b83346103c75760203660031901126103c757610ca061103b565b610ca861135f565b6001600160a01b0316610cbc811515611114565b6001600160601b0360a01b600754161760075580f35b50503461021a578160031936011261021a57602090600b549051908152f35b50503461021a578160031936011261021a5760209060ff600a5460a01c1690519015158152f35b50503461021a578160031936011261021a57602090517310ed43c718714eb63d5aa57b78b54704e256024e8152f35b50503461021a578160031936011261021a5760209060ff600554169051908152f35b905082346103c75760603660031901126103c757610d8561103b565b91610d8e611056565b846044359360018060a01b03861681526002602052818120338252602052205491838310610dda576020866108f387610dd28888610dcd828a8661138b565b6110f1565b90339061125d565b608490602087519162461bcd60e51b8352820152602860248201527f45524332303a207472616e7366657220616d6f756e74206578636565647320616044820152676c6c6f77616e636560c01b6064820152fd5b50503461021a57602036600319011261021a57610e4961103b565b610e5161135f565b6001600160a01b03168252600e6020528120805460ff1916905580f35b50503461021a578160031936011261021a576020906006549051908152f35b83903461021a57602036600319011261021a573580151580910361021a57610eb361135f565b600a805460ff60a01b191660a09290921b60ff60a01b1691909117905580f35b50503461021a578060031936011261021a576020906108f3610ef361103b565b602435903361125d565b92915034610fee5783600319360112610fee57600354600181811c9186908281168015610fe4575b6020958686108214610fd15750848852908115610faf5750600114610f56575b610a178686610a0d828b03836110b9565b929550600383527fc2575a0e9e593c00f959f8c92f12db2869c3395a3b0502d05e2516446f71f85b5b828410610f9c5750505082610a1794610a0d928201019438610f45565b8054868501880152928601928101610f7f565b60ff191687860152505050151560051b8301019250610a0d82610a1738610f45565b634e487b7160e01b845260229052602483fd5b93607f1693610f25565b8380fd5b6020808252825181830181905290939260005b82811061102757505060409293506000838284010152601f8019910116010190565b818101860151848201604001528501611005565b600435906001600160a01b038216820361105157565b600080fd5b602435906001600160a01b038216820361105157565b9060206003198301126110515760043567ffffffffffffffff9283821161105157806023830112156110515781600401359384116110515760248460051b83010111611051576024019190565b90601f8019910116810190811067ffffffffffffffff8211176110db57604052565b634e487b7160e01b600052604160045260246000fd5b919082039182116110fe57565b634e487b7160e01b600052601160045260246000fd5b1561111b57565b60405162461bcd60e51b8152602060048201526016602482015275125b9d985b1a59081c9958d95a5d99481dd85b1b195d60521b6044820152606490fd5b1561116057565b60405162461bcd60e51b815260206004820152601b60248201527f46656520726174652063616e6e6f7420657863656564203130302500000000006044820152606490fd5b91908110156111b55760051b0190565b634e487b7160e01b600052603260045260246000fd5b356001600160a01b03811681036110515790565b919082018092116110fe57565b818102929181159184041417156110fe57565b8115611209570490565b634e487b7160e01b600052601260045260246000fd5b1561122657565b60405162461bcd60e51b815260206004820152600f60248201526e496e76616c6964206164647265737360881b6044820152606490fd5b6001600160a01b0390811691821561130e57169182156112be5760207f8c5be1e5ebec7d5bd14f71427d1e84f3dd0314c0f7b2291e5b200ac8c7c3b925918360005260028252604060002085600052825280604060002055604051908152a3565b60405162461bcd60e51b815260206004820152602260248201527f45524332303a20617070726f766520746f20746865207a65726f206164647265604482015261737360f01b6064820152608490fd5b60405162461bcd60e51b8152602060048201526024808201527f45524332303a20617070726f76652066726f6d20746865207a65726f206164646044820152637265737360e01b6064820152608490fd5b6000546001600160a01b0316330361137357565b60405163118cdaa760e01b8152336004820152602490fd5b9192916001600160a01b0391908216908115611b14578216918215611ac35760009482865260019160209280845260409183838a205410611a70578589528185528289206113da8582546110f1565b905583817f0000000000000000000000000000000000000000000000000000000000000000168088146118f2575b808914611442575b50505087829187600080516020611e098339815191529798999a528552206114398382546111df565b905551908152a3565b878b52600e875260ff858c205416611410578a809161145f611b7b565b91929161147f8583868e811515806118e9575b6118d2575b5090506111df565b8110156115cb575b505050505015611498575b80611410565b90935060ff600a5460a81c1615611587579782918587611501600080516020611e09833981519152999a9b9c6114f96103e891826114d8600b54836111ec565b04858c6114e583856110f1565b9883611549575b50505050600c54906111ec565b0480936110f1565b968883611519575b5050505091819998979650611492565b818b926009541687528582528787206115338682546111df565b905560095416938751908152a338888188611509565b600080516020611e098339815191529180600854168d528b82528d8d206115718682546111df565b905560085416938d51908152a338858c8e6114ec565b825162461bcd60e51b815260048101869052601d60248201527f4163636573732064656e6965643a2063616e27742073656c6c205044410000006044820152606490fd5b909192938095505088516318160ddd60e01b81526004958c828881885afa9182156118c6578192611897575b508a5163c45a015560e01b8152919485928e818a817310ed43c718714eb63d5aa57b78b54704e256024e5afa90811561186e578f90918a8f8e95948793611878575b5051622fcfcb60e31b81529485928391165afa91821561186e578f90918e8b93869561183f575b5051637464fc3d60e01b815292839182905afa92831561183457918b918f9998979695946117f8575b50879392911661171a575b505061169f916110f1565b92826116e7575050506116ba916116b5916111ec565b611ce8565b6103e7198101919082116116d457505b8a38808080611487565b634e487b7160e01b8c526011905260248bfd5b82955061170c94506117006117009361170593956111ec565b6111ff565b93896111ec565b9081808210911802186116ca565b80156116945790916117326116b586611738936111ec565b91611ce8565b808211611748575b869250611694565b909192939495965061176361175d82846110f1565b846111ec565b918260031b92808404600814901517156117e1576011810290808204601114901517156117e1578160031b91808304600814901517156117e15787969594926117b28f9995936117b8936111df565b906111ff565b90816117c7575b829350611740565b61169f93929550906117d8916111df565b939091386117bf565b5050505060248f601187634e487b7160e01b835252fd5b9392509750508d82813d831161182d575b61181381836110b9565b810103126118275790518c968a9087611689565b50508f80fd5b503d611809565b8d51903d90823e3d90fd5b611860919550833d8511611867575b61185881836110b9565b810190611cc9565b9338611660565b503d61184e565b8d513d85823e3d90fd5b611890919350843d86116118675761185881836110b9565b9138611639565b9091508c81813d83116118bf575b6118af81836110b9565b8101031261021a575190386115f7565b503d6118a5565b508a51903d90823e3d90fd5b6118e1935090611700916111ec565b83868e611477565b50821515611472565b8a6118fb611b7b565b905011156119df575b1561197c57888b52600e875260ff858c20541615611922575b611408565b6064820495508a8861193488856110f1565b8981611944575b50505050611408565b600080516020611e09833981519152918961dead958681528a84522061196b8282546111df565b90558951908152a38a88388961193b565b888b52600e875260ff858c2054166114085760ff600a5460a01c1661191d57845162461bcd60e51b815260048101889052601c60248201527f4163636573732064656e6965643a2063616e27742062757920504441000000006044820152606490fd5b5084516318160ddd60e01b81528b908881600481865afa908115611a665782918891869491611a2f575b50926117b291611a1c611a2a95836111ec565b93868152898d5220546110f1565b611904565b935050508882813d8311611a5f575b611a4881836110b9565b810103126103c757905183919087906117b2611a09565b503d611a3e565b87513d84823e3d90fd5b825162461bcd60e51b815260048101869052602660248201527f45524332303a207472616e7366657220616d6f756e7420657863656564732062604482015265616c616e636560d01b6064820152608490fd5b60405162461bcd60e51b815260206004820152602360248201527f45524332303a207472616e7366657220746f20746865207a65726f206164647260448201526265737360e81b6064820152608490fd5b60405162461bcd60e51b815260206004820152602560248201527f45524332303a207472616e736665722066726f6d20746865207a65726f206164604482015264647265737360d81b6064820152608490fd5b51906001600160701b038216820361105157565b604051630240bc6b60e21b8152907f00000000000000000000000000000000000000000000000000000000000000006001600160a01b031690606083600481855afa928315611c5b576000908194611c70575b506001600160701b03938416937355d398326f99059ff775485246999027b3197955911630821015611c675760209094935b6024604051809481936370a0823160e01b835260048301525afa908115611c5b57600091611c2c575090565b90506020813d602011611c53575b81611c47602093836110b9565b81010312611051575190565b3d9150611c3a565b6040513d6000823e3d90fd5b92602090611c00565b93506060843d606011611cc1575b81611c8b606093836110b9565b810103126103c757611c9c84611b67565b906040611cab60208701611b67565b95015163ffffffff8116036103c7575038611bce565b3d9150611c7e565b9081602091031261105157516001600160a01b03811681036110515790565b600180821115611e0457611da5908083600160801b811015611df2575b80600160401b6004921015611de5575b640100000000811015611dd8575b62010000811015611dcb575b610100811015611dbf575b6010811015611db3575b1015611dac575b600302811c611d5a81856111ff565b01811c611d6781856111ff565b01811c611d7481856111ff565b01811c611d8181856111ff565b01811c611d8e81856111ff565b01811c611d9b81856111ff565b01901c80926111ff565b8111900390565b811b611d4b565b811c9160021b91611d44565b60081c91811b91611d3a565b60101c9160081b91611d2f565b60201c9160101b91611d23565b60401c9160201b91611d15565b50600160401b9050608084901c611d05565b509056feddf252ad1be2c89b69c2b068fc378daa952ba7f163c4a11628f55a4df523b3efa164736f6c6343000816000a",
  "devdoc": {
    "errors": {
      "OwnableInvalidOwner(address)": [
        {
          "details": "The owner is not a valid owner account. (eg. `address(0)`)"
        }
      ],
      "OwnableUnauthorizedAccount(address)": [
        {
          "details": "The caller account is not authorized to perform an operation."
        }
      ]
    },
    "kind": "dev",
    "methods": {
      "owner()": {
        "details": "Returns the address of the current owner."
      },
      "renounceOwnership()": {
        "details": "Leaves the contract without owner. It will not be possible to call `onlyOwner` functions. Can only be called by the current owner. NOTE: Renouncing ownership will leave the contract without an owner, thereby disabling any functionality that is only available to the owner."
      },
      "transferOwnership(address)": {
        "details": "Transfers ownership of the contract to a new account (`newOwner`). Can only be called by the current owner."
      }
    },
    "version": 1
  },
  "userdoc": {
    "kind": "user",
    "methods": {},
    "version": 1
  },
  "storageLayout": {
    "storage": [
      {
        "astId": 8,
        "contract": "contracts/PDA.sol:PDA",
        "label": "_owner",
        "offset": 0,
        "slot": "0",
        "type": "t_address"
      },
      {
        "astId": 3631,
        "contract": "contracts/PDA.sol:PDA",
        "label": "_balances",
        "offset": 0,
        "slot": "1",
        "type": "t_mapping(t_address,t_uint256)"
      },
      {
        "astId": 3637,
        "contract": "contracts/PDA.sol:PDA",
        "label": "_allowances",
        "offset": 0,
        "slot": "2",
        "type": "t_mapping(t_address,t_mapping(t_address,t_uint256))"
      },
      {
        "astId": 3640,
        "contract": "contracts/PDA.sol:PDA",
        "label": "_name",
        "offset": 0,
        "slot": "3",
        "type": "t_string_storage"
      },
      {
        "astId": 3643,
        "contract": "contracts/PDA.sol:PDA",
        "label": "_symbol",
        "offset": 0,
        "slot": "4",
        "type": "t_string_storage"
      },
      {
        "astId": 3646,
        "contract": "contracts/PDA.sol:PDA",
        "label": "_decimals",
        "offset": 0,
        "slot": "5",
        "type": "t_uint8"
      },
      {
        "astId": 3656,
        "contract": "contracts/PDA.sol:PDA",
        "label": "_totalSupply",
        "offset": 0,
        "slot": "6",
        "type": "t_uint256"
      },
      {
        "astId": 3660,
        "contract": "contracts/PDA.sol:PDA",
        "label": "burnAddress",
        "offset": 0,
        "slot": "7",
        "type": "t_address"
      },
      {
        "astId": 3662,
        "contract": "contracts/PDA.sol:PDA",
        "label": "operationAddress",
        "offset": 0,
        "slot": "8",
        "type": "t_address"
      },
      {
        "astId": 3664,
        "contract": "contracts/PDA.sol:PDA",
        "label": "deviceAddress",
        "offset": 0,
        "slot": "9",
        "type": "t_address"
      },
      {
        "astId": 3666,
        "contract": "contracts/PDA.sol:PDA",
        "label": "burnSetter",
        "offset": 0,
        "slot": "10",
        "type": "t_address"
      },
      {
        "astId": 3678,
        "contract": "contracts/PDA.sol:PDA",
        "label": "buyStatus",
        "offset": 20,
        "slot": "10",
        "type": "t_bool"
      },
      {
        "astId": 3681,
        "contract": "contracts/PDA.sol:PDA",
        "label": "sellStatus",
        "offset": 21,
        "slot": "10",
        "type": "t_bool"
      },
      {
        "astId": 3684,
        "contract": "contracts/PDA.sol:PDA",
        "label": "sellOperationFeeRate",
        "offset": 0,
        "slot": "11",
        "type": "t_uint256"
      },
      {
        "astId": 3687,
        "contract": "contracts/PDA.sol:PDA",
        "label": "sellDeviceFeeRate",
        "offset": 0,
        "slot": "12",
        "type": "t_uint256"
      },
      {
        "astId": 3695,
        "contract": "contracts/PDA.sol:PDA",
        "label": "lastBurnTime",
        "offset": 0,
        "slot": "13",
        "type": "t_uint256"
      },
      {
        "astId": 3699,
        "contract": "contracts/PDA.sol:PDA",
        "label": "whiteList",
        "offset": 0,
        "slot": "14",
        "type": "t_mapping(t_address,t_bool)"
      }
    ],
    "types": {
      "t_address": {
        "encoding": "inplace",
        "label": "address",
        "numberOfBytes": "20"
      },
      "t_bool": {
        "encoding": "inplace",
        "label": "bool",
        "numberOfBytes": "1"
      },
      "t_mapping(t_address,t_bool)": {
        "encoding": "mapping",
        "key": "t_address",
        "label": "mapping(address => bool)",
        "numberOfBytes": "32",
        "value": "t_bool"
      },
      "t_mapping(t_address,t_mapping(t_address,t_uint256))": {
        "encoding": "mapping",
        "key": "t_address",
        "label": "mapping(address => mapping(address => uint256))",
        "numberOfBytes": "32",
        "value": "t_mapping(t_address,t_uint256)"
      },
      "t_mapping(t_address,t_uint256)": {
        "encoding": "mapping",
        "key": "t_address",
        "label": "mapping(address => uint256)",
        "numberOfBytes": "32",
        "value": "t_uint256"
      },
      "t_string_storage": {
        "encoding": "bytes",
        "label": "string",
        "numberOfBytes": "32"
      },
      "t_uint256": {
        "encoding": "inplace",
        "label": "uint256",
        "numberOfBytes": "32"
      },
      "t_uint8": {
        "encoding": "inplace",
        "label": "uint8",
        "numberOfBytes": "1"
      }
    }
  }
}