{
  "address": "0x7a26809b285a962b72a5cacbdA7Dd0a17267C4a2",
  "abi": [
    {
      "inputs": [],
      "stateMutability": "nonpayable",
      "type": "constructor"
    },
    {
      "inputs": [
        {
          "internalType": "address",
          "name": "target",
          "type": "address"
        }
      ],
      "name": "AddressEmptyCode",
      "type": "error"
    },
    {
      "inputs": [
        {
          "internalType": "address",
          "name": "implementation",
          "type": "address"
        }
      ],
      "name": "ERC1967InvalidImplementation",
      "type": "error"
    },
    {
      "inputs": [],
      "name": "ERC1967NonPayable",
      "type": "error"
    },
    {
      "inputs": [],
      "name": "FailedCall",
      "type": "error"
    },
    {
      "inputs": [],
      "name": "InvalidInitialization",
      "type": "error"
    },
    {
      "inputs": [],
      "name": "NotInitializing",
      "type": "error"
    },
    {
      "inputs": [
        {
          "internalType": "address",
          "name": "owner",
          "type": "address"
        }
      ],
      "name": "OwnableInvalidOwner",
      "type": "error"
    },
    {
      "inputs": [
        {
          "internalType": "address",
          "name": "account",
          "type": "address"
        }
      ],
      "name": "OwnableUnauthorizedAccount",
      "type": "error"
    },
    {
      "inputs": [],
      "name": "ReentrancyGuardReentrantCall",
      "type": "error"
    },
    {
      "inputs": [],
      "name": "UUPSUnauthorizedCallContext",
      "type": "error"
    },
    {
      "inputs": [
        {
          "internalType": "bytes32",
          "name": "slot",
          "type": "bytes32"
        }
      ],
      "name": "UUPSUnsupportedProxiableUUID",
      "type": "error"
    },
    {
      "anonymous": false,
      "inputs": [
        {
          "indexed": true,
          "internalType": "address",
          "name": "user",
          "type": "address"
        },
        {
          "indexed": false,
          "internalType": "uint256",
          "name": "amount",
          "type": "uint256"
        },
        {
          "indexed": false,
          "internalType": "uint8",
          "name": "level",
          "type": "uint8"
        }
      ],
      "name": "CommissionPaid",
      "type": "event"
    },
    {
      "anonymous": false,
      "inputs": [
        {
          "indexed": true,
          "internalType": "address",
          "name": "user",
          "type": "address"
        },
        {
          "indexed": false,
          "internalType": "uint256",
          "name": "amount",
          "type": "uint256"
        },
        {
          "indexed": true,
          "internalType": "address",
          "name": "referrer",
          "type": "address"
        }
      ],
      "name": "Deposited",
      "type": "event"
    },
    {
      "anonymous": false,
      "inputs": [
        {
          "indexed": false,
          "internalType": "uint64",
          "name": "version",
          "type": "uint64"
        }
      ],
      "name": "Initialized",
      "type": "event"
    },
    {
      "anonymous": false,
      "inputs": [
        {
          "indexed": true,
          "internalType": "address",
          "name": "owner",
          "type": "address"
        },
        {
          "indexed": false,
          "internalType": "address",
          "name": "referral",
          "type": "address"
        },
        {
          "indexed": false,
          "internalType": "address",
          "name": "liquidityMgr",
          "type": "address"
        }
      ],
      "name": "Initialized",
      "type": "event"
    },
    {
      "anonymous": false,
      "inputs": [
        {
          "indexed": true,
          "internalType": "address",
          "name": "user",
          "type": "address"
        },
        {
          "indexed": false,
          "internalType": "uint256",
          "name": "usdtAmount",
          "type": "uint256"
        },
        {
          "indexed": false,
          "internalType": "uint256",
          "name": "lpAmount",
          "type": "uint256"
        }
      ],
      "name": "LiquidityAdded",
      "type": "event"
    },
    {
      "anonymous": false,
      "inputs": [
        {
          "indexed": true,
          "internalType": "address",
          "name": "previousOwner",
          "type": "address"
        },
        {
          "indexed": true,
          "internalType": "address",
          "name": "newOwner",
          "type": "address"
        }
      ],
      "name": "OwnershipTransferred",
      "type": "event"
    },
    {
      "anonymous": false,
      "inputs": [
        {
          "indexed": true,
          "internalType": "address",
          "name": "implementation",
          "type": "address"
        }
      ],
      "name": "Upgraded",
      "type": "event"
    },
    {
      "inputs": [],
      "name": "MAX_DEPOSIT",
      "outputs": [
        {
          "internalType": "uint256",
          "name": "",
          "type": "uint256"
        }
      ],
      "stateMutability": "view",
      "type": "function"
    },
    {
      "inputs": [],
      "name": "MIN_DEPOSIT",
      "outputs": [
        {
          "internalType": "uint256",
          "name": "",
          "type": "uint256"
        }
      ],
      "stateMutability": "view",
      "type": "function"
    },
    {
      "inputs": [],
      "name": "UPGRADE_INTERFACE_VERSION",
      "outputs": [
        {
          "internalType": "string",
          "name": "",
          "type": "string"
        }
      ],
      "stateMutability": "view",
      "type": "function"
    },
    {
      "inputs": [],
      "name": "USDT",
      "outputs": [
        {
          "internalType": "address",
          "name": "",
          "type": "address"
        }
      ],
      "stateMutability": "view",
      "type": "function"
    },
    {
      "inputs": [],
      "name": "dappAddress",
      "outputs": [
        {
          "internalType": "address",
          "name": "",
          "type": "address"
        }
      ],
      "stateMutability": "view",
      "type": "function"
    },
    {
      "inputs": [
        {
          "internalType": "uint256",
          "name": "amount",
          "type": "uint256"
        },
        {
          "internalType": "address",
          "name": "referrer",
          "type": "address"
        }
      ],
      "name": "deposit",
      "outputs": [],
      "stateMutability": "nonpayable",
      "type": "function"
    },
    {
      "inputs": [
        {
          "internalType": "address",
          "name": "",
          "type": "address"
        }
      ],
      "name": "depositCount",
      "outputs": [
        {
          "internalType": "uint256",
          "name": "",
          "type": "uint256"
        }
      ],
      "stateMutability": "view",
      "type": "function"
    },
    {
      "inputs": [
        {
          "internalType": "address",
          "name": "token",
          "type": "address"
        },
        {
          "internalType": "uint256",
          "name": "amount",
          "type": "uint256"
        }
      ],
      "name": "emergencyWithdraw",
      "outputs": [],
      "stateMutability": "nonpayable",
      "type": "function"
    },
    {
      "inputs": [
        {
          "internalType": "address",
          "name": "user",
          "type": "address"
        }
      ],
      "name": "getMaxLevel",
      "outputs": [
        {
          "internalType": "uint256",
          "name": "",
          "type": "uint256"
        }
      ],
      "stateMutability": "view",
      "type": "function"
    },
    {
      "inputs": [
        {
          "internalType": "address",
          "name": "user",
          "type": "address"
        }
      ],
      "name": "getReferrals",
      "outputs": [
        {
          "internalType": "address[]",
          "name": "",
          "type": "address[]"
        }
      ],
      "stateMutability": "view",
      "type": "function"
    },
    {
      "inputs": [
        {
          "internalType": "address",
          "name": "user",
          "type": "address"
        }
      ],
      "name": "getReferrer",
      "outputs": [
        {
          "internalType": "address",
          "name": "",
          "type": "address"
        }
      ],
      "stateMutability": "view",
      "type": "function"
    },
    {
      "inputs": [
        {
          "internalType": "address",
          "name": "_referralContract",
          "type": "address"
        },
        {
          "internalType": "address",
          "name": "_liquidityManager",
          "type": "address"
        },
        {
          "internalType": "address",
          "name": "_operationAddress",
          "type": "address"
        },
        {
          "internalType": "address",
          "name": "_dappAddress",
          "type": "address"
        }
      ],
      "name": "initialize",
      "outputs": [],
      "stateMutability": "nonpayable",
      "type": "function"
    },
    {
      "inputs": [],
      "name": "liquidityManager",
      "outputs": [
        {
          "internalType": "contract IPDALiquidityManager",
          "name": "",
          "type": "address"
        }
      ],
      "stateMutability": "view",
      "type": "function"
    },
    {
      "inputs": [],
      "name": "operationAddress",
      "outputs": [
        {
          "internalType": "address",
          "name": "",
          "type": "address"
        }
      ],
      "stateMutability": "view",
      "type": "function"
    },
    {
      "inputs": [],
      "name": "owner",
      "outputs": [
        {
          "internalType": "address",
          "name": "",
          "type": "address"
        }
      ],
      "stateMutability": "view",
      "type": "function"
    },
    {
      "inputs": [],
      "name": "proxiableUUID",
      "outputs": [
        {
          "internalType": "bytes32",
          "name": "",
          "type": "bytes32"
        }
      ],
      "stateMutability": "view",
      "type": "function"
    },
    {
      "inputs": [],
      "name": "referralContract",
      "outputs": [
        {
          "internalType": "contract IPDAReferral",
          "name": "",
          "type": "address"
        }
      ],
      "stateMutability": "view",
      "type": "function"
    },
    {
      "inputs": [],
      "name": "renounceOwnership",
      "outputs": [],
      "stateMutability": "nonpayable",
      "type": "function"
    },
    {
      "inputs": [
        {
          "internalType": "address",
          "name": "_dappAddress",
          "type": "address"
        }
      ],
      "name": "setDappAddress",
      "outputs": [],
      "stateMutability": "nonpayable",
      "type": "function"
    },
    {
      "inputs": [
        {
          "internalType": "address",
          "name": "_liquidityManager",
          "type": "address"
        }
      ],
      "name": "setLiquidityManager",
      "outputs": [],
      "stateMutability": "nonpayable",
      "type": "function"
    },
    {
      "inputs": [
        {
          "internalType": "address",
          "name": "_operationAddress",
          "type": "address"
        }
      ],
      "name": "setOperationAddress",
      "outputs": [],
      "stateMutability": "nonpayable",
      "type": "function"
    },
    {
      "inputs": [
        {
          "internalType": "address",
          "name": "",
          "type": "address"
        }
      ],
      "name": "totalDeposited",
      "outputs": [
        {
          "internalType": "uint256",
          "name": "",
          "type": "uint256"
        }
      ],
      "stateMutability": "view",
      "type": "function"
    },
    {
      "inputs": [
        {
          "internalType": "address",
          "name": "newOwner",
          "type": "address"
        }
      ],
      "name": "transferOwnership",
      "outputs": [],
      "stateMutability": "nonpayable",
      "type": "function"
    },
    {
      "inputs": [
        {
          "internalType": "address",
          "name": "newImplementation",
          "type": "address"
        },
        {
          "internalType": "bytes",
          "name": "data",
          "type": "bytes"
        }
      ],
      "name": "upgradeToAndCall",
      "outputs": [],
      "stateMutability": "payable",
      "type": "function"
    }
  ],
  "transactionHash": "0xdb0eb8e33f5652fd614457f5eabb1072210f29078c27fffa096a5d6925a241c4",
  "numDeployments": 1,
  "bytecode": "0x60a080604052346100cc57306080527ff0c57e16840df040f15088dc2f81fe391c3923bec73e23a9662efc9c229c6a009081549060ff8260401c166100bd57506001600160401b036002600160401b031982821601610078575b604051611cd490816100d28239608051818181610f4a01526110290152f35b6001600160401b031990911681179091556040519081527fc7f505b2f371ae2175ee4913f4499e1f2633a7b5936321eed1cdaeb6115181d290602090a1388080610059565b63f92ee8a960e01b8152600490fd5b600080fdfe6080604081815260048036101561001557600080fd5b600092833560e01c9081631a721b7b146115155750806333827438146114ec5780633c1624d41461145557806341a0894d146112fe57806348aa44dd146112b25780634a9fefc7146112145780634f1ef28614610fae57806352d1902d14610f355780635305548114610f005780636e553f651461084a578063715018a6146107df57806375d20f3b146107485780637dad19db146107205780638da5cb5b146106ea57806395ccea67146105f4578063a441c302146105cb578063ad3cb1cc1461052b578063c54e44eb146104fc578063d53ce956146104b0578063dd5967c31461048e578063e1e158a51461046c578063f2fde38b1461043c578063f4443d9a146104005763f8c8765e1461012b57600080fd5b346103fc5760803660031901126103fc5761014461153a565b9061014d611550565b6001600160a01b03604435818116949192908590036103f7576064358381168091036103f7577ff0c57e16840df040f15088dc2f81fe391c3923bec73e23a9662efc9c229c6a009586549560ff878a1c16159567ffffffffffffffff8816978815806103f0575b6001809a1490816103e6575b1590816103dd575b506103cd5767ffffffffffffffff19811689178a55876103ae575b5080861690811561036b5785169182156103285750826102dc94928c9261022d7fad307780531f6353137c35adc50ad58d71b76e76aa891e729387f2e720f2de209896151561166f565b6102388515156115e2565b610240611c03565b610248611c03565b610251336116bb565b610259611c03565b610261611c03565b610269611c03565b8a7f9b779b17422d0df92223018b32b4d1fa46e071723d6817e2486d003becc55f00556001600160601b0360a01b80945416178d55828a54161789558160025416176002556003541617600355875191829133958390602090939293604083019460018060a01b03809216845216910152565b0390a26102e7578380f35b7fc7f505b2f371ae2175ee4913f4499e1f2633a7b5936321eed1cdaeb6115181d29260209268ff000000000000000019815416905551908152a13880808380f35b60649060208c519162461bcd60e51b8352820152601960248201527f496e76616c6964206c6971756964697479206d616e61676572000000000000006044820152fd5b8a5162461bcd60e51b8152602081850152601960248201527f496e76616c696420726566657272616c20636f6e7472616374000000000000006044820152606490fd5b68ffffffffffffffffff191668010000000000000001178955386101e3565b8a5163f92ee8a960e01b81528390fd5b905015386101c8565b303b1591506101c0565b50876101b4565b600080fd5b8280fd5b5050346104385760203660031901126104385760209181906001600160a01b0361042861153a565b1681526005845220549051908152f35b5080fd5b83346104695760203660031901126104695761046661045961153a565b61046161172f565b6116bb565b80f35b80fd5b5050346104385781600319360112610438576020905166038d7ea4c680008152f35b50503461043857816003193601126104385760209051662386f26fc100008152f35b8334610469576020366003190112610469576104ca61153a565b6104d261172f565b6001600160a01b03166104e681151561166f565b6001600160601b0360a01b600254161760025580f35b505034610438578160031936011261043857602090517355d398326f99059ff775485246999027b31979558152f35b50346103fc57826003193601126103fc578151908282019082821067ffffffffffffffff8311176105b65750825260058152602090640352e302e360dc1b6020820152825193849260208452825192836020860152825b8481106105a057505050828201840152601f01601f19168101030190f35b8181018301518882018801528795508201610582565b604190634e487b7160e01b6000525260246000fd5b50503461043857816003193601126104385760025490516001600160a01b039091168152602090f35b5090346103fc57806003193601126103fc5761060e61153a565b61061661172f565b600080516020611ca883398151915254825163a9059cbb60e01b81526001600160a01b03918216858201908152602435602082810191909152919391928492918391899183906040010393165af19081156106e05784916106b1575b501561067c578280f35b906020606492519162461bcd60e51b8352820152600f60248201526e151c985b9cd9995c8819985a5b1959608a1b6044820152fd5b6106d3915060203d6020116106d9575b6106cb8183611590565b810190611625565b38610672565b503d6106c1565b82513d86823e3d90fd5b505034610438578160031936011261043857600080516020611ca88339815191525490516001600160a01b039091168152602090f35b505034610438578160031936011261043857905490516001600160a01b039091168152602090f35b5091903461043857602092836003193601126103fc578361076761153a565b845484516375d20f3b60e01b81526001600160a01b039283169481019490945283916024918391165afa9283156107d457926107a5575b5051908152f35b9091508281813d83116107cd575b6107bd8183611590565b810103126103f75751903861079e565b503d6107b3565b8251903d90823e3d90fd5b83346104695780600319360112610469576107f861172f565b600080516020611ca883398151915280546001600160a01b031981169091556000906001600160a01b03167f8be0079c531659141344cd1fd0a4f28419497f9722a3daafe3b4186f6b6457e08280a380f35b50346103fc57816003193601126103fc578035610865611550565b907f9b779b17422d0df92223018b32b4d1fa46e071723d6817e2486d003becc55f00926002845414610ef2576002845566038d7ea4c6800082101580610ee1575b15610ea55785548551630308a59b60e31b815233818401526001600160a01b0396602095602494919391929189169187818781865afa908115610dd0578b91610e88575b5015610dda575b505081516323b872dd60e01b815233828201523084820152604481018590527355d398326f99059ff775485246999027b319795590606490878183818e875af1908115610dd0578b91610db3575b5015610d7d578989815416803b156104385781809188885180948193632d2b3f8760e21b8352338b8401525af18015610d7357610d5b575b5050338a52828752838a2061098d87825461163d565b9055338a5260058752838a206109a38154611660565b90556109af8633611768565b5060058602861590878104600514821715610d4957600254865163a9059cbb60e01b808252918d166001600160a01b031687820190815292859004602084015290918a9082908f90829081906040010391895af1908115610d3f578d91610d22575b5015610ce157600a8802888104600a14831715610ccf5760035487519283526001600160a01b03908d161686830190815290849004602082015289908290819003604001818f885af1908115610cc5578c91610ca8575b5015610c7157603c870290878204603c141715610c5f57600154855163095ea7b360e01b8152908b166001600160a01b031685820190815292909104602083018190529290918891839182908e90829060400103925af18015610c3857610c42575b50600154835163324741e760e21b815233848201908152602081018490529091889183918c169082908e90829060400103925af1908115610c385790879392918b91610c09575b508451918252838201527fac1d76749e5447b7b16f5ab61447e1bd502f3bb4807af3b28e620d1700a6ee45843392a2878954169383518095819363167801e160e11b835233908301525afa918215610bff578792610b9e575b50947fb4e1304f97b5093610f51b33ddab6622388422e2dac138b0d32f93dcfbd39edf916001965193845216923392a35580f35b9150948382813d8311610bf8575b610bb68183611590565b81010312610bf457600195610beb7fb4e1304f97b5093610f51b33ddab6622388422e2dac138b0d32f93dcfbd39edf936115ce565b92509095610b6a565b8680fd5b503d610bac565b81513d89823e3d90fd5b84819592503d8311610c31575b610c208183611590565b810103126103f75786925138610b11565b503d610c16565b84513d8c823e3d90fd5b610c5890873d89116106d9576106cb8183611590565b5038610aca565b634e487b7160e01b8b5260118452858bfd5b50835162461bcd60e51b81528084018890526014818701527311185c1c081d1c985b9cd9995c8819985a5b195960621b6044820152fd5b610cbf9150893d8b116106d9576106cb8183611590565b38610a68565b86513d8e823e3d90fd5b634e487b7160e01b8d5260118652878dfd5b855162461bcd60e51b81528086018a90526019818901527f4f7065726174696f6e207472616e73666572206661696c65640000000000000060448201528390fd5b610d3991508a3d8c116106d9576106cb8183611590565b38610a11565b87513d8f823e3d90fd5b634e487b7160e01b8c5260118552868cfd5b610d6490611566565b610d6f578938610977565b8980fd5b86513d84823e3d90fd5b835162461bcd60e51b8152808401889052601481870152731554d115081d1c985b9cd9995c8819985a5b195960621b6044820152fd5b610dca9150883d8a116106d9576106cb8183611590565b3861093f565b85513d8d823e3d90fd5b88811615610e4e57908991813b156103fc578451637e540b2b60e01b8152338582019081526001600160a01b0390921660208301529291839182908490829060400103925af18015610e4457610e31575b806108f1565b610e3d90989198611566565b9638610e2b565b83513d8b823e3d90fd5b835162461bcd60e51b81528084018890526015818701527426bab9ba10383937bb34b232903932b332b93932b960591b6044820152606490fd5b610e9f9150883d8a116106d9576106cb8183611590565b386108ea565b606490602086519162461bcd60e51b83528201526016602482015275125b9d985b1a590819195c1bdcda5d08185b5bdd5b9d60521b6044820152fd5b50662386f26fc100008211156108a6565b8451633ee5aeb560e01b8152fd5b50346103fc5760203660031901126103fc5760209282916001600160a01b03610f2761153a565b168252845220549051908152f35b509134610469578060031936011261046957507f00000000000000000000000000000000000000000000000000000000000000006001600160a01b03163003610fa157602090517f360894a13ba1a3210667c828492db98dca3e2076cc3735a920a3ca505d382bbc8152f35b5163703e46dd60e11b8152fd5b5090806003193601126103fc57610fc361153a565b90602493843567ffffffffffffffff811161043857366023820112156104385780850135610ff0816115b2565b94610ffd85519687611590565b81865260209182870193368a8383010111611210578186928b8693018737880101526001600160a01b037f000000000000000000000000000000000000000000000000000000000000000081163081149081156111e2575b506111d25761106261172f565b81169585516352d1902d60e01b815283818a818b5afa8691816111a3575b5061109c575050505050505191634c9c8ce360e01b8352820152fd5b9088888894938c7f360894a13ba1a3210667c828492db98dca3e2076cc3735a920a3ca505d382bbc9182810361118e5750853b1561117a575080546001600160a01b031916821790558451889392917fbc7cd75a20ee27fd9adebab32041f755214dbc6bffa90cc0225b39da2e5c2d3b8580a282511561115c57505061114e9582915190845af4913d15611152573d611140611137826115b2565b92519283611590565b81528581943d92013e611c44565b5080f35b5060609250611c44565b95509550505050503461116e57505080f35b63b398979f60e01b8152fd5b8651634c9c8ce360e01b8152808501849052fd5b8751632a87526960e21b815280860191909152fd5b9091508481813d83116111cb575b6111bb8183611590565b81010312610bf457519038611080565b503d6111b1565b855163703e46dd60e11b81528890fd5b9050817f360894a13ba1a3210667c828492db98dca3e2076cc3735a920a3ca505d382bbc5416141538611055565b8580fd5b5091903461043857602092836003193601126103fc57906024918461123761153a565b8554845163167801e160e11b81526001600160a01b039283169481019490945290948391829087165afa9384156107d4578094611278575b50505191168152f35b909193508482813d83116112ab575b6112918183611590565b8101031261046957506112a3906115ce565b91388061126f565b503d611287565b8334610469576020366003190112610469576112cc61153a565b6112d461172f565b6001600160a01b03166112e88115156115e2565b6001600160601b0360a01b600354161760035580f35b5082903461043857602092836003193601126103fc5761131c61153a565b835482516341a0894d60e01b81526001600160a01b0392831685820152919591908590829060249082908a165afa93841561144b578594611395575b505092908051938080860192818752855180945286019401925b82811061137f5785850386f35b8351871685529381019392810192600101611372565b909193503d8086843e6113a88184611590565b820190848383031261121057825167ffffffffffffffff9384821161144757019082601f83011215610bf457815193841161143457508260051b908451936113f287840186611590565b84528580850192820101928311610bf45785809101915b83831061141c5750505050918580611358565b8190611427846115ce565b8152019101908590611409565b634e487b7160e01b875260419052602486fd5b8780fd5b83513d87823e3d90fd5b50346103fc5760203660031901126103fc5761146f61153a565b61147761172f565b6001600160a01b031691821561149f5750506001600160601b0360a01b600154161760015580f35b906020608492519162461bcd60e51b8352820152602160248201527f496e76616c6964206c6971756964697479206d616e61676572206164647265736044820152607360f81b6064820152fd5b50503461043857816003193601126104385760015490516001600160a01b039091168152602090f35b8490346104385781600319360112610438576003546001600160a01b03168152602090f35b600435906001600160a01b03821682036103f757565b602435906001600160a01b03821682036103f757565b67ffffffffffffffff811161157a57604052565b634e487b7160e01b600052604160045260246000fd5b90601f8019910116810190811067ffffffffffffffff82111761157a57604052565b67ffffffffffffffff811161157a57601f01601f191660200190565b51906001600160a01b03821682036103f757565b156115e957565b60405162461bcd60e51b8152602060048201526014602482015273496e76616c69642064617070206164647265737360601b6044820152606490fd5b908160209103126103f7575180151581036103f75790565b9190820180921161164a57565b634e487b7160e01b600052601160045260246000fd5b600019811461164a5760010190565b1561167657565b60405162461bcd60e51b815260206004820152601960248201527f496e76616c6964206f7065726174696f6e2061646472657373000000000000006044820152606490fd5b6001600160a01b0390811690811561171657600080516020611ca883398151915280546001600160a01b031981168417909155167f8be0079c531659141344cd1fd0a4f28419497f9722a3daafe3b4186f6b6457e0600080a3565b604051631e4fbdf760e01b815260006004820152602490fd5b600080516020611ca8833981519152546001600160a01b0316330361175057565b60405163118cdaa760e01b8152336004820152602490fd5b91600060018060a01b0380825416946040928351968793849263167801e160e11b92838552826004961686860152602096879160249687915afa998a15611bf757819a611bc0575b50818a1615611bb3576001995b601e8b1115908180611ba8575b15611b99576000548951631080b48560e21b815282861689820181905293918616908a818a81855afa908115611b8e57898b8e8e948994600091611b71575b5061188d575b5050505092505050836000541691868a51809481938983528b8301525afa80156118825760009061184c575b61184691509a611660565b996117bd565b8782813d831161187b575b6118618183611590565b810103126104695750611876611846916115ce565b61183b565b503d611857565b88513d6000823e3d90fd5b5194859384926375d20f3b60e01b84528301525afa908115611b6657908e9291600091611b34575b508211156118c8575b8984898b8e61180f565b8960009160018414600014611a2857505050508a60021b8b810488148c151715611a14576064899104915b82611901575b8d91506118be565b8a5163a9059cbb60e01b81526001600160a01b03909116898201908152602081018490529394929390919082908190604001038160007355d398326f99059ff775485246999027b31979555af1908115611a09576000916119ec575b50156119aa57917f4b84cdc8f2d1b9b6be433a7d5adaf3f8a237fb2dc7dfde0233244fdef1673ca0898360ff8f9685966119969161163d565b968351928352168b820152a23887816118f9565b885162461bcd60e51b8152808801899052601a818801527f436f6d6d697373696f6e207472616e73666572206661696c65640000000000006044820152606490fd5b611a039150893d8b116106d9576106cb8183611590565b3861195d565b8a513d6000823e3d90fd5b86601189634e487b7160e01b600052526000fd5b600293808503611a5357505050508b60011b908c8204148c151715611a14576064899104915b6118f3565b9091929350600381101580611b29575b15611a9957505050508a80046001148b151715611a85578760648c04916118f3565b85601188634e487b7160e01b600052526000fd5b600b81101580611b1e575b15611acb57505050506006808c02908c8204148c151715611a14576103e8899104916118f3565b6015909492939410159081611b16575b5015611a4e57919050600590818d02918d8304148d151715611b0457506103e8899104916118f3565b634e487b7160e01b8152601189528790fd5b905038611adb565b506014811115611aa4565b50600a811115611a63565b9192508a82813d8311611b5f575b611b4c8183611590565b810103126104695750908d9151386118b5565b503d611b42565b8b513d6000823e3d90fd5b611b889150863d88116106d9576106cb8183611590565b38611809565b8c513d6000823e3d90fd5b50509750505050505050915090565b5083811615156117ca565b9750505050505050915090565b9099508581813d8311611bf0575b611bd88183611590565b81010312610d6f57611be9906115ce565b98386117b0565b503d611bce565b508651903d90823e3d90fd5b60ff7ff0c57e16840df040f15088dc2f81fe391c3923bec73e23a9662efc9c229c6a005460401c1615611c3257565b604051631afcd79f60e31b8152600490fd5b90611c6b5750805115611c5957602081519101fd5b60405163d6bda27560e01b8152600490fd5b81511580611c9e575b611c7c575090565b604051639996b31560e01b81526001600160a01b039091166004820152602490fd5b50803b15611c7456fe9016d09d72d40fdae2fd8ceac6b6234c7706214fd39c1cd1e609a0528c199300a164736f6c6343000816000a",
  "implementation": "0x1BBa491D4Bad478A970AEB29304a51aF0f4f8F82"
}