{
  "address": "0xCfE162536Ce1C9363E45c9DF355244942682eABB",
  "abi": [
    {
      "inputs": [],
      "stateMutability": "nonpayable",
      "type": "constructor"
    },
    {
      "inputs": [
        {
          "internalType": "address",
          "name": "target",
          "type": "address"
        }
      ],
      "name": "AddressEmptyCode",
      "type": "error"
    },
    {
      "inputs": [
        {
          "internalType": "address",
          "name": "implementation",
          "type": "address"
        }
      ],
      "name": "ERC1967InvalidImplementation",
      "type": "error"
    },
    {
      "inputs": [],
      "name": "ERC1967NonPayable",
      "type": "error"
    },
    {
      "inputs": [],
      "name": "FailedCall",
      "type": "error"
    },
    {
      "inputs": [],
      "name": "InvalidInitialization",
      "type": "error"
    },
    {
      "inputs": [],
      "name": "NotInitializing",
      "type": "error"
    },
    {
      "inputs": [
        {
          "internalType": "address",
          "name": "owner",
          "type": "address"
        }
      ],
      "name": "OwnableInvalidOwner",
      "type": "error"
    },
    {
      "inputs": [
        {
          "internalType": "address",
          "name": "account",
          "type": "address"
        }
      ],
      "name": "OwnableUnauthorizedAccount",
      "type": "error"
    },
    {
      "inputs": [],
      "name": "ReentrancyGuardReentrantCall",
      "type": "error"
    },
    {
      "inputs": [],
      "name": "UUPSUnauthorizedCallContext",
      "type": "error"
    },
    {
      "inputs": [
        {
          "internalType": "bytes32",
          "name": "slot",
          "type": "bytes32"
        }
      ],
      "name": "UUPSUnsupportedProxiableUUID",
      "type": "error"
    },
    {
      "anonymous": false,
      "inputs": [
        {
          "indexed": true,
          "internalType": "address",
          "name": "contractAddress",
          "type": "address"
        },
        {
          "indexed": false,
          "internalType": "uint256",
          "name": "source",
          "type": "uint256"
        }
      ],
      "name": "AuthorizedContractAdded",
      "type": "event"
    },
    {
      "anonymous": false,
      "inputs": [
        {
          "indexed": true,
          "internalType": "address",
          "name": "contractAddress",
          "type": "address"
        }
      ],
      "name": "AuthorizedContractRemoved",
      "type": "event"
    },
    {
      "anonymous": false,
      "inputs": [
        {
          "indexed": false,
          "internalType": "uint64",
          "name": "version",
          "type": "uint64"
        }
      ],
      "name": "Initialized",
      "type": "event"
    },
    {
      "anonymous": false,
      "inputs": [
        {
          "indexed": true,
          "internalType": "address",
          "name": "user",
          "type": "address"
        },
        {
          "indexed": false,
          "internalType": "uint256",
          "name": "source",
          "type": "uint256"
        },
        {
          "indexed": false,
          "internalType": "uint256",
          "name": "lpAmount",
          "type": "uint256"
        },
        {
          "indexed": false,
          "internalType": "uint256",
          "name": "depositDay",
          "type": "uint256"
        }
      ],
      "name": "LiquidityAdded",
      "type": "event"
    },
    {
      "anonymous": false,
      "inputs": [
        {
          "indexed": true,
          "internalType": "address",
          "name": "user",
          "type": "address"
        },
        {
          "indexed": false,
          "internalType": "uint256",
          "name": "source",
          "type": "uint256"
        },
        {
          "indexed": false,
          "internalType": "uint256",
          "name": "lpAmount",
          "type": "uint256"
        },
        {
          "indexed": false,
          "internalType": "uint256",
          "name": "pdaReturned",
          "type": "uint256"
        },
        {
          "indexed": false,
          "internalType": "uint256",
          "name": "pdaBurned",
          "type": "uint256"
        },
        {
          "indexed": false,
          "internalType": "uint256",
          "name": "usdtReturned",
          "type": "uint256"
        }
      ],
      "name": "LiquidityRemoved",
      "type": "event"
    },
    {
      "anonymous": false,
      "inputs": [
        {
          "indexed": true,
          "internalType": "address",
          "name": "previousOwner",
          "type": "address"
        },
        {
          "indexed": true,
          "internalType": "address",
          "name": "newOwner",
          "type": "address"
        }
      ],
      "name": "OwnershipTransferred",
      "type": "event"
    },
    {
      "anonymous": false,
      "inputs": [
        {
          "indexed": true,
          "internalType": "address",
          "name": "implementation",
          "type": "address"
        }
      ],
      "name": "Upgraded",
      "type": "event"
    },
    {
      "inputs": [],
      "name": "DEAD_ADDRESS",
      "outputs": [
        {
          "internalType": "address",
          "name": "",
          "type": "address"
        }
      ],
      "stateMutability": "view",
      "type": "function"
    },
    {
      "inputs": [],
      "name": "LP_TOKEN",
      "outputs": [
        {
          "internalType": "address",
          "name": "",
          "type": "address"
        }
      ],
      "stateMutability": "view",
      "type": "function"
    },
    {
      "inputs": [],
      "name": "NFTLPSetter",
      "outputs": [
        {
          "internalType": "address",
          "name": "",
          "type": "address"
        }
      ],
      "stateMutability": "view",
      "type": "function"
    },
    {
      "inputs": [],
      "name": "PDA",
      "outputs": [
        {
          "internalType": "address",
          "name": "",
          "type": "address"
        }
      ],
      "stateMutability": "view",
      "type": "function"
    },
    {
      "inputs": [],
      "name": "ROUTER",
      "outputs": [
        {
          "internalType": "address",
          "name": "",
          "type": "address"
        }
      ],
      "stateMutability": "view",
      "type": "function"
    },
    {
      "inputs": [],
      "name": "UPGRADE_INTERFACE_VERSION",
      "outputs": [
        {
          "internalType": "string",
          "name": "",
          "type": "string"
        }
      ],
      "stateMutability": "view",
      "type": "function"
    },
    {
      "inputs": [],
      "name": "USDT",
      "outputs": [
        {
          "internalType": "address",
          "name": "",
          "type": "address"
        }
      ],
      "stateMutability": "view",
      "type": "function"
    },
    {
      "inputs": [
        {
          "internalType": "address",
          "name": "contractAddress",
          "type": "address"
        },
        {
          "internalType": "uint256",
          "name": "source",
          "type": "uint256"
        }
      ],
      "name": "addAuthorizedContract",
      "outputs": [],
      "stateMutability": "nonpayable",
      "type": "function"
    },
    {
      "inputs": [
        {
          "internalType": "address",
          "name": "user",
          "type": "address"
        },
        {
          "internalType": "uint256",
          "name": "usdtAmount",
          "type": "uint256"
        }
      ],
      "name": "addLiquidityForUser",
      "outputs": [
        {
          "internalType": "uint256",
          "name": "",
          "type": "uint256"
        }
      ],
      "stateMutability": "nonpayable",
      "type": "function"
    },
    {
      "inputs": [
        {
          "internalType": "address",
          "name": "",
          "type": "address"
        }
      ],
      "name": "authorizedContracts",
      "outputs": [
        {
          "internalType": "bool",
          "name": "",
          "type": "bool"
        }
      ],
      "stateMutability": "view",
      "type": "function"
    },
    {
      "inputs": [
        {
          "internalType": "uint256",
          "name": "depositDay",
          "type": "uint256"
        }
      ],
      "name": "calculateReturnRate",
      "outputs": [
        {
          "internalType": "uint256",
          "name": "",
          "type": "uint256"
        }
      ],
      "stateMutability": "pure",
      "type": "function"
    },
    {
      "inputs": [
        {
          "internalType": "address",
          "name": "",
          "type": "address"
        }
      ],
      "name": "contractSource",
      "outputs": [
        {
          "internalType": "uint256",
          "name": "",
          "type": "uint256"
        }
      ],
      "stateMutability": "view",
      "type": "function"
    },
    {
      "inputs": [
        {
          "internalType": "address",
          "name": "token",
          "type": "address"
        },
        {
          "internalType": "address",
          "name": "to",
          "type": "address"
        },
        {
          "internalType": "uint256",
          "name": "amount",
          "type": "uint256"
        }
      ],
      "name": "emergencyWithdraw",
      "outputs": [],
      "stateMutability": "nonpayable",
      "type": "function"
    },
    {
      "inputs": [],
      "name": "getContractStats",
      "outputs": [
        {
          "internalType": "uint256",
          "name": "_totalLPLocked",
          "type": "uint256"
        },
        {
          "internalType": "uint256",
          "name": "_totalPDABurned",
          "type": "uint256"
        },
        {
          "internalType": "uint256",
          "name": "_currentDay",
          "type": "uint256"
        },
        {
          "internalType": "uint256",
          "name": "_currentReturnRate",
          "type": "uint256"
        }
      ],
      "stateMutability": "view",
      "type": "function"
    },
    {
      "inputs": [],
      "name": "getCurrentDay",
      "outputs": [
        {
          "internalType": "uint256",
          "name": "",
          "type": "uint256"
        }
      ],
      "stateMutability": "view",
      "type": "function"
    },
    {
      "inputs": [
        {
          "internalType": "address",
          "name": "user",
          "type": "address"
        }
      ],
      "name": "getUserAllLPInfo",
      "outputs": [
        {
          "internalType": "uint256",
          "name": "depositAmount",
          "type": "uint256"
        },
        {
          "internalType": "uint256",
          "name": "depositReturnRate",
          "type": "uint256"
        },
        {
          "internalType": "uint256",
          "name": "gameAmount",
          "type": "uint256"
        },
        {
          "internalType": "uint256",
          "name": "gameReturnRate",
          "type": "uint256"
        },
        {
          "internalType": "uint256",
          "name": "nftAmount",
          "type": "uint256"
        },
        {
          "internalType": "uint256",
          "name": "nftReturnRate",
          "type": "uint256"
        }
      ],
      "stateMutability": "view",
      "type": "function"
    },
    {
      "inputs": [
        {
          "internalType": "address",
          "name": "user",
          "type": "address"
        },
        {
          "internalType": "uint256",
          "name": "source",
          "type": "uint256"
        }
      ],
      "name": "getUserLPInfo",
      "outputs": [
        {
          "internalType": "uint256",
          "name": "amount",
          "type": "uint256"
        },
        {
          "internalType": "uint256",
          "name": "depositTime",
          "type": "uint256"
        },
        {
          "internalType": "uint256",
          "name": "depositDay",
          "type": "uint256"
        },
        {
          "internalType": "uint256",
          "name": "currentReturnRate",
          "type": "uint256"
        },
        {
          "internalType": "uint256",
          "name": "daysHeld",
          "type": "uint256"
        }
      ],
      "stateMutability": "view",
      "type": "function"
    },
    {
      "inputs": [
        {
          "internalType": "address",
          "name": "_pda",
          "type": "address"
        },
        {
          "internalType": "address",
          "name": "_NFTLPSetter",
          "type": "address"
        }
      ],
      "name": "initialize",
      "outputs": [],
      "stateMutability": "nonpayable",
      "type": "function"
    },
    {
      "inputs": [],
      "name": "owner",
      "outputs": [
        {
          "internalType": "address",
          "name": "",
          "type": "address"
        }
      ],
      "stateMutability": "view",
      "type": "function"
    },
    {
      "inputs": [],
      "name": "proxiableUUID",
      "outputs": [
        {
          "internalType": "bytes32",
          "name": "",
          "type": "bytes32"
        }
      ],
      "stateMutability": "view",
      "type": "function"
    },
    {
      "inputs": [
        {
          "internalType": "address",
          "name": "contractAddress",
          "type": "address"
        }
      ],
      "name": "removeAuthorizedContract",
      "outputs": [],
      "stateMutability": "nonpayable",
      "type": "function"
    },
    {
      "inputs": [
        {
          "internalType": "uint256",
          "name": "source",
          "type": "uint256"
        }
      ],
      "name": "removeLiquidity",
      "outputs": [],
      "stateMutability": "nonpayable",
      "type": "function"
    },
    {
      "inputs": [],
      "name": "renounceOwnership",
      "outputs": [],
      "stateMutability": "nonpayable",
      "type": "function"
    },
    {
      "inputs": [
        {
          "internalType": "address",
          "name": "_NFTLPSetter",
          "type": "address"
        }
      ],
      "name": "setNFTLPSetter",
      "outputs": [],
      "stateMutability": "nonpayable",
      "type": "function"
    },
    {
      "inputs": [
        {
          "internalType": "address",
          "name": "user",
          "type": "address"
        },
        {
          "internalType": "uint256",
          "name": "amount",
          "type": "uint256"
        },
        {
          "internalType": "uint256",
          "name": "depositTime",
          "type": "uint256"
        },
        {
          "internalType": "uint256",
          "name": "depositDay",
          "type": "uint256"
        }
      ],
      "name": "setUserLPInfo",
      "outputs": [],
      "stateMutability": "nonpayable",
      "type": "function"
    },
    {
      "inputs": [],
      "name": "startTime",
      "outputs": [
        {
          "internalType": "uint256",
          "name": "",
          "type": "uint256"
        }
      ],
      "stateMutability": "view",
      "type": "function"
    },
    {
      "inputs": [],
      "name": "totalLPLocked",
      "outputs": [
        {
          "internalType": "uint256",
          "name": "",
          "type": "uint256"
        }
      ],
      "stateMutability": "view",
      "type": "function"
    },
    {
      "inputs": [],
      "name": "totalPDABurned",
      "outputs": [
        {
          "internalType": "uint256",
          "name": "",
          "type": "uint256"
        }
      ],
      "stateMutability": "view",
      "type": "function"
    },
    {
      "inputs": [
        {
          "internalType": "address",
          "name": "newOwner",
          "type": "address"
        }
      ],
      "name": "transferOwnership",
      "outputs": [],
      "stateMutability": "nonpayable",
      "type": "function"
    },
    {
      "inputs": [
        {
          "internalType": "address",
          "name": "newImplementation",
          "type": "address"
        },
        {
          "internalType": "bytes",
          "name": "data",
          "type": "bytes"
        }
      ],
      "name": "upgradeToAndCall",
      "outputs": [],
      "stateMutability": "payable",
      "type": "function"
    },
    {
      "inputs": [
        {
          "internalType": "address",
          "name": "",
          "type": "address"
        },
        {
          "internalType": "uint256",
          "name": "",
          "type": "uint256"
        }
      ],
      "name": "userLPInfo",
      "outputs": [
        {
          "internalType": "uint256",
          "name": "amount",
          "type": "uint256"
        },
        {
          "internalType": "uint256",
          "name": "depositTime",
          "type": "uint256"
        },
        {
          "internalType": "uint256",
          "name": "depositDay",
          "type": "uint256"
        }
      ],
      "stateMutability": "view",
      "type": "function"
    }
  ],
  "transactionHash": "0xa2957b533ba3d8355c57f26eaea62394a5c72ccdca0fc039b64dbd388d9edfbd",
  "numDeployments": 1,
  "bytecode": "0x60a080604052346100cc57306080527ff0c57e16840df040f15088dc2f81fe391c3923bec73e23a9662efc9c229c6a009081549060ff8260401c166100bd57506001600160401b036002600160401b031982821601610078575b604051611ec190816100d2823960805181818161124f01526113350152f35b6001600160401b031990911681179091556040519081527fc7f505b2f371ae2175ee4913f4499e1f2633a7b5936321eed1cdaeb6115181d290602090a1388080610059565b63f92ee8a960e01b8152600490fd5b600080fdfe608080604052600436101561001357600080fd5b60003560e01c90816302972eaa14611a855750806313219c9914611a33578063262f20161461198657806329c08b2c146118af57806332fe7b26146118805780633e6968b614611854578063485cc955146115265780634e6fd6c4146115095780634f1ef286146112b957806352d1902d1461123c578063551a7ebb1461121e57806358ca140e14611125578063715018a6146110bb578063718190db146110955780637560ea791461102857806378e979251461100a5780638da5cb5b14610fd45780639c8f9f2314610b265780639e1fc81614610aec578063ad3cb1cc14610a57578063bfd9041b14610a2e578063c54e44eb146109ff578063c91d079c146103fe578063d2ae914b146103d5578063d5b9221b14610396578063dfe6b5d61461034b578063e302d85f14610322578063e63ea40814610228578063e6b165ed146101c2578063f2fde38b146101975763f7e4cd0d1461017457600080fd5b34610192576000366003190112610192576020600554604051908152f35b600080fd5b34610192576020366003190112610192576101c06101b3611b2b565b6101bb611d67565b611cf3565b005b34610192576020366003190112610192576101db611b2b565b6101e3611d67565b6001600160a01b03166000818152600760205260408120805460ff191690557f98a35376356c1565159c1b44676fcfa951a2287e2a816e208cf92e7aeb585a4f9080a2005b34610192576060366003190112610192576000602061028c610248611b2b565b610250611b41565b610258611d67565b60405163a9059cbb60e01b81526001600160a01b039091166004820152604480356024830152909485938492839190820190565b03926001600160a01b03165af1908115610316576000916102e7575b50156102b057005b60405162461bcd60e51b815260206004820152600f60248201526e151c985b9cd9995c8819985a5b1959608a1b6044820152606490fd5b610309915060203d60201161030f575b6103018183611b57565b810190611c88565b816102a8565b503d6102f7565b6040513d6000823e3d90fd5b34610192576000366003190112610192576000546040516001600160a01b039091168152602090f35b346101925760003660031901126101925760806005546006546201518061037460035442611c1e565b0461037e81611c57565b91604051938452602084015260408301526060820152f35b34610192576020366003190112610192576001600160a01b036103b7611b2b565b166000526007602052602060ff604060002054166040519015158152f35b34610192576000366003190112610192576001546040516001600160a01b039091168152602090f35b3461019257604036600319011261019257610417611b2b565b602435610422611da0565b33600052600760205260ff60406000205416156109ba57801561098457336000526008602052604060002054916040516323b872dd60e01b815233600482015230602482015282604482015260208160648160007355d398326f99059ff775485246999027b31979555af18015610316576104a591600091610965575b50611ca0565b6104b28260011c83611c1e565b9160405163095ea7b360e01b81527310ed43c718714eb63d5aa57b78b54704e256024e600482015281602482015260208160448160007355d398326f99059ff775485246999027b31979555af1801561031657610946575b506040516060810181811067ffffffffffffffff8211176108e257604052600281526040366020830137805115610930577355d398326f99059ff775485246999027b319795560208201526000546001600160a01b031661056a82611ce3565b5261012c4201421161091a57906040519182916338ed173960e01b835260a483019060011c60048401526000602484015260a060448401528151809152602060c4840192019060005b8181106108f857505050908060009230606483015261012c420160848301520381837310ed43c718714eb63d5aa57b78b54704e256024e5af1801561031657600090610833575b6106049150611ce3565b51916000602060018060a01b0382541660446040518094819363095ea7b360e01b83527310ed43c718714eb63d5aa57b78b54704e256024e60048401528960248401525af1801561031657610814575b5060018060a01b0360005416926040519362e8e33760e81b855260048501527355d398326f99059ff775485246999027b319795560248501526044840152606483015260006084830152600060a48301523060c483015261012c420160e48301526060826101048160007310ed43c718714eb63d5aa57b78b54704e256024e5af1918215610316576000926107b8575b507f64b83944e79c3ce8d4c297411de637c3e102d064677aac0c163976ebdcd6f50e826020946107876201518061071d60035442611c1e565b049460018060a01b03169485600052600488526040600020836000528852604060002081815415156000146107a45750610758858254611c4a565b90555b61076784600554611c4a565b600555604051938493846040919493926060820195825260208201520152565b0390a26001600080516020611e9583398151915255604051908152f35b90808660029255426001820155015561075b565b9291506060833d60601161080c575b816107d460609383611b57565b81010312610192577f64b83944e79c3ce8d4c297411de637c3e102d064677aac0c163976ebdcd6f50e604060209401519293506106e4565b3d91506107c7565b61082c9060203d60201161030f576103018183611b57565b5084610654565b503d806000833e6108448183611b57565b8101906020818303126101925780519167ffffffffffffffff83116101925780601f84840101121561019257828201519267ffffffffffffffff84116108e2578360051b604051946108996020830187611b57565b855260208501926020828487010101116101925790602081850101925b602083838701010184106108d2575050505050610604906105fa565b83518152602093840193016108b6565b634e487b7160e01b600052604160045260246000fd5b82516001600160a01b03168452859450602093840193909201916001016105b3565b634e487b7160e01b600052601160045260246000fd5b634e487b7160e01b600052603260045260246000fd5b61095e9060203d60201161030f576103018183611b57565b508461050a565b61097e915060203d60201161030f576103018183611b57565b8561049f565b60405162461bcd60e51b815260206004820152600e60248201526d125b9d985b1a5908185b5bdd5b9d60921b6044820152606490fd5b60405162461bcd60e51b815260206004820152601760248201527f4e6f7420617574686f72697a656420636f6e74726163740000000000000000006044820152606490fd5b346101925760003660031901126101925760206040517355d398326f99059ff775485246999027b31979558152f35b34610192576000366003190112610192576002546040516001600160a01b039091168152602090f35b34610192576000366003190112610192576040516040810181811067ffffffffffffffff8211176108e25760405260058152602090640352e302e360dc1b60208201526040518092602082528251908160208401526000935b828510610ad3575050604092506000838284010152601f80199101168101030190f35b8481018201518686016040015293810193859350610ab0565b34610192576020366003190112610192576001600160a01b03610b0d611b2b565b1660005260086020526020604060002054604051908152f35b346101925760208060031936011261019257600435610b43611da0565b610b506002821115611be1565b3360005260048252604060002081600052825260406000208054908115610f9d57600201549060018060a01b03918260025416946040519063095ea7b360e01b825260007310ed43c718714eb63d5aa57b78b54704e256024e92836004820152828160249a888c8301528160449586925af1801561031657610f80575b5087866000541661012c4201804211610f6b5760e4604092600084519889948593635d5155ef60e11b855260048501527355d398326f99059ff775485246999027b319795580988501528c898501528260648501528260848501523060a485015260c48401525af194851561031657600094600096610f2f575b50610c5190611c57565b808502908582041485151715610f1a5761271090049687600095818111610f07575b50610e70575b84610dcb575b5060405163a9059cbb60e01b815233600482015260248101869052908390829060449082906000905af1801561031657610cc091600091610dae5750611ca0565b60055490858210610d6c575091849391610cff7f04f7e4f53152cb2cd0e424b2fc990199f0ed4255c7a97a848131f1eeff165f7b9796610d5595611c1e565b60055533600052600481526040600020908860005252600060026040822082815582600182015501556040519485943398869192608093969594919660a084019784526020840152604083015260608201520152565b0390a26001600080516020611e9583398151915255005b827f546f74616c204c50206c6f636b656420696e73756666696369656e7400000000606492601c8c6040519462461bcd60e51b86526004860152840152820152fd5b610dc59150843d861161030f576103018183611b57565b8a61049f565b600054168385848c6000604051958694859363a9059cbb60e01b855261dead60048601528401525af190811561031657600091610e53575b5015610e1e57610e1584600654611c4a565b60065589610c7f565b60405162461bcd60e51b815260048101849052600f818b01526e14111048189d5c9b8819985a5b1959608a1b81840152606490fd5b610e6a9150843d861161030f576103018183611b57565b8a610e03565b6000805460405163a9059cbb60e01b8152336004820152602481018b9052918691839160449183919087165af190811561031657600091610eea575b50610c795760405162461bcd60e51b8152600481018590526013818c015272141110481d1c985b9cd9995c8819985a5b1959606a1b81850152606490fd5b610f019150853d871161030f576103018183611b57565b8b610eac565b610f12929650611c1e565b93878b610c73565b89634e487b7160e01b60005260116004526000fd5b945094506040843d604011610f63575b81610f4c60409383611b57565b810103126101925783519383015194610c51610c47565b3d9150610f3f565b82634e487b7160e01b60005260116004526000fd5b610f9690833d851161030f576103018183611b57565b5088610bcd565b60405162461bcd60e51b815260048101859052600f60248201526e4e6f204c5020746f2072656d6f766560881b6044820152606490fd5b3461019257600036600319011261019257600080516020611e75833981519152546040516001600160a01b039091168152602090f35b34610192576000366003190112610192576020600354604051908152f35b34610192576040366003190112610192576001600160a01b03611049611b2b565b16600052600460205260406000206024356000526020526040600020805461109160026001840154930154604051938493846040919493926060820195825260208201520152565b0390f35b346101925760203660031901126101925760206110b3600435611c57565b604051908152f35b34610192576000366003190112610192576110d4611d67565b600080516020611e7583398151915280546001600160a01b031981169091556000906001600160a01b03167f8be0079c531659141344cd1fd0a4f28419497f9722a3daafe3b4186f6b6457e08280a3005b34610192576020806003193601126101925760c0906001600160a01b0361114a611b2b565b1690816000526004815260406000206000805281526040600020918060005260048252604060002060016000528252604060002090600052600482526040600020600260005282526040600020908354938415156000146112155760026111b2910154611c57565b905b805490811561120c5760026111ca910154611c57565b915b83549384156112035760026111e2910154611c57565b945b60405196875286015260408501526060840152608083015260a0820152f35b506000946111e4565b506000916111cc565b506000906111b4565b34610192576000366003190112610192576020600654604051908152f35b34610192576000366003190112610192577f00000000000000000000000000000000000000000000000000000000000000006001600160a01b031630036112a75760206040517f360894a13ba1a3210667c828492db98dca3e2076cc3735a920a3ca505d382bbc8152f35b60405163703e46dd60e11b8152600490fd5b6040366003190112610192576112cd611b2b565b602490813567ffffffffffffffff811161019257366023820112156101925780600401356112fa81611b79565b926113086040519485611b57565b81845260209182850193368783830101116101925781600092888693018737860101526001600160a01b037f000000000000000000000000000000000000000000000000000000000000000081163081149081156114db575b506112a75761136e611d67565b8116936040516352d1902d60e01b81528381600481895afa600091816114ac575b506113ac57604051634c9c8ce360e01b8152600481018790528790fd5b8590877f360894a13ba1a3210667c828492db98dca3e2076cc3735a920a3ca505d382bbc918281036114975750843b15611481575080546001600160a01b03191682179055604051907fbc7cd75a20ee27fd9adebab32041f755214dbc6bffa90cc0225b39da2e5c2d3b600080a2815115611466575060006101c09481925190845af4903d1561145d573d61144081611b79565b9061144e6040519283611b57565b8152600081943d92013e611e11565b60609250611e11565b93505050503461147257005b63b398979f60e01b8152600490fd5b604051634c9c8ce360e01b815260048101849052fd5b60405190632a87526960e21b82526004820152fd5b9091508481813d83116114d4575b6114c48183611b57565b810103126101925751908861138f565b503d6114ba565b9050817f360894a13ba1a3210667c828492db98dca3e2076cc3735a920a3ca505d382bbc5416141587611361565b3461019257600036600319011261019257602060405161dead8152f35b346101925760403660031901126101925761153f611b2b565b611547611b41565b7ff0c57e16840df040f15088dc2f81fe391c3923bec73e23a9662efc9c229c6a009182549060ff8260401c16159067ffffffffffffffff83169283158061184d575b60018095149081611843575b15908161183a575b506118285767ffffffffffffffff1981168417865582611809575b506001600160a01b039081169384156117ce578116906115d9821515611b95565b6bffffffffffffffffffffffff60a01b9185836000541617600055828554161784556040519463c45a015560e01b865260209586816004817310ed43c718714eb63d5aa57b78b54704e256024e5afa80156103165783916000916117b1575b5016906040519063e6a4390560e01b82528060048301527355d398326f99059ff775485246999027b3197955908160248401528883604481875afa9283156103165789938691600091611794575b5016806117805750604490600060405195869485936364e329cb60e11b8552600485015260248401525af190811561031657600091611753575b50169060025416176002555b426003556116d8611dd0565b6116e0611dd0565b6116e933611cf3565b6116f1611dd0565b6116f9611dd0565b611701611dd0565b81600080516020611e958339815191525561171857005b7fc7f505b2f371ae2175ee4913f4499e1f2633a7b5936321eed1cdaeb6115181d29268ff0000000000000000198154169055604051908152a1005b6117739150863d8811611779575b61176b8183611b57565b810190611c2b565b876116c0565b503d611761565b9594505050505060025416176002556116cc565b6117ab9150853d87116117795761176b8183611b57565b8c611686565b6117c89150883d8a116117795761176b8183611b57565b89611638565b60405162461bcd60e51b8152602060048201526013602482015272496e76616c696420504441206164647265737360681b6044820152606490fd5b68ffffffffffffffffff191668010000000000000001178555856115b8565b60405163f92ee8a960e01b8152600490fd5b9050158761159d565b303b159150611595565b5082611589565b346101925760003660031901126101925760206201518061187760035442611c1e565b04604051908152f35b346101925760003660031901126101925760206040517310ed43c718714eb63d5aa57b78b54704e256024e8152f35b34610192576040366003190112610192576118c8611b2b565b602435906118d4611d67565b6001600160a01b03169081156119415760208161191560027f9f867247cd07d370933af4d95576c7517863b00bd24b1d1236e7d5ede46de261941115611be1565b83600052600782526040600020600160ff198254161790556008825280604060002055604051908152a2005b60405162461bcd60e51b815260206004820152601860248201527f496e76616c696420636f6e7472616374206164647265737300000000000000006044820152606490fd5b346101925760403660031901126101925761199f611b2b565b602435906119b06002831115611be1565b60018060a01b0316600052600460205260406000209060005260205260406000208054611091600260018401549301546119e981611c57565b8415611a2b57620151806119fd8642611c1e565b04915b604051958695869192608093969594919660a084019784526020840152604083015260608201520152565b600091611a00565b3461019257602036600319011261019257611a4c611b2b565b611a54611d67565b6001600160a01b0316611a68811515611b95565b6bffffffffffffffffffffffff60a01b6001541617600155600080f35b3461019257608036600319011261019257611a9e611b2b565b6001546001600160a01b03929083163303611ae95750166000526004602052604060002060026000526020526040600020602435815560443560018201556002606435910155600080f35b62461bcd60e51b815260206004820152601960248201527f4f6e6c79204e46544c505365747465722063616e2063616c6c000000000000006044820152606490fd5b600435906001600160a01b038216820361019257565b602435906001600160a01b038216820361019257565b90601f8019910116810190811067ffffffffffffffff8211176108e257604052565b67ffffffffffffffff81116108e257601f01601f191660200190565b15611b9c57565b60405162461bcd60e51b815260206004820152601b60248201527f496e76616c6964204e46544c50536574746572206164647265737300000000006044820152606490fd5b15611be857565b60405162461bcd60e51b815260206004820152600e60248201526d496e76616c696420736f7572636560901b6044820152606490fd5b9190820391821161091a57565b9081602091031261019257516001600160a01b03811681036101925790565b9190820180921161091a57565b60328102908082046032149015171561091a576064018060641161091a57611388808211611c83575090565b905090565b90816020910312610192575180151581036101925790565b15611ca757565b60405162461bcd60e51b81526020600482015260146024820152731554d115081d1c985b9cd9995c8819985a5b195960621b6044820152606490fd5b8051600110156109305760400190565b6001600160a01b03908116908115611d4e57600080516020611e7583398151915280546001600160a01b031981168417909155167f8be0079c531659141344cd1fd0a4f28419497f9722a3daafe3b4186f6b6457e0600080a3565b604051631e4fbdf760e01b815260006004820152602490fd5b600080516020611e75833981519152546001600160a01b03163303611d8857565b60405163118cdaa760e01b8152336004820152602490fd5b600080516020611e958339815191526002815414611dbe5760029055565b604051633ee5aeb560e01b8152600490fd5b60ff7ff0c57e16840df040f15088dc2f81fe391c3923bec73e23a9662efc9c229c6a005460401c1615611dff57565b604051631afcd79f60e31b8152600490fd5b90611e385750805115611e2657602081519101fd5b60405163d6bda27560e01b8152600490fd5b81511580611e6b575b611e49575090565b604051639996b31560e01b81526001600160a01b039091166004820152602490fd5b50803b15611e4156fe9016d09d72d40fdae2fd8ceac6b6234c7706214fd39c1cd1e609a0528c1993009b779b17422d0df92223018b32b4d1fa46e071723d6817e2486d003becc55f00a164736f6c6343000816000a",
  "implementation": "0x68b1b4ED9bdED6e02e93D753bC7665b68A4eb7Af"
}