{
  "address": "0x0D76741d2B04Ff6FFc413dbF6a75060B65bc8dCd",
  "abi": [
    {
      "inputs": [
        {
          "internalType": "address",
          "name": "_activeUserManager",
          "type": "address"
        }
      ],
      "stateMutability": "nonpayable",
      "type": "constructor"
    },
    {
      "inputs": [
        {
          "internalType": "address",
          "name": "owner",
          "type": "address"
        }
      ],
      "name": "OwnableInvalidOwner",
      "type": "error"
    },
    {
      "inputs": [
        {
          "internalType": "address",
          "name": "account",
          "type": "address"
        }
      ],
      "name": "OwnableUnauthorizedAccount",
      "type": "error"
    },
    {
      "anonymous": false,
      "inputs": [
        {
          "indexed": true,
          "internalType": "address",
          "name": "contractAddress",
          "type": "address"
        }
      ],
      "name": "AuthorizedContractAdded",
      "type": "event"
    },
    {
      "anonymous": false,
      "inputs": [
        {
          "indexed": true,
          "internalType": "address",
          "name": "contractAddress",
          "type": "address"
        }
      ],
      "name": "AuthorizedContractRemoved",
      "type": "event"
    },
    {
      "anonymous": false,
      "inputs": [
        {
          "indexed": true,
          "internalType": "address",
          "name": "previousOwner",
          "type": "address"
        },
        {
          "indexed": true,
          "internalType": "address",
          "name": "newOwner",
          "type": "address"
        }
      ],
      "name": "OwnershipTransferred",
      "type": "event"
    },
    {
      "anonymous": false,
      "inputs": [
        {
          "indexed": true,
          "internalType": "address",
          "name": "user",
          "type": "address"
        },
        {
          "indexed": true,
          "internalType": "address",
          "name": "referrer",
          "type": "address"
        },
        {
          "indexed": true,
          "internalType": "address",
          "name": "binder",
          "type": "address"
        }
      ],
      "name": "ReferrerBound",
      "type": "event"
    },
    {
      "anonymous": false,
      "inputs": [
        {
          "indexed": true,
          "internalType": "address",
          "name": "user",
          "type": "address"
        }
      ],
      "name": "UserActivated",
      "type": "event"
    },
    {
      "inputs": [
        {
          "internalType": "address",
          "name": "user",
          "type": "address"
        }
      ],
      "name": "activateUser",
      "outputs": [],
      "stateMutability": "nonpayable",
      "type": "function"
    },
    {
      "inputs": [
        {
          "internalType": "address",
          "name": "",
          "type": "address"
        }
      ],
      "name": "activeReferralCount",
      "outputs": [
        {
          "internalType": "uint256",
          "name": "",
          "type": "uint256"
        }
      ],
      "stateMutability": "view",
      "type": "function"
    },
    {
      "inputs": [],
      "name": "activeUserManager",
      "outputs": [
        {
          "internalType": "address",
          "name": "",
          "type": "address"
        }
      ],
      "stateMutability": "view",
      "type": "function"
    },
    {
      "inputs": [
        {
          "internalType": "address",
          "name": "contractAddress",
          "type": "address"
        }
      ],
      "name": "addAuthorizedContract",
      "outputs": [],
      "stateMutability": "nonpayable",
      "type": "function"
    },
    {
      "inputs": [
        {
          "internalType": "address",
          "name": "",
          "type": "address"
        }
      ],
      "name": "authorizedContracts",
      "outputs": [
        {
          "internalType": "bool",
          "name": "",
          "type": "bool"
        }
      ],
      "stateMutability": "view",
      "type": "function"
    },
    {
      "inputs": [
        {
          "internalType": "address[]",
          "name": "users",
          "type": "address[]"
        },
        {
          "internalType": "address[]",
          "name": "referrers",
          "type": "address[]"
        }
      ],
      "name": "batchBindReferrer",
      "outputs": [],
      "stateMutability": "nonpayable",
      "type": "function"
    },
    {
      "inputs": [
        {
          "internalType": "address",
          "name": "user",
          "type": "address"
        },
        {
          "internalType": "address",
          "name": "_referrer",
          "type": "address"
        }
      ],
      "name": "bindReferrerByContract",
      "outputs": [],
      "stateMutability": "nonpayable",
      "type": "function"
    },
    {
      "inputs": [
        {
          "internalType": "address",
          "name": "user",
          "type": "address"
        }
      ],
      "name": "getMaxLevel",
      "outputs": [
        {
          "internalType": "uint256",
          "name": "",
          "type": "uint256"
        }
      ],
      "stateMutability": "view",
      "type": "function"
    },
    {
      "inputs": [
        {
          "internalType": "address",
          "name": "user",
          "type": "address"
        }
      ],
      "name": "getReferrals",
      "outputs": [
        {
          "internalType": "address[]",
          "name": "",
          "type": "address[]"
        }
      ],
      "stateMutability": "view",
      "type": "function"
    },
    {
      "inputs": [
        {
          "internalType": "address",
          "name": "user",
          "type": "address"
        },
        {
          "internalType": "uint256",
          "name": "levels",
          "type": "uint256"
        }
      ],
      "name": "getReferrerChain",
      "outputs": [
        {
          "internalType": "address[]",
          "name": "",
          "type": "address[]"
        }
      ],
      "stateMutability": "view",
      "type": "function"
    },
    {
      "inputs": [
        {
          "internalType": "address",
          "name": "user",
          "type": "address"
        }
      ],
      "name": "hasReferrer",
      "outputs": [
        {
          "internalType": "bool",
          "name": "",
          "type": "bool"
        }
      ],
      "stateMutability": "view",
      "type": "function"
    },
    {
      "inputs": [
        {
          "internalType": "address",
          "name": "",
          "type": "address"
        }
      ],
      "name": "isActiveUser",
      "outputs": [
        {
          "internalType": "bool",
          "name": "",
          "type": "bool"
        }
      ],
      "stateMutability": "view",
      "type": "function"
    },
    {
      "inputs": [
        {
          "internalType": "address",
          "name": "contractAddress",
          "type": "address"
        }
      ],
      "name": "isAuthorizedContract",
      "outputs": [
        {
          "internalType": "bool",
          "name": "",
          "type": "bool"
        }
      ],
      "stateMutability": "view",
      "type": "function"
    },
    {
      "inputs": [],
      "name": "owner",
      "outputs": [
        {
          "internalType": "address",
          "name": "",
          "type": "address"
        }
      ],
      "stateMutability": "view",
      "type": "function"
    },
    {
      "inputs": [
        {
          "internalType": "address",
          "name": "",
          "type": "address"
        }
      ],
      "name": "referralCount",
      "outputs": [
        {
          "internalType": "uint256",
          "name": "",
          "type": "uint256"
        }
      ],
      "stateMutability": "view",
      "type": "function"
    },
    {
      "inputs": [
        {
          "internalType": "address",
          "name": "",
          "type": "address"
        },
        {
          "internalType": "uint256",
          "name": "",
          "type": "uint256"
        }
      ],
      "name": "referrals",
      "outputs": [
        {
          "internalType": "address",
          "name": "",
          "type": "address"
        }
      ],
      "stateMutability": "view",
      "type": "function"
    },
    {
      "inputs": [
        {
          "internalType": "address",
          "name": "",
          "type": "address"
        }
      ],
      "name": "referrer",
      "outputs": [
        {
          "internalType": "address",
          "name": "",
          "type": "address"
        }
      ],
      "stateMutability": "view",
      "type": "function"
    },
    {
      "inputs": [
        {
          "internalType": "address",
          "name": "contractAddress",
          "type": "address"
        }
      ],
      "name": "removeAuthorizedContract",
      "outputs": [],
      "stateMutability": "nonpayable",
      "type": "function"
    },
    {
      "inputs": [],
      "name": "renounceOwnership",
      "outputs": [],
      "stateMutability": "nonpayable",
      "type": "function"
    },
    {
      "inputs": [
        {
          "internalType": "address",
          "name": "user",
          "type": "address"
        }
      ],
      "name": "setActiveUser",
      "outputs": [],
      "stateMutability": "nonpayable",
      "type": "function"
    },
    {
      "inputs": [
        {
          "internalType": "address",
          "name": "manager",
          "type": "address"
        }
      ],
      "name": "setActiveUserManager",
      "outputs": [],
      "stateMutability": "nonpayable",
      "type": "function"
    },
    {
      "inputs": [
        {
          "internalType": "address",
          "name": "newOwner",
          "type": "address"
        }
      ],
      "name": "transferOwnership",
      "outputs": [],
      "stateMutability": "nonpayable",
      "type": "function"
    }
  ],
  "transactionHash": "0x84a375c4a849f6ffcc7814b4cdc953e87bb1706a423dfcf07e501ffa2d3def6e",
  "args": [
    "0xb680ad3b50143500a785388fa0a9dd084697ea5e"
  ],
  "numDeployments": 1,
  "solcInputHash": "4b7cd45c6dad58cbac3a5ac8a01797ac",
  "bytecode": "0x60803461011257601f61108938819003918201601f19168301916001600160401b038311848410176101175780849260209460405283398101031261011257516001600160a01b03808216918290036101125733156100f9576000549060018060a01b0319913383821617600055604051913391167f8be0079c531659141344cd1fd0a4f28419497f9722a3daafe3b4186f6b6457e0600080a382156100b757506007541617600755604051610f5b908161012e8239f35b62461bcd60e51b815260206004820152601b60248201527f496e76616c6964206163746976652075736572206d616e6167657200000000006044820152606490fd5b604051631e4fbdf760e01b815260006004820152602490fd5b600080fd5b634e487b7160e01b600052604160045260246000fdfe6040608081526004908136101561001557600080fd5b600091823560e01c90816305f470531461091c57816318452cd8146108df5781632cf003c2146108a457816341a0894d146108195781634202d214146107dc57816366d0ead3146102fd578163715018a61461078257816375d20f3b146107555781637e540b2b146107075781637fe9d955146105ad5781638da5cb5b1461058557816398eaa4a7146104d2578163b4acfe1c14610479578163d0a0a43914610380578163d17067241461033b578163d5b9221b146102fd578163db74559b146102c5578163e16419c71461029c578163e697b5d814610240578163e6b165ed146101da578163f2fde38b1461014f575063fad99ddc1461011557600080fd5b3461014b57602036600319011261014b5760209181906001600160a01b0361013b610a0d565b1681526005845220549051908152f35b5080fd5b9050346101d65760203660031901126101d65761016a610a0d565b90610173610c5c565b6001600160a01b039182169283156101c057505082546001600160a01b0319811683178455167f8be0079c531659141344cd1fd0a4f28419497f9722a3daafe3b4186f6b6457e08380a380f35b51631e4fbdf760e01b8152908101849052602490fd5b8280fd5b50503461014b57602036600319011261014b576101f5610a0d565b6101fd610c5c565b6001600160a01b03168083526006602052908220805460ff191690557f98a35376356c1565159c1b44676fcfa951a2287e2a816e208cf92e7aeb585a4f8280a280f35b50503461014b578060031936011261014b5761025a610a0d565b6001600160a01b039081168352600260205281832080546024359490851015610299575060209361028a91610a9e565b92905490519260031b1c168152f35b80fd5b50503461014b578160031936011261014b5760075490516001600160a01b039091168152602090f35b50503461014b57602036600319011261014b5760209181906001600160a01b036102ed610a0d565b1681526003845220549051908152f35b50503461014b57602036600319011261014b5760209160ff9082906001600160a01b03610328610a0d565b1681526006855220541690519015158152f35b833461029957602036600319011261029957610355610a0d565b61035d610c5c565b60018060a01b03166bffffffffffffffffffffffff60a01b600754161760075580f35b9050346101d65760203660031901126101d65761039b610a0d565b6007546001600160a01b039291908316330361042c57821690818552602052828420805460ff8116156103cc578580f35b60ff191660011790557fd4719dd6c50c53a868b4c8eb187c166965be87e084f350aab18e6b0f141c77348480a26001602052818320541680610410575b8080808580f35b8252600560205281206104238154610b1c565b90553880610409565b835162461bcd60e51b8152602081840152602160248201527f4e6f7420617574686f72697a656420746f2073657420616374697665207573656044820152603960f91b6064820152608490fd5b9050346101d65760203660031901126101d657610494610a0d565b9033845260066020526104ac60ff8486205416610bec565b6001600160a01b03918216808552602091909152828420805460ff8116156103cc578580f35b919050346101d65760203660031901126101d6576104ee610a0d565b6104f6610c5c565b6001600160a01b0316918215610543575081835260066020528220805460ff191660011790557f351e40fe333cede9dd79a1ef4d16228b1702f272eb2c2166ec3c7ee6a9d4ce2c8280a280f35b6020606492519162461bcd60e51b8352820152601860248201527f496e76616c696420636f6e7472616374206164647265737300000000000000006044820152fd5b50503461014b578160031936011261014b57905490516001600160a01b039091168152602090f35b9050346101d657816003193601126101d65767ffffffffffffffff908035828111610703576105df9036908301610a6d565b926024359081116106ff576105f79036908401610a6d565b9390928482036106c45750855b81811061060f578680f35b6001906001600160a01b038061062e610629848789610c38565b610c48565b1689528260205280888a205416159081610699575b81610680575b50610655575b01610604565b61067b610666610629838688610c38565b610674610629848a8a610c38565b3391610c88565b61064f565b9050610690610629838989610c38565b16151538610649565b90506106a9610629838688610c38565b81806106b9610629868c8c610c38565b169116141590610643565b606490602087519162461bcd60e51b83528201526015602482015274082e4e4c2f240d8cadccee8d040dad2e6dac2e8c6d605b1b6044820152fd5b8580fd5b8480fd5b50503461014b578060031936011261014b57610721610a0d565b6024356001600160a01b03811681036107515761067460ff61074e94338752600660205286205416610bec565b80f35b8380fd5b50503461014b57602036600319011261014b5760209061077b610776610a0d565b610b41565b9051908152f35b833461029957806003193601126102995761079b610c5c565b80546001600160a01b03198116825581906001600160a01b03167f8be0079c531659141344cd1fd0a4f28419497f9722a3daafe3b4186f6b6457e08280a380f35b9050346101d65760203660031901126101d65760209260ff918391906001600160a01b03610808610a0d565b168252855220541690519015158152f35b50503461014b5760209060206003193601126101d6576001600160a01b039283610841610a0d565b16815260026020528181209382519081946020875493848152019684526020842093915b83831061088b57610887878761087d828c0383610acc565b5191829182610a28565b0390f35b8454811688529681019660019485019490920191610865565b50503461014b57602036600319011261014b576020916001600160a01b03908290826108ce610a0d565b168152600185522054169051908152f35b50503461014b57602036600319011261014b576020916001600160a01b0390829082610909610a0d565b1681526001855220541615159051908152f35b82843461029957816003193601126102995791610937610a0d565b6024936024359461094786610b04565b9561095486519788610acc565b80875261096081610b04565b60209290601f190136898501376001600160a01b03948516845260016020819052878520549096859390918716885b6109a1575b8951806108878d82610a28565b81851080610a02575b156109fd578a518510156109eb5790878996959493921680868d8760051b01015287528585526109df888b8920541694610b1c565b9495939091929361098f565b634e487b7160e01b8752603283528387fd5b610994565b5087811615156109aa565b600435906001600160a01b0382168203610a2357565b600080fd5b602090602060408183019282815285518094520193019160005b828110610a50575050505090565b83516001600160a01b031685529381019392810192600101610a42565b9181601f84011215610a235782359167ffffffffffffffff8311610a23576020808501948460051b010111610a2357565b8054821015610ab65760005260206000200190600090565b634e487b7160e01b600052603260045260246000fd5b90601f8019910116810190811067ffffffffffffffff821117610aee57604052565b634e487b7160e01b600052604160045260246000fd5b67ffffffffffffffff8111610aee5760051b60200190565b6000198114610b2b5760010190565b634e487b7160e01b600052601160045260246000fd5b6001600160a01b031660009081526004602052604081205460ff1615610be9576005602052604081205480610b74575090565b60018103610b83575050600290565b600f8110610b92575050601e90565b6000198101908111610bd5578060011b9080820460021490151715610bd5576002019081600211610bc1575090565b634e487b7160e01b81526011600452602490fd5b634e487b7160e01b82526011600452602482fd5b90565b15610bf357565b60405162461bcd60e51b815260206004820152601760248201527f4e6f7420617574686f72697a656420636f6e74726163740000000000000000006044820152606490fd5b9190811015610ab65760051b0190565b356001600160a01b0381168103610a235790565b6000546001600160a01b03163303610c7057565b60405163118cdaa760e01b8152336004820152602490fd5b60018060a01b038091169060009382855260016020818152604091848389205416610f1b57848716968715610ee457868814610ea8578789528183528686858b20541614610e6f578789526004906004845260ff858b20541615610e2b578683918b925b610d9f575b5050508689525080825282882080546001600160a01b031916881790558688526002825282882080549168010000000000000000831015610d8b57827f5b6dcb011725a9616ecced5408efb270f5e20477283b63e06c8b4eb0b4da42969796959492610d6292600395018155610a9e565b815490841b90878a831b921b1916179055878952528620610d838154610b1c565b9055169380a4565b634e487b7160e01b8a52604160045260248afd5b601e831080610e20575b15610e1b5716888114610dd857908392918b52828552610dce88878d20541691610b1c565b9192908891610cec565b855162461bcd60e51b8152808401869052601b60248201527f43697263756c6172207265666572656e636520646574656374656400000000006044820152606490fd5b610cf1565b508181161515610da9565b845162461bcd60e51b815260048101859052601760248201527f5265666572726572206d757374206265206163746976650000000000000000006044820152606490fd5b835162461bcd60e51b815260048101849052601260248201527143697263756c6172207265666572656e636560701b6044820152606490fd5b835162461bcd60e51b815260048101849052601560248201527421b0b73737ba103932b332b9103cb7bab939b2b63360591b6044820152606490fd5b835162461bcd60e51b815260048101849052601060248201526f24b73b30b634b2103932b332b93932b960811b6044820152606490fd5b50606491519062461bcd60e51b82526004820152600d60248201526c105b1c9958591e48189bdd5b99609a1b6044820152fdfea164736f6c6343000816000a",
  "devdoc": {
    "errors": {
      "OwnableInvalidOwner(address)": [
        {
          "details": "The owner is not a valid owner account. (eg. `address(0)`)"
        }
      ],
      "OwnableUnauthorizedAccount(address)": [
        {
          "details": "The caller account is not authorized to perform an operation."
        }
      ]
    },
    "kind": "dev",
    "methods": {
      "owner()": {
        "details": "Returns the address of the current owner."
      },
      "renounceOwnership()": {
        "details": "Leaves the contract without owner. It will not be possible to call `onlyOwner` functions. Can only be called by the current owner. NOTE: Renouncing ownership will leave the contract without an owner, thereby disabling any functionality that is only available to the owner."
      },
      "transferOwnership(address)": {
        "details": "Transfers ownership of the contract to a new account (`newOwner`). Can only be called by the current owner."
      }
    },
    "version": 1
  },
  "userdoc": {
    "kind": "user",
    "methods": {},
    "version": 1
  },
  "storageLayout": {
    "storage": [
      {
        "astId": 8,
        "contract": "contracts/PDAReferral.sol:PDAReferral",
        "label": "_owner",
        "offset": 0,
        "slot": "0",
        "type": "t_address"
      },
      {
        "astId": 4935,
        "contract": "contracts/PDAReferral.sol:PDAReferral",
        "label": "referrer",
        "offset": 0,
        "slot": "1",
        "type": "t_mapping(t_address,t_address)"
      },
      {
        "astId": 4940,
        "contract": "contracts/PDAReferral.sol:PDAReferral",
        "label": "referrals",
        "offset": 0,
        "slot": "2",
        "type": "t_mapping(t_address,t_array(t_address)dyn_storage)"
      },
      {
        "astId": 4944,
        "contract": "contracts/PDAReferral.sol:PDAReferral",
        "label": "referralCount",
        "offset": 0,
        "slot": "3",
        "type": "t_mapping(t_address,t_uint256)"
      },
      {
        "astId": 4948,
        "contract": "contracts/PDAReferral.sol:PDAReferral",
        "label": "isActiveUser",
        "offset": 0,
        "slot": "4",
        "type": "t_mapping(t_address,t_bool)"
      },
      {
        "astId": 4952,
        "contract": "contracts/PDAReferral.sol:PDAReferral",
        "label": "activeReferralCount",
        "offset": 0,
        "slot": "5",
        "type": "t_mapping(t_address,t_uint256)"
      },
      {
        "astId": 4956,
        "contract": "contracts/PDAReferral.sol:PDAReferral",
        "label": "authorizedContracts",
        "offset": 0,
        "slot": "6",
        "type": "t_mapping(t_address,t_bool)"
      },
      {
        "astId": 4958,
        "contract": "contracts/PDAReferral.sol:PDAReferral",
        "label": "activeUserManager",
        "offset": 0,
        "slot": "7",
        "type": "t_address"
      }
    ],
    "types": {
      "t_address": {
        "encoding": "inplace",
        "label": "address",
        "numberOfBytes": "20"
      },
      "t_array(t_address)dyn_storage": {
        "base": "t_address",
        "encoding": "dynamic_array",
        "label": "address[]",
        "numberOfBytes": "32"
      },
      "t_bool": {
        "encoding": "inplace",
        "label": "bool",
        "numberOfBytes": "1"
      },
      "t_mapping(t_address,t_address)": {
        "encoding": "mapping",
        "key": "t_address",
        "label": "mapping(address => address)",
        "numberOfBytes": "32",
        "value": "t_address"
      },
      "t_mapping(t_address,t_array(t_address)dyn_storage)": {
        "encoding": "mapping",
        "key": "t_address",
        "label": "mapping(address => address[])",
        "numberOfBytes": "32",
        "value": "t_array(t_address)dyn_storage"
      },
      "t_mapping(t_address,t_bool)": {
        "encoding": "mapping",
        "key": "t_address",
        "label": "mapping(address => bool)",
        "numberOfBytes": "32",
        "value": "t_bool"
      },
      "t_mapping(t_address,t_uint256)": {
        "encoding": "mapping",
        "key": "t_address",
        "label": "mapping(address => uint256)",
        "numberOfBytes": "32",
        "value": "t_uint256"
      },
      "t_uint256": {
        "encoding": "inplace",
        "label": "uint256",
        "numberOfBytes": "32"
      }
    }
  }
}