{
  "address": "0x7E4a21d64afD8F11C41D153ce478A404b1169969",
  "abi": [
    {
      "inputs": [
        {
          "internalType": "address",
          "name": "_withdrawer",
          "type": "address"
        }
      ],
      "stateMutability": "nonpayable",
      "type": "constructor"
    },
    {
      "inputs": [
        {
          "internalType": "address",
          "name": "owner",
          "type": "address"
        }
      ],
      "name": "OwnableInvalidOwner",
      "type": "error"
    },
    {
      "inputs": [
        {
          "internalType": "address",
          "name": "account",
          "type": "address"
        }
      ],
      "name": "OwnableUnauthorizedAccount",
      "type": "error"
    },
    {
      "anonymous": false,
      "inputs": [
        {
          "indexed": true,
          "internalType": "address",
          "name": "previousOwner",
          "type": "address"
        },
        {
          "indexed": true,
          "internalType": "address",
          "name": "newOwner",
          "type": "address"
        }
      ],
      "name": "OwnershipTransferred",
      "type": "event"
    },
    {
      "inputs": [
        {
          "internalType": "address",
          "name": "token",
          "type": "address"
        },
        {
          "internalType": "uint256",
          "name": "amount",
          "type": "uint256"
        }
      ],
      "name": "emergencyWithdraw",
      "outputs": [],
      "stateMutability": "nonpayable",
      "type": "function"
    },
    {
      "inputs": [],
      "name": "owner",
      "outputs": [
        {
          "internalType": "address",
          "name": "",
          "type": "address"
        }
      ],
      "stateMutability": "view",
      "type": "function"
    },
    {
      "inputs": [],
      "name": "pda",
      "outputs": [
        {
          "internalType": "address",
          "name": "",
          "type": "address"
        }
      ],
      "stateMutability": "view",
      "type": "function"
    },
    {
      "inputs": [],
      "name": "renounceOwnership",
      "outputs": [],
      "stateMutability": "nonpayable",
      "type": "function"
    },
    {
      "inputs": [
        {
          "internalType": "address",
          "name": "_pda",
          "type": "address"
        }
      ],
      "name": "setPDA",
      "outputs": [],
      "stateMutability": "nonpayable",
      "type": "function"
    },
    {
      "inputs": [
        {
          "internalType": "address",
          "name": "newWithdrawer",
          "type": "address"
        }
      ],
      "name": "setWithdrawer",
      "outputs": [],
      "stateMutability": "nonpayable",
      "type": "function"
    },
    {
      "inputs": [
        {
          "internalType": "address",
          "name": "newOwner",
          "type": "address"
        }
      ],
      "name": "transferOwnership",
      "outputs": [],
      "stateMutability": "nonpayable",
      "type": "function"
    },
    {
      "inputs": [],
      "name": "withdraw",
      "outputs": [],
      "stateMutability": "nonpayable",
      "type": "function"
    },
    {
      "inputs": [],
      "name": "withdrawer",
      "outputs": [
        {
          "internalType": "address",
          "name": "",
          "type": "address"
        }
      ],
      "stateMutability": "view",
      "type": "function"
    }
  ],
  "transactionHash": "0x1d214728c1f047b183da413ed8d8691a53e3a03ba68f6aa0105e5decab5f68fa",
  "args": [
    "0xa16bE67bD99a6214fb0b262c7BD6f8D6a3EB9544"
  ],
  "numDeployments": 1,
  "solcInputHash": "5d897c96f3373526cdf54ef38fded029",
  "bytecode": "0x60803461011257601f61073c38819003918201601f19168301916001600160401b038311848410176101175780849260209460405283398101031261011257516001600160a01b03808216918290036101125733156100f9576000549060018060a01b0319913383821617600055604051913391167f8be0079c531659141344cd1fd0a4f28419497f9722a3daafe3b4186f6b6457e0600080a382156100b75750600154161760015560405161060e908161012e8239f35b62461bcd60e51b815260206004820152601a60248201527f496e76616c6964207769746864726177657220616464726573730000000000006044820152606490fd5b604051631e4fbdf760e01b815260006004820152602490fd5b600080fd5b634e487b7160e01b600052604160045260246000fdfe6040608081526004908136101561001557600080fd5b600091823560e01c80630d174c241461049a5780633ccfd60b1461032d5780633e20c4f4146102a5578063715018a614610248578063793a0b3d1461021f5780638da5cb5b146101f757806395ccea671461013a578063cdc184241461010d5763f2fde38b1461008457600080fd5b346101095760203660031901126101095761009d61052c565b906100a66105d5565b6001600160a01b039182169283156100f357505082546001600160a01b0319811683178455167f8be0079c531659141344cd1fd0a4f28419497f9722a3daafe3b4186f6b6457e08380a380f35b51631e4fbdf760e01b8152908101849052602490fd5b8280fd5b50503461013657816003193601126101365760015490516001600160a01b039091168152602090f35b5080fd5b5034610109578160031936011261010957602061019b9161015961052c565b6101616105d5565b8554855163a9059cbb60e01b81526001600160a01b0391821693810193845260243560208501529485938492899290918491604090910190565b0393165af19081156101eb576101b9925083916101bc575b50610597565b80f35b6101de915060203d6020116101e4575b6101d68183610547565b81019061057f565b386101b3565b503d6101cc565b505051903d90823e3d90fd5b505034610136578160031936011261013657905490516001600160a01b039091168152602090f35b50503461013657816003193601126101365760025490516001600160a01b039091168152602090f35b83346102a257806003193601126102a2576102616105d5565b80546001600160a01b03198116825581906001600160a01b03167f8be0079c531659141344cd1fd0a4f28419497f9722a3daafe3b4186f6b6457e08280a380f35b80fd5b5034610109576020366003190112610109576102bf61052c565b6102c76105d5565b6001600160a01b03169182156102f45750506bffffffffffffffffffffffff60a01b600254161760025580f35b906020606492519162461bcd60e51b83528201526013602482015272496e76616c696420504441206164647265737360681b6044820152fd5b50346101095782600319360112610109576001546001600160a01b039081169190338390036104485790849160025416908451916370a0823160e01b835230828401526020948584602481855afa92831561043e5786948694610405575b50875163a9059cbb60e01b81526001600160a01b03909216908201908152602081019390935293849283919082906040015b03925af19182156103f8576101b9935084926103db575b5050610597565b6103f19250803d106101e4576101d68183610547565b38806103d4565b50505051903d90823e3d90fd5b8581969295503d8311610437575b61041d8183610547565b81010312610433579251859390926103bd61038b565b8480fd5b503d610413565b87513d87823e3d90fd5b835162461bcd60e51b8152602081840152602660248201527f4f6e6c7920776974686472617765722063616e2063616c6c20746869732066756044820152653731ba34b7b760d11b6064820152608490fd5b5034610109576020366003190112610109576104b461052c565b6104bc6105d5565b6001600160a01b03169182156104e95750506bffffffffffffffffffffffff60a01b600154161760015580f35b906020606492519162461bcd60e51b8352820152601a60248201527f496e76616c6964207769746864726177657220616464726573730000000000006044820152fd5b600435906001600160a01b038216820361054257565b600080fd5b90601f8019910116810190811067ffffffffffffffff82111761056957604052565b634e487b7160e01b600052604160045260246000fd5b90816020910312610542575180151581036105425790565b1561059e57565b60405162461bcd60e51b815260206004820152600f60248201526e151c985b9cd9995c8819985a5b1959608a1b6044820152606490fd5b6000546001600160a01b031633036105e957565b60405163118cdaa760e01b8152336004820152602490fdfea164736f6c6343000817000a",
  "devdoc": {
    "errors": {
      "OwnableInvalidOwner(address)": [
        {
          "details": "The owner is not a valid owner account. (eg. `address(0)`)"
        }
      ],
      "OwnableUnauthorizedAccount(address)": [
        {
          "details": "The caller account is not authorized to perform an operation."
        }
      ]
    },
    "kind": "dev",
    "methods": {
      "owner()": {
        "details": "Returns the address of the current owner."
      },
      "renounceOwnership()": {
        "details": "Leaves the contract without owner. It will not be possible to call `onlyOwner` functions. Can only be called by the current owner. NOTE: Renouncing ownership will leave the contract without an owner, thereby disabling any functionality that is only available to the owner."
      },
      "transferOwnership(address)": {
        "details": "Transfers ownership of the contract to a new account (`newOwner`). Can only be called by the current owner."
      }
    },
    "version": 1
  },
  "userdoc": {
    "kind": "user",
    "methods": {},
    "version": 1
  },
  "storageLayout": {
    "storage": [
      {
        "astId": 8,
        "contract": "contracts/BurnReceiver.sol:BurnReceiver",
        "label": "_owner",
        "offset": 0,
        "slot": "0",
        "type": "t_address"
      },
      {
        "astId": 185,
        "contract": "contracts/BurnReceiver.sol:BurnReceiver",
        "label": "withdrawer",
        "offset": 0,
        "slot": "1",
        "type": "t_address"
      },
      {
        "astId": 187,
        "contract": "contracts/BurnReceiver.sol:BurnReceiver",
        "label": "pda",
        "offset": 0,
        "slot": "2",
        "type": "t_address"
      }
    ],
    "types": {
      "t_address": {
        "encoding": "inplace",
        "label": "address",
        "numberOfBytes": "20"
      }
    }
  }
}