{
  "address": "0x238A88FD0107F09586a8FDA1a4238B01389f69B6",
  "abi": [
    {
      "inputs": [
        {
          "internalType": "address",
          "name": "_burnAddress",
          "type": "address"
        },
        {
          "internalType": "address",
          "name": "_operationAddress",
          "type": "address"
        },
        {
          "internalType": "address",
          "name": "_deviceAddress",
          "type": "address"
        },
        {
          "internalType": "address",
          "name": "_burnSetter",
          "type": "address"
        }
      ],
      "stateMutability": "nonpayable",
      "type": "constructor"
    },
    {
      "inputs": [
        {
          "internalType": "address",
          "name": "owner",
          "type": "address"
        }
      ],
      "name": "OwnableInvalidOwner",
      "type": "error"
    },
    {
      "inputs": [
        {
          "internalType": "address",
          "name": "account",
          "type": "address"
        }
      ],
      "name": "OwnableUnauthorizedAccount",
      "type": "error"
    },
    {
      "anonymous": false,
      "inputs": [
        {
          "indexed": true,
          "internalType": "address",
          "name": "owner",
          "type": "address"
        },
        {
          "indexed": true,
          "internalType": "address",
          "name": "spender",
          "type": "address"
        },
        {
          "indexed": false,
          "internalType": "uint256",
          "name": "value",
          "type": "uint256"
        }
      ],
      "name": "Approval",
      "type": "event"
    },
    {
      "anonymous": false,
      "inputs": [
        {
          "indexed": true,
          "internalType": "address",
          "name": "previousOwner",
          "type": "address"
        },
        {
          "indexed": true,
          "internalType": "address",
          "name": "newOwner",
          "type": "address"
        }
      ],
      "name": "OwnershipTransferred",
      "type": "event"
    },
    {
      "anonymous": false,
      "inputs": [
        {
          "indexed": true,
          "internalType": "address",
          "name": "from",
          "type": "address"
        },
        {
          "indexed": true,
          "internalType": "address",
          "name": "to",
          "type": "address"
        },
        {
          "indexed": false,
          "internalType": "uint256",
          "name": "value",
          "type": "uint256"
        }
      ],
      "name": "Transfer",
      "type": "event"
    },
    {
      "inputs": [],
      "name": "BURN_INTERVAL",
      "outputs": [
        {
          "internalType": "uint256",
          "name": "",
          "type": "uint256"
        }
      ],
      "stateMutability": "view",
      "type": "function"
    },
    {
      "inputs": [],
      "name": "DAILY_BURN_RATE",
      "outputs": [
        {
          "internalType": "uint256",
          "name": "",
          "type": "uint256"
        }
      ],
      "stateMutability": "view",
      "type": "function"
    },
    {
      "inputs": [],
      "name": "DEAD_ADDRESS",
      "outputs": [
        {
          "internalType": "address",
          "name": "",
          "type": "address"
        }
      ],
      "stateMutability": "view",
      "type": "function"
    },
    {
      "inputs": [],
      "name": "MIN_TOTAL_SUPPLY",
      "outputs": [
        {
          "internalType": "uint256",
          "name": "",
          "type": "uint256"
        }
      ],
      "stateMutability": "view",
      "type": "function"
    },
    {
      "inputs": [],
      "name": "ROUTER",
      "outputs": [
        {
          "internalType": "address",
          "name": "",
          "type": "address"
        }
      ],
      "stateMutability": "view",
      "type": "function"
    },
    {
      "inputs": [],
      "name": "USDT",
      "outputs": [
        {
          "internalType": "address",
          "name": "",
          "type": "address"
        }
      ],
      "stateMutability": "view",
      "type": "function"
    },
    {
      "inputs": [
        {
          "internalType": "address",
          "name": "user",
          "type": "address"
        }
      ],
      "name": "addWhiteList",
      "outputs": [],
      "stateMutability": "nonpayable",
      "type": "function"
    },
    {
      "inputs": [
        {
          "internalType": "address",
          "name": "owner",
          "type": "address"
        },
        {
          "internalType": "address",
          "name": "spender",
          "type": "address"
        }
      ],
      "name": "allowance",
      "outputs": [
        {
          "internalType": "uint256",
          "name": "",
          "type": "uint256"
        }
      ],
      "stateMutability": "view",
      "type": "function"
    },
    {
      "inputs": [
        {
          "internalType": "address",
          "name": "spender",
          "type": "address"
        },
        {
          "internalType": "uint256",
          "name": "amount",
          "type": "uint256"
        }
      ],
      "name": "approve",
      "outputs": [
        {
          "internalType": "bool",
          "name": "",
          "type": "bool"
        }
      ],
      "stateMutability": "nonpayable",
      "type": "function"
    },
    {
      "inputs": [
        {
          "internalType": "address",
          "name": "account",
          "type": "address"
        }
      ],
      "name": "balanceOf",
      "outputs": [
        {
          "internalType": "uint256",
          "name": "",
          "type": "uint256"
        }
      ],
      "stateMutability": "view",
      "type": "function"
    },
    {
      "inputs": [
        {
          "internalType": "address[]",
          "name": "users",
          "type": "address[]"
        }
      ],
      "name": "batchAddWhiteList",
      "outputs": [],
      "stateMutability": "nonpayable",
      "type": "function"
    },
    {
      "inputs": [
        {
          "internalType": "address[]",
          "name": "users",
          "type": "address[]"
        }
      ],
      "name": "batchRemoveWhiteList",
      "outputs": [],
      "stateMutability": "nonpayable",
      "type": "function"
    },
    {
      "inputs": [],
      "name": "burnAddress",
      "outputs": [
        {
          "internalType": "address",
          "name": "",
          "type": "address"
        }
      ],
      "stateMutability": "view",
      "type": "function"
    },
    {
      "inputs": [],
      "name": "burnPoolTokens",
      "outputs": [
        {
          "internalType": "uint256",
          "name": "burnAmount",
          "type": "uint256"
        }
      ],
      "stateMutability": "nonpayable",
      "type": "function"
    },
    {
      "inputs": [],
      "name": "burnSetter",
      "outputs": [
        {
          "internalType": "address",
          "name": "",
          "type": "address"
        }
      ],
      "stateMutability": "view",
      "type": "function"
    },
    {
      "inputs": [],
      "name": "buyStatus",
      "outputs": [
        {
          "internalType": "bool",
          "name": "",
          "type": "bool"
        }
      ],
      "stateMutability": "view",
      "type": "function"
    },
    {
      "inputs": [],
      "name": "circulatingSupply",
      "outputs": [
        {
          "internalType": "uint256",
          "name": "",
          "type": "uint256"
        }
      ],
      "stateMutability": "view",
      "type": "function"
    },
    {
      "inputs": [],
      "name": "decimals",
      "outputs": [
        {
          "internalType": "uint8",
          "name": "",
          "type": "uint8"
        }
      ],
      "stateMutability": "view",
      "type": "function"
    },
    {
      "inputs": [],
      "name": "deviceAddress",
      "outputs": [
        {
          "internalType": "address",
          "name": "",
          "type": "address"
        }
      ],
      "stateMutability": "view",
      "type": "function"
    },
    {
      "inputs": [
        {
          "internalType": "address",
          "name": "user",
          "type": "address"
        }
      ],
      "name": "isWhiteListed",
      "outputs": [
        {
          "internalType": "bool",
          "name": "",
          "type": "bool"
        }
      ],
      "stateMutability": "view",
      "type": "function"
    },
    {
      "inputs": [],
      "name": "lastBurnTime",
      "outputs": [
        {
          "internalType": "uint256",
          "name": "",
          "type": "uint256"
        }
      ],
      "stateMutability": "view",
      "type": "function"
    },
    {
      "inputs": [],
      "name": "name",
      "outputs": [
        {
          "internalType": "string",
          "name": "",
          "type": "string"
        }
      ],
      "stateMutability": "view",
      "type": "function"
    },
    {
      "inputs": [],
      "name": "operationAddress",
      "outputs": [
        {
          "internalType": "address",
          "name": "",
          "type": "address"
        }
      ],
      "stateMutability": "view",
      "type": "function"
    },
    {
      "inputs": [],
      "name": "owner",
      "outputs": [
        {
          "internalType": "address",
          "name": "",
          "type": "address"
        }
      ],
      "stateMutability": "view",
      "type": "function"
    },
    {
      "inputs": [],
      "name": "pair",
      "outputs": [
        {
          "internalType": "address",
          "name": "",
          "type": "address"
        }
      ],
      "stateMutability": "view",
      "type": "function"
    },
    {
      "inputs": [
        {
          "internalType": "address",
          "name": "user",
          "type": "address"
        }
      ],
      "name": "removeWhiteList",
      "outputs": [],
      "stateMutability": "nonpayable",
      "type": "function"
    },
    {
      "inputs": [],
      "name": "renounceOwnership",
      "outputs": [],
      "stateMutability": "nonpayable",
      "type": "function"
    },
    {
      "inputs": [],
      "name": "sellDeviceFeeRate",
      "outputs": [
        {
          "internalType": "uint256",
          "name": "",
          "type": "uint256"
        }
      ],
      "stateMutability": "view",
      "type": "function"
    },
    {
      "inputs": [],
      "name": "sellOperationFeeRate",
      "outputs": [
        {
          "internalType": "uint256",
          "name": "",
          "type": "uint256"
        }
      ],
      "stateMutability": "view",
      "type": "function"
    },
    {
      "inputs": [],
      "name": "sellStatus",
      "outputs": [
        {
          "internalType": "bool",
          "name": "",
          "type": "bool"
        }
      ],
      "stateMutability": "view",
      "type": "function"
    },
    {
      "inputs": [
        {
          "internalType": "address",
          "name": "_burnAddress",
          "type": "address"
        }
      ],
      "name": "setBurnAddress",
      "outputs": [],
      "stateMutability": "nonpayable",
      "type": "function"
    },
    {
      "inputs": [
        {
          "internalType": "address",
          "name": "_burnSetter",
          "type": "address"
        }
      ],
      "name": "setBurnSetter",
      "outputs": [],
      "stateMutability": "nonpayable",
      "type": "function"
    },
    {
      "inputs": [
        {
          "internalType": "bool",
          "name": "_status",
          "type": "bool"
        }
      ],
      "name": "setBuyStatus",
      "outputs": [],
      "stateMutability": "nonpayable",
      "type": "function"
    },
    {
      "inputs": [
        {
          "internalType": "address",
          "name": "_deviceAddress",
          "type": "address"
        }
      ],
      "name": "setDeviceAddress",
      "outputs": [],
      "stateMutability": "nonpayable",
      "type": "function"
    },
    {
      "inputs": [
        {
          "internalType": "address",
          "name": "_operationAddress",
          "type": "address"
        }
      ],
      "name": "setOperationAddress",
      "outputs": [],
      "stateMutability": "nonpayable",
      "type": "function"
    },
    {
      "inputs": [
        {
          "internalType": "uint256",
          "name": "_sellDeviceFeeRate",
          "type": "uint256"
        }
      ],
      "name": "setSellDeviceFeeRate",
      "outputs": [],
      "stateMutability": "nonpayable",
      "type": "function"
    },
    {
      "inputs": [
        {
          "internalType": "uint256",
          "name": "_sellOperationFeeRate",
          "type": "uint256"
        }
      ],
      "name": "setSellOperationFeeRate",
      "outputs": [],
      "stateMutability": "nonpayable",
      "type": "function"
    },
    {
      "inputs": [
        {
          "internalType": "bool",
          "name": "_status",
          "type": "bool"
        }
      ],
      "name": "setSellStatus",
      "outputs": [],
      "stateMutability": "nonpayable",
      "type": "function"
    },
    {
      "inputs": [],
      "name": "symbol",
      "outputs": [
        {
          "internalType": "string",
          "name": "",
          "type": "string"
        }
      ],
      "stateMutability": "view",
      "type": "function"
    },
    {
      "inputs": [],
      "name": "totalSupply",
      "outputs": [
        {
          "internalType": "uint256",
          "name": "",
          "type": "uint256"
        }
      ],
      "stateMutability": "view",
      "type": "function"
    },
    {
      "inputs": [
        {
          "internalType": "address",
          "name": "recipient",
          "type": "address"
        },
        {
          "internalType": "uint256",
          "name": "amount",
          "type": "uint256"
        }
      ],
      "name": "transfer",
      "outputs": [
        {
          "internalType": "bool",
          "name": "",
          "type": "bool"
        }
      ],
      "stateMutability": "nonpayable",
      "type": "function"
    },
    {
      "inputs": [
        {
          "internalType": "address",
          "name": "sender",
          "type": "address"
        },
        {
          "internalType": "address",
          "name": "recipient",
          "type": "address"
        },
        {
          "internalType": "uint256",
          "name": "amount",
          "type": "uint256"
        }
      ],
      "name": "transferFrom",
      "outputs": [
        {
          "internalType": "bool",
          "name": "",
          "type": "bool"
        }
      ],
      "stateMutability": "nonpayable",
      "type": "function"
    },
    {
      "inputs": [
        {
          "internalType": "address",
          "name": "newOwner",
          "type": "address"
        }
      ],
      "name": "transferOwnership",
      "outputs": [],
      "stateMutability": "nonpayable",
      "type": "function"
    },
    {
      "inputs": [
        {
          "internalType": "address",
          "name": "",
          "type": "address"
        }
      ],
      "name": "whiteList",
      "outputs": [
        {
          "internalType": "bool",
          "name": "",
          "type": "bool"
        }
      ],
      "stateMutability": "view",
      "type": "function"
    }
  ],
  "transactionHash": "0x571f8a139ca8fbc4bcdb0db9ade82e03c48f6d39ef7f9ad0c19f38ea0d05a418",
  "args": [
    "0xb680ad3b50143500a785388fa0a9dd084697ea5e",
    "0xc8DF60C860Cf7A440852cAf91f9a39bA3c362378",
    "0x1e0f55df4f48a6008ac848f7a3e2587ccdba2305",
    "0xb680ad3b50143500a785388fa0a9dd084697ea5e"
  ],
  "numDeployments": 1,
  "solcInputHash": "2b9136b18437d2996226902dd79e7425",
  "bytecode": "0x60a060409080825234620004fe5760808162002500803803809162000025828562000503565b833981010312620004fe576200003b816200053d565b906020916200004c8383016200053d565b90620000686060620000608786016200053d565b94016200053d565b903315620004e657600080546001600160a01b03198082163390811784558951939791956001600160a01b03959294929390919086167f8be0079c531659141344cd1fd0a4f28419497f9722a3daafe3b4186f6b6457e08a80a3600354956001968781811c91168015620004db575b8b821014620004c757601f811162000498575b5060066250444160e81b01948560035560049586548981811c911680156200048d575b8d8210146200047a57601f81116200044c575b50865560ff199860128a60055416176005556aadb53acfa41aee1200000060065587600a54966014600b55601e600c55169485156200040b57508716908115620003c85787169283156200038557871693841562000342578260075416176007558160085416176008556009541617600955600160a81b9160018060b01b0319161717600a5586519063c45a015560e01b8252868282817310ed43c718714eb63d5aa57b78b54704e256024e5afa9182156200033857908792918792620002f1575b50604490878a5195869485936364e329cb60e11b855230908501527355d398326f99059ff775485246999027b31979556024850152165af1908115620002e7578491620002a6575b5060805260065433845281855285842055600e84528483209182541617905542600d557fddf252ad1be2c89b69c2b068fc378daa952ba7f163c4a11628f55a4df523b3ef6006549284519384523393a351611fad908162000553823960805181818161057d01528181610a2d015281816115580152611d030152f35b90508481813d8311620002df575b620002c0818362000503565b81010312620002db57620002d4906200053d565b386200022a565b8380fd5b503d620002b4565b86513d86823e3d90fd5b8092508391933d831162000330575b6200030c818362000503565b810103126200032c579060446200032488936200053d565b9190620001e2565b8580fd5b503d62000300565b88513d88823e3d90fd5b8c5162461bcd60e51b81528088018d9052601b60248201527f496e76616c6964206275726e20736574746572206164647265737300000000006044820152606490fd5b8c5162461bcd60e51b81528088018d9052601660248201527f496e76616c6964206465766963652061646472657373000000000000000000006044820152606490fd5b8c5162461bcd60e51b81528088018d9052601960248201527f496e76616c6964206f7065726174696f6e2061646472657373000000000000006044820152606490fd5b62461bcd60e51b81528781018d9052601460248201527f496e76616c6964206275726e20616464726573730000000000000000000000006044820152606490fd5b89601f8e8e8b815220920160051c8201915b8281106200046e57505062000120565b8d8155018a906200045e565b634e487b7160e01b8c526022885260248cfd5b90607f16906200010d565b60038a5287601f8c8c20920160051c8201915b828110620004bb575050620000ea565b8b8155018890620004ab565b634e487b7160e01b8a52602260045260248afd5b90607f1690620000d7565b8551631e4fbdf760e01b815260006004820152602490fd5b600080fd5b601f909101601f19168101906001600160401b038211908210176200052757604052565b634e487b7160e01b600052604160045260246000fd5b51906001600160a01b0382168203620004fe5756fe608060408181526004918236101561001657600080fd5b600092833560e01c91826306fdde031461107557508163095ea7b31461104b5781630d02e05c1461100557816318160ddd14610fe65781632042e5c214610fa657816323b872dd14610ee1578163313ce56714610ebf57816332fe7b2614610e905781633415650e14610e69578163372c12b114610d38578163413d29ab14610e4a5781634b0e721614610dfe5781634e6fd6c414610de15781635122c40914610dbc5781635b4be32b14610d765781636f9170f614610d3857816370a0823114610d0057816370d5ae0514610cd7578163715018a614610c7d5781637b1648e214610c5f5781638b6116ae14610c2f5781638da5cb5b14610c075781639358928b14610bd257816395d89b4114610acd5781639757982514610aa457816397bcd18414610a85578163a441c30214610a5c578163a8aa1b3114610a18578163a9059cbb146109e7578163b1d0b725146109c0578163bcb04de114610967578163c015ef3c146108d9578163c364e1d514610505578163c54e44eb146104d6578163c9555429146104a6578163ca2a62531461045a578163cd059237146103e0578163d53ce95614610391578163dd62ed3e14610348578163e306744914610329578163e6a957e71461030d578163e7cd4a04146102bf578163f2fde38b14610234575063f81e5a9a1461020957600080fd5b34610230578160031936011261023057600a5490516001600160a01b039091168152602090f35b5080fd5b9050346102bb5760203660031901126102bb5761024f6111b3565b906102586114d7565b6001600160a01b039182169283156102a557505082546001600160a01b0319811683178455167f8be0079c531659141344cd1fd0a4f28419497f9722a3daafe3b4186f6b6457e08380a380f35b51631e4fbdf760e01b8152908101849052602490fd5b8280fd5b505034610230576020366003190112610230576102da6111b3565b6102e26114d7565b6001600160a01b03166102f6811515611397565b8252600e6020528120805460ff1916600117905580f35b5050346102305781600319360112610230576020905160148152f35b505034610230578160031936011261023057602090600d549051908152f35b505034610230578060031936011261023057806020926103666111b3565b61036e6111ce565b6001600160a01b0391821683526002865283832091168252845220549051908152f35b83346103dd5760203660031901126103dd576103ab6111b3565b6103b36114d7565b6001600160a01b03166103c781151561128c565b6001600160601b0360a01b600854161760085580f35b80fd5b505034610230576103f0366111e4565b91906103fa6114d7565b835b838110610407578480f35b6001906001600160a01b0361043181610429610424858a8961131d565b611343565b161515611397565b61043f61042483888761131d565b168652600e602052838620805460ff191683179055016103fc565b83346103dd5760203660031901126103dd576104746111b3565b61047c6114d7565b6001600160a01b031661049081151561128c565b6001600160601b0360a01b600954161760095580f35b83903461023057602036600319011261023057356104c26114d7565b6104d06103e88211156112d1565b600c5580f35b505034610230578160031936011261023057602090517355d398326f99059ff775485246999027b31979558152f35b838334610230578160031936011261023057600a546001600160a01b0392908316330361089657600d54620151808101809111610883574210610840576006549361dead938483526001906105636020978389528686205490611269565b91690472698b413b43200000918284119788156107e457817f00000000000000000000000000000000000000000000000000000000000000001694858852838b528888205480156107ad576014810290810460140361079a576103e89004998a1561075f57918a8594928d946105dd838b991c8094611269565b986105e88484611269565b10610700575b50508590818b528585528c6106078d8d20918254611269565b905584816106cb575b505050508461068d575b505050505042600d55803b156102bb57908280928286518096819363fff6cae960e01b83525af1801561068357610655575b50505051908152f35b67ffffffffffffffff8311610670575050815283808061064c565b634e487b7160e01b825260419052602490fd5b84513d84823e3d90fd5b600080516020611f81833981519152928160075416895282528888206106b4868254611357565b905560075416938851908152a3868181888161061a565b600080516020611f8183398151915291848d528782528d8d206106ef828254611357565b90558d51908152a38b848184610610565b929750949592949391159050610754575050690472698b413b431fffff198101908111610741578492918a91945b84610739878d611269565b96908e6105ee565b634e487b7160e01b875260118652602487fd5b91509291879461072e565b895162461bcd60e51b81528089018d90526015602482015274109d5c9b88185b5bdd5b9d081d1bdbc81cdb585b1b605a1b6044820152606490fd5b634e487b7160e01b895260118852602489fd5b895162461bcd60e51b81528089018d90526011602482015270139bc81d1bdad95b9cc81a5b881c1bdbdb607a1b6044820152606490fd5b875162461bcd60e51b81528087018b9052603060248201527f43697263756c6174696e6720737570706c79206861732072656163686564206d60448201526f1a5b9a5b5d5b481d1a1c995cda1bdb1960821b6064820152608490fd5b815162461bcd60e51b8152602081860152601960248201527f4275726e20696e74657276616c206e6f742072656163686564000000000000006044820152606490fd5b634e487b7160e01b825260118552602482fd5b815162461bcd60e51b8152602081860152601960248201527f4f6e6c79206275726e207365747465722063616e2063616c6c000000000000006044820152606490fd5b9050346102bb5760203660031901126102bb576108f46111b3565b6108fc6114d7565b6001600160a01b03169182156109245750506001600160601b0360a01b600a541617600a5580f35b906020606492519162461bcd60e51b8352820152601b60248201527f496e76616c6964206275726e20736574746572206164647265737300000000006044820152fd5b50503461023057610977366111e4565b91906109816114d7565b835b83811061098e578480f35b6001906001600160a01b036109a761042483888761131d565b168652600e602052838620805460ff1916905501610983565b50503461023057816003193601126102305760209060ff600a5460a81c1690519015158152f35b505034610230578060031936011261023057602090610a11610a076111b3565b6024359033611503565b5160018152f35b505034610230578160031936011261023057517f00000000000000000000000000000000000000000000000000000000000000006001600160a01b03168152602090f35b50503461023057816003193601126102305760085490516001600160a01b039091168152602090f35b505034610230578160031936011261023057602090600c549051908152f35b50503461023057816003193601126102305760095490516001600160a01b039091168152602090f35b83833461023057816003193601126102305780519180938054916001908360011c9260018516948515610bc8575b6020958686108114610bb557858952908115610b915750600114610b39575b610b358787610b2b828c0383611231565b519182918261116a565b0390f35b81529295507f8a35acfbc15ff81a39ae7d344fd709f28e8600b4aa8c65c6b64bfe7fe36bd19b5b828410610b7e5750505082610b3594610b2b92820101948680610b1a565b8054868501880152928601928101610b60565b60ff19168887015250505050151560051b8301019250610b2b82610b358680610b1a565b634e487b7160e01b845260228352602484fd5b93607f1693610afb565b505034610230578160031936011261023057610c00602092826006549161dead815260018652205490611269565b9051908152f35b505034610230578160031936011261023057905490516001600160a01b039091168152602090f35b8390346102305760203660031901126102305735610c4b6114d7565b610c596103e88211156112d1565b600b5580f35b50503461023057816003193601126102305760209051620151808152f35b83346103dd57806003193601126103dd57610c966114d7565b80546001600160a01b03198116825581906001600160a01b03167f8be0079c531659141344cd1fd0a4f28419497f9722a3daafe3b4186f6b6457e08280a380f35b50503461023057816003193601126102305760075490516001600160a01b039091168152602090f35b5050346102305760203660031901126102305760209181906001600160a01b03610d286111b3565b1681526001845220549051908152f35b5050346102305760203660031901126102305760209160ff9082906001600160a01b03610d636111b3565b168152600e855220541690519015158152f35b839034610230576020366003190112610230573580151580910361023057610d9c6114d7565b600a805460ff60a81b191660a89290921b60ff60a81b1691909117905580f35b50503461023057816003193601126102305760209051690472698b413b432000008152f35b5050346102305781600319360112610230576020905161dead8152f35b83346103dd5760203660031901126103dd57610e186111b3565b610e206114d7565b6001600160a01b0316610e3481151561128c565b6001600160601b0360a01b600754161760075580f35b505034610230578160031936011261023057602090600b549051908152f35b50503461023057816003193601126102305760209060ff600a5460a01c1690519015158152f35b505034610230578160031936011261023057602090517310ed43c718714eb63d5aa57b78b54704e256024e8152f35b50503461023057816003193601126102305760209060ff600554169051908152f35b905082346103dd5760603660031901126103dd57610efd6111b3565b91610f066111ce565b846044359360018060a01b03861681526002602052818120338252602052205491838310610f5257602086610a1187610f4a8888610f45828a86611503565b611269565b9033906113d5565b608490602087519162461bcd60e51b8352820152602860248201527f45524332303a207472616e7366657220616d6f756e74206578636565647320616044820152676c6c6f77616e636560c01b6064820152fd5b50503461023057602036600319011261023057610fc16111b3565b610fc96114d7565b6001600160a01b03168252600e6020528120805460ff1916905580f35b5050346102305781600319360112610230576020906006549051908152f35b83903461023057602036600319011261023057358015158091036102305761102b6114d7565b600a805460ff60a01b191660a09290921b60ff60a01b1691909117905580f35b505034610230578060031936011261023057602090610a1161106b6111b3565b60243590336113d5565b92915034611166578360031936011261116657600354600181811c918690828116801561115c575b6020958686108214611149575084885290811561112757506001146110ce575b610b358686610b2b828b0383611231565b929550600383527fc2575a0e9e593c00f959f8c92f12db2869c3395a3b0502d05e2516446f71f85b5b8284106111145750505082610b3594610b2b9282010194386110bd565b80548685018801529286019281016110f7565b60ff191687860152505050151560051b8301019250610b2b82610b35386110bd565b634e487b7160e01b845260229052602483fd5b93607f169361109d565b8380fd5b6020808252825181830181905290939260005b82811061119f57505060409293506000838284010152601f8019910116010190565b81810186015184820160400152850161117d565b600435906001600160a01b03821682036111c957565b600080fd5b602435906001600160a01b03821682036111c957565b9060206003198301126111c95760043567ffffffffffffffff928382116111c957806023830112156111c95781600401359384116111c95760248460051b830101116111c9576024019190565b90601f8019910116810190811067ffffffffffffffff82111761125357604052565b634e487b7160e01b600052604160045260246000fd5b9190820391821161127657565b634e487b7160e01b600052601160045260246000fd5b1561129357565b60405162461bcd60e51b8152602060048201526016602482015275125b9d985b1a59081c9958d95a5d99481dd85b1b195d60521b6044820152606490fd5b156112d857565b60405162461bcd60e51b815260206004820152601b60248201527f46656520726174652063616e6e6f7420657863656564203130302500000000006044820152606490fd5b919081101561132d5760051b0190565b634e487b7160e01b600052603260045260246000fd5b356001600160a01b03811681036111c95790565b9190820180921161127657565b8181029291811591840414171561127657565b8115611381570490565b634e487b7160e01b600052601260045260246000fd5b1561139e57565b60405162461bcd60e51b815260206004820152600f60248201526e496e76616c6964206164647265737360881b6044820152606490fd5b6001600160a01b0390811691821561148657169182156114365760207f8c5be1e5ebec7d5bd14f71427d1e84f3dd0314c0f7b2291e5b200ac8c7c3b925918360005260028252604060002085600052825280604060002055604051908152a3565b60405162461bcd60e51b815260206004820152602260248201527f45524332303a20617070726f766520746f20746865207a65726f206164647265604482015261737360f01b6064820152608490fd5b60405162461bcd60e51b8152602060048201526024808201527f45524332303a20617070726f76652066726f6d20746865207a65726f206164646044820152637265737360e01b6064820152608490fd5b6000546001600160a01b031633036114eb57565b60405163118cdaa760e01b8152336004820152602490fd5b9192916001600160a01b0391908216908115611c8c578216918215611c3b5760009482865260019160209280845260409183838a205410611be857858952818552828920611552858254611269565b905583817f000000000000000000000000000000000000000000000000000000000000000016808814611a6a575b8089146115ba575b50505087829187600080516020611f818339815191529798999a528552206115b1838254611357565b905551908152a3565b878b52600e875260ff858c205416611588578a80916115d7611cf3565b9192916115f78583868e81151580611a61575b611a4a575b509050611357565b811015611743575b505050505015611610575b80611588565b90935060ff600a5460a81c16156116ff579782918587611679600080516020611f81833981519152999a9b9c6116716103e89182611650600b5483611364565b04858c61165d8385611269565b98836116c1575b50505050600c5490611364565b048093611269565b968883611691575b505050509181999897965061160a565b818b926009541687528582528787206116ab868254611357565b905560095416938751908152a338888188611681565b600080516020611f818339815191529180600854168d528b82528d8d206116e9868254611357565b905560085416938d51908152a338858c8e611664565b825162461bcd60e51b815260048101869052601d60248201527f4163636573732064656e6965643a2063616e27742073656c6c205044410000006044820152606490fd5b909192938095505088516318160ddd60e01b81526004958c828881885afa918215611a3e578192611a0f575b508a5163c45a015560e01b8152919485928e818a817310ed43c718714eb63d5aa57b78b54704e256024e5afa9081156119e6578f90918a8f8e959487936119f0575b5051622fcfcb60e31b81529485928391165afa9182156119e6578f90918e8b9386956119b7575b5051637464fc3d60e01b815292839182905afa9283156119ac57918b918f999897969594611970575b508793929116611892575b505061181791611269565b928261185f575050506118329161182d91611364565b611e60565b6103e71981019190821161184c57505b8a388080806115ff565b634e487b7160e01b8c526011905260248bfd5b82955061188494506118786118789361187d9395611364565b611377565b9389611364565b908180821091180218611842565b801561180c5790916118aa61182d866118b093611364565b91611e60565b8082116118c0575b86925061180c565b90919293949596506118db6118d58284611269565b84611364565b918260031b928084046008149015171561195957601181029080820460111490151715611959578160031b918083046008149015171561195957879695949261192a8f99959361193093611357565b90611377565b908161193f575b8293506118b8565b611817939295509061195091611357565b93909138611937565b5050505060248f601187634e487b7160e01b835252fd5b9392509750508d82813d83116119a5575b61198b8183611231565b8101031261199f5790518c968a9087611801565b50508f80fd5b503d611981565b8d51903d90823e3d90fd5b6119d8919550833d85116119df575b6119d08183611231565b810190611e41565b93386117d8565b503d6119c6565b8d513d85823e3d90fd5b611a08919350843d86116119df576119d08183611231565b91386117b1565b9091508c81813d8311611a37575b611a278183611231565b810103126102305751903861176f565b503d611a1d565b508a51903d90823e3d90fd5b611a5993509061187891611364565b83868e6115ef565b508215156115ea565b8a611a73611cf3565b90501115611b57575b15611af457888b52600e875260ff858c20541615611a9a575b611580565b6064820495508a88611aac8885611269565b8981611abc575b50505050611580565b600080516020611f81833981519152918961dead958681528a845220611ae3828254611357565b90558951908152a38a883889611ab3565b888b52600e875260ff858c2054166115805760ff600a5460a01c16611a9557845162461bcd60e51b815260048101889052601c60248201527f4163636573732064656e6965643a2063616e27742062757920504441000000006044820152606490fd5b5084516318160ddd60e01b81528b908881600481865afa908115611bde5782918891869491611ba7575b509261192a91611b94611ba29583611364565b93868152898d522054611269565b611a7c565b935050508882813d8311611bd7575b611bc08183611231565b810103126103dd579051839190879061192a611b81565b503d611bb6565b87513d84823e3d90fd5b825162461bcd60e51b815260048101869052602660248201527f45524332303a207472616e7366657220616d6f756e7420657863656564732062604482015265616c616e636560d01b6064820152608490fd5b60405162461bcd60e51b815260206004820152602360248201527f45524332303a207472616e7366657220746f20746865207a65726f206164647260448201526265737360e81b6064820152608490fd5b60405162461bcd60e51b815260206004820152602560248201527f45524332303a207472616e736665722066726f6d20746865207a65726f206164604482015264647265737360d81b6064820152608490fd5b51906001600160701b03821682036111c957565b604051630240bc6b60e21b8152907f00000000000000000000000000000000000000000000000000000000000000006001600160a01b031690606083600481855afa928315611dd3576000908194611de8575b506001600160701b03938416937355d398326f99059ff775485246999027b3197955911630821015611ddf5760209094935b6024604051809481936370a0823160e01b835260048301525afa908115611dd357600091611da4575090565b90506020813d602011611dcb575b81611dbf60209383611231565b810103126111c9575190565b3d9150611db2565b6040513d6000823e3d90fd5b92602090611d78565b93506060843d606011611e39575b81611e0360609383611231565b810103126103dd57611e1484611cdf565b906040611e2360208701611cdf565b95015163ffffffff8116036103dd575038611d46565b3d9150611df6565b908160209103126111c957516001600160a01b03811681036111c95790565b600180821115611f7c57611f1d908083600160801b811015611f6a575b80600160401b6004921015611f5d575b640100000000811015611f50575b62010000811015611f43575b610100811015611f37575b6010811015611f2b575b1015611f24575b600302811c611ed28185611377565b01811c611edf8185611377565b01811c611eec8185611377565b01811c611ef98185611377565b01811c611f068185611377565b01811c611f138185611377565b01901c8092611377565b8111900390565b811b611ec3565b811c9160021b91611ebc565b60081c91811b91611eb2565b60101c9160081b91611ea7565b60201c9160101b91611e9b565b60401c9160201b91611e8d565b50600160401b9050608084901c611e7d565b509056feddf252ad1be2c89b69c2b068fc378daa952ba7f163c4a11628f55a4df523b3efa164736f6c6343000816000a",
  "devdoc": {
    "errors": {
      "OwnableInvalidOwner(address)": [
        {
          "details": "The owner is not a valid owner account. (eg. `address(0)`)"
        }
      ],
      "OwnableUnauthorizedAccount(address)": [
        {
          "details": "The caller account is not authorized to perform an operation."
        }
      ]
    },
    "kind": "dev",
    "methods": {
      "owner()": {
        "details": "Returns the address of the current owner."
      },
      "renounceOwnership()": {
        "details": "Leaves the contract without owner. It will not be possible to call `onlyOwner` functions. Can only be called by the current owner. NOTE: Renouncing ownership will leave the contract without an owner, thereby disabling any functionality that is only available to the owner."
      },
      "transferOwnership(address)": {
        "details": "Transfers ownership of the contract to a new account (`newOwner`). Can only be called by the current owner."
      }
    },
    "version": 1
  },
  "userdoc": {
    "kind": "user",
    "methods": {},
    "version": 1
  },
  "storageLayout": {
    "storage": [
      {
        "astId": 828,
        "contract": "contracts/PDA.sol:PDA",
        "label": "_owner",
        "offset": 0,
        "slot": "0",
        "type": "t_address"
      },
      {
        "astId": 5192,
        "contract": "contracts/PDA.sol:PDA",
        "label": "_balances",
        "offset": 0,
        "slot": "1",
        "type": "t_mapping(t_address,t_uint256)"
      },
      {
        "astId": 5198,
        "contract": "contracts/PDA.sol:PDA",
        "label": "_allowances",
        "offset": 0,
        "slot": "2",
        "type": "t_mapping(t_address,t_mapping(t_address,t_uint256))"
      },
      {
        "astId": 5201,
        "contract": "contracts/PDA.sol:PDA",
        "label": "_name",
        "offset": 0,
        "slot": "3",
        "type": "t_string_storage"
      },
      {
        "astId": 5204,
        "contract": "contracts/PDA.sol:PDA",
        "label": "_symbol",
        "offset": 0,
        "slot": "4",
        "type": "t_string_storage"
      },
      {
        "astId": 5207,
        "contract": "contracts/PDA.sol:PDA",
        "label": "_decimals",
        "offset": 0,
        "slot": "5",
        "type": "t_uint8"
      },
      {
        "astId": 5217,
        "contract": "contracts/PDA.sol:PDA",
        "label": "_totalSupply",
        "offset": 0,
        "slot": "6",
        "type": "t_uint256"
      },
      {
        "astId": 5221,
        "contract": "contracts/PDA.sol:PDA",
        "label": "burnAddress",
        "offset": 0,
        "slot": "7",
        "type": "t_address"
      },
      {
        "astId": 5223,
        "contract": "contracts/PDA.sol:PDA",
        "label": "operationAddress",
        "offset": 0,
        "slot": "8",
        "type": "t_address"
      },
      {
        "astId": 5225,
        "contract": "contracts/PDA.sol:PDA",
        "label": "deviceAddress",
        "offset": 0,
        "slot": "9",
        "type": "t_address"
      },
      {
        "astId": 5227,
        "contract": "contracts/PDA.sol:PDA",
        "label": "burnSetter",
        "offset": 0,
        "slot": "10",
        "type": "t_address"
      },
      {
        "astId": 5239,
        "contract": "contracts/PDA.sol:PDA",
        "label": "buyStatus",
        "offset": 20,
        "slot": "10",
        "type": "t_bool"
      },
      {
        "astId": 5242,
        "contract": "contracts/PDA.sol:PDA",
        "label": "sellStatus",
        "offset": 21,
        "slot": "10",
        "type": "t_bool"
      },
      {
        "astId": 5245,
        "contract": "contracts/PDA.sol:PDA",
        "label": "sellOperationFeeRate",
        "offset": 0,
        "slot": "11",
        "type": "t_uint256"
      },
      {
        "astId": 5248,
        "contract": "contracts/PDA.sol:PDA",
        "label": "sellDeviceFeeRate",
        "offset": 0,
        "slot": "12",
        "type": "t_uint256"
      },
      {
        "astId": 5263,
        "contract": "contracts/PDA.sol:PDA",
        "label": "lastBurnTime",
        "offset": 0,
        "slot": "13",
        "type": "t_uint256"
      },
      {
        "astId": 5267,
        "contract": "contracts/PDA.sol:PDA",
        "label": "whiteList",
        "offset": 0,
        "slot": "14",
        "type": "t_mapping(t_address,t_bool)"
      }
    ],
    "types": {
      "t_address": {
        "encoding": "inplace",
        "label": "address",
        "numberOfBytes": "20"
      },
      "t_bool": {
        "encoding": "inplace",
        "label": "bool",
        "numberOfBytes": "1"
      },
      "t_mapping(t_address,t_bool)": {
        "encoding": "mapping",
        "key": "t_address",
        "label": "mapping(address => bool)",
        "numberOfBytes": "32",
        "value": "t_bool"
      },
      "t_mapping(t_address,t_mapping(t_address,t_uint256))": {
        "encoding": "mapping",
        "key": "t_address",
        "label": "mapping(address => mapping(address => uint256))",
        "numberOfBytes": "32",
        "value": "t_mapping(t_address,t_uint256)"
      },
      "t_mapping(t_address,t_uint256)": {
        "encoding": "mapping",
        "key": "t_address",
        "label": "mapping(address => uint256)",
        "numberOfBytes": "32",
        "value": "t_uint256"
      },
      "t_string_storage": {
        "encoding": "bytes",
        "label": "string",
        "numberOfBytes": "32"
      },
      "t_uint256": {
        "encoding": "inplace",
        "label": "uint256",
        "numberOfBytes": "32"
      },
      "t_uint8": {
        "encoding": "inplace",
        "label": "uint8",
        "numberOfBytes": "1"
      }
    }
  }
}