{
  "address": "0x38F176661751540219a145a719Fd3fEf730Ef3ba",
  "abi": [
    {
      "inputs": [
        {
          "internalType": "address",
          "name": "_feeAddress",
          "type": "address"
        }
      ],
      "stateMutability": "nonpayable",
      "type": "constructor"
    },
    {
      "inputs": [
        {
          "internalType": "address",
          "name": "owner",
          "type": "address"
        }
      ],
      "name": "OwnableInvalidOwner",
      "type": "error"
    },
    {
      "inputs": [
        {
          "internalType": "address",
          "name": "account",
          "type": "address"
        }
      ],
      "name": "OwnableUnauthorizedAccount",
      "type": "error"
    },
    {
      "anonymous": false,
      "inputs": [
        {
          "indexed": true,
          "internalType": "address",
          "name": "owner",
          "type": "address"
        },
        {
          "indexed": true,
          "internalType": "address",
          "name": "spender",
          "type": "address"
        },
        {
          "indexed": false,
          "internalType": "uint256",
          "name": "value",
          "type": "uint256"
        }
      ],
      "name": "Approval",
      "type": "event"
    },
    {
      "anonymous": false,
      "inputs": [
        {
          "indexed": true,
          "internalType": "address",
          "name": "previousOwner",
          "type": "address"
        },
        {
          "indexed": true,
          "internalType": "address",
          "name": "newOwner",
          "type": "address"
        }
      ],
      "name": "OwnershipTransferred",
      "type": "event"
    },
    {
      "anonymous": false,
      "inputs": [
        {
          "indexed": true,
          "internalType": "address",
          "name": "from",
          "type": "address"
        },
        {
          "indexed": true,
          "internalType": "address",
          "name": "to",
          "type": "address"
        },
        {
          "indexed": false,
          "internalType": "uint256",
          "name": "value",
          "type": "uint256"
        }
      ],
      "name": "Transfer",
      "type": "event"
    },
    {
      "inputs": [],
      "name": "BURN_INTERVAL",
      "outputs": [
        {
          "internalType": "uint256",
          "name": "",
          "type": "uint256"
        }
      ],
      "stateMutability": "view",
      "type": "function"
    },
    {
      "inputs": [],
      "name": "DAILY_BURN_RATE",
      "outputs": [
        {
          "internalType": "uint256",
          "name": "",
          "type": "uint256"
        }
      ],
      "stateMutability": "view",
      "type": "function"
    },
    {
      "inputs": [],
      "name": "DEAD_ADDRESS",
      "outputs": [
        {
          "internalType": "address",
          "name": "",
          "type": "address"
        }
      ],
      "stateMutability": "view",
      "type": "function"
    },
    {
      "inputs": [],
      "name": "ROUTER",
      "outputs": [
        {
          "internalType": "address",
          "name": "",
          "type": "address"
        }
      ],
      "stateMutability": "view",
      "type": "function"
    },
    {
      "inputs": [],
      "name": "USDT",
      "outputs": [
        {
          "internalType": "address",
          "name": "",
          "type": "address"
        }
      ],
      "stateMutability": "view",
      "type": "function"
    },
    {
      "inputs": [
        {
          "internalType": "address",
          "name": "user",
          "type": "address"
        }
      ],
      "name": "addWhiteList",
      "outputs": [],
      "stateMutability": "nonpayable",
      "type": "function"
    },
    {
      "inputs": [
        {
          "internalType": "address",
          "name": "owner",
          "type": "address"
        },
        {
          "internalType": "address",
          "name": "spender",
          "type": "address"
        }
      ],
      "name": "allowance",
      "outputs": [
        {
          "internalType": "uint256",
          "name": "",
          "type": "uint256"
        }
      ],
      "stateMutability": "view",
      "type": "function"
    },
    {
      "inputs": [
        {
          "internalType": "address",
          "name": "spender",
          "type": "address"
        },
        {
          "internalType": "uint256",
          "name": "amount",
          "type": "uint256"
        }
      ],
      "name": "approve",
      "outputs": [
        {
          "internalType": "bool",
          "name": "",
          "type": "bool"
        }
      ],
      "stateMutability": "nonpayable",
      "type": "function"
    },
    {
      "inputs": [
        {
          "internalType": "address",
          "name": "account",
          "type": "address"
        }
      ],
      "name": "balanceOf",
      "outputs": [
        {
          "internalType": "uint256",
          "name": "",
          "type": "uint256"
        }
      ],
      "stateMutability": "view",
      "type": "function"
    },
    {
      "inputs": [
        {
          "internalType": "address[]",
          "name": "users",
          "type": "address[]"
        }
      ],
      "name": "batchAddWhiteList",
      "outputs": [],
      "stateMutability": "nonpayable",
      "type": "function"
    },
    {
      "inputs": [
        {
          "internalType": "address[]",
          "name": "users",
          "type": "address[]"
        }
      ],
      "name": "batchRemoveWhiteList",
      "outputs": [],
      "stateMutability": "nonpayable",
      "type": "function"
    },
    {
      "inputs": [],
      "name": "burnPoolTokens",
      "outputs": [],
      "stateMutability": "nonpayable",
      "type": "function"
    },
    {
      "inputs": [],
      "name": "buyStatus",
      "outputs": [
        {
          "internalType": "bool",
          "name": "",
          "type": "bool"
        }
      ],
      "stateMutability": "view",
      "type": "function"
    },
    {
      "inputs": [],
      "name": "decimals",
      "outputs": [
        {
          "internalType": "uint8",
          "name": "",
          "type": "uint8"
        }
      ],
      "stateMutability": "view",
      "type": "function"
    },
    {
      "inputs": [],
      "name": "feeAddress",
      "outputs": [
        {
          "internalType": "address",
          "name": "",
          "type": "address"
        }
      ],
      "stateMutability": "view",
      "type": "function"
    },
    {
      "inputs": [
        {
          "internalType": "address",
          "name": "user",
          "type": "address"
        }
      ],
      "name": "isWhiteListed",
      "outputs": [
        {
          "internalType": "bool",
          "name": "",
          "type": "bool"
        }
      ],
      "stateMutability": "view",
      "type": "function"
    },
    {
      "inputs": [],
      "name": "lastBurnTime",
      "outputs": [
        {
          "internalType": "uint256",
          "name": "",
          "type": "uint256"
        }
      ],
      "stateMutability": "view",
      "type": "function"
    },
    {
      "inputs": [],
      "name": "name",
      "outputs": [
        {
          "internalType": "string",
          "name": "",
          "type": "string"
        }
      ],
      "stateMutability": "view",
      "type": "function"
    },
    {
      "inputs": [],
      "name": "owner",
      "outputs": [
        {
          "internalType": "address",
          "name": "",
          "type": "address"
        }
      ],
      "stateMutability": "view",
      "type": "function"
    },
    {
      "inputs": [],
      "name": "pair",
      "outputs": [
        {
          "internalType": "address",
          "name": "",
          "type": "address"
        }
      ],
      "stateMutability": "view",
      "type": "function"
    },
    {
      "inputs": [
        {
          "internalType": "address",
          "name": "user",
          "type": "address"
        }
      ],
      "name": "removeWhiteList",
      "outputs": [],
      "stateMutability": "nonpayable",
      "type": "function"
    },
    {
      "inputs": [],
      "name": "renounceOwnership",
      "outputs": [],
      "stateMutability": "nonpayable",
      "type": "function"
    },
    {
      "inputs": [],
      "name": "sellFeeRate",
      "outputs": [
        {
          "internalType": "uint256",
          "name": "",
          "type": "uint256"
        }
      ],
      "stateMutability": "view",
      "type": "function"
    },
    {
      "inputs": [],
      "name": "sellStatus",
      "outputs": [
        {
          "internalType": "bool",
          "name": "",
          "type": "bool"
        }
      ],
      "stateMutability": "view",
      "type": "function"
    },
    {
      "inputs": [
        {
          "internalType": "bool",
          "name": "_status",
          "type": "bool"
        }
      ],
      "name": "setBuyStatus",
      "outputs": [],
      "stateMutability": "nonpayable",
      "type": "function"
    },
    {
      "inputs": [
        {
          "internalType": "address",
          "name": "_feeAddress",
          "type": "address"
        }
      ],
      "name": "setFeeAddress",
      "outputs": [],
      "stateMutability": "nonpayable",
      "type": "function"
    },
    {
      "inputs": [
        {
          "internalType": "uint256",
          "name": "_feeRate",
          "type": "uint256"
        }
      ],
      "name": "setSellFeeRate",
      "outputs": [],
      "stateMutability": "nonpayable",
      "type": "function"
    },
    {
      "inputs": [
        {
          "internalType": "bool",
          "name": "_status",
          "type": "bool"
        }
      ],
      "name": "setSellStatus",
      "outputs": [],
      "stateMutability": "nonpayable",
      "type": "function"
    },
    {
      "inputs": [],
      "name": "symbol",
      "outputs": [
        {
          "internalType": "string",
          "name": "",
          "type": "string"
        }
      ],
      "stateMutability": "view",
      "type": "function"
    },
    {
      "inputs": [],
      "name": "totalSupply",
      "outputs": [
        {
          "internalType": "uint256",
          "name": "",
          "type": "uint256"
        }
      ],
      "stateMutability": "view",
      "type": "function"
    },
    {
      "inputs": [
        {
          "internalType": "address",
          "name": "recipient",
          "type": "address"
        },
        {
          "internalType": "uint256",
          "name": "amount",
          "type": "uint256"
        }
      ],
      "name": "transfer",
      "outputs": [
        {
          "internalType": "bool",
          "name": "",
          "type": "bool"
        }
      ],
      "stateMutability": "nonpayable",
      "type": "function"
    },
    {
      "inputs": [
        {
          "internalType": "address",
          "name": "sender",
          "type": "address"
        },
        {
          "internalType": "address",
          "name": "recipient",
          "type": "address"
        },
        {
          "internalType": "uint256",
          "name": "amount",
          "type": "uint256"
        }
      ],
      "name": "transferFrom",
      "outputs": [
        {
          "internalType": "bool",
          "name": "",
          "type": "bool"
        }
      ],
      "stateMutability": "nonpayable",
      "type": "function"
    },
    {
      "inputs": [
        {
          "internalType": "address",
          "name": "newOwner",
          "type": "address"
        }
      ],
      "name": "transferOwnership",
      "outputs": [],
      "stateMutability": "nonpayable",
      "type": "function"
    },
    {
      "inputs": [
        {
          "internalType": "address",
          "name": "",
          "type": "address"
        }
      ],
      "name": "whiteList",
      "outputs": [
        {
          "internalType": "bool",
          "name": "",
          "type": "bool"
        }
      ],
      "stateMutability": "view",
      "type": "function"
    }
  ],
  "transactionHash": "0x277660350950c81e19fc934d6a8bc5113eb4d64c7d698dff2cb5a149568e5fe6",
  "args": [
    "0x1e0f55df4f48a6008ac848f7a3e2587ccdba2305"
  ],
  "numDeployments": 1,
  "solcInputHash": "301e979344e7793157844d2111a8c400",
  "bytecode": "0x60a0604090808252346200039057620000329062001f10803803809162000027828562000395565b8339810190620003cf565b3315620003785760008054336001600160a01b031982168117835584516001600160a01b0394909290919085167f8be0079c531659141344cd1fd0a4f28419497f9722a3daafe3b4186f6b6457e08580a3600354936001918286811c96169586156200036f575b602096878210146200035b57601f81116200032c575b5060066250444160e81b01908160035560049182548581811c9116801562000321575b898210146200030e57601f8111620002e0575b50825560ff199460128660055416176005556aadb53acfa41aee1200000060065583600754926032600855169081156200029f57506001600160b01b031990911617600160a81b17600755865163c45a015560e01b815290868282817310ed43c718714eb63d5aa57b78b54704e256024e5afa91821562000295579087929187926200026e575b50604490878a5195869485936364e329cb60e11b855230908501527355d398326f99059ff775485246999027b31979556024850152165af19081156200026457849162000230575b5060805260065433845281855285842055600a845284832091825416179055426009557fddf252ad1be2c89b69c2b068fc378daa952ba7f163c4a11628f55a4df523b3ef6006549284519384523393a351611b1f9081620003f182396080518181816103e4015281816106ec0152818161113e01526118750152f35b620002559150853d87116200025c575b6200024c818362000395565b810190620003cf565b38620001b4565b503d62000240565b86513d86823e3d90fd5b60449192506200028d90843d86116200025c576200024c818362000395565b91906200016c565b88513d88823e3d90fd5b62461bcd60e51b8152838101899052601360248201527f496e76616c6964206665652061646472657373000000000000000000000000006044820152606490fd5b83885285601f8a8a20920160051c8201915b82811062000302575050620000e5565b898155018690620002f2565b634e487b7160e01b885260228452602488fd5b90607f1690620000d2565b6003865283601f888820920160051c8201915b8281106200034f575050620000af565b8781550184906200033f565b634e487b7160e01b86526022600452602486fd5b607f1662000099565b8151631e4fbdf760e01b815260006004820152602490fd5b600080fd5b601f909101601f19168101906001600160401b03821190821017620003b957604052565b634e487b7160e01b600052604160045260246000fd5b908160209103126200039057516001600160a01b038116810362000390579056fe6080604081815260048036101561001557600080fd5b600092833560e01c90816306fdde0314610cec57508063095ea7b314610cc25780630d02e05c14610c7c57806318160ddd14610c5d5780632042e5c214610c1d57806323b872dd14610b59578063313ce56714610b3757806332fe7b2614610b085780633415650e14610ae1578063372c12b1146109f85780634127535814610ab85780634e6fd6c414610a9b5780635b149feb14610a7c5780635b4be32b14610a365780636f9170f6146109f857806370a08231146109c0578063715018a6146109635780637b1648e2146109455780638705fcd4146108ba5780638da5cb5b1461089257806395d89b411461078c5780639c466f1f1461071b578063a8aa1b31146106d7578063a9059cbb146106a6578063b1d0b7251461067f578063bcb04de114610626578063c364e1d5146103b0578063c54e44eb14610381578063cd05923714610307578063dd62ed3e146102b9578063e30674491461029a578063e6a957e71461027e578063e7cd4a041461022c5763f2fde38b1461019957600080fd5b34610228576020366003190112610228576101b2610e2b565b906101bb6110be565b6001600160a01b03918216928315610212575050600054826bffffffffffffffffffffffff60a01b821617600055167f8be0079c531659141344cd1fd0a4f28419497f9722a3daafe3b4186f6b6457e0600080a380f35b51631e4fbdf760e01b8152908101849052602490fd5b8280fd5b50503461027a57602036600319011261027a57610247610e2b565b61024f6110be565b6001600160a01b0316610263811515610f7e565b8252600a6020528120805460ff1916600117905580f35b5080fd5b50503461027a578160031936011261027a576020905160148152f35b50503461027a578160031936011261027a576020906009549051908152f35b50503461027a578060031936011261027a576020916102d6610e2b565b826102df610e46565b6001600160a01b03928316845260028652922091166000908152908352819020549051908152f35b50503461027a5761031736610e5c565b91906103216110be565b835b83811061032e578480f35b6001906001600160a01b036103588161035061034b858a89610f04565b610f2a565b161515610f7e565b61036661034b838887610f04565b168652600a602052838620805460ff19168317905501610323565b50503461027a578160031936011261027a57602090517355d398326f99059ff775485246999027b31979558152f35b5091903461027a578160031936011261027a576009546201518081018091116106135742106105d15760018060a01b0392837f0000000000000000000000000000000000000000000000000000000000000000168084526020946001865283852054801561059a5760148102908104601403610587576103e8900490811561054c57829086978360011c6104448186610ee1565b94848a526001835261045a898b20918254610ee1565b905580610514575b50836104d5575b5050505042600955803b156104d05783908284518096819363fff6cae960e01b83525af180156104c65761049b578380f35b67ffffffffffffffff83116104b35750523880808380f35b634e487b7160e01b845260419052602483fd5b82513d86823e3d90fd5b505050fd5b81600080516020611af383398151915292600754168952600182528789206104fe868254610f3e565b905560075416938751908152a338818180610469565b83600080516020611af38339815191528361dead93848d52600182528b8d2061053e828254610f3e565b90558b51908152a338610462565b845162461bcd60e51b81528085018890526015602482015274109d5c9b88185b5bdd5b9d081d1bdbc81cdb585b1b605a1b6044820152606490fd5b634e487b7160e01b865260118452602486fd5b845162461bcd60e51b81528085018890526011602482015270139bc81d1bdad95b9cc81a5b881c1bdbdb607a1b6044820152606490fd5b5162461bcd60e51b8152602081840152601960248201527f4275726e20696e74657276616c206e6f742072656163686564000000000000006044820152606490fd5b634e487b7160e01b835260118452602483fd5b50503461027a5761063636610e5c565b91906106406110be565b835b83811061064d578480f35b6001906001600160a01b0361066661034b838887610f04565b168652600a602052838620805460ff1916905501610642565b50503461027a578160031936011261027a5760209060ff60075460a81c1690519015158152f35b50503461027a578060031936011261027a576020906106d06106c6610e2b565b60243590336110ea565b5160018152f35b50503461027a578160031936011261027a57517f00000000000000000000000000000000000000000000000000000000000000006001600160a01b03168152602090f35b5034610228576020366003190112610228578035916107386110be565b6103e8831161074957505060085580f35b906020606492519162461bcd60e51b8352820152601b60248201527f46656520726174652063616e6e6f7420657863656564203130302500000000006044820152fd5b5091903461027a578160031936011261027a5780519180938054916001908360011c9260018516948515610888575b60209586861081146108755785895290811561085157506001146107f9575b6107f587876107eb828c0383610ea9565b5191829182610de2565b0390f35b81529295507f8a35acfbc15ff81a39ae7d344fd709f28e8600b4aa8c65c6b64bfe7fe36bd19b5b82841061083e57505050826107f5946107eb928201019438806107da565b8054868501880152928601928101610820565b60ff19168887015250505050151560051b83010192506107eb826107f538806107da565b634e487b7160e01b845260228352602484fd5b93607f16936107bb565b50503461027a578160031936011261027a57905490516001600160a01b039091168152602090f35b5034610228576020366003190112610228576108d4610e2b565b6108dc6110be565b6001600160a01b03169182156109095750506bffffffffffffffffffffffff60a01b600754161760075580f35b906020606492519162461bcd60e51b83528201526016602482015275125b9d985b1a59081c9958d95a5d99481dd85b1b195d60521b6044820152fd5b50503461027a578160031936011261027a5760209051620151808152f35b83346109bd57806003193601126109bd5761097c6110be565b80546001600160a01b03198116825581906001600160a01b03167f8be0079c531659141344cd1fd0a4f28419497f9722a3daafe3b4186f6b6457e08280a380f35b80fd5b50503461027a57602036600319011261027a5760209181906001600160a01b036109e8610e2b565b1681526001845220549051908152f35b50503461027a57602036600319011261027a5760209160ff9082906001600160a01b03610a23610e2b565b168152600a855220541690519015158152f35b83823461027a57602036600319011261027a573580151580910361027a57610a5c6110be565b6007805460ff60a81b191660a89290921b60ff60a81b1691909117905580f35b50503461027a578160031936011261027a576020906008549051908152f35b50503461027a578160031936011261027a576020905161dead8152f35b50503461027a578160031936011261027a5760075490516001600160a01b039091168152602090f35b50503461027a578160031936011261027a5760209060ff60075460a01c1690519015158152f35b50503461027a578160031936011261027a57602090517310ed43c718714eb63d5aa57b78b54704e256024e8152f35b50503461027a578160031936011261027a5760209060ff600554169051908152f35b5082346109bd5760603660031901126109bd57610b74610e2b565b91610b7d610e46565b846044359360018060a01b03861681526002602052818120338252602052205491838310610bc9576020866106d087610bc18888610bbc828a866110ea565b610ee1565b903390610fbc565b608490602087519162461bcd60e51b8352820152602860248201527f45524332303a207472616e7366657220616d6f756e74206578636565647320616044820152676c6c6f77616e636560c01b6064820152fd5b50503461027a57602036600319011261027a57610c38610e2b565b610c406110be565b6001600160a01b03168252600a6020528120805460ff1916905580f35b50503461027a578160031936011261027a576020906006549051908152f35b83823461027a57602036600319011261027a573580151580910361027a57610ca26110be565b6007805460ff60a01b191660a09290921b60ff60a01b1691909117905580f35b50503461027a578060031936011261027a576020906106d0610ce2610e2b565b6024359033610fbc565b9291905034610dde5783600319360112610dde57600354600181811c9186908281168015610dd4575b6020958686108214610dc15750848852908115610d9f5750600114610d46575b6107f586866107eb828b0383610ea9565b929550600383527fc2575a0e9e593c00f959f8c92f12db2869c3395a3b0502d05e2516446f71f85b5b828410610d8c57505050826107f5946107eb928201019438610d35565b8054868501880152928601928101610d6f565b60ff191687860152505050151560051b83010192506107eb826107f538610d35565b634e487b7160e01b845260229052602483fd5b93607f1693610d15565b8380fd5b6020808252825181830181905290939260005b828110610e1757505060409293506000838284010152601f8019910116010190565b818101860151848201604001528501610df5565b600435906001600160a01b0382168203610e4157565b600080fd5b602435906001600160a01b0382168203610e4157565b906020600319830112610e415760043567ffffffffffffffff92838211610e415780602383011215610e41578160040135938411610e415760248460051b83010111610e41576024019190565b90601f8019910116810190811067ffffffffffffffff821117610ecb57604052565b634e487b7160e01b600052604160045260246000fd5b91908203918211610eee57565b634e487b7160e01b600052601160045260246000fd5b9190811015610f145760051b0190565b634e487b7160e01b600052603260045260246000fd5b356001600160a01b0381168103610e415790565b91908201809211610eee57565b81810292918115918404141715610eee57565b8115610f68570490565b634e487b7160e01b600052601260045260246000fd5b15610f8557565b60405162461bcd60e51b815260206004820152600f60248201526e496e76616c6964206164647265737360881b6044820152606490fd5b6001600160a01b0390811691821561106d571691821561101d5760207f8c5be1e5ebec7d5bd14f71427d1e84f3dd0314c0f7b2291e5b200ac8c7c3b925918360005260028252604060002085600052825280604060002055604051908152a3565b60405162461bcd60e51b815260206004820152602260248201527f45524332303a20617070726f766520746f20746865207a65726f206164647265604482015261737360f01b6064820152608490fd5b60405162461bcd60e51b8152602060048201526024808201527f45524332303a20617070726f76652066726f6d20746865207a65726f206164646044820152637265737360e01b6064820152608490fd5b6000546001600160a01b031633036110d257565b60405163118cdaa760e01b8152336004820152602490fd5b9192916001600160a01b03919082169081156117fe5782169182156117ad576000948286526020916001835260409082828920541061175a5784885260018452818820611138848254610ee1565b905582817f0000000000000000000000000000000000000000000000000000000000000000168087146115da575b8088146111a1575b505050808786600080516020611af383398151915296979899526001855220611198838254610f3e565b905551908152a3565b868a52600a865260ff848b20541661116e5789906111bd611865565b8d939293841515806115d1575b6115b8575b6111d99085610f3e565b8110156112bd575b50505050156111f1575b8061116e565b90925060075460ff8160a81c16156112795797829186600080516020611af38339815191529798999a876112356103e861122d60085487610f4b565b048095610ee1565b978461124a575b5050505050979695946111eb565b808b9316865260018252868620611262868254610f3e565b905560075416938651908152a3388781878161123c565b825162461bcd60e51b815260048101869052601d60248201527f4163636573732064656e6965643a2063616e27742073656c6c205044410000006044820152606490fd5b90919293508c87516318160ddd60e01b81528a81600481885afa9182156115ad579161157c575b508d8194895163c45a015560e01b81528c816004817310ed43c718714eb63d5aa57b78b54704e256024e5afa908115611555578a918e91859161155f575b5060048d5180948193622fcfcb60e31b8352165afa908115611555578d908492611525575b508b51637464fc3d60e01b81529192829060049082905afa92831561151a57918a918d9998979695946114e0575b508793929116611403575b505061138b91610ee1565b92826113d1575050506113a6916113a191610f4b565b6119d2565b6103e71981019081116113bd575b388080806111e1565b634e487b7160e01b8a52601160045260248afd5b8294506113ee906113e96113e993946113f596610f4b565b610f5e565b9388610f4b565b9081808210911802186113b4565b801561138057909161141b6113a18661142193610f4b565b916119d2565b808211611431575b869250611380565b909192939495965061144c6114468284610ee1565b84610f4b565b918260031b92808404600814901517156114ca576011810290808204601114901517156114ca578160031b91808304600814901517156114ca57879695949261149b8d9995936114a193610f3e565b90610f5e565b90816114b0575b829350611429565b61138b93929550906114c191610f3e565b939091386114a8565b5050634e487b7160e01b8f52601160045260248ffd5b9392509750508b82813d8311611513575b6114fb8183610ea9565b8101031261150f5790518a96899087611375565b8f80fd5b503d6114f1565b8b51903d90823e3d90fd5b6004925061154890823d841161154e575b6115408183610ea9565b8101906119b3565b91611347565b503d611536565b8b513d85823e3d90fd5b6115769150823d841161154e576115408183610ea9565b38611322565b90508981813d83116115a6575b6115938183610ea9565b810103126115a25751386112e4565b8d80fd5b503d611589565b8951903d90823e3d90fd5b506111d96115ca836113e9878d610f4b565b90506111cf565b508215156111ca565b896115e3611865565b905011156116c8575b1561166557878a52600a865260ff848b2054161561160a575b611166565b606482049450898761161c8785610ee1565b888161162c575b50505050611166565b600080516020611af3833981519152918861dead958681526001845220611654828254610f3e565b90558851908152a389873888611623565b878a52600a865260ff848b2054166111665760ff60075460a01c1661160557835162461bcd60e51b815260048101879052601c60248201527f4163636573732064656e6965643a2063616e27742062757920504441000000006044820152606490fd5b5083516318160ddd60e01b81528a908781600481865afa9081156117505782918791869491611719575b509261149b916117056117149583610f4b565b9386815260018c522054610ee1565b6115ec565b935050508782813d8311611749575b6117328183610ea9565b810103126109bd579051839190869061149b6116f2565b503d611728565b86513d84823e3d90fd5b815162461bcd60e51b815260048101859052602660248201527f45524332303a207472616e7366657220616d6f756e7420657863656564732062604482015265616c616e636560d01b6064820152608490fd5b60405162461bcd60e51b815260206004820152602360248201527f45524332303a207472616e7366657220746f20746865207a65726f206164647260448201526265737360e81b6064820152608490fd5b60405162461bcd60e51b815260206004820152602560248201527f45524332303a207472616e736665722066726f6d20746865207a65726f206164604482015264647265737360d81b6064820152608490fd5b51906001600160701b0382168203610e4157565b604051630240bc6b60e21b8152907f00000000000000000000000000000000000000000000000000000000000000006001600160a01b031690606083600481855afa92831561194557600090819461195a575b506001600160701b03938416937355d398326f99059ff775485246999027b31979559116308210156119515760209094935b6024604051809481936370a0823160e01b835260048301525afa90811561194557600091611916575090565b90506020813d60201161193d575b8161193160209383610ea9565b81010312610e41575190565b3d9150611924565b6040513d6000823e3d90fd5b926020906118ea565b93506060843d6060116119ab575b8161197560609383610ea9565b810103126109bd5761198684611851565b90604061199560208701611851565b95015163ffffffff8116036109bd5750386118b8565b3d9150611968565b90816020910312610e4157516001600160a01b0381168103610e415790565b600180821115611aee57611a8f908083600160801b811015611adc575b80600160401b6004921015611acf575b640100000000811015611ac2575b62010000811015611ab5575b610100811015611aa9575b6010811015611a9d575b1015611a96575b600302811c611a448185610f5e565b01811c611a518185610f5e565b01811c611a5e8185610f5e565b01811c611a6b8185610f5e565b01811c611a788185610f5e565b01811c611a858185610f5e565b01901c8092610f5e565b8111900390565b811b611a35565b811c9160021b91611a2e565b60081c91811b91611a24565b60101c9160081b91611a19565b60201c9160101b91611a0d565b60401c9160201b916119ff565b50600160401b9050608084901c6119ef565b509056feddf252ad1be2c89b69c2b068fc378daa952ba7f163c4a11628f55a4df523b3efa164736f6c6343000816000a",
  "devdoc": {
    "errors": {
      "OwnableInvalidOwner(address)": [
        {
          "details": "The owner is not a valid owner account. (eg. `address(0)`)"
        }
      ],
      "OwnableUnauthorizedAccount(address)": [
        {
          "details": "The caller account is not authorized to perform an operation."
        }
      ]
    },
    "kind": "dev",
    "methods": {
      "owner()": {
        "details": "Returns the address of the current owner."
      },
      "renounceOwnership()": {
        "details": "Leaves the contract without owner. It will not be possible to call `onlyOwner` functions. Can only be called by the current owner. NOTE: Renouncing ownership will leave the contract without an owner, thereby disabling any functionality that is only available to the owner."
      },
      "transferOwnership(address)": {
        "details": "Transfers ownership of the contract to a new account (`newOwner`). Can only be called by the current owner."
      }
    },
    "version": 1
  },
  "userdoc": {
    "kind": "user",
    "methods": {},
    "version": 1
  },
  "storageLayout": {
    "storage": [
      {
        "astId": 8,
        "contract": "contracts/PDA.sol:PDA",
        "label": "_owner",
        "offset": 0,
        "slot": "0",
        "type": "t_address"
      },
      {
        "astId": 6616,
        "contract": "contracts/PDA.sol:PDA",
        "label": "_balances",
        "offset": 0,
        "slot": "1",
        "type": "t_mapping(t_address,t_uint256)"
      },
      {
        "astId": 6622,
        "contract": "contracts/PDA.sol:PDA",
        "label": "_allowances",
        "offset": 0,
        "slot": "2",
        "type": "t_mapping(t_address,t_mapping(t_address,t_uint256))"
      },
      {
        "astId": 6625,
        "contract": "contracts/PDA.sol:PDA",
        "label": "_name",
        "offset": 0,
        "slot": "3",
        "type": "t_string_storage"
      },
      {
        "astId": 6628,
        "contract": "contracts/PDA.sol:PDA",
        "label": "_symbol",
        "offset": 0,
        "slot": "4",
        "type": "t_string_storage"
      },
      {
        "astId": 6631,
        "contract": "contracts/PDA.sol:PDA",
        "label": "_decimals",
        "offset": 0,
        "slot": "5",
        "type": "t_uint8"
      },
      {
        "astId": 6641,
        "contract": "contracts/PDA.sol:PDA",
        "label": "_totalSupply",
        "offset": 0,
        "slot": "6",
        "type": "t_uint256"
      },
      {
        "astId": 6645,
        "contract": "contracts/PDA.sol:PDA",
        "label": "feeAddress",
        "offset": 0,
        "slot": "7",
        "type": "t_address"
      },
      {
        "astId": 6657,
        "contract": "contracts/PDA.sol:PDA",
        "label": "buyStatus",
        "offset": 20,
        "slot": "7",
        "type": "t_bool"
      },
      {
        "astId": 6660,
        "contract": "contracts/PDA.sol:PDA",
        "label": "sellStatus",
        "offset": 21,
        "slot": "7",
        "type": "t_bool"
      },
      {
        "astId": 6663,
        "contract": "contracts/PDA.sol:PDA",
        "label": "sellFeeRate",
        "offset": 0,
        "slot": "8",
        "type": "t_uint256"
      },
      {
        "astId": 6671,
        "contract": "contracts/PDA.sol:PDA",
        "label": "lastBurnTime",
        "offset": 0,
        "slot": "9",
        "type": "t_uint256"
      },
      {
        "astId": 6675,
        "contract": "contracts/PDA.sol:PDA",
        "label": "whiteList",
        "offset": 0,
        "slot": "10",
        "type": "t_mapping(t_address,t_bool)"
      }
    ],
    "types": {
      "t_address": {
        "encoding": "inplace",
        "label": "address",
        "numberOfBytes": "20"
      },
      "t_bool": {
        "encoding": "inplace",
        "label": "bool",
        "numberOfBytes": "1"
      },
      "t_mapping(t_address,t_bool)": {
        "encoding": "mapping",
        "key": "t_address",
        "label": "mapping(address => bool)",
        "numberOfBytes": "32",
        "value": "t_bool"
      },
      "t_mapping(t_address,t_mapping(t_address,t_uint256))": {
        "encoding": "mapping",
        "key": "t_address",
        "label": "mapping(address => mapping(address => uint256))",
        "numberOfBytes": "32",
        "value": "t_mapping(t_address,t_uint256)"
      },
      "t_mapping(t_address,t_uint256)": {
        "encoding": "mapping",
        "key": "t_address",
        "label": "mapping(address => uint256)",
        "numberOfBytes": "32",
        "value": "t_uint256"
      },
      "t_string_storage": {
        "encoding": "bytes",
        "label": "string",
        "numberOfBytes": "32"
      },
      "t_uint256": {
        "encoding": "inplace",
        "label": "uint256",
        "numberOfBytes": "32"
      },
      "t_uint8": {
        "encoding": "inplace",
        "label": "uint8",
        "numberOfBytes": "1"
      }
    }
  }
}