{
  "address": "0xC4E2037019ef944b700bB61a04B7b29200fAeB04",
  "abi": [
    {
      "inputs": [],
      "stateMutability": "nonpayable",
      "type": "constructor"
    },
    {
      "inputs": [
        {
          "internalType": "address",
          "name": "target",
          "type": "address"
        }
      ],
      "name": "AddressEmptyCode",
      "type": "error"
    },
    {
      "inputs": [
        {
          "internalType": "address",
          "name": "implementation",
          "type": "address"
        }
      ],
      "name": "ERC1967InvalidImplementation",
      "type": "error"
    },
    {
      "inputs": [],
      "name": "ERC1967NonPayable",
      "type": "error"
    },
    {
      "inputs": [],
      "name": "FailedCall",
      "type": "error"
    },
    {
      "inputs": [],
      "name": "InvalidInitialization",
      "type": "error"
    },
    {
      "inputs": [],
      "name": "NotInitializing",
      "type": "error"
    },
    {
      "inputs": [
        {
          "internalType": "address",
          "name": "owner",
          "type": "address"
        }
      ],
      "name": "OwnableInvalidOwner",
      "type": "error"
    },
    {
      "inputs": [
        {
          "internalType": "address",
          "name": "account",
          "type": "address"
        }
      ],
      "name": "OwnableUnauthorizedAccount",
      "type": "error"
    },
    {
      "inputs": [],
      "name": "ReentrancyGuardReentrantCall",
      "type": "error"
    },
    {
      "inputs": [],
      "name": "UUPSUnauthorizedCallContext",
      "type": "error"
    },
    {
      "inputs": [
        {
          "internalType": "bytes32",
          "name": "slot",
          "type": "bytes32"
        }
      ],
      "name": "UUPSUnsupportedProxiableUUID",
      "type": "error"
    },
    {
      "anonymous": false,
      "inputs": [
        {
          "indexed": true,
          "internalType": "uint256",
          "name": "gameId",
          "type": "uint256"
        },
        {
          "indexed": false,
          "internalType": "uint256",
          "name": "betAmount",
          "type": "uint256"
        }
      ],
      "name": "GameCreated",
      "type": "event"
    },
    {
      "anonymous": false,
      "inputs": [
        {
          "indexed": true,
          "internalType": "uint256",
          "name": "gameId",
          "type": "uint256"
        },
        {
          "indexed": true,
          "internalType": "address",
          "name": "winner",
          "type": "address"
        }
      ],
      "name": "GameFinished",
      "type": "event"
    },
    {
      "anonymous": false,
      "inputs": [
        {
          "indexed": true,
          "internalType": "uint256",
          "name": "gameId",
          "type": "uint256"
        }
      ],
      "name": "GameRefunded",
      "type": "event"
    },
    {
      "anonymous": false,
      "inputs": [
        {
          "indexed": false,
          "internalType": "uint64",
          "name": "version",
          "type": "uint64"
        }
      ],
      "name": "Initialized",
      "type": "event"
    },
    {
      "anonymous": false,
      "inputs": [
        {
          "indexed": true,
          "internalType": "address",
          "name": "owner",
          "type": "address"
        },
        {
          "indexed": false,
          "internalType": "address",
          "name": "referral",
          "type": "address"
        },
        {
          "indexed": false,
          "internalType": "address",
          "name": "liquidityMgr",
          "type": "address"
        }
      ],
      "name": "Initialized",
      "type": "event"
    },
    {
      "anonymous": false,
      "inputs": [
        {
          "indexed": true,
          "internalType": "address",
          "name": "previousOwner",
          "type": "address"
        },
        {
          "indexed": true,
          "internalType": "address",
          "name": "newOwner",
          "type": "address"
        }
      ],
      "name": "OwnershipTransferred",
      "type": "event"
    },
    {
      "anonymous": false,
      "inputs": [
        {
          "indexed": true,
          "internalType": "uint256",
          "name": "gameId",
          "type": "uint256"
        },
        {
          "indexed": true,
          "internalType": "address",
          "name": "player",
          "type": "address"
        },
        {
          "indexed": false,
          "internalType": "uint256",
          "name": "playerIndex",
          "type": "uint256"
        }
      ],
      "name": "PlayerJoined",
      "type": "event"
    },
    {
      "anonymous": false,
      "inputs": [
        {
          "indexed": true,
          "internalType": "uint256",
          "name": "gameId",
          "type": "uint256"
        },
        {
          "indexed": true,
          "internalType": "address",
          "name": "recipient",
          "type": "address"
        },
        {
          "indexed": false,
          "internalType": "uint256",
          "name": "amount",
          "type": "uint256"
        },
        {
          "indexed": false,
          "internalType": "string",
          "name": "reason",
          "type": "string"
        }
      ],
      "name": "PrizePaid",
      "type": "event"
    },
    {
      "anonymous": false,
      "inputs": [
        {
          "indexed": true,
          "internalType": "address",
          "name": "implementation",
          "type": "address"
        }
      ],
      "name": "Upgraded",
      "type": "event"
    },
    {
      "inputs": [],
      "name": "GAME_TIMEOUT",
      "outputs": [
        {
          "internalType": "uint256",
          "name": "",
          "type": "uint256"
        }
      ],
      "stateMutability": "view",
      "type": "function"
    },
    {
      "inputs": [],
      "name": "GAME_TYPE_100",
      "outputs": [
        {
          "internalType": "uint256",
          "name": "",
          "type": "uint256"
        }
      ],
      "stateMutability": "view",
      "type": "function"
    },
    {
      "inputs": [],
      "name": "GAME_TYPE_200",
      "outputs": [
        {
          "internalType": "uint256",
          "name": "",
          "type": "uint256"
        }
      ],
      "stateMutability": "view",
      "type": "function"
    },
    {
      "inputs": [],
      "name": "GAME_TYPE_300",
      "outputs": [
        {
          "internalType": "uint256",
          "name": "",
          "type": "uint256"
        }
      ],
      "stateMutability": "view",
      "type": "function"
    },
    {
      "inputs": [],
      "name": "PLAYERS_PER_GAME",
      "outputs": [
        {
          "internalType": "uint256",
          "name": "",
          "type": "uint256"
        }
      ],
      "stateMutability": "view",
      "type": "function"
    },
    {
      "inputs": [],
      "name": "UPGRADE_INTERFACE_VERSION",
      "outputs": [
        {
          "internalType": "string",
          "name": "",
          "type": "string"
        }
      ],
      "stateMutability": "view",
      "type": "function"
    },
    {
      "inputs": [],
      "name": "USDT",
      "outputs": [
        {
          "internalType": "address",
          "name": "",
          "type": "address"
        }
      ],
      "stateMutability": "view",
      "type": "function"
    },
    {
      "inputs": [
        {
          "internalType": "uint256",
          "name": "",
          "type": "uint256"
        }
      ],
      "name": "currentGameIndex",
      "outputs": [
        {
          "internalType": "uint256",
          "name": "",
          "type": "uint256"
        }
      ],
      "stateMutability": "view",
      "type": "function"
    },
    {
      "inputs": [],
      "name": "dappAddress",
      "outputs": [
        {
          "internalType": "address",
          "name": "",
          "type": "address"
        }
      ],
      "stateMutability": "view",
      "type": "function"
    },
    {
      "inputs": [
        {
          "internalType": "uint256",
          "name": "gameId",
          "type": "uint256"
        },
        {
          "internalType": "address",
          "name": "winner",
          "type": "address"
        }
      ],
      "name": "declareWinner",
      "outputs": [],
      "stateMutability": "nonpayable",
      "type": "function"
    },
    {
      "inputs": [
        {
          "internalType": "address",
          "name": "token",
          "type": "address"
        },
        {
          "internalType": "uint256",
          "name": "amount",
          "type": "uint256"
        }
      ],
      "name": "emergencyWithdraw",
      "outputs": [],
      "stateMutability": "nonpayable",
      "type": "function"
    },
    {
      "inputs": [],
      "name": "gameIdCounter",
      "outputs": [
        {
          "internalType": "uint256",
          "name": "",
          "type": "uint256"
        }
      ],
      "stateMutability": "view",
      "type": "function"
    },
    {
      "inputs": [
        {
          "internalType": "uint256",
          "name": "",
          "type": "uint256"
        }
      ],
      "name": "gameTypes",
      "outputs": [
        {
          "internalType": "uint256",
          "name": "",
          "type": "uint256"
        }
      ],
      "stateMutability": "view",
      "type": "function"
    },
    {
      "inputs": [
        {
          "internalType": "uint256",
          "name": "",
          "type": "uint256"
        }
      ],
      "name": "games",
      "outputs": [
        {
          "internalType": "uint256",
          "name": "gameId",
          "type": "uint256"
        },
        {
          "internalType": "uint256",
          "name": "betAmount",
          "type": "uint256"
        },
        {
          "internalType": "uint256",
          "name": "startTime",
          "type": "uint256"
        },
        {
          "internalType": "uint256",
          "name": "endTime",
          "type": "uint256"
        },
        {
          "internalType": "bool",
          "name": "finished",
          "type": "bool"
        },
        {
          "internalType": "bool",
          "name": "refunded",
          "type": "bool"
        },
        {
          "internalType": "address",
          "name": "winner",
          "type": "address"
        }
      ],
      "stateMutability": "view",
      "type": "function"
    },
    {
      "inputs": [
        {
          "internalType": "uint256",
          "name": "",
          "type": "uint256"
        },
        {
          "internalType": "uint256",
          "name": "",
          "type": "uint256"
        }
      ],
      "name": "gamesByType",
      "outputs": [
        {
          "internalType": "uint256",
          "name": "gameId",
          "type": "uint256"
        },
        {
          "internalType": "uint256",
          "name": "betAmount",
          "type": "uint256"
        },
        {
          "internalType": "uint256",
          "name": "startTime",
          "type": "uint256"
        },
        {
          "internalType": "uint256",
          "name": "endTime",
          "type": "uint256"
        },
        {
          "internalType": "bool",
          "name": "finished",
          "type": "bool"
        },
        {
          "internalType": "bool",
          "name": "refunded",
          "type": "bool"
        },
        {
          "internalType": "address",
          "name": "winner",
          "type": "address"
        }
      ],
      "stateMutability": "view",
      "type": "function"
    },
    {
      "inputs": [
        {
          "internalType": "uint256",
          "name": "betAmount",
          "type": "uint256"
        }
      ],
      "name": "getCurrentGame",
      "outputs": [
        {
          "internalType": "uint256",
          "name": "gameId",
          "type": "uint256"
        },
        {
          "internalType": "uint256",
          "name": "playerCount",
          "type": "uint256"
        },
        {
          "internalType": "uint256",
          "name": "startTime",
          "type": "uint256"
        },
        {
          "internalType": "bool",
          "name": "canJoin",
          "type": "bool"
        }
      ],
      "stateMutability": "view",
      "type": "function"
    },
    {
      "inputs": [
        {
          "internalType": "uint256",
          "name": "gameId",
          "type": "uint256"
        }
      ],
      "name": "getGame",
      "outputs": [
        {
          "internalType": "uint256",
          "name": "id",
          "type": "uint256"
        },
        {
          "internalType": "uint256",
          "name": "betAmount",
          "type": "uint256"
        },
        {
          "internalType": "address[]",
          "name": "players",
          "type": "address[]"
        },
        {
          "internalType": "uint256",
          "name": "startTime",
          "type": "uint256"
        },
        {
          "internalType": "uint256",
          "name": "endTime",
          "type": "uint256"
        },
        {
          "internalType": "bool",
          "name": "finished",
          "type": "bool"
        },
        {
          "internalType": "bool",
          "name": "refunded",
          "type": "bool"
        },
        {
          "internalType": "address",
          "name": "winner",
          "type": "address"
        }
      ],
      "stateMutability": "view",
      "type": "function"
    },
    {
      "inputs": [
        {
          "internalType": "address",
          "name": "user",
          "type": "address"
        }
      ],
      "name": "getUserGames",
      "outputs": [
        {
          "internalType": "uint256[]",
          "name": "",
          "type": "uint256[]"
        }
      ],
      "stateMutability": "view",
      "type": "function"
    },
    {
      "inputs": [
        {
          "internalType": "address",
          "name": "_referralContract",
          "type": "address"
        },
        {
          "internalType": "address",
          "name": "_liquidityManager",
          "type": "address"
        },
        {
          "internalType": "address",
          "name": "_operationAddress",
          "type": "address"
        },
        {
          "internalType": "address",
          "name": "_dappAddress",
          "type": "address"
        }
      ],
      "name": "initialize",
      "outputs": [],
      "stateMutability": "nonpayable",
      "type": "function"
    },
    {
      "inputs": [
        {
          "internalType": "uint256",
          "name": "betAmount",
          "type": "uint256"
        },
        {
          "internalType": "address",
          "name": "referrer",
          "type": "address"
        }
      ],
      "name": "joinGame",
      "outputs": [],
      "stateMutability": "nonpayable",
      "type": "function"
    },
    {
      "inputs": [],
      "name": "liquidityManager",
      "outputs": [
        {
          "internalType": "contract IPDALiquidityManager",
          "name": "",
          "type": "address"
        }
      ],
      "stateMutability": "view",
      "type": "function"
    },
    {
      "inputs": [],
      "name": "operationAddress",
      "outputs": [
        {
          "internalType": "address",
          "name": "",
          "type": "address"
        }
      ],
      "stateMutability": "view",
      "type": "function"
    },
    {
      "inputs": [],
      "name": "owner",
      "outputs": [
        {
          "internalType": "address",
          "name": "",
          "type": "address"
        }
      ],
      "stateMutability": "view",
      "type": "function"
    },
    {
      "inputs": [],
      "name": "proxiableUUID",
      "outputs": [
        {
          "internalType": "bytes32",
          "name": "",
          "type": "bytes32"
        }
      ],
      "stateMutability": "view",
      "type": "function"
    },
    {
      "inputs": [],
      "name": "referralContract",
      "outputs": [
        {
          "internalType": "contract IPDAReferral",
          "name": "",
          "type": "address"
        }
      ],
      "stateMutability": "view",
      "type": "function"
    },
    {
      "inputs": [
        {
          "internalType": "uint256",
          "name": "gameId",
          "type": "uint256"
        }
      ],
      "name": "refundGame",
      "outputs": [],
      "stateMutability": "nonpayable",
      "type": "function"
    },
    {
      "inputs": [],
      "name": "renounceOwnership",
      "outputs": [],
      "stateMutability": "nonpayable",
      "type": "function"
    },
    {
      "inputs": [
        {
          "internalType": "address",
          "name": "_dappAddress",
          "type": "address"
        }
      ],
      "name": "setDappAddress",
      "outputs": [],
      "stateMutability": "nonpayable",
      "type": "function"
    },
    {
      "inputs": [
        {
          "internalType": "address",
          "name": "_operationAddress",
          "type": "address"
        }
      ],
      "name": "setOperationAddress",
      "outputs": [],
      "stateMutability": "nonpayable",
      "type": "function"
    },
    {
      "inputs": [
        {
          "internalType": "address",
          "name": "newOwner",
          "type": "address"
        }
      ],
      "name": "transferOwnership",
      "outputs": [],
      "stateMutability": "nonpayable",
      "type": "function"
    },
    {
      "inputs": [
        {
          "internalType": "address",
          "name": "newImplementation",
          "type": "address"
        },
        {
          "internalType": "bytes",
          "name": "data",
          "type": "bytes"
        }
      ],
      "name": "upgradeToAndCall",
      "outputs": [],
      "stateMutability": "payable",
      "type": "function"
    },
    {
      "inputs": [
        {
          "internalType": "address",
          "name": "",
          "type": "address"
        },
        {
          "internalType": "uint256",
          "name": "",
          "type": "uint256"
        }
      ],
      "name": "userGames",
      "outputs": [
        {
          "internalType": "uint256",
          "name": "",
          "type": "uint256"
        }
      ],
      "stateMutability": "view",
      "type": "function"
    }
  ],
  "transactionHash": "0xe8f298e463d680d15a81101c8a4498dbce63c33c1957f25481572d73251a3938",
  "numDeployments": 1,
  "bytecode": "0x60a080604052346100cc57306080527ff0c57e16840df040f15088dc2f81fe391c3923bec73e23a9662efc9c229c6a009081549060ff8260401c166100bd57506001600160401b036002600160401b031982821601610078575b60405161285090816100d282396080518181816119a50152611a8b0152f35b6001600160401b031990911681179091556040519081527fc7f505b2f371ae2175ee4913f4499e1f2633a7b5936321eed1cdaeb6115181d290602090a1388080610059565b63f92ee8a960e01b8152600490fd5b600080fdfe608080604052600436101561001357600080fd5b600090813560e01c908163099420b614611f2757508063117a5b9014611ea3578063120aace614611df55780631a721b7b14611dcc5780631bb412d614611dae5780631c063c7714611d20578063288db7c614611cfe5780633382743814611cd557806343d2891414611cb357806348aa44dd14611c675780634f1ef28614611a0f57806352d1902d146119925780636470b36614611965578063715018a6146118fb57806373f9c767146118df5780637dad19db146118b857806381cba5e21461182c578063869104991461180a5780638da5cb5b146117d457806395ccea67146116f5578063a2f77bcc146115ee578063a441c302146115c5578063ad3cb1cc14611521578063bc0167cd146114cb578063c54e44eb1461149c578063d53ce95614611450578063d7260cba146111fd578063e374b09714610af3578063ead00e02146104c0578063f2fde38b14610493578063f7804590146104695763f8c8765e1461018157600080fd5b346104665760803660031901126104665761019a611f43565b6101a2611f59565b906001600160a01b039060443582811691908290036104615760643591838316809303610461577ff0c57e16840df040f15088dc2f81fe391c3923bec73e23a9662efc9c229c6a009384549560ff8760401c16159467ffffffffffffffff88169788158061045a575b6001809a149081610450575b159081610447575b506104355767ffffffffffffffff1981168917885586610416575b508285169283156103d157821692831561038c578461033f9461027f7fad307780531f6353137c35adc50ad58d71b76e76aa891e729387f2e720f2de20971515612060565b61028a841515612005565b61029261273f565b61029a61273f565b6102a33361223e565b6102ab61273f565b6102b361273f565b6102bb61273f565b8a600080516020612804833981519152556001600160601b0360a01b92838d5416178c55828b5416178a55816002541617600255600354161760035566038d7ea4c6800060095566071afd498d0000600a55660aa87bee538000600b5560405191829133958390602090939293604083019460018060a01b03809216845216910152565b0390a261034a578280f35b805468ff0000000000000000191690556040519081527fc7f505b2f371ae2175ee4913f4499e1f2633a7b5936321eed1cdaeb6115181d290602090a138808280f35b60405162461bcd60e51b815260206004820152601960248201527f496e76616c6964206c6971756964697479206d616e61676572000000000000006044820152606490fd5b60405162461bcd60e51b815260206004820152601960248201527f496e76616c696420726566657272616c20636f6e7472616374000000000000006044820152606490fd5b68ffffffffffffffffff1916680100000000000000011787553861023a565b60405163f92ee8a960e01b8152600490fd5b9050153861021f565b303b159150610217565b508661020b565b600080fd5b80fd5b50346104665760203660031901126104665760406020916004358152600783522054604051908152f35b5034610466576020366003190112610466576104bd6104b0611f43565b6104b86122b2565b61223e565b80f35b503461046657604036600319011261046657600435906104de611f59565b916104e76122eb565b66038d7ea4c6800081148015610ae3575b8015610ad3575b15610a99578154604051630308a59b60e31b81523360048201526020946001600160a01b0392602492908416919087818581865afa908115610a8e578791610a71575b50156109d0575b50506040516323b872dd60e01b81523360048201523082820152604481018490528581606481887355d398326f99059ff775485246999027b31979555af19081156109c5578591610998575b501561095e5782845260078552604084205460068652604085209085528552604084209260029081850154801560001461083f57506105d5600454612171565b806004558086556001860190828255856003880191428355600589019261ffff1984541684556004548b5260058c5260408b20908a82036107a4575b5050505050507fa26856d25e558c79e1632806bc6824075cf59885a115825f2aab62385a3f71428760045492604051908152a25b82855416803b156107a0578580918460405180948193632d2b3f8760e21b83523360048401525af180156107955790869161077d575b50508301805492600160401b938481101561076a578060016106a09201845583611fd7565b819291549060031b9133831b921b191617905533855260088652604085209284549380549182101561076a57906106dc91600182018155611fd7565b81549060031b906000198096831b921b1916179055835490549283019183831161075857507f03dfbe1fcb4e2d61f3b4a0c93d8f814c92250618b3387f396cc9fc9fafe2c20360159495966040519384523393a31461074c575b5060016000805160206128048339815191525580f35b60044291015538610736565b634e487b7160e01b8652601160045285fd5b634e487b7160e01b875260416004528387fd5b61078690611f6f565b61079157843861067b565b8480fd5b6040513d88823e3d90fd5b8580fd5b6108349560059383555460018301556107c1888c01898401612196565b54600382015560048a0154600482015501916107ed60ff825416849060ff801983541691151516179055565b8054835461ff001916600891821c60ff16151590911b61ff001617835554825462010000600160b01b031916601091821c92909216901b62010000600160b01b0316179055565b388085818080610611565b6015111561084e575b50610645565b809450855260078652604085206108658154612171565b905583855260078652604085205461087e600454612171565b90816004558587526006885260408720908752875260408620908082556001820190868255856003840191428355600585019261ffff1984541684556004548b5260058c5260408b209086820361090a575b505050505050937fa26856d25e558c79e1632806bc6824075cf59885a115825f2aab62385a3f71428760045492604051908152a238610848565b610953956005938355546001830155610927888801898401612196565b5460038201556004860154600482015501916107ed60ff825416849060ff801983541691151516179055565b3880858180806108d0565b8460146064926040519262461bcd60e51b84526004840152820152731554d115081d1c985b9cd9995c8819985a5b195960621b6044820152fd5b6109b89150863d88116109be575b6109b08183611f99565b810190612048565b38610595565b503d6109a6565b6040513d87823e3d90fd5b83811615610a3557813b156107a057604051637e540b2b60e01b81523360048201526001600160a01b039190911660248201529085908290604490829084905af180156109c557610a22575b80610549565b610a2e90949194611f6f565b9238610a1c565b60405162461bcd60e51b8152600481018890526015818501527426bab9ba10383937bb34b232903932b332b93932b960591b6044820152606490fd5b610a889150883d8a116109be576109b08183611f99565b38610542565b6040513d89823e3d90fd5b60405162461bcd60e51b8152602060048201526012602482015271125b9d985b1a590818995d08185b5bdd5b9d60721b6044820152606490fd5b50660aa87bee53800081146104ff565b5066071afd498d000081146104f8565b503461046657604036600319011261046657610b0d611f59565b90610b166122b2565b610b1e6122eb565b6004358152600560205260408120610b3a6004358254146120ac565b600581018054610b4d60ff8216156120e9565b610b5d60ff8260081c161561212d565b600283018054601581036111c8578591865b82811061118c575b505050156111475761ff01600160b01b031916601085901b62010000600160b01b031617600117905560044291015560043581526005602052604081209160018301549081601581020460151482151715611060576015820260158302046001146015830215171561106057825b6002850154811015610d7357610bfe8160028701611fd7565b9054600392916001600160a01b0385811691851b9290921c90911603610c29575b6001915001610be5565b610c746020610c3b8360028a01611fd7565b905460405163a9059cbb60e01b815291861b1c6001600160a01b0316600482015260646015880204602482015291829081906044820190565b0381897355d398326f99059ff775485246999027b31979555af1908115610795578691610d54575b5015610d0f57600191610cb28260028901611fd7565b848060a09493941b039254911b1c1660405160646015870204815260406020820152601060408201526f4e6f6e2d77696e6e657220736861726560801b6060820152600080516020612824833981519152608060043592a3610c1f565b60405162461bcd60e51b815260206004820152601a60248201527f4e6f6e2d77696e6e6572207472616e73666572206661696c65640000000000006044820152606490fd5b610d6d915060203d6020116109be576109b08183611f99565b38610c9c565b5090610d85601582028360043561233a565b50602a8102601582028104600214601583021517156110cf5760025460405163a9059cbb60e01b81526001600160a01b03909116600482015260649091046024820181905290602081604481887355d398326f99059ff775485246999027b31979555af19081156109c5578591611128575b50156110e35760018060a01b03600254169060405190815260406020820152600960408201526827b832b930ba34b7b760b91b6060820152600080516020612824833981519152608060043592a360d28102601582028104600a14601583021517156110cf5760035460405163a9059cbb60e01b81526001600160a01b03909116600482015260649091046024820181905290602081604481887355d398326f99059ff775485246999027b31979555af19081156109c55785916110b0575b50156110745760018060a01b0360035416906040519081526040602082015260046040820152630446170760e41b6060820152600080516020612824833981519152608060043592a36104ec81029060158082028304603c1491021517156110605760015460405163095ea7b360e01b81526001600160a01b039091166004820152606490910460248201819052839190602082604481867355d398326f99059ff775485246999027b31979555af190811561103857602092610fb492611043575b5060015460405163324741e760e21b81526001600160a01b03878116600483015260248201939093529485939190921691839182906044820190565b03925af1801561103857611009575b506001600160a01b03166004357fb7f35e624e036288272fbf3342c09219261ff29fdddd826989b289134e9ae5358380a360016000805160206128048339815191525580f35b602090813d8311611031575b61101f8183611f99565b8101031261102d5782610fc3565b5080fd5b503d611015565b6040513d85823e3d90fd5b61105990843d86116109be576109b08183611f99565b5086610f78565b634e487b7160e01b83526011600452602483fd5b60405162461bcd60e51b815260206004820152601460248201527311185c1c081d1c985b9cd9995c8819985a5b195960621b6044820152606490fd5b6110c9915060203d6020116109be576109b08183611f99565b85610eb6565b634e487b7160e01b84526011600452602484fd5b60405162461bcd60e51b815260206004820152601960248201527f4f7065726174696f6e207472616e73666572206661696c6564000000000000006044820152606490fd5b611141915060203d6020116109be576109b08183611f99565b85610df7565b60405162461bcd60e51b815260206004820152601760248201527f57696e6e6572206d757374206265206120706c617965720000000000000000006044820152606490fd5b6111968183611fd7565b905460039190911b1c6001600160a01b03908116908a16146111ba57600101610b6f565b505050506001388080610b77565b60405162461bcd60e51b815260206004820152600d60248201526c11d85b59481b9bdd08199d5b1b609a1b6044820152606490fd5b503461046657602090816003193601126104665760043561121c6122eb565b808252600583526040822092611234828554146120ac565b600584019081549461124960ff8716156120e9565b61125960ff8760081c161561212d565b600281019260158454101561141c57600390600383015461070881018091116114085742106113ca576101006001959861ff001916179055859684859301925b6112d9575b86867f3f089de9d7a24f4fa13fc08c92aea5efef51005bfc944583d8062c43f78672b88280a260016000805160206128048339815191525580f35b80548810156113c557611327846112f08a84611fd7565b9054865460405163a9059cbb60e01b815292871b9190911c6001600160a01b03166004830152602482015291829081906044820190565b03818b7355d398326f99059ff775485246999027b31979555af19081156113ba57889161139d575b501561135f579684019684611299565b60405162461bcd60e51b81526004810185905260166024820152751499599d5b99081d1c985b9cd9995c8819985a5b195960521b6044820152606490fd5b6113b49150853d87116109be576109b08183611f99565b3861134f565b6040513d8a823e3d90fd5b61129e565b60405162461bcd60e51b815260048101859052601660248201527511d85b59481b9bdd081d1a5b5959081bdd5d081e595d60521b6044820152606490fd5b634e487b7160e01b88526011600452602488fd5b60405162461bcd60e51b815260048101849052600c60248201526b11d85b59481a5cc8199d5b1b60a21b6044820152606490fd5b50346104665760203660031901126104665761146a611f43565b6114726122b2565b6001600160a01b0316611486811515612060565b6001600160601b0360a01b600254161760025580f35b503461046657806003193601126104665760206040517355d398326f99059ff775485246999027b31979558152f35b5034610466576040366003190112610466576114e5611f43565b6001600160a01b03168152600860205260408120805460243592908310156104665760206115138484611fd7565b90546040519160031b1c8152f35b50346104665780600319360112610466576040516040810181811067ffffffffffffffff8211176115b15760405260058152602091640352e302e360dc1b602083015260405192839160208352835191826020850152815b83811061159a57505060408094508284010152601f80199101168101030190f35b808601820151878201604001528694508101611579565b634e487b7160e01b83526041600452602483fd5b50346104665780600319360112610466576002546040516001600160a01b039091168152602090f35b503461046657602090816003193601126104665760043581526005825260408120908154926001936001840154936002810193600382015490600560048401549301549360018060a01b039560405180828a54918281520190819a8652838620908d875b8c8382106116e15750505050508161166b910382611f99565b6040519961010090818c01948c52838c015260408b015251809252610120890197925b8281106116cc57505050508596506060860152608085015260ff8116151560a085015260ff8160081c16151560c085015260101c1660e08301520390f35b83518816895297810197928101928a0161168e565b845416855293860193928101928101611652565b50346104665760403660031901126104665761170f611f43565b6117176122b2565b6000805160206127e48339815191525460405163a9059cbb60e01b81526001600160a01b039182166004820152602480359082015291602091839160449183918791165af19081156117c95782916117aa575b50156117735780f35b60405162461bcd60e51b815260206004820152600f60248201526e151c985b9cd9995c8819985a5b1959608a1b6044820152606490fd5b6117c3915060203d6020116109be576109b08183611f99565b3861176a565b6040513d84823e3d90fd5b50346104665780600319360112610466576000805160206127e4833981519152546040516001600160a01b039091168152602090f35b50346104665780600319360112610466576020604051660aa87bee5380008152f35b50346104665760403660031901126104665760048035825260066020908152604080842060243585528252928390208054600182015460038301549483015460059093015486519283529382015293840192909252606083019190915260ff80821615156080840152600882901c16151560a083015260101c6001600160a01b031660c082015260e090f35b5034610466578060031936011261046657546040516001600160a01b039091168152602090f35b5034610466578060031936011261046657602060405160158152f35b50346104665780600319360112610466576119146122b2565b6000805160206127e483398151915280546001600160a01b0319811690915581906001600160a01b03167f8be0079c531659141344cd1fd0a4f28419497f9722a3daafe3b4186f6b6457e08280a380f35b503461046657602036600319011261046657600435600381101561102d5760209060090154604051908152f35b50346104665780600319360112610466577f00000000000000000000000000000000000000000000000000000000000000006001600160a01b031630036119fd5760206040517f360894a13ba1a3210667c828492db98dca3e2076cc3735a920a3ca505d382bbc8152f35b60405163703e46dd60e11b8152600490fd5b50604036600319011261046657611a24611f43565b602491823567ffffffffffffffff811161102d573660238201121561102d578060040135611a5181611fbb565b93611a5f6040519586611f99565b81855260209182860193368883830101116107a057818692898693018737870101526001600160a01b037f00000000000000000000000000000000000000000000000000000000000000008116308114908115611c39575b506119fd57611ac46122b2565b8116946040516352d1902d60e01b815283816004818a5afa869181611c06575b50611b0157604051634c9c8ce360e01b8152600481018890528890fd5b8690887f360894a13ba1a3210667c828492db98dca3e2076cc3735a920a3ca505d382bbc91828103611bf15750843b15611bdb575080546001600160a01b031916821790556040518692917fbc7cd75a20ee27fd9adebab32041f755214dbc6bffa90cc0225b39da2e5c2d3b8480a2815115611bbd5750611bb09482915190845af4903d15611bb4573d611b9481611fbb565b90611ba26040519283611f99565b81528581943d92013e612780565b5080f35b60609250612780565b94505050505034611bcc575080f35b63b398979f60e01b8152600490fd5b604051634c9c8ce360e01b815260048101849052fd5b60405190632a87526960e21b82526004820152fd5b9091508481813d8311611c32575b611c1e8183611f99565b81010312611c2e57519038611ae4565b8680fd5b503d611c14565b9050817f360894a13ba1a3210667c828492db98dca3e2076cc3735a920a3ca505d382bbc5416141538611ab7565b503461046657602036600319011261046657611c81611f43565b611c896122b2565b6001600160a01b0316611c9d811515612005565b6001600160601b0360a01b600354161760035580f35b5034610466578060031936011261046657602060405166071afd498d00008152f35b50346104665780600319360112610466576001546040516001600160a01b039091168152602090f35b5034610466578060031936011261046657602060405166038d7ea4c680008152f35b503461046657602036600319011261046657604060809160043581526007602052818120546006602052828220908252602052206002810154601581109081611d9e575b81611d8b575b60038354930154906040519384526020840152604083015215156060820152f35b600583015460081c60ff16159150611d6a565b600583015460ff16159150611d64565b50346104665780600319360112610466576020600454604051908152f35b50346104665780600319360112610466576003546040516001600160a01b039091168152602090f35b50346104665760208060031936011261102d576001600160a01b03611e18611f43565b168252600881526040822060405192838383549182815201908193835284832090835b818110611e8f5750505084611e51910385611f99565b60405193838594850191818652518092526040850193925b828110611e7857505050500390f35b835185528695509381019392810192600101611e69565b825484529286019260019283019201611e3b565b5034610466576020366003190112610466576004803582526005602081815260409384902080546001820154600383015495830154929094015486519182529281019390935293820192909252606081019290925260ff80821615156080840152600882901c16151560a083015260101c6001600160a01b031660c082015260e090f35b90503461102d578160031936011261102d578061070860209252f35b600435906001600160a01b038216820361046157565b602435906001600160a01b038216820361046157565b67ffffffffffffffff8111611f8357604052565b634e487b7160e01b600052604160045260246000fd5b90601f8019910116810190811067ffffffffffffffff821117611f8357604052565b67ffffffffffffffff8111611f8357601f01601f191660200190565b8054821015611fef5760005260206000200190600090565b634e487b7160e01b600052603260045260246000fd5b1561200c57565b60405162461bcd60e51b8152602060048201526014602482015273496e76616c69642064617070206164647265737360601b6044820152606490fd5b90816020910312610461575180151581036104615790565b1561206757565b60405162461bcd60e51b815260206004820152601960248201527f496e76616c6964206f7065726174696f6e2061646472657373000000000000006044820152606490fd5b156120b357565b60405162461bcd60e51b815260206004820152600e60248201526d11d85b59481b9bdd08199bdd5b9960921b6044820152606490fd5b156120f057565b60405162461bcd60e51b815260206004820152601560248201527411d85b5948185b1c9958591e48199a5b9a5cda1959605a1b6044820152606490fd5b1561213457565b60405162461bcd60e51b815260206004820152601560248201527411d85b5948185b1c9958591e481c99599d5b991959605a1b6044820152606490fd5b60001981146121805760010190565b634e487b7160e01b600052601160045260246000fd5b81811461223a5781549167ffffffffffffffff8311611f8357600160401b8311611f8357815483835580841061220f575b5060005260206000209060005260206000208154916000925b8484106121ee575050505050565b600191820180546001600160a01b03909216848601559390910192906121e0565b60008360005284602060002092830192015b82811061222f5750506121c7565b818155600101612221565b5050565b6001600160a01b03908116908115612299576000805160206127e483398151915280546001600160a01b031981168417909155167f8be0079c531659141344cd1fd0a4f28419497f9722a3daafe3b4186f6b6457e0600080a3565b604051631e4fbdf760e01b815260006004820152602490fd5b6000805160206127e4833981519152546001600160a01b031633036122d357565b60405163118cdaa760e01b8152336004820152602490fd5b60008051602061280483398151915260028154146123095760029055565b604051633ee5aeb560e01b8152600490fd5b9081602091031261046157516001600160a01b03811681036104615790565b6000805460405163167801e160e11b81526001600160a01b0394851660048201529594919360209187916024918391165afa94851561103857839561271e575b506001600160a01b03851615612717578283955b601e871080612705575b156126fc57600054604051631080b48560e21b81526001600160a01b03838116600483015290911690602081602481855afa90811561245c576000916126dd575b50612468575b5060005460405163167801e160e11b81526001600160a01b0392831660048201529160209183916024918391165afa801561245c576124279160009161242d575b5096612171565b9561238e565b61244f915060203d602011612455575b6124478183611f99565b81019061231b565b38612420565b503d61243d565b6040513d6000823e3d90fd5b916020612476602492612171565b6040516375d20f3b60e01b81526001600160a01b038516600482015290949092839182905afa90811561245c576000916126ab575b508211156124ba575b386123df565b826001600084820361260157501b8381046002148415171561218057606490045b806124e7575b506124b4565b60405163a9059cbb60e01b81526001600160a01b03831660048201526024810182905290959060208160448160007355d398326f99059ff775485246999027b31979555af190811561245c576000916125e2575b501561259d5785810180911161218057946040519081526040602082015260116040820152702ab83634b7329031b7b6b6b4b9b9b4b7b760791b606082015284600080516020612824833981519152608060018060a01b03851693a3386124e1565b60405162461bcd60e51b815260206004820152601a60248201527f436f6d6d697373696f6e207472616e73666572206661696c65640000000000006044820152606490fd5b6125fb915060203d6020116109be576109b08183611f99565b3861253b565b909150600284036126235750838004148315171561218057606483045b6124db565b6003915081841015806126a0575b156126515750808402908482041484151715612180576103e890046124db565b9050600b83101580612695575b1561261e57600d90818502918583041485151715612681575061271090046124db565b634e487b7160e01b81526011600452602490fd5b50601e83111561265e565b50600a841115612631565b906020823d6020116126d5575b816126c560209383611f99565b81010312610466575051386124ab565b3d91506126b8565b6126f6915060203d6020116109be576109b08183611f99565b386123d9565b50929450505050565b506001600160a01b0381161515612398565b5090925050565b61273891955060203d602011612455576124478183611f99565b933861237a565b60ff7ff0c57e16840df040f15088dc2f81fe391c3923bec73e23a9662efc9c229c6a005460401c161561276e57565b604051631afcd79f60e31b8152600490fd5b906127a7575080511561279557602081519101fd5b60405163d6bda27560e01b8152600490fd5b815115806127da575b6127b8575090565b604051639996b31560e01b81526001600160a01b039091166004820152602490fd5b50803b156127b056fe9016d09d72d40fdae2fd8ceac6b6234c7706214fd39c1cd1e609a0528c1993009b779b17422d0df92223018b32b4d1fa46e071723d6817e2486d003becc55f00a806e44d925d7b288bf49aebca26e1dcb893e0955d906c773b6264ec978cbd5da164736f6c6343000816000a",
  "implementation": "0x8e955cB388A1D13991326975d22A65a39B559637"
}