{
  "address": "0x9c6B16ECd3aED139766c98f41EfFdB9773d88120",
  "abi": [
    {
      "inputs": [],
      "stateMutability": "nonpayable",
      "type": "constructor"
    },
    {
      "inputs": [
        {
          "internalType": "address",
          "name": "target",
          "type": "address"
        }
      ],
      "name": "AddressEmptyCode",
      "type": "error"
    },
    {
      "inputs": [
        {
          "internalType": "address",
          "name": "implementation",
          "type": "address"
        }
      ],
      "name": "ERC1967InvalidImplementation",
      "type": "error"
    },
    {
      "inputs": [],
      "name": "ERC1967NonPayable",
      "type": "error"
    },
    {
      "inputs": [],
      "name": "FailedCall",
      "type": "error"
    },
    {
      "inputs": [],
      "name": "InvalidInitialization",
      "type": "error"
    },
    {
      "inputs": [],
      "name": "NotInitializing",
      "type": "error"
    },
    {
      "inputs": [
        {
          "internalType": "address",
          "name": "owner",
          "type": "address"
        }
      ],
      "name": "OwnableInvalidOwner",
      "type": "error"
    },
    {
      "inputs": [
        {
          "internalType": "address",
          "name": "account",
          "type": "address"
        }
      ],
      "name": "OwnableUnauthorizedAccount",
      "type": "error"
    },
    {
      "inputs": [],
      "name": "ReentrancyGuardReentrantCall",
      "type": "error"
    },
    {
      "inputs": [],
      "name": "UUPSUnauthorizedCallContext",
      "type": "error"
    },
    {
      "inputs": [
        {
          "internalType": "bytes32",
          "name": "slot",
          "type": "bytes32"
        }
      ],
      "name": "UUPSUnsupportedProxiableUUID",
      "type": "error"
    },
    {
      "anonymous": false,
      "inputs": [
        {
          "indexed": true,
          "internalType": "uint256",
          "name": "gameId",
          "type": "uint256"
        },
        {
          "indexed": false,
          "internalType": "uint256",
          "name": "betAmount",
          "type": "uint256"
        }
      ],
      "name": "GameCreated",
      "type": "event"
    },
    {
      "anonymous": false,
      "inputs": [
        {
          "indexed": true,
          "internalType": "uint256",
          "name": "gameId",
          "type": "uint256"
        },
        {
          "indexed": true,
          "internalType": "address",
          "name": "winner",
          "type": "address"
        }
      ],
      "name": "GameFinished",
      "type": "event"
    },
    {
      "anonymous": false,
      "inputs": [
        {
          "indexed": true,
          "internalType": "uint256",
          "name": "gameId",
          "type": "uint256"
        }
      ],
      "name": "GameRefunded",
      "type": "event"
    },
    {
      "anonymous": false,
      "inputs": [
        {
          "indexed": false,
          "internalType": "uint64",
          "name": "version",
          "type": "uint64"
        }
      ],
      "name": "Initialized",
      "type": "event"
    },
    {
      "anonymous": false,
      "inputs": [
        {
          "indexed": true,
          "internalType": "address",
          "name": "owner",
          "type": "address"
        },
        {
          "indexed": false,
          "internalType": "address",
          "name": "referral",
          "type": "address"
        },
        {
          "indexed": false,
          "internalType": "address",
          "name": "liquidityMgr",
          "type": "address"
        }
      ],
      "name": "Initialized",
      "type": "event"
    },
    {
      "anonymous": false,
      "inputs": [
        {
          "indexed": true,
          "internalType": "address",
          "name": "previousOwner",
          "type": "address"
        },
        {
          "indexed": true,
          "internalType": "address",
          "name": "newOwner",
          "type": "address"
        }
      ],
      "name": "OwnershipTransferred",
      "type": "event"
    },
    {
      "anonymous": false,
      "inputs": [
        {
          "indexed": true,
          "internalType": "uint256",
          "name": "gameId",
          "type": "uint256"
        },
        {
          "indexed": true,
          "internalType": "address",
          "name": "player",
          "type": "address"
        },
        {
          "indexed": false,
          "internalType": "uint256",
          "name": "playerIndex",
          "type": "uint256"
        }
      ],
      "name": "PlayerJoined",
      "type": "event"
    },
    {
      "anonymous": false,
      "inputs": [
        {
          "indexed": true,
          "internalType": "uint256",
          "name": "gameId",
          "type": "uint256"
        },
        {
          "indexed": true,
          "internalType": "address",
          "name": "recipient",
          "type": "address"
        },
        {
          "indexed": false,
          "internalType": "uint256",
          "name": "amount",
          "type": "uint256"
        },
        {
          "indexed": false,
          "internalType": "string",
          "name": "reason",
          "type": "string"
        }
      ],
      "name": "PrizePaid",
      "type": "event"
    },
    {
      "anonymous": false,
      "inputs": [
        {
          "indexed": true,
          "internalType": "address",
          "name": "implementation",
          "type": "address"
        }
      ],
      "name": "Upgraded",
      "type": "event"
    },
    {
      "inputs": [],
      "name": "GAME_TIMEOUT",
      "outputs": [
        {
          "internalType": "uint256",
          "name": "",
          "type": "uint256"
        }
      ],
      "stateMutability": "view",
      "type": "function"
    },
    {
      "inputs": [],
      "name": "GAME_TYPE_100",
      "outputs": [
        {
          "internalType": "uint256",
          "name": "",
          "type": "uint256"
        }
      ],
      "stateMutability": "view",
      "type": "function"
    },
    {
      "inputs": [],
      "name": "GAME_TYPE_200",
      "outputs": [
        {
          "internalType": "uint256",
          "name": "",
          "type": "uint256"
        }
      ],
      "stateMutability": "view",
      "type": "function"
    },
    {
      "inputs": [],
      "name": "GAME_TYPE_300",
      "outputs": [
        {
          "internalType": "uint256",
          "name": "",
          "type": "uint256"
        }
      ],
      "stateMutability": "view",
      "type": "function"
    },
    {
      "inputs": [],
      "name": "PLAYERS_PER_GAME",
      "outputs": [
        {
          "internalType": "uint256",
          "name": "",
          "type": "uint256"
        }
      ],
      "stateMutability": "view",
      "type": "function"
    },
    {
      "inputs": [],
      "name": "UPGRADE_INTERFACE_VERSION",
      "outputs": [
        {
          "internalType": "string",
          "name": "",
          "type": "string"
        }
      ],
      "stateMutability": "view",
      "type": "function"
    },
    {
      "inputs": [],
      "name": "USDT",
      "outputs": [
        {
          "internalType": "address",
          "name": "",
          "type": "address"
        }
      ],
      "stateMutability": "view",
      "type": "function"
    },
    {
      "inputs": [
        {
          "internalType": "uint256",
          "name": "",
          "type": "uint256"
        }
      ],
      "name": "currentGameIndex",
      "outputs": [
        {
          "internalType": "uint256",
          "name": "",
          "type": "uint256"
        }
      ],
      "stateMutability": "view",
      "type": "function"
    },
    {
      "inputs": [],
      "name": "dappAddress",
      "outputs": [
        {
          "internalType": "address",
          "name": "",
          "type": "address"
        }
      ],
      "stateMutability": "view",
      "type": "function"
    },
    {
      "inputs": [
        {
          "internalType": "uint256",
          "name": "gameId",
          "type": "uint256"
        },
        {
          "internalType": "address",
          "name": "winner",
          "type": "address"
        }
      ],
      "name": "declareWinner",
      "outputs": [],
      "stateMutability": "nonpayable",
      "type": "function"
    },
    {
      "inputs": [
        {
          "internalType": "address",
          "name": "token",
          "type": "address"
        },
        {
          "internalType": "uint256",
          "name": "amount",
          "type": "uint256"
        }
      ],
      "name": "emergencyWithdraw",
      "outputs": [],
      "stateMutability": "nonpayable",
      "type": "function"
    },
    {
      "inputs": [],
      "name": "gameIdCounter",
      "outputs": [
        {
          "internalType": "uint256",
          "name": "",
          "type": "uint256"
        }
      ],
      "stateMutability": "view",
      "type": "function"
    },
    {
      "inputs": [],
      "name": "gameOperator",
      "outputs": [
        {
          "internalType": "address",
          "name": "",
          "type": "address"
        }
      ],
      "stateMutability": "view",
      "type": "function"
    },
    {
      "inputs": [
        {
          "internalType": "uint256",
          "name": "",
          "type": "uint256"
        }
      ],
      "name": "gameTypes",
      "outputs": [
        {
          "internalType": "uint256",
          "name": "",
          "type": "uint256"
        }
      ],
      "stateMutability": "view",
      "type": "function"
    },
    {
      "inputs": [
        {
          "internalType": "uint256",
          "name": "",
          "type": "uint256"
        }
      ],
      "name": "games",
      "outputs": [
        {
          "internalType": "uint256",
          "name": "gameId",
          "type": "uint256"
        },
        {
          "internalType": "uint256",
          "name": "betAmount",
          "type": "uint256"
        },
        {
          "internalType": "uint256",
          "name": "startTime",
          "type": "uint256"
        },
        {
          "internalType": "uint256",
          "name": "endTime",
          "type": "uint256"
        },
        {
          "internalType": "bool",
          "name": "finished",
          "type": "bool"
        },
        {
          "internalType": "bool",
          "name": "refunded",
          "type": "bool"
        },
        {
          "internalType": "address",
          "name": "winner",
          "type": "address"
        }
      ],
      "stateMutability": "view",
      "type": "function"
    },
    {
      "inputs": [
        {
          "internalType": "uint256",
          "name": "",
          "type": "uint256"
        },
        {
          "internalType": "uint256",
          "name": "",
          "type": "uint256"
        }
      ],
      "name": "gamesByType",
      "outputs": [
        {
          "internalType": "uint256",
          "name": "gameId",
          "type": "uint256"
        },
        {
          "internalType": "uint256",
          "name": "betAmount",
          "type": "uint256"
        },
        {
          "internalType": "uint256",
          "name": "startTime",
          "type": "uint256"
        },
        {
          "internalType": "uint256",
          "name": "endTime",
          "type": "uint256"
        },
        {
          "internalType": "bool",
          "name": "finished",
          "type": "bool"
        },
        {
          "internalType": "bool",
          "name": "refunded",
          "type": "bool"
        },
        {
          "internalType": "address",
          "name": "winner",
          "type": "address"
        }
      ],
      "stateMutability": "view",
      "type": "function"
    },
    {
      "inputs": [
        {
          "internalType": "uint256",
          "name": "betAmount",
          "type": "uint256"
        }
      ],
      "name": "getCurrentGame",
      "outputs": [
        {
          "internalType": "uint256",
          "name": "gameId",
          "type": "uint256"
        },
        {
          "internalType": "uint256",
          "name": "playerCount",
          "type": "uint256"
        },
        {
          "internalType": "uint256",
          "name": "startTime",
          "type": "uint256"
        },
        {
          "internalType": "bool",
          "name": "canJoin",
          "type": "bool"
        }
      ],
      "stateMutability": "view",
      "type": "function"
    },
    {
      "inputs": [
        {
          "internalType": "uint256",
          "name": "gameId",
          "type": "uint256"
        }
      ],
      "name": "getGame",
      "outputs": [
        {
          "internalType": "uint256",
          "name": "id",
          "type": "uint256"
        },
        {
          "internalType": "uint256",
          "name": "betAmount",
          "type": "uint256"
        },
        {
          "internalType": "address[]",
          "name": "players",
          "type": "address[]"
        },
        {
          "internalType": "uint256",
          "name": "startTime",
          "type": "uint256"
        },
        {
          "internalType": "uint256",
          "name": "endTime",
          "type": "uint256"
        },
        {
          "internalType": "bool",
          "name": "finished",
          "type": "bool"
        },
        {
          "internalType": "bool",
          "name": "refunded",
          "type": "bool"
        },
        {
          "internalType": "address",
          "name": "winner",
          "type": "address"
        }
      ],
      "stateMutability": "view",
      "type": "function"
    },
    {
      "inputs": [
        {
          "internalType": "uint256",
          "name": "gameId",
          "type": "uint256"
        }
      ],
      "name": "getGamePlayers",
      "outputs": [
        {
          "internalType": "uint256",
          "name": "",
          "type": "uint256"
        }
      ],
      "stateMutability": "view",
      "type": "function"
    },
    {
      "inputs": [
        {
          "internalType": "address",
          "name": "user",
          "type": "address"
        }
      ],
      "name": "getUserGames",
      "outputs": [
        {
          "internalType": "uint256[]",
          "name": "",
          "type": "uint256[]"
        }
      ],
      "stateMutability": "view",
      "type": "function"
    },
    {
      "inputs": [
        {
          "internalType": "address",
          "name": "_referralContract",
          "type": "address"
        },
        {
          "internalType": "address",
          "name": "_liquidityManager",
          "type": "address"
        },
        {
          "internalType": "address",
          "name": "_operationAddress",
          "type": "address"
        },
        {
          "internalType": "address",
          "name": "_dappAddress",
          "type": "address"
        },
        {
          "internalType": "address",
          "name": "_gameOperator",
          "type": "address"
        }
      ],
      "name": "initialize",
      "outputs": [],
      "stateMutability": "nonpayable",
      "type": "function"
    },
    {
      "inputs": [
        {
          "internalType": "uint256",
          "name": "betAmount",
          "type": "uint256"
        },
        {
          "internalType": "address",
          "name": "referrer",
          "type": "address"
        }
      ],
      "name": "joinGame",
      "outputs": [],
      "stateMutability": "nonpayable",
      "type": "function"
    },
    {
      "inputs": [],
      "name": "liquidityManager",
      "outputs": [
        {
          "internalType": "contract IPDALiquidityManager",
          "name": "",
          "type": "address"
        }
      ],
      "stateMutability": "view",
      "type": "function"
    },
    {
      "inputs": [],
      "name": "operationAddress",
      "outputs": [
        {
          "internalType": "address",
          "name": "",
          "type": "address"
        }
      ],
      "stateMutability": "view",
      "type": "function"
    },
    {
      "inputs": [],
      "name": "owner",
      "outputs": [
        {
          "internalType": "address",
          "name": "",
          "type": "address"
        }
      ],
      "stateMutability": "view",
      "type": "function"
    },
    {
      "inputs": [],
      "name": "proxiableUUID",
      "outputs": [
        {
          "internalType": "bytes32",
          "name": "",
          "type": "bytes32"
        }
      ],
      "stateMutability": "view",
      "type": "function"
    },
    {
      "inputs": [],
      "name": "referralContract",
      "outputs": [
        {
          "internalType": "contract IPDAReferral",
          "name": "",
          "type": "address"
        }
      ],
      "stateMutability": "view",
      "type": "function"
    },
    {
      "inputs": [
        {
          "internalType": "uint256",
          "name": "gameId",
          "type": "uint256"
        }
      ],
      "name": "refundGame",
      "outputs": [],
      "stateMutability": "nonpayable",
      "type": "function"
    },
    {
      "inputs": [],
      "name": "renounceOwnership",
      "outputs": [],
      "stateMutability": "nonpayable",
      "type": "function"
    },
    {
      "inputs": [
        {
          "internalType": "address",
          "name": "_dappAddress",
          "type": "address"
        }
      ],
      "name": "setDappAddress",
      "outputs": [],
      "stateMutability": "nonpayable",
      "type": "function"
    },
    {
      "inputs": [
        {
          "internalType": "address",
          "name": "_gameOperator",
          "type": "address"
        }
      ],
      "name": "setGameOperator",
      "outputs": [],
      "stateMutability": "nonpayable",
      "type": "function"
    },
    {
      "inputs": [
        {
          "internalType": "address",
          "name": "_liquidityManager",
          "type": "address"
        }
      ],
      "name": "setLiquidityManager",
      "outputs": [],
      "stateMutability": "nonpayable",
      "type": "function"
    },
    {
      "inputs": [
        {
          "internalType": "address",
          "name": "_operationAddress",
          "type": "address"
        }
      ],
      "name": "setOperationAddress",
      "outputs": [],
      "stateMutability": "nonpayable",
      "type": "function"
    },
    {
      "inputs": [
        {
          "internalType": "address",
          "name": "newOwner",
          "type": "address"
        }
      ],
      "name": "transferOwnership",
      "outputs": [],
      "stateMutability": "nonpayable",
      "type": "function"
    },
    {
      "inputs": [
        {
          "internalType": "address",
          "name": "newImplementation",
          "type": "address"
        },
        {
          "internalType": "bytes",
          "name": "data",
          "type": "bytes"
        }
      ],
      "name": "upgradeToAndCall",
      "outputs": [],
      "stateMutability": "payable",
      "type": "function"
    },
    {
      "inputs": [
        {
          "internalType": "address",
          "name": "",
          "type": "address"
        },
        {
          "internalType": "uint256",
          "name": "",
          "type": "uint256"
        }
      ],
      "name": "userGames",
      "outputs": [
        {
          "internalType": "uint256",
          "name": "",
          "type": "uint256"
        }
      ],
      "stateMutability": "view",
      "type": "function"
    }
  ],
  "transactionHash": "0x6f042de0ca385a43df23e5051b95870b1362b0cf809889ceb9c861e9f7a93c7f",
  "numDeployments": 1,
  "bytecode": "0x60a080604052346100cc57306080527ff0c57e16840df040f15088dc2f81fe391c3923bec73e23a9662efc9c229c6a009081549060ff8260401c166100bd57506001600160401b036002600160401b031982821601610078575b60405161296490816100d282396080518181816116d601526117bc0152f35b6001600160401b031990911681179091556040519081527fc7f505b2f371ae2175ee4913f4499e1f2633a7b5936321eed1cdaeb6115181d290602090a1388080610059565b63f92ee8a960e01b8152600490fd5b600080fdfe608080604052600436101561001357600080fd5b600090813560e01c908163099420b61461202357508063117a5b9014611fa1578063120aace614611ef35780631459457a14611bed57806315a40f4914611bc05780631a721b7b14611b975780631bb412d614611b795780631c063c7714611aeb578063288db7c614611ac95780633382743814611aa05780633c1624d414611a0a57806343d28914146119e857806348aa44dd1461199c5780634f1ef2861461174057806352d1902d146116c35780636470b36614611696578063715018a61461162c57806373f9c767146116105780637dad19db146115e957806381cba5e21461155d578063869104991461153b5780638da5cb5b1461150557806395ccea6714611431578063a2f77bcc1461132a578063a441c30214611301578063ad3cb1cc1461125d578063bc0167cd14611207578063c2ead6b9146111de578063c54e44eb146111af578063d53ce95614611163578063d7260cba14610f1b578063da46a73c14610ecf578063e374b09714610737578063ead00e0214610206578063f2fde38b146101d95763f7804590146101ad57600080fd5b346101d65760203660031901126101d65760406020916004358152600883522054604051908152f35b80fd5b50346101d65760203660031901126101d6576102036101f661203f565b6101fe61239f565b61232b565b80f35b50346101d65760403660031901126101d65760043561022361205a565b9061022c6123d8565b662386f26fc1000081148015610727575b8015610717575b156106dd578254604051630308a59b60e31b81523360048201526024936020939290916001600160a01b03918216919085818881865afa9081156106d25788916106b5575b50156105ff575b5050506040516323b872dd60e01b815233600482015230848201528160448201528281606481887355d398326f99059ff775485246999027b31979555af19081156105f45785916105c7575b501561058d5780845260088252604084205492600783526040852084865283526040852090600282015480156000146104c1575061031b6005546122e1565b8060055580928188526006865260058060408a20848155876001820155426003820155019161ffff1992838154169055838155866001820155426003820155019081541690557fa26856d25e558c79e1632806bc6824075cf59885a115825f2aab62385a3f714285604051868152a25b818652600684526103a233600260408920016122f0565b828652600784526040862085875284526103c233600260408920016122f0565b3386526009845260408620805490600160401b8210156104ae57906103ec916001820181556120d8565b919080549260031b600019938486831b921b191617905582875260068552600260408820015491820191821161049c5750604051908152817f03dfbe1fcb4e2d61f3b4a0c93d8f814c92250618b3387f396cc9fc9fafe2c203853393a384526006825260408420600b600282015414610476575b8460016000805160206129388339815191525580f35b600442910155835260078152604083209183525242600460408320015538808080610460565b634e487b7160e01b8752601160045286fd5b634e487b7160e01b885260416004528288fd5b90949190600b1161058557505080845260088252604084206104e381546122e1565b9055808452600882526040842054926104fd6005546122e1565b908160055581808752600685526005604088208281558560018201554260038201550161ffff199081815416905584885260078652604088208789528652600560408920838155866001820155426003820155019081541690557fa26856d25e558c79e1632806bc6824075cf59885a115825f2aab62385a3f714285604051868152a261038b565b54909361038b565b5060146064926040519262461bcd60e51b84526004840152820152731554d115081d1c985b9cd9995c8819985a5b195960621b6044820152fd5b6105e79150833d85116105ed575b6105df818361209a565b8101906121e1565b386102dc565b503d6105d5565b6040513d87823e3d90fd5b82161561067957908186923b1561067557604051637e540b2b60e01b81523360048201526001600160a01b0392909216602483015282908290604490829084905af1801561066a57610652575b80610290565b61065b90612070565b61066657833861064c565b8380fd5b6040513d84823e3d90fd5b8280fd5b60405162461bcd60e51b8152600481018590526015818701527426bab9ba10383937bb34b232903932b332b93932b960591b6044820152606490fd5b6106cc9150863d88116105ed576105df818361209a565b38610289565b6040513d8a823e3d90fd5b60405162461bcd60e51b8152602060048201526012602482015271125b9d985b1a590818995d08185b5bdd5b9d60721b6044820152606490fd5b50666a94d74f4300008114610244565b5066470de4df820000811461023d565b50346101d65760403660031901126101d65761075161205a565b9061075a6123d8565b6004546001600160a01b03163303610e7c5760043581526006602052604081206107886004358254146121f9565b60058101805461079b60ff821615612236565b6107ab60ff8260081c161561227a565b600283018054600b8103610e47578591865b828110610e0b575b50505015610dc65761ff01600160b01b031916601085901b62010000600160b01b0316176001908117909155426004928301559035825260066020526040822080820154909390929183901b919083156002858504141715610db25761082e60648404856122be565b92825b60028701548110156109c75761084a81600289016120d8565b90546001600160a01b0385811660039390931b9190911c1603610870575b600101610831565b6108bb6020866108838460028c016120d8565b905460405163a9059cbb60e01b815260039290921b1c6001600160a01b03166004820152602481019190915291829081906044820190565b0381887355d398326f99059ff775485246999027b31979555af19081156105f45785916109a8575b501561096357806108f960019260028a016120d8565b838060a01b0391549060031b1c1660405187815260406020820152601060408201526f4e6f6e2d77696e6e657220736861726560801b60608201527fa806e44d925d7b288bf49aebca26e1dcb893e0955d906c773b6264ec978cbd5d608060043592a39050610868565b60405162461bcd60e51b815260206004820152601a60248201527f4e6f6e2d77696e6e6572207472616e73666572206661696c65640000000000006044820152606490fd5b6109c1915060203d6020116105ed576105df818361209a565b386108e3565b508290856109d88185600435612468565b5060025460405163a9059cbb60e01b8082526001600160a01b0390921660048201526064840460248201527355d398326f99059ff775485246999027b319795593919060208160448189895af1908115610d2f578691610d93575b5015610d4e5760018060a01b036002541660646040519304835260406020840152600960408401526827b832b930ba34b7b760b91b60608401527fa806e44d925d7b288bf49aebca26e1dcb893e0955d906c773b6264ec978cbd5d9283608060043592a3600a8302838104600a1484151715610d3a576003546040519283526001600160a01b0316600483015260649004602482018190529060208160448189895af1908115610d2f578691610d10575b5015610cd45760018060a01b0360035416916040519182526040602083015260046040830152630446170760e41b6060830152608060043592a3603c810290808204603c1490151715610cc05760015460405163095ea7b360e01b81526001600160a01b039091166004820152606490910460248201819052916020908290604490829087905af18015610cb5578392602092610bbc92610c98575b5060015460405163324741e760e21b81526001600160a01b03888116600483015260248201939093529485939190921691839182906044820190565b03925af1801561066a57610c6d575b5080546001600160a01b0316803b15610c6957604051632d2b3f8760e21b81526001600160a01b03841660048201529082908290602490829084905af1801561066a57610c5a575b50906001600160a01b03166004357fb7f35e624e036288272fbf3342c09219261ff29fdddd826989b289134e9ae5358380a360016000805160206129388339815191525580f35b610c6390612070565b82610c13565b5080fd5b602090813d8311610c91575b610c83818361209a565b810103126101d65782610bcb565b503d610c79565b610cae90843d86116105ed576105df818361209a565b5086610b80565b6040513d85823e3d90fd5b634e487b7160e01b83526011600452602483fd5b60405162461bcd60e51b815260206004820152601460248201527311185c1c081d1c985b9cd9995c8819985a5b195960621b6044820152606490fd5b610d29915060203d6020116105ed576105df818361209a565b87610ae4565b6040513d88823e3d90fd5b634e487b7160e01b86526011600452602486fd5b60405162461bcd60e51b815260206004820152601960248201527f4f7065726174696f6e207472616e73666572206661696c6564000000000000006044820152606490fd5b610dac915060203d6020116105ed576105df818361209a565b87610a33565b634e487b7160e01b82526011600452602482fd5b60405162461bcd60e51b815260206004820152601760248201527f57696e6e6572206d757374206265206120706c617965720000000000000000006044820152606490fd5b610e1581836120d8565b905460039190911b1c6001600160a01b03908116908a1614610e39576001016107bd565b5050505060013880806107c5565b60405162461bcd60e51b815260206004820152600d60248201526c11d85b59481b9bdd08199d5b1b609a1b6044820152606490fd5b60405162461bcd60e51b815260206004820152602560248201527f4f6e6c792067616d65206f70657261746f722063616e206465636c617265207760448201526434b73732b960d91b6064820152608490fd5b50346101d65760203660031901126101d657610ee961203f565b610ef161239f565b6001600160a01b0316610f05811515612195565b6001600160601b0360a01b600454161760045580f35b50346101d657602090816003193601126101d657600435610f3a6123d8565b808252600683526040822092610f52828554146121f9565b6005840190815494610f6760ff871615612236565b610f7760ff8760081c161561227a565b6002810192600b8454101561112f576003906003830154610708810180911161111b5742106110dd576101006001959861ff001916179055859684859301925b610ff7575b86867f3f089de9d7a24f4fa13fc08c92aea5efef51005bfc944583d8062c43f78672b88280a260016000805160206129388339815191525580f35b80548810156110d8576110458461100e8a846120d8565b9054865460405163a9059cbb60e01b815292871b9190911c6001600160a01b03166004830152602482015291829081906044820190565b03818b7355d398326f99059ff775485246999027b31979555af19081156106d25788916110bb575b501561107d579684019684610fb7565b60405162461bcd60e51b81526004810185905260166024820152751499599d5b99081d1c985b9cd9995c8819985a5b195960521b6044820152606490fd5b6110d29150853d87116105ed576105df818361209a565b3861106d565b610fbc565b60405162461bcd60e51b815260048101859052601660248201527511d85b59481b9bdd081d1a5b5959081bdd5d081e595d60521b6044820152606490fd5b634e487b7160e01b88526011600452602488fd5b60405162461bcd60e51b815260048101849052600c60248201526b11d85b59481a5cc8199d5b1b60a21b6044820152606490fd5b50346101d65760203660031901126101d65761117d61203f565b61118561239f565b6001600160a01b0316611199811515612106565b6001600160601b0360a01b600254161760025580f35b50346101d657806003193601126101d65760206040517355d398326f99059ff775485246999027b31979558152f35b50346101d657806003193601126101d6576004546040516001600160a01b039091168152602090f35b50346101d65760403660031901126101d65761122161203f565b6001600160a01b03168152600960205260408120805460243592908310156101d657602061124f84846120d8565b90546040519160031b1c8152f35b50346101d657806003193601126101d6576040516040810181811067ffffffffffffffff8211176112ed5760405260058152602091640352e302e360dc1b602083015260405192839160208352835191826020850152815b8381106112d657505060408094508284010152601f80199101168101030190f35b8086018201518782016040015286945081016112b5565b634e487b7160e01b83526041600452602483fd5b50346101d657806003193601126101d6576002546040516001600160a01b039091168152602090f35b50346101d657602090816003193601126101d65760043581526006825260408120908154926001936001840154936002810193600382015490600560048401549301549360018060a01b039560405180828a54918281520190819a8652838620908d875b8c83821061141d575050505050816113a791038261209a565b6040519961010090818c01948c52838c015260408b015251809252610120890197925b82811061140857505050508596506060860152608085015260ff8116151560a085015260ff8160081c16151560c085015260101c1660e08301520390f35b83518816895297810197928101928a016113ca565b84541685529386019392810192810161138e565b50346101d65760403660031901126101d65761144b61203f565b61145361239f565b6000805160206129188339815191525460405163a9059cbb60e01b81526001600160a01b039182166004820152602480359082015291602091839160449183918791165af190811561066a5782916114e6575b50156114af5780f35b60405162461bcd60e51b815260206004820152600f60248201526e151c985b9cd9995c8819985a5b1959608a1b6044820152606490fd5b6114ff915060203d6020116105ed576105df818361209a565b386114a6565b50346101d657806003193601126101d657600080516020612918833981519152546040516001600160a01b039091168152602090f35b50346101d657806003193601126101d6576020604051666a94d74f4300008152f35b50346101d65760403660031901126101d65760048035825260076020908152604080842060243585528252928390208054600182015460038301549483015460059093015486519283529382015293840192909252606083019190915260ff80821615156080840152600882901c16151560a083015260101c6001600160a01b031660c082015260e090f35b50346101d657806003193601126101d657546040516001600160a01b039091168152602090f35b50346101d657806003193601126101d6576020604051600b8152f35b50346101d657806003193601126101d65761164561239f565b60008051602061291883398151915280546001600160a01b0319811690915581906001600160a01b03167f8be0079c531659141344cd1fd0a4f28419497f9722a3daafe3b4186f6b6457e08280a380f35b50346101d65760203660031901126101d6576004356003811015610c6957602090600a0154604051908152f35b50346101d657806003193601126101d6577f00000000000000000000000000000000000000000000000000000000000000006001600160a01b0316300361172e5760206040517f360894a13ba1a3210667c828492db98dca3e2076cc3735a920a3ca505d382bbc8152f35b60405163703e46dd60e11b8152600490fd5b5060403660031901126101d65761175561203f565b602491823567ffffffffffffffff8111610c695736602382011215610c69578060040135611782816120bc565b93611790604051958661209a565b818552602091828601933688838301011161199857818692898693018737870101526001600160a01b037f0000000000000000000000000000000000000000000000000000000000000000811630811490811561196a575b5061172e576117f561239f565b8116946040516352d1902d60e01b815283816004818a5afa869181611937575b5061183257604051634c9c8ce360e01b8152600481018890528890fd5b8690887f360894a13ba1a3210667c828492db98dca3e2076cc3735a920a3ca505d382bbc918281036119225750843b1561190c575080546001600160a01b031916821790556040518692917fbc7cd75a20ee27fd9adebab32041f755214dbc6bffa90cc0225b39da2e5c2d3b8480a28151156118ee57506118e19482915190845af4903d156118e5573d6118c5816120bc565b906118d3604051928361209a565b81528581943d92013e6128b4565b5080f35b606092506128b4565b945050505050346118fd575080f35b63b398979f60e01b8152600490fd5b604051634c9c8ce360e01b815260048101849052fd5b60405190632a87526960e21b82526004820152fd5b9091508481813d8311611963575b61194f818361209a565b8101031261195f57519038611815565b8680fd5b503d611945565b9050817f360894a13ba1a3210667c828492db98dca3e2076cc3735a920a3ca505d382bbc54161415386117e8565b8580fd5b50346101d65760203660031901126101d6576119b661203f565b6119be61239f565b6001600160a01b03166119d2811515612152565b6001600160601b0360a01b600354161760035580f35b50346101d657806003193601126101d657602060405166470de4df8200008152f35b50346101d65760203660031901126101d657611a2461203f565b611a2c61239f565b6001600160a01b03168015611a51576001600160601b0360a01b600154161760015580f35b60405162461bcd60e51b815260206004820152602160248201527f496e76616c6964206c6971756964697479206d616e61676572206164647265736044820152607360f81b6064820152608490fd5b50346101d657806003193601126101d6576001546040516001600160a01b039091168152602090f35b50346101d657806003193601126101d6576020604051662386f26fc100008152f35b50346101d65760203660031901126101d657604060809160043581526008602052818120546007602052828220908252602052206002810154600b81109081611b69575b81611b56575b60038354930154906040519384526020840152604083015215156060820152f35b600583015460081c60ff16159150611b35565b600583015460ff16159150611b2f565b50346101d657806003193601126101d6576020600554604051908152f35b50346101d657806003193601126101d6576003546040516001600160a01b039091168152602090f35b50346101d65760203660031901126101d65760026040602092600435815260068452200154604051908152f35b50346101d65760a03660031901126101d657611c0761203f565b611c0f61205a565b6001600160a01b036044358181169390849003611eef5760643593828516809503611998576084359483861680960361195f577ff0c57e16840df040f15088dc2f81fe391c3923bec73e23a9662efc9c229c6a009485549660ff8860401c16159567ffffffffffffffff891698891580611ee8575b6001809b149081611ede575b159081611ed5575b50611ec35767ffffffffffffffff1981168a17895587611ea4575b50808616908115611e5f578316938415611e1a5785611dcd958c93611cfa7fad307780531f6353137c35adc50ad58d71b76e76aa891e729387f2e720f2de20991515612106565b611d05841515612152565b611d10861515612195565b611d18612408565b611d20612408565b611d293361232b565b611d31612408565b611d39612408565b611d41612408565b8c600080516020612938833981519152556001600160601b0360a01b80955416178d55838c5416178b558260025416176002558160035416176003556004541617600455662386f26fc10000600a5566470de4df820000600b55666a94d74f430000600c5560405191829133958390602090939293604083019460018060a01b03809216845216910152565b0390a2611dd8578280f35b805468ff0000000000000000191690556040519081527fc7f505b2f371ae2175ee4913f4499e1f2633a7b5936321eed1cdaeb6115181d290602090a138808280f35b60405162461bcd60e51b815260206004820152601960248201527f496e76616c6964206c6971756964697479206d616e61676572000000000000006044820152606490fd5b60405162461bcd60e51b815260206004820152601960248201527f496e76616c696420726566657272616c20636f6e7472616374000000000000006044820152606490fd5b68ffffffffffffffffff19166801000000000000000117885538611cb3565b60405163f92ee8a960e01b8152600490fd5b90501538611c98565b303b159150611c90565b5087611c84565b8480fd5b50346101d657602080600319360112610c69576001600160a01b03611f1661203f565b168252600981526040822060405192838383549182815201908193835284832090835b818110611f8d5750505084611f4f91038561209a565b60405193838594850191818652518092526040850193925b828110611f7657505050500390f35b835185528695509381019392810192600101611f67565b825484529286019260019283019201611f39565b50346101d65760203660031901126101d657600480358252600660209081526040928390208054600182015460038301549483015460059093015486519283529382015293840192909252606083019190915260ff80821615156080840152600882901c16151560a083015260101c6001600160a01b031660c082015260e090f35b905034610c695781600319360112610c69578061070860209252f35b600435906001600160a01b038216820361205557565b600080fd5b602435906001600160a01b038216820361205557565b67ffffffffffffffff811161208457604052565b634e487b7160e01b600052604160045260246000fd5b90601f8019910116810190811067ffffffffffffffff82111761208457604052565b67ffffffffffffffff811161208457601f01601f191660200190565b80548210156120f05760005260206000200190600090565b634e487b7160e01b600052603260045260246000fd5b1561210d57565b60405162461bcd60e51b815260206004820152601960248201527f496e76616c6964206f7065726174696f6e2061646472657373000000000000006044820152606490fd5b1561215957565b60405162461bcd60e51b8152602060048201526014602482015273496e76616c69642064617070206164647265737360601b6044820152606490fd5b1561219c57565b60405162461bcd60e51b815260206004820152601d60248201527f496e76616c69642067616d65206f70657261746f7220616464726573730000006044820152606490fd5b90816020910312612055575180151581036120555790565b1561220057565b60405162461bcd60e51b815260206004820152600e60248201526d11d85b59481b9bdd08199bdd5b9960921b6044820152606490fd5b1561223d57565b60405162461bcd60e51b815260206004820152601560248201527411d85b5948185b1c9958591e48199a5b9a5cda1959605a1b6044820152606490fd5b1561228157565b60405162461bcd60e51b815260206004820152601560248201527411d85b5948185b1c9958591e481c99599d5b991959605a1b6044820152606490fd5b919082018092116122cb57565b634e487b7160e01b600052601160045260246000fd5b60001981146122cb5760010190565b8054600160401b8110156120845761230d916001820181556120d8565b60018060a09493941b038084549260031b9316831b921b1916179055565b6001600160a01b039081169081156123865760008051602061291883398151915280546001600160a01b031981168417909155167f8be0079c531659141344cd1fd0a4f28419497f9722a3daafe3b4186f6b6457e0600080a3565b604051631e4fbdf760e01b815260006004820152602490fd5b600080516020612918833981519152546001600160a01b031633036123c057565b60405163118cdaa760e01b8152336004820152602490fd5b60008051602061293883398151915260028154146123f65760029055565b604051633ee5aeb560e01b8152600490fd5b60ff7ff0c57e16840df040f15088dc2f81fe391c3923bec73e23a9662efc9c229c6a005460401c161561243757565b604051631afcd79f60e31b8152600490fd5b9081602091031261205557516001600160a01b03811681036120555790565b91929060009160018060a01b0391828454169460409586519485928363167801e160e11b93848252836004971687830152602098899160249788915afa9081156128aa57899161288d575b508281161561287f576001905b601e821115908180612874575b15612864576000548c51631080b48560e21b81528287168a820181905293918716908c818b81855afa908115612859578f8c8f93918d92899460009161283c575b5061258b575b5050505092505050846000541691878d51809481938a83528c8301525afa908115612580579061254d91600091612553575b50916122e1565b906124c0565b61257391508a3d8c11612579575b61256b818361209a565b810190612449565b38612546565b503d612561565b8b513d6000823e3d90fd5b5194859384926375d20f3b60e01b84528301525afa90811561283157600091612804575b508411156125c4575b808b848f8c8c91612514565b60008e6001860361273a5760011b9150508d1560028f83041417156127265760649004905b8c826125f6575b506125b8565b5163a9059cbb60e01b81526001600160a01b03909116818a0190815260208101839052919b918b9082908190604001038160007355d398326f99059ff775485246999027b31979555af190811561271b576000916126fe575b50156126bb57836126618c84936122be565b9b8d519081528d8c8201528d81016011905260608101702ab83634b7329031b7b6b6b4b9b9b4b7b760791b905260807fa806e44d925d7b288bf49aebca26e1dcb893e0955d906c773b6264ec978cbd5d91a338808c6125f0565b508a5162461bcd60e51b81528088018a9052601a818801527f436f6d6d697373696f6e207472616e73666572206661696c65640000000000006044820152606490fd5b61271591508b3d8d116105ed576105df818361209a565b3861264f565b8d513d6000823e3d90fd5b8760118a634e487b7160e01b600052526000fd5b600286036127705791505080046001148d15171561275c5760648d04906125e9565b86601189634e487b7160e01b600052526000fd5b60039283871015806127f9575b156127a057509050818102918183041490151715612726576103e89004906125e9565b9091939250600b86101590816127f1575b506127bd575b506125e9565b9091600d918281029281840414901517156127df57506127109004908d6127b7565b634e487b7160e01b815260118a528890fd5b9050386127b1565b50600a87111561277d565b908c82813d831161282a575b61281a818361209a565b810103126101d6575051386125af565b503d612810565b8e513d6000823e3d90fd5b6128539150863d88116105ed576105df818361209a565b3861250e565b8f513d6000823e3d90fd5b5050505050505050935050905090565b5084811615156124cd565b505050505050935050905090565b6128a49150883d8a116125795761256b818361209a565b386124b3565b8a513d8b823e3d90fd5b906128db57508051156128c957602081519101fd5b60405163d6bda27560e01b8152600490fd5b8151158061290e575b6128ec575090565b604051639996b31560e01b81526001600160a01b039091166004820152602490fd5b50803b156128e456fe9016d09d72d40fdae2fd8ceac6b6234c7706214fd39c1cd1e609a0528c1993009b779b17422d0df92223018b32b4d1fa46e071723d6817e2486d003becc55f00a164736f6c6343000816000a",
  "implementation": "0xd44BA7831b90b4A575089Aec0D849Cc7051c114B"
}