{
  "address": "0x21F4f17C35c4afEd20A7Bc98F6672cdc4b2326Ed",
  "abi": [
    {
      "inputs": [],
      "stateMutability": "nonpayable",
      "type": "constructor"
    },
    {
      "inputs": [
        {
          "internalType": "address",
          "name": "target",
          "type": "address"
        }
      ],
      "name": "AddressEmptyCode",
      "type": "error"
    },
    {
      "inputs": [
        {
          "internalType": "address",
          "name": "implementation",
          "type": "address"
        }
      ],
      "name": "ERC1967InvalidImplementation",
      "type": "error"
    },
    {
      "inputs": [],
      "name": "ERC1967NonPayable",
      "type": "error"
    },
    {
      "inputs": [],
      "name": "FailedCall",
      "type": "error"
    },
    {
      "inputs": [],
      "name": "InvalidInitialization",
      "type": "error"
    },
    {
      "inputs": [],
      "name": "NotInitializing",
      "type": "error"
    },
    {
      "inputs": [
        {
          "internalType": "address",
          "name": "owner",
          "type": "address"
        }
      ],
      "name": "OwnableInvalidOwner",
      "type": "error"
    },
    {
      "inputs": [
        {
          "internalType": "address",
          "name": "account",
          "type": "address"
        }
      ],
      "name": "OwnableUnauthorizedAccount",
      "type": "error"
    },
    {
      "inputs": [],
      "name": "ReentrancyGuardReentrantCall",
      "type": "error"
    },
    {
      "inputs": [],
      "name": "UUPSUnauthorizedCallContext",
      "type": "error"
    },
    {
      "inputs": [
        {
          "internalType": "bytes32",
          "name": "slot",
          "type": "bytes32"
        }
      ],
      "name": "UUPSUnsupportedProxiableUUID",
      "type": "error"
    },
    {
      "anonymous": false,
      "inputs": [
        {
          "indexed": true,
          "internalType": "uint256",
          "name": "gameId",
          "type": "uint256"
        },
        {
          "indexed": false,
          "internalType": "uint256",
          "name": "betAmount",
          "type": "uint256"
        }
      ],
      "name": "GameCreated",
      "type": "event"
    },
    {
      "anonymous": false,
      "inputs": [
        {
          "indexed": true,
          "internalType": "uint256",
          "name": "gameId",
          "type": "uint256"
        },
        {
          "indexed": true,
          "internalType": "address",
          "name": "winner",
          "type": "address"
        }
      ],
      "name": "GameFinished",
      "type": "event"
    },
    {
      "anonymous": false,
      "inputs": [
        {
          "indexed": true,
          "internalType": "uint256",
          "name": "gameId",
          "type": "uint256"
        }
      ],
      "name": "GameRefunded",
      "type": "event"
    },
    {
      "anonymous": false,
      "inputs": [
        {
          "indexed": false,
          "internalType": "uint64",
          "name": "version",
          "type": "uint64"
        }
      ],
      "name": "Initialized",
      "type": "event"
    },
    {
      "anonymous": false,
      "inputs": [
        {
          "indexed": true,
          "internalType": "address",
          "name": "owner",
          "type": "address"
        },
        {
          "indexed": false,
          "internalType": "address",
          "name": "referral",
          "type": "address"
        },
        {
          "indexed": false,
          "internalType": "address",
          "name": "liquidityMgr",
          "type": "address"
        }
      ],
      "name": "Initialized",
      "type": "event"
    },
    {
      "anonymous": false,
      "inputs": [
        {
          "indexed": true,
          "internalType": "address",
          "name": "previousOwner",
          "type": "address"
        },
        {
          "indexed": true,
          "internalType": "address",
          "name": "newOwner",
          "type": "address"
        }
      ],
      "name": "OwnershipTransferred",
      "type": "event"
    },
    {
      "anonymous": false,
      "inputs": [
        {
          "indexed": true,
          "internalType": "uint256",
          "name": "gameId",
          "type": "uint256"
        },
        {
          "indexed": true,
          "internalType": "address",
          "name": "player",
          "type": "address"
        },
        {
          "indexed": false,
          "internalType": "uint256",
          "name": "playerIndex",
          "type": "uint256"
        }
      ],
      "name": "PlayerJoined",
      "type": "event"
    },
    {
      "anonymous": false,
      "inputs": [
        {
          "indexed": true,
          "internalType": "uint256",
          "name": "gameId",
          "type": "uint256"
        },
        {
          "indexed": true,
          "internalType": "address",
          "name": "recipient",
          "type": "address"
        },
        {
          "indexed": false,
          "internalType": "uint256",
          "name": "amount",
          "type": "uint256"
        },
        {
          "indexed": false,
          "internalType": "string",
          "name": "reason",
          "type": "string"
        }
      ],
      "name": "PrizePaid",
      "type": "event"
    },
    {
      "anonymous": false,
      "inputs": [
        {
          "indexed": true,
          "internalType": "address",
          "name": "implementation",
          "type": "address"
        }
      ],
      "name": "Upgraded",
      "type": "event"
    },
    {
      "inputs": [],
      "name": "GAME_TIMEOUT",
      "outputs": [
        {
          "internalType": "uint256",
          "name": "",
          "type": "uint256"
        }
      ],
      "stateMutability": "view",
      "type": "function"
    },
    {
      "inputs": [],
      "name": "GAME_TYPE_100",
      "outputs": [
        {
          "internalType": "uint256",
          "name": "",
          "type": "uint256"
        }
      ],
      "stateMutability": "view",
      "type": "function"
    },
    {
      "inputs": [],
      "name": "GAME_TYPE_200",
      "outputs": [
        {
          "internalType": "uint256",
          "name": "",
          "type": "uint256"
        }
      ],
      "stateMutability": "view",
      "type": "function"
    },
    {
      "inputs": [],
      "name": "GAME_TYPE_300",
      "outputs": [
        {
          "internalType": "uint256",
          "name": "",
          "type": "uint256"
        }
      ],
      "stateMutability": "view",
      "type": "function"
    },
    {
      "inputs": [],
      "name": "PLAYERS_PER_GAME",
      "outputs": [
        {
          "internalType": "uint256",
          "name": "",
          "type": "uint256"
        }
      ],
      "stateMutability": "view",
      "type": "function"
    },
    {
      "inputs": [],
      "name": "UPGRADE_INTERFACE_VERSION",
      "outputs": [
        {
          "internalType": "string",
          "name": "",
          "type": "string"
        }
      ],
      "stateMutability": "view",
      "type": "function"
    },
    {
      "inputs": [],
      "name": "USDT",
      "outputs": [
        {
          "internalType": "address",
          "name": "",
          "type": "address"
        }
      ],
      "stateMutability": "view",
      "type": "function"
    },
    {
      "inputs": [
        {
          "internalType": "uint256",
          "name": "",
          "type": "uint256"
        }
      ],
      "name": "currentGameIndex",
      "outputs": [
        {
          "internalType": "uint256",
          "name": "",
          "type": "uint256"
        }
      ],
      "stateMutability": "view",
      "type": "function"
    },
    {
      "inputs": [],
      "name": "dappAddress",
      "outputs": [
        {
          "internalType": "address",
          "name": "",
          "type": "address"
        }
      ],
      "stateMutability": "view",
      "type": "function"
    },
    {
      "inputs": [
        {
          "internalType": "uint256",
          "name": "gameId",
          "type": "uint256"
        },
        {
          "internalType": "address",
          "name": "winner",
          "type": "address"
        }
      ],
      "name": "declareWinner",
      "outputs": [],
      "stateMutability": "nonpayable",
      "type": "function"
    },
    {
      "inputs": [
        {
          "internalType": "address",
          "name": "token",
          "type": "address"
        },
        {
          "internalType": "uint256",
          "name": "amount",
          "type": "uint256"
        }
      ],
      "name": "emergencyWithdraw",
      "outputs": [],
      "stateMutability": "nonpayable",
      "type": "function"
    },
    {
      "inputs": [],
      "name": "gameIdCounter",
      "outputs": [
        {
          "internalType": "uint256",
          "name": "",
          "type": "uint256"
        }
      ],
      "stateMutability": "view",
      "type": "function"
    },
    {
      "inputs": [],
      "name": "gameOperator",
      "outputs": [
        {
          "internalType": "address",
          "name": "",
          "type": "address"
        }
      ],
      "stateMutability": "view",
      "type": "function"
    },
    {
      "inputs": [
        {
          "internalType": "uint256",
          "name": "",
          "type": "uint256"
        }
      ],
      "name": "gameTypes",
      "outputs": [
        {
          "internalType": "uint256",
          "name": "",
          "type": "uint256"
        }
      ],
      "stateMutability": "view",
      "type": "function"
    },
    {
      "inputs": [
        {
          "internalType": "uint256",
          "name": "",
          "type": "uint256"
        }
      ],
      "name": "games",
      "outputs": [
        {
          "internalType": "uint256",
          "name": "gameId",
          "type": "uint256"
        },
        {
          "internalType": "uint256",
          "name": "betAmount",
          "type": "uint256"
        },
        {
          "internalType": "uint256",
          "name": "startTime",
          "type": "uint256"
        },
        {
          "internalType": "uint256",
          "name": "endTime",
          "type": "uint256"
        },
        {
          "internalType": "bool",
          "name": "finished",
          "type": "bool"
        },
        {
          "internalType": "bool",
          "name": "refunded",
          "type": "bool"
        },
        {
          "internalType": "address",
          "name": "winner",
          "type": "address"
        }
      ],
      "stateMutability": "view",
      "type": "function"
    },
    {
      "inputs": [
        {
          "internalType": "uint256",
          "name": "",
          "type": "uint256"
        },
        {
          "internalType": "uint256",
          "name": "",
          "type": "uint256"
        }
      ],
      "name": "gamesByType",
      "outputs": [
        {
          "internalType": "uint256",
          "name": "gameId",
          "type": "uint256"
        },
        {
          "internalType": "uint256",
          "name": "betAmount",
          "type": "uint256"
        },
        {
          "internalType": "uint256",
          "name": "startTime",
          "type": "uint256"
        },
        {
          "internalType": "uint256",
          "name": "endTime",
          "type": "uint256"
        },
        {
          "internalType": "bool",
          "name": "finished",
          "type": "bool"
        },
        {
          "internalType": "bool",
          "name": "refunded",
          "type": "bool"
        },
        {
          "internalType": "address",
          "name": "winner",
          "type": "address"
        }
      ],
      "stateMutability": "view",
      "type": "function"
    },
    {
      "inputs": [
        {
          "internalType": "uint256",
          "name": "betAmount",
          "type": "uint256"
        }
      ],
      "name": "getCurrentGame",
      "outputs": [
        {
          "internalType": "uint256",
          "name": "gameId",
          "type": "uint256"
        },
        {
          "internalType": "uint256",
          "name": "playerCount",
          "type": "uint256"
        },
        {
          "internalType": "uint256",
          "name": "startTime",
          "type": "uint256"
        },
        {
          "internalType": "bool",
          "name": "canJoin",
          "type": "bool"
        }
      ],
      "stateMutability": "view",
      "type": "function"
    },
    {
      "inputs": [
        {
          "internalType": "uint256",
          "name": "gameId",
          "type": "uint256"
        }
      ],
      "name": "getGame",
      "outputs": [
        {
          "internalType": "uint256",
          "name": "id",
          "type": "uint256"
        },
        {
          "internalType": "uint256",
          "name": "betAmount",
          "type": "uint256"
        },
        {
          "internalType": "address[]",
          "name": "players",
          "type": "address[]"
        },
        {
          "internalType": "uint256",
          "name": "startTime",
          "type": "uint256"
        },
        {
          "internalType": "uint256",
          "name": "endTime",
          "type": "uint256"
        },
        {
          "internalType": "bool",
          "name": "finished",
          "type": "bool"
        },
        {
          "internalType": "bool",
          "name": "refunded",
          "type": "bool"
        },
        {
          "internalType": "address",
          "name": "winner",
          "type": "address"
        }
      ],
      "stateMutability": "view",
      "type": "function"
    },
    {
      "inputs": [
        {
          "internalType": "uint256",
          "name": "gameId",
          "type": "uint256"
        }
      ],
      "name": "getGamePlayers",
      "outputs": [
        {
          "internalType": "uint256",
          "name": "",
          "type": "uint256"
        }
      ],
      "stateMutability": "view",
      "type": "function"
    },
    {
      "inputs": [
        {
          "internalType": "address",
          "name": "user",
          "type": "address"
        }
      ],
      "name": "getUserGames",
      "outputs": [
        {
          "internalType": "uint256[]",
          "name": "",
          "type": "uint256[]"
        }
      ],
      "stateMutability": "view",
      "type": "function"
    },
    {
      "inputs": [
        {
          "internalType": "address",
          "name": "_referralContract",
          "type": "address"
        },
        {
          "internalType": "address",
          "name": "_liquidityManager",
          "type": "address"
        },
        {
          "internalType": "address",
          "name": "_operationAddress",
          "type": "address"
        },
        {
          "internalType": "address",
          "name": "_dappAddress",
          "type": "address"
        },
        {
          "internalType": "address",
          "name": "_gameOperator",
          "type": "address"
        }
      ],
      "name": "initialize",
      "outputs": [],
      "stateMutability": "nonpayable",
      "type": "function"
    },
    {
      "inputs": [
        {
          "internalType": "uint256",
          "name": "betAmount",
          "type": "uint256"
        },
        {
          "internalType": "address",
          "name": "referrer",
          "type": "address"
        }
      ],
      "name": "joinGame",
      "outputs": [],
      "stateMutability": "nonpayable",
      "type": "function"
    },
    {
      "inputs": [],
      "name": "liquidityManager",
      "outputs": [
        {
          "internalType": "contract IPDALiquidityManager",
          "name": "",
          "type": "address"
        }
      ],
      "stateMutability": "view",
      "type": "function"
    },
    {
      "inputs": [],
      "name": "operationAddress",
      "outputs": [
        {
          "internalType": "address",
          "name": "",
          "type": "address"
        }
      ],
      "stateMutability": "view",
      "type": "function"
    },
    {
      "inputs": [],
      "name": "owner",
      "outputs": [
        {
          "internalType": "address",
          "name": "",
          "type": "address"
        }
      ],
      "stateMutability": "view",
      "type": "function"
    },
    {
      "inputs": [],
      "name": "proxiableUUID",
      "outputs": [
        {
          "internalType": "bytes32",
          "name": "",
          "type": "bytes32"
        }
      ],
      "stateMutability": "view",
      "type": "function"
    },
    {
      "inputs": [],
      "name": "referralContract",
      "outputs": [
        {
          "internalType": "contract IPDAReferral",
          "name": "",
          "type": "address"
        }
      ],
      "stateMutability": "view",
      "type": "function"
    },
    {
      "inputs": [
        {
          "internalType": "uint256",
          "name": "gameId",
          "type": "uint256"
        }
      ],
      "name": "refundGame",
      "outputs": [],
      "stateMutability": "nonpayable",
      "type": "function"
    },
    {
      "inputs": [],
      "name": "renounceOwnership",
      "outputs": [],
      "stateMutability": "nonpayable",
      "type": "function"
    },
    {
      "inputs": [
        {
          "internalType": "address",
          "name": "_dappAddress",
          "type": "address"
        }
      ],
      "name": "setDappAddress",
      "outputs": [],
      "stateMutability": "nonpayable",
      "type": "function"
    },
    {
      "inputs": [
        {
          "internalType": "address",
          "name": "_gameOperator",
          "type": "address"
        }
      ],
      "name": "setGameOperator",
      "outputs": [],
      "stateMutability": "nonpayable",
      "type": "function"
    },
    {
      "inputs": [
        {
          "internalType": "address",
          "name": "_operationAddress",
          "type": "address"
        }
      ],
      "name": "setOperationAddress",
      "outputs": [],
      "stateMutability": "nonpayable",
      "type": "function"
    },
    {
      "inputs": [
        {
          "internalType": "address",
          "name": "newOwner",
          "type": "address"
        }
      ],
      "name": "transferOwnership",
      "outputs": [],
      "stateMutability": "nonpayable",
      "type": "function"
    },
    {
      "inputs": [
        {
          "internalType": "address",
          "name": "newImplementation",
          "type": "address"
        },
        {
          "internalType": "bytes",
          "name": "data",
          "type": "bytes"
        }
      ],
      "name": "upgradeToAndCall",
      "outputs": [],
      "stateMutability": "payable",
      "type": "function"
    },
    {
      "inputs": [
        {
          "internalType": "address",
          "name": "",
          "type": "address"
        },
        {
          "internalType": "uint256",
          "name": "",
          "type": "uint256"
        }
      ],
      "name": "userGames",
      "outputs": [
        {
          "internalType": "uint256",
          "name": "",
          "type": "uint256"
        }
      ],
      "stateMutability": "view",
      "type": "function"
    }
  ],
  "transactionHash": "0x188821022914e6fde7898fb154d6f9b63fd7677e4d12ec0f4e4789b260bafde4",
  "numDeployments": 1,
  "bytecode": "0x60a080604052346100cc57306080527ff0c57e16840df040f15088dc2f81fe391c3923bec73e23a9662efc9c229c6a009081549060ff8260401c166100bd57506001600160401b036002600160401b031982821601610078575b6040516128c390816100d282396080518181816116cb01526117b10152f35b6001600160401b031990911681179091556040519081527fc7f505b2f371ae2175ee4913f4499e1f2633a7b5936321eed1cdaeb6115181d290602090a1388080610059565b63f92ee8a960e01b8152600490fd5b600080fdfe608080604052600436101561001357600080fd5b600090813560e01c908163099420b614611f8257508063117a5b9014611f00578063120aace614611e525780631459457a14611b4c57806315a40f4914611b1f5780631a721b7b14611af65780631bb412d614611ad85780631c063c7714611a4a578063288db7c614611a2857806333827438146119ff57806343d28914146119dd57806348aa44dd146119915780634f1ef2861461173557806352d1902d146116b85780636470b3661461168b578063715018a61461162157806373f9c767146116055780637dad19db146115de57806381cba5e21461155257806386910499146115305780638da5cb5b146114fa57806395ccea6714611426578063a2f77bcc1461131f578063a441c302146112f6578063ad3cb1cc14611252578063bc0167cd146111fc578063c2ead6b9146111d3578063c54e44eb146111a4578063d53ce95614611158578063d7260cba14610f10578063da46a73c14610ec4578063e374b0971461072c578063ead00e02146101fb578063f2fde38b146101ce5763f7804590146101a257600080fd5b346101cb5760203660031901126101cb5760406020916004358152600883522054604051908152f35b80fd5b50346101cb5760203660031901126101cb576101f86101eb611f9e565b6101f36122fe565b61228a565b80f35b50346101cb5760403660031901126101cb57600435610218611fb9565b90610221612337565b66038d7ea4c680008114801561071c575b801561070c575b156106d2578254604051630308a59b60e31b81523360048201526024936020939290916001600160a01b03918216919085818881865afa9081156106c75788916106aa575b50156105f4575b5050506040516323b872dd60e01b815233600482015230848201528160448201528281606481887355d398326f99059ff775485246999027b31979555af19081156105e95785916105bc575b50156105825780845260088252604084205492600783526040852084865283526040852090600282015480156000146104b65750610310600554612240565b8060055580928188526006865260058060408a20848155876001820155426003820155019161ffff1992838154169055838155866001820155426003820155019081541690557fa26856d25e558c79e1632806bc6824075cf59885a115825f2aab62385a3f714285604051868152a25b81865260068452610397336002604089200161224f565b828652600784526040862085875284526103b7336002604089200161224f565b3386526009845260408620805490600160401b8210156104a357906103e191600182018155612037565b919080549260031b600019938486831b921b19161790558287526006855260026040882001549182019182116104915750604051908152817f03dfbe1fcb4e2d61f3b4a0c93d8f814c92250618b3387f396cc9fc9fafe2c203853393a384526006825260408420600b60028201541461046b575b8460016000805160206128978339815191525580f35b600442910155835260078152604083209183525242600460408320015538808080610455565b634e487b7160e01b8752601160045286fd5b634e487b7160e01b885260416004528288fd5b90949190600b1161057a57505080845260088252604084206104d88154612240565b9055808452600882526040842054926104f2600554612240565b908160055581808752600685526005604088208281558560018201554260038201550161ffff199081815416905584885260078652604088208789528652600560408920838155866001820155426003820155019081541690557fa26856d25e558c79e1632806bc6824075cf59885a115825f2aab62385a3f714285604051868152a2610380565b549093610380565b5060146064926040519262461bcd60e51b84526004840152820152731554d115081d1c985b9cd9995c8819985a5b195960621b6044820152fd5b6105dc9150833d85116105e2575b6105d48183611ff9565b810190612140565b386102d1565b503d6105ca565b6040513d87823e3d90fd5b82161561066e57908186923b1561066a57604051637e540b2b60e01b81523360048201526001600160a01b0392909216602483015282908290604490829084905af1801561065f57610647575b80610285565b61065090611fcf565b61065b578338610641565b8380fd5b6040513d84823e3d90fd5b8280fd5b60405162461bcd60e51b8152600481018590526015818701527426bab9ba10383937bb34b232903932b332b93932b960591b6044820152606490fd5b6106c19150863d88116105e2576105d48183611ff9565b3861027e565b6040513d8a823e3d90fd5b60405162461bcd60e51b8152602060048201526012602482015271125b9d985b1a590818995d08185b5bdd5b9d60721b6044820152606490fd5b50660aa87bee5380008114610239565b5066071afd498d00008114610232565b50346101cb5760403660031901126101cb57610746611fb9565b9061074f612337565b6004546001600160a01b03163303610e7157600435815260066020526040812061077d600435825414612158565b60058101805461079060ff821615612195565b6107a060ff8260081c16156121d9565b600283018054600b8103610e3c578591865b828110610e00575b50505015610dbb5761ff01600160b01b031916601085901b62010000600160b01b0316176001908117909155426004928301559035825260066020526040822080820154909390929183901b919083156002858504141715610da757610823606484048561221d565b92825b60028701548110156109bc5761083f8160028901612037565b90546001600160a01b0385811660039390931b9190911c1603610865575b600101610826565b6108b06020866108788460028c01612037565b905460405163a9059cbb60e01b815260039290921b1c6001600160a01b03166004820152602481019190915291829081906044820190565b0381887355d398326f99059ff775485246999027b31979555af19081156105e957859161099d575b501561095857806108ee60019260028a01612037565b838060a01b0391549060031b1c1660405187815260406020820152601060408201526f4e6f6e2d77696e6e657220736861726560801b60608201527fa806e44d925d7b288bf49aebca26e1dcb893e0955d906c773b6264ec978cbd5d608060043592a3905061085d565b60405162461bcd60e51b815260206004820152601a60248201527f4e6f6e2d77696e6e6572207472616e73666572206661696c65640000000000006044820152606490fd5b6109b6915060203d6020116105e2576105d48183611ff9565b386108d8565b508290856109cd81856004356123c7565b5060025460405163a9059cbb60e01b8082526001600160a01b0390921660048201526064840460248201527355d398326f99059ff775485246999027b319795593919060208160448189895af1908115610d24578691610d88575b5015610d435760018060a01b036002541660646040519304835260406020840152600960408401526827b832b930ba34b7b760b91b60608401527fa806e44d925d7b288bf49aebca26e1dcb893e0955d906c773b6264ec978cbd5d9283608060043592a3600a8302838104600a1484151715610d2f576003546040519283526001600160a01b0316600483015260649004602482018190529060208160448189895af1908115610d24578691610d05575b5015610cc95760018060a01b0360035416916040519182526040602083015260046040830152630446170760e41b6060830152608060043592a3603c810290808204603c1490151715610cb55760015460405163095ea7b360e01b81526001600160a01b039091166004820152606490910460248201819052916020908290604490829087905af18015610caa578392602092610bb192610c8d575b5060015460405163324741e760e21b81526001600160a01b03888116600483015260248201939093529485939190921691839182906044820190565b03925af1801561065f57610c62575b5080546001600160a01b0316803b15610c5e57604051632d2b3f8760e21b81526001600160a01b03841660048201529082908290602490829084905af1801561065f57610c4f575b50906001600160a01b03166004357fb7f35e624e036288272fbf3342c09219261ff29fdddd826989b289134e9ae5358380a360016000805160206128978339815191525580f35b610c5890611fcf565b82610c08565b5080fd5b602090813d8311610c86575b610c788183611ff9565b810103126101cb5782610bc0565b503d610c6e565b610ca390843d86116105e2576105d48183611ff9565b5086610b75565b6040513d85823e3d90fd5b634e487b7160e01b83526011600452602483fd5b60405162461bcd60e51b815260206004820152601460248201527311185c1c081d1c985b9cd9995c8819985a5b195960621b6044820152606490fd5b610d1e915060203d6020116105e2576105d48183611ff9565b87610ad9565b6040513d88823e3d90fd5b634e487b7160e01b86526011600452602486fd5b60405162461bcd60e51b815260206004820152601960248201527f4f7065726174696f6e207472616e73666572206661696c6564000000000000006044820152606490fd5b610da1915060203d6020116105e2576105d48183611ff9565b87610a28565b634e487b7160e01b82526011600452602482fd5b60405162461bcd60e51b815260206004820152601760248201527f57696e6e6572206d757374206265206120706c617965720000000000000000006044820152606490fd5b610e0a8183612037565b905460039190911b1c6001600160a01b03908116908a1614610e2e576001016107b2565b5050505060013880806107ba565b60405162461bcd60e51b815260206004820152600d60248201526c11d85b59481b9bdd08199d5b1b609a1b6044820152606490fd5b60405162461bcd60e51b815260206004820152602560248201527f4f6e6c792067616d65206f70657261746f722063616e206465636c617265207760448201526434b73732b960d91b6064820152608490fd5b50346101cb5760203660031901126101cb57610ede611f9e565b610ee66122fe565b6001600160a01b0316610efa8115156120f4565b6001600160601b0360a01b600454161760045580f35b50346101cb57602090816003193601126101cb57600435610f2f612337565b808252600683526040822092610f4782855414612158565b6005840190815494610f5c60ff871615612195565b610f6c60ff8760081c16156121d9565b6002810192600b8454101561112457600390600383015461070881018091116111105742106110d2576101006001959861ff001916179055859684859301925b610fec575b86867f3f089de9d7a24f4fa13fc08c92aea5efef51005bfc944583d8062c43f78672b88280a260016000805160206128978339815191525580f35b80548810156110cd5761103a846110038a84612037565b9054865460405163a9059cbb60e01b815292871b9190911c6001600160a01b03166004830152602482015291829081906044820190565b03818b7355d398326f99059ff775485246999027b31979555af19081156106c75788916110b0575b5015611072579684019684610fac565b60405162461bcd60e51b81526004810185905260166024820152751499599d5b99081d1c985b9cd9995c8819985a5b195960521b6044820152606490fd5b6110c79150853d87116105e2576105d48183611ff9565b38611062565b610fb1565b60405162461bcd60e51b815260048101859052601660248201527511d85b59481b9bdd081d1a5b5959081bdd5d081e595d60521b6044820152606490fd5b634e487b7160e01b88526011600452602488fd5b60405162461bcd60e51b815260048101849052600c60248201526b11d85b59481a5cc8199d5b1b60a21b6044820152606490fd5b50346101cb5760203660031901126101cb57611172611f9e565b61117a6122fe565b6001600160a01b031661118e811515612065565b6001600160601b0360a01b600254161760025580f35b50346101cb57806003193601126101cb5760206040517355d398326f99059ff775485246999027b31979558152f35b50346101cb57806003193601126101cb576004546040516001600160a01b039091168152602090f35b50346101cb5760403660031901126101cb57611216611f9e565b6001600160a01b03168152600960205260408120805460243592908310156101cb5760206112448484612037565b90546040519160031b1c8152f35b50346101cb57806003193601126101cb576040516040810181811067ffffffffffffffff8211176112e25760405260058152602091640352e302e360dc1b602083015260405192839160208352835191826020850152815b8381106112cb57505060408094508284010152601f80199101168101030190f35b8086018201518782016040015286945081016112aa565b634e487b7160e01b83526041600452602483fd5b50346101cb57806003193601126101cb576002546040516001600160a01b039091168152602090f35b50346101cb57602090816003193601126101cb5760043581526006825260408120908154926001936001840154936002810193600382015490600560048401549301549360018060a01b039560405180828a54918281520190819a8652838620908d875b8c8382106114125750505050508161139c910382611ff9565b6040519961010090818c01948c52838c015260408b015251809252610120890197925b8281106113fd57505050508596506060860152608085015260ff8116151560a085015260ff8160081c16151560c085015260101c1660e08301520390f35b83518816895297810197928101928a016113bf565b845416855293860193928101928101611383565b50346101cb5760403660031901126101cb57611440611f9e565b6114486122fe565b6000805160206128778339815191525460405163a9059cbb60e01b81526001600160a01b039182166004820152602480359082015291602091839160449183918791165af190811561065f5782916114db575b50156114a45780f35b60405162461bcd60e51b815260206004820152600f60248201526e151c985b9cd9995c8819985a5b1959608a1b6044820152606490fd5b6114f4915060203d6020116105e2576105d48183611ff9565b3861149b565b50346101cb57806003193601126101cb57600080516020612877833981519152546040516001600160a01b039091168152602090f35b50346101cb57806003193601126101cb576020604051660aa87bee5380008152f35b50346101cb5760403660031901126101cb5760048035825260076020908152604080842060243585528252928390208054600182015460038301549483015460059093015486519283529382015293840192909252606083019190915260ff80821615156080840152600882901c16151560a083015260101c6001600160a01b031660c082015260e090f35b50346101cb57806003193601126101cb57546040516001600160a01b039091168152602090f35b50346101cb57806003193601126101cb576020604051600b8152f35b50346101cb57806003193601126101cb5761163a6122fe565b60008051602061287783398151915280546001600160a01b0319811690915581906001600160a01b03167f8be0079c531659141344cd1fd0a4f28419497f9722a3daafe3b4186f6b6457e08280a380f35b50346101cb5760203660031901126101cb576004356003811015610c5e57602090600a0154604051908152f35b50346101cb57806003193601126101cb577f00000000000000000000000000000000000000000000000000000000000000006001600160a01b031630036117235760206040517f360894a13ba1a3210667c828492db98dca3e2076cc3735a920a3ca505d382bbc8152f35b60405163703e46dd60e11b8152600490fd5b5060403660031901126101cb5761174a611f9e565b602491823567ffffffffffffffff8111610c5e5736602382011215610c5e5780600401356117778161201b565b936117856040519586611ff9565b818552602091828601933688838301011161198d57818692898693018737870101526001600160a01b037f0000000000000000000000000000000000000000000000000000000000000000811630811490811561195f575b50611723576117ea6122fe565b8116946040516352d1902d60e01b815283816004818a5afa86918161192c575b5061182757604051634c9c8ce360e01b8152600481018890528890fd5b8690887f360894a13ba1a3210667c828492db98dca3e2076cc3735a920a3ca505d382bbc918281036119175750843b15611901575080546001600160a01b031916821790556040518692917fbc7cd75a20ee27fd9adebab32041f755214dbc6bffa90cc0225b39da2e5c2d3b8480a28151156118e357506118d69482915190845af4903d156118da573d6118ba8161201b565b906118c86040519283611ff9565b81528581943d92013e612813565b5080f35b60609250612813565b945050505050346118f2575080f35b63b398979f60e01b8152600490fd5b604051634c9c8ce360e01b815260048101849052fd5b60405190632a87526960e21b82526004820152fd5b9091508481813d8311611958575b6119448183611ff9565b810103126119545751903861180a565b8680fd5b503d61193a565b9050817f360894a13ba1a3210667c828492db98dca3e2076cc3735a920a3ca505d382bbc54161415386117dd565b8580fd5b50346101cb5760203660031901126101cb576119ab611f9e565b6119b36122fe565b6001600160a01b03166119c78115156120b1565b6001600160601b0360a01b600354161760035580f35b50346101cb57806003193601126101cb57602060405166071afd498d00008152f35b50346101cb57806003193601126101cb576001546040516001600160a01b039091168152602090f35b50346101cb57806003193601126101cb57602060405166038d7ea4c680008152f35b50346101cb5760203660031901126101cb57604060809160043581526008602052818120546007602052828220908252602052206002810154600b81109081611ac8575b81611ab5575b60038354930154906040519384526020840152604083015215156060820152f35b600583015460081c60ff16159150611a94565b600583015460ff16159150611a8e565b50346101cb57806003193601126101cb576020600554604051908152f35b50346101cb57806003193601126101cb576003546040516001600160a01b039091168152602090f35b50346101cb5760203660031901126101cb5760026040602092600435815260068452200154604051908152f35b50346101cb5760a03660031901126101cb57611b66611f9e565b611b6e611fb9565b6001600160a01b036044358181169390849003611e4e576064359382851680950361198d5760843594838616809603611954577ff0c57e16840df040f15088dc2f81fe391c3923bec73e23a9662efc9c229c6a009485549660ff8860401c16159567ffffffffffffffff891698891580611e47575b6001809b149081611e3d575b159081611e34575b50611e225767ffffffffffffffff1981168a17895587611e03575b50808616908115611dbe578316938415611d795785611d2c958c93611c597fad307780531f6353137c35adc50ad58d71b76e76aa891e729387f2e720f2de20991515612065565b611c648415156120b1565b611c6f8615156120f4565b611c77612367565b611c7f612367565b611c883361228a565b611c90612367565b611c98612367565b611ca0612367565b8c600080516020612897833981519152556001600160601b0360a01b80955416178d55838c5416178b55826002541617600255816003541617600355600454161760045566038d7ea4c68000600a5566071afd498d0000600b55660aa87bee538000600c5560405191829133958390602090939293604083019460018060a01b03809216845216910152565b0390a2611d37578280f35b805468ff0000000000000000191690556040519081527fc7f505b2f371ae2175ee4913f4499e1f2633a7b5936321eed1cdaeb6115181d290602090a138808280f35b60405162461bcd60e51b815260206004820152601960248201527f496e76616c6964206c6971756964697479206d616e61676572000000000000006044820152606490fd5b60405162461bcd60e51b815260206004820152601960248201527f496e76616c696420726566657272616c20636f6e7472616374000000000000006044820152606490fd5b68ffffffffffffffffff19166801000000000000000117885538611c12565b60405163f92ee8a960e01b8152600490fd5b90501538611bf7565b303b159150611bef565b5087611be3565b8480fd5b50346101cb57602080600319360112610c5e576001600160a01b03611e75611f9e565b168252600981526040822060405192838383549182815201908193835284832090835b818110611eec5750505084611eae910385611ff9565b60405193838594850191818652518092526040850193925b828110611ed557505050500390f35b835185528695509381019392810192600101611ec6565b825484529286019260019283019201611e98565b50346101cb5760203660031901126101cb57600480358252600660209081526040928390208054600182015460038301549483015460059093015486519283529382015293840192909252606083019190915260ff80821615156080840152600882901c16151560a083015260101c6001600160a01b031660c082015260e090f35b905034610c5e5781600319360112610c5e578061070860209252f35b600435906001600160a01b0382168203611fb457565b600080fd5b602435906001600160a01b0382168203611fb457565b67ffffffffffffffff8111611fe357604052565b634e487b7160e01b600052604160045260246000fd5b90601f8019910116810190811067ffffffffffffffff821117611fe357604052565b67ffffffffffffffff8111611fe357601f01601f191660200190565b805482101561204f5760005260206000200190600090565b634e487b7160e01b600052603260045260246000fd5b1561206c57565b60405162461bcd60e51b815260206004820152601960248201527f496e76616c6964206f7065726174696f6e2061646472657373000000000000006044820152606490fd5b156120b857565b60405162461bcd60e51b8152602060048201526014602482015273496e76616c69642064617070206164647265737360601b6044820152606490fd5b156120fb57565b60405162461bcd60e51b815260206004820152601d60248201527f496e76616c69642067616d65206f70657261746f7220616464726573730000006044820152606490fd5b90816020910312611fb457518015158103611fb45790565b1561215f57565b60405162461bcd60e51b815260206004820152600e60248201526d11d85b59481b9bdd08199bdd5b9960921b6044820152606490fd5b1561219c57565b60405162461bcd60e51b815260206004820152601560248201527411d85b5948185b1c9958591e48199a5b9a5cda1959605a1b6044820152606490fd5b156121e057565b60405162461bcd60e51b815260206004820152601560248201527411d85b5948185b1c9958591e481c99599d5b991959605a1b6044820152606490fd5b9190820180921161222a57565b634e487b7160e01b600052601160045260246000fd5b600019811461222a5760010190565b8054600160401b811015611fe35761226c91600182018155612037565b60018060a09493941b038084549260031b9316831b921b1916179055565b6001600160a01b039081169081156122e55760008051602061287783398151915280546001600160a01b031981168417909155167f8be0079c531659141344cd1fd0a4f28419497f9722a3daafe3b4186f6b6457e0600080a3565b604051631e4fbdf760e01b815260006004820152602490fd5b600080516020612877833981519152546001600160a01b0316330361231f57565b60405163118cdaa760e01b8152336004820152602490fd5b60008051602061289783398151915260028154146123555760029055565b604051633ee5aeb560e01b8152600490fd5b60ff7ff0c57e16840df040f15088dc2f81fe391c3923bec73e23a9662efc9c229c6a005460401c161561239657565b604051631afcd79f60e31b8152600490fd5b90816020910312611fb457516001600160a01b0381168103611fb45790565b91929060009160018060a01b0391828454169460409586519485928363167801e160e11b93848252836004971687830152602098899160249788915afa9081156128095789916127ec575b50828116156127de576001905b601e8211159081806127d3575b156127c3576000548c51631080b48560e21b81528287168a820181905293918716908c818b81855afa9081156127b8578f8c8f93918d92899460009161279b575b506124ea575b5050505092505050846000541691878d51809481938a83528c8301525afa9081156124df57906124ac916000916124b2575b5091612240565b9061241f565b6124d291508a3d8c116124d8575b6124ca8183611ff9565b8101906123a8565b386124a5565b503d6124c0565b8b513d6000823e3d90fd5b5194859384926375d20f3b60e01b84528301525afa90811561279057600091612763575b50841115612523575b808b848f8c8c91612473565b60008e600186036126995760011b9150508d1560028f83041417156126855760649004905b8c82612555575b50612517565b5163a9059cbb60e01b81526001600160a01b03909116818a0190815260208101839052919b918b9082908190604001038160007355d398326f99059ff775485246999027b31979555af190811561267a5760009161265d575b501561261a57836125c08c849361221d565b9b8d519081528d8c8201528d81016011905260608101702ab83634b7329031b7b6b6b4b9b9b4b7b760791b905260807fa806e44d925d7b288bf49aebca26e1dcb893e0955d906c773b6264ec978cbd5d91a338808c61254f565b508a5162461bcd60e51b81528088018a9052601a818801527f436f6d6d697373696f6e207472616e73666572206661696c65640000000000006044820152606490fd5b61267491508b3d8d116105e2576105d48183611ff9565b386125ae565b8d513d6000823e3d90fd5b8760118a634e487b7160e01b600052526000fd5b600286036126cf5791505080046001148d1517156126bb5760648d0490612548565b86601189634e487b7160e01b600052526000fd5b6003928387101580612758575b156126ff57509050818102918183041490151715612685576103e8900490612548565b9091939250600b8610159081612750575b5061271c575b50612548565b9091600d9182810292818404149015171561273e57506127109004908d612716565b634e487b7160e01b815260118a528890fd5b905038612710565b50600a8711156126dc565b908c82813d8311612789575b6127798183611ff9565b810103126101cb5750513861250e565b503d61276f565b8e513d6000823e3d90fd5b6127b29150863d88116105e2576105d48183611ff9565b3861246d565b8f513d6000823e3d90fd5b5050505050505050935050905090565b50848116151561242c565b505050505050935050905090565b6128039150883d8a116124d8576124ca8183611ff9565b38612412565b8a513d8b823e3d90fd5b9061283a575080511561282857602081519101fd5b60405163d6bda27560e01b8152600490fd5b8151158061286d575b61284b575090565b604051639996b31560e01b81526001600160a01b039091166004820152602490fd5b50803b1561284356fe9016d09d72d40fdae2fd8ceac6b6234c7706214fd39c1cd1e609a0528c1993009b779b17422d0df92223018b32b4d1fa46e071723d6817e2486d003becc55f00a164736f6c6343000816000a",
  "implementation": "0x95278d45828e87605E83EB8281fC55106F2412c3"
}