{
  "address": "0x63ffE056943EC4e67dF37504E10d2dD816D8dcaE",
  "abi": [
    {
      "inputs": [],
      "stateMutability": "nonpayable",
      "type": "constructor"
    },
    {
      "inputs": [
        {
          "internalType": "address",
          "name": "target",
          "type": "address"
        }
      ],
      "name": "AddressEmptyCode",
      "type": "error"
    },
    {
      "inputs": [
        {
          "internalType": "address",
          "name": "implementation",
          "type": "address"
        }
      ],
      "name": "ERC1967InvalidImplementation",
      "type": "error"
    },
    {
      "inputs": [],
      "name": "ERC1967NonPayable",
      "type": "error"
    },
    {
      "inputs": [],
      "name": "FailedCall",
      "type": "error"
    },
    {
      "inputs": [],
      "name": "InvalidInitialization",
      "type": "error"
    },
    {
      "inputs": [],
      "name": "NotInitializing",
      "type": "error"
    },
    {
      "inputs": [
        {
          "internalType": "address",
          "name": "owner",
          "type": "address"
        }
      ],
      "name": "OwnableInvalidOwner",
      "type": "error"
    },
    {
      "inputs": [
        {
          "internalType": "address",
          "name": "account",
          "type": "address"
        }
      ],
      "name": "OwnableUnauthorizedAccount",
      "type": "error"
    },
    {
      "inputs": [],
      "name": "ReentrancyGuardReentrantCall",
      "type": "error"
    },
    {
      "inputs": [],
      "name": "UUPSUnauthorizedCallContext",
      "type": "error"
    },
    {
      "inputs": [
        {
          "internalType": "bytes32",
          "name": "slot",
          "type": "bytes32"
        }
      ],
      "name": "UUPSUnsupportedProxiableUUID",
      "type": "error"
    },
    {
      "anonymous": false,
      "inputs": [
        {
          "indexed": true,
          "internalType": "address",
          "name": "contractAddress",
          "type": "address"
        },
        {
          "indexed": false,
          "internalType": "uint256",
          "name": "source",
          "type": "uint256"
        }
      ],
      "name": "AuthorizedContractAdded",
      "type": "event"
    },
    {
      "anonymous": false,
      "inputs": [
        {
          "indexed": true,
          "internalType": "address",
          "name": "contractAddress",
          "type": "address"
        }
      ],
      "name": "AuthorizedContractRemoved",
      "type": "event"
    },
    {
      "anonymous": false,
      "inputs": [
        {
          "indexed": true,
          "internalType": "address",
          "name": "oldReceiver",
          "type": "address"
        },
        {
          "indexed": true,
          "internalType": "address",
          "name": "newReceiver",
          "type": "address"
        }
      ],
      "name": "BurnReceiverUpdated",
      "type": "event"
    },
    {
      "anonymous": false,
      "inputs": [
        {
          "indexed": false,
          "internalType": "uint64",
          "name": "version",
          "type": "uint64"
        }
      ],
      "name": "Initialized",
      "type": "event"
    },
    {
      "anonymous": false,
      "inputs": [
        {
          "indexed": true,
          "internalType": "address",
          "name": "user",
          "type": "address"
        },
        {
          "indexed": false,
          "internalType": "uint256",
          "name": "source",
          "type": "uint256"
        },
        {
          "indexed": false,
          "internalType": "uint256",
          "name": "lpAmount",
          "type": "uint256"
        },
        {
          "indexed": false,
          "internalType": "uint256",
          "name": "depositDay",
          "type": "uint256"
        }
      ],
      "name": "LiquidityAdded",
      "type": "event"
    },
    {
      "anonymous": false,
      "inputs": [
        {
          "indexed": true,
          "internalType": "address",
          "name": "user",
          "type": "address"
        },
        {
          "indexed": false,
          "internalType": "uint256",
          "name": "source",
          "type": "uint256"
        },
        {
          "indexed": false,
          "internalType": "uint256",
          "name": "lpAmount",
          "type": "uint256"
        },
        {
          "indexed": false,
          "internalType": "uint256",
          "name": "pdaReturned",
          "type": "uint256"
        },
        {
          "indexed": false,
          "internalType": "uint256",
          "name": "pdaBurned",
          "type": "uint256"
        },
        {
          "indexed": false,
          "internalType": "uint256",
          "name": "usdtReturned",
          "type": "uint256"
        }
      ],
      "name": "LiquidityRemoved",
      "type": "event"
    },
    {
      "anonymous": false,
      "inputs": [
        {
          "indexed": true,
          "internalType": "address",
          "name": "previousOwner",
          "type": "address"
        },
        {
          "indexed": true,
          "internalType": "address",
          "name": "newOwner",
          "type": "address"
        }
      ],
      "name": "OwnershipTransferred",
      "type": "event"
    },
    {
      "anonymous": false,
      "inputs": [
        {
          "indexed": true,
          "internalType": "address",
          "name": "implementation",
          "type": "address"
        }
      ],
      "name": "Upgraded",
      "type": "event"
    },
    {
      "inputs": [],
      "name": "DEAD_ADDRESS",
      "outputs": [
        {
          "internalType": "address",
          "name": "",
          "type": "address"
        }
      ],
      "stateMutability": "view",
      "type": "function"
    },
    {
      "inputs": [],
      "name": "LP_TOKEN",
      "outputs": [
        {
          "internalType": "address",
          "name": "",
          "type": "address"
        }
      ],
      "stateMutability": "view",
      "type": "function"
    },
    {
      "inputs": [],
      "name": "MIN_CIRCULATING_SUPPLY",
      "outputs": [
        {
          "internalType": "uint256",
          "name": "",
          "type": "uint256"
        }
      ],
      "stateMutability": "view",
      "type": "function"
    },
    {
      "inputs": [],
      "name": "NFTLPSetter",
      "outputs": [
        {
          "internalType": "address",
          "name": "",
          "type": "address"
        }
      ],
      "stateMutability": "view",
      "type": "function"
    },
    {
      "inputs": [],
      "name": "PDA",
      "outputs": [
        {
          "internalType": "address",
          "name": "",
          "type": "address"
        }
      ],
      "stateMutability": "view",
      "type": "function"
    },
    {
      "inputs": [],
      "name": "ROUTER",
      "outputs": [
        {
          "internalType": "address",
          "name": "",
          "type": "address"
        }
      ],
      "stateMutability": "view",
      "type": "function"
    },
    {
      "inputs": [],
      "name": "UPGRADE_INTERFACE_VERSION",
      "outputs": [
        {
          "internalType": "string",
          "name": "",
          "type": "string"
        }
      ],
      "stateMutability": "view",
      "type": "function"
    },
    {
      "inputs": [],
      "name": "USDT",
      "outputs": [
        {
          "internalType": "address",
          "name": "",
          "type": "address"
        }
      ],
      "stateMutability": "view",
      "type": "function"
    },
    {
      "inputs": [
        {
          "internalType": "address",
          "name": "contractAddress",
          "type": "address"
        },
        {
          "internalType": "uint256",
          "name": "source",
          "type": "uint256"
        }
      ],
      "name": "addAuthorizedContract",
      "outputs": [],
      "stateMutability": "nonpayable",
      "type": "function"
    },
    {
      "inputs": [
        {
          "internalType": "address",
          "name": "user",
          "type": "address"
        },
        {
          "internalType": "uint256",
          "name": "usdtAmount",
          "type": "uint256"
        }
      ],
      "name": "addLiquidityForUser",
      "outputs": [
        {
          "internalType": "uint256",
          "name": "",
          "type": "uint256"
        }
      ],
      "stateMutability": "nonpayable",
      "type": "function"
    },
    {
      "inputs": [
        {
          "internalType": "address",
          "name": "",
          "type": "address"
        }
      ],
      "name": "authorizedContracts",
      "outputs": [
        {
          "internalType": "bool",
          "name": "",
          "type": "bool"
        }
      ],
      "stateMutability": "view",
      "type": "function"
    },
    {
      "inputs": [],
      "name": "burnReceiver",
      "outputs": [
        {
          "internalType": "address",
          "name": "",
          "type": "address"
        }
      ],
      "stateMutability": "view",
      "type": "function"
    },
    {
      "inputs": [
        {
          "internalType": "uint256",
          "name": "depositDay",
          "type": "uint256"
        }
      ],
      "name": "calculateReturnRate",
      "outputs": [
        {
          "internalType": "uint256",
          "name": "",
          "type": "uint256"
        }
      ],
      "stateMutability": "pure",
      "type": "function"
    },
    {
      "inputs": [
        {
          "internalType": "address",
          "name": "",
          "type": "address"
        }
      ],
      "name": "contractSource",
      "outputs": [
        {
          "internalType": "uint256",
          "name": "",
          "type": "uint256"
        }
      ],
      "stateMutability": "view",
      "type": "function"
    },
    {
      "inputs": [
        {
          "internalType": "address",
          "name": "token",
          "type": "address"
        },
        {
          "internalType": "address",
          "name": "to",
          "type": "address"
        },
        {
          "internalType": "uint256",
          "name": "amount",
          "type": "uint256"
        }
      ],
      "name": "emergencyWithdraw",
      "outputs": [],
      "stateMutability": "nonpayable",
      "type": "function"
    },
    {
      "inputs": [
        {
          "internalType": "uint256",
          "name": "source",
          "type": "uint256"
        }
      ],
      "name": "getContractStats",
      "outputs": [
        {
          "internalType": "uint256",
          "name": "_totalLPLocked",
          "type": "uint256"
        },
        {
          "internalType": "uint256",
          "name": "_totalPDABurned",
          "type": "uint256"
        },
        {
          "internalType": "uint256",
          "name": "_currentDay",
          "type": "uint256"
        },
        {
          "internalType": "uint256",
          "name": "_currentReturnRate",
          "type": "uint256"
        }
      ],
      "stateMutability": "view",
      "type": "function"
    },
    {
      "inputs": [
        {
          "internalType": "uint256",
          "name": "source",
          "type": "uint256"
        }
      ],
      "name": "getCurrentDay",
      "outputs": [
        {
          "internalType": "uint256",
          "name": "",
          "type": "uint256"
        }
      ],
      "stateMutability": "view",
      "type": "function"
    },
    {
      "inputs": [
        {
          "internalType": "address",
          "name": "user",
          "type": "address"
        }
      ],
      "name": "getUserAllLPInfo",
      "outputs": [
        {
          "internalType": "uint256",
          "name": "depositAmount",
          "type": "uint256"
        },
        {
          "internalType": "uint256",
          "name": "depositReturnRate",
          "type": "uint256"
        },
        {
          "internalType": "uint256",
          "name": "gameAmount",
          "type": "uint256"
        },
        {
          "internalType": "uint256",
          "name": "gameReturnRate",
          "type": "uint256"
        },
        {
          "internalType": "uint256",
          "name": "nftAmount",
          "type": "uint256"
        },
        {
          "internalType": "uint256",
          "name": "nftReturnRate",
          "type": "uint256"
        }
      ],
      "stateMutability": "view",
      "type": "function"
    },
    {
      "inputs": [
        {
          "internalType": "address",
          "name": "user",
          "type": "address"
        },
        {
          "internalType": "uint256",
          "name": "source",
          "type": "uint256"
        }
      ],
      "name": "getUserLPInfo",
      "outputs": [
        {
          "internalType": "uint256",
          "name": "amount",
          "type": "uint256"
        },
        {
          "internalType": "uint256",
          "name": "depositTime",
          "type": "uint256"
        },
        {
          "internalType": "uint256",
          "name": "depositDay",
          "type": "uint256"
        },
        {
          "internalType": "uint256",
          "name": "currentReturnRate",
          "type": "uint256"
        },
        {
          "internalType": "uint256",
          "name": "daysHeld",
          "type": "uint256"
        }
      ],
      "stateMutability": "view",
      "type": "function"
    },
    {
      "inputs": [
        {
          "internalType": "address",
          "name": "_pda",
          "type": "address"
        },
        {
          "internalType": "address",
          "name": "_NFTLPSetter",
          "type": "address"
        },
        {
          "internalType": "address",
          "name": "_burnReceiver",
          "type": "address"
        }
      ],
      "name": "initialize",
      "outputs": [],
      "stateMutability": "nonpayable",
      "type": "function"
    },
    {
      "inputs": [],
      "name": "owner",
      "outputs": [
        {
          "internalType": "address",
          "name": "",
          "type": "address"
        }
      ],
      "stateMutability": "view",
      "type": "function"
    },
    {
      "inputs": [],
      "name": "proxiableUUID",
      "outputs": [
        {
          "internalType": "bytes32",
          "name": "",
          "type": "bytes32"
        }
      ],
      "stateMutability": "view",
      "type": "function"
    },
    {
      "inputs": [
        {
          "internalType": "address",
          "name": "contractAddress",
          "type": "address"
        }
      ],
      "name": "removeAuthorizedContract",
      "outputs": [],
      "stateMutability": "nonpayable",
      "type": "function"
    },
    {
      "inputs": [
        {
          "internalType": "uint256",
          "name": "source",
          "type": "uint256"
        }
      ],
      "name": "removeLiquidity",
      "outputs": [],
      "stateMutability": "nonpayable",
      "type": "function"
    },
    {
      "inputs": [],
      "name": "renounceOwnership",
      "outputs": [],
      "stateMutability": "nonpayable",
      "type": "function"
    },
    {
      "inputs": [
        {
          "internalType": "address",
          "name": "_burnReceiver",
          "type": "address"
        }
      ],
      "name": "setBurnReceiver",
      "outputs": [],
      "stateMutability": "nonpayable",
      "type": "function"
    },
    {
      "inputs": [
        {
          "internalType": "address",
          "name": "_NFTLPSetter",
          "type": "address"
        }
      ],
      "name": "setNFTLPSetter",
      "outputs": [],
      "stateMutability": "nonpayable",
      "type": "function"
    },
    {
      "inputs": [
        {
          "internalType": "address",
          "name": "user",
          "type": "address"
        },
        {
          "internalType": "uint256",
          "name": "amount",
          "type": "uint256"
        },
        {
          "internalType": "uint256",
          "name": "depositTime",
          "type": "uint256"
        },
        {
          "internalType": "uint256",
          "name": "source",
          "type": "uint256"
        }
      ],
      "name": "setUserLPInfo",
      "outputs": [],
      "stateMutability": "nonpayable",
      "type": "function"
    },
    {
      "inputs": [
        {
          "internalType": "uint256",
          "name": "",
          "type": "uint256"
        }
      ],
      "name": "sourceStartTime",
      "outputs": [
        {
          "internalType": "uint256",
          "name": "",
          "type": "uint256"
        }
      ],
      "stateMutability": "view",
      "type": "function"
    },
    {
      "inputs": [],
      "name": "totalLPLocked",
      "outputs": [
        {
          "internalType": "uint256",
          "name": "",
          "type": "uint256"
        }
      ],
      "stateMutability": "view",
      "type": "function"
    },
    {
      "inputs": [],
      "name": "totalPDABurned",
      "outputs": [
        {
          "internalType": "uint256",
          "name": "",
          "type": "uint256"
        }
      ],
      "stateMutability": "view",
      "type": "function"
    },
    {
      "inputs": [
        {
          "internalType": "address",
          "name": "newOwner",
          "type": "address"
        }
      ],
      "name": "transferOwnership",
      "outputs": [],
      "stateMutability": "nonpayable",
      "type": "function"
    },
    {
      "inputs": [
        {
          "internalType": "address",
          "name": "newImplementation",
          "type": "address"
        },
        {
          "internalType": "bytes",
          "name": "data",
          "type": "bytes"
        }
      ],
      "name": "upgradeToAndCall",
      "outputs": [],
      "stateMutability": "payable",
      "type": "function"
    },
    {
      "inputs": [
        {
          "internalType": "address",
          "name": "",
          "type": "address"
        },
        {
          "internalType": "uint256",
          "name": "",
          "type": "uint256"
        }
      ],
      "name": "userLPInfo",
      "outputs": [
        {
          "internalType": "uint256",
          "name": "amount",
          "type": "uint256"
        },
        {
          "internalType": "uint256",
          "name": "depositTime",
          "type": "uint256"
        },
        {
          "internalType": "uint256",
          "name": "depositDay",
          "type": "uint256"
        }
      ],
      "stateMutability": "view",
      "type": "function"
    }
  ],
  "transactionHash": "0x550edc5a61fb264420da65feb81cf093996cfcfebc18b9970ecebd8ef90ba65c",
  "numDeployments": 1,
  "bytecode": "0x60a080604052346100cc57306080527ff0c57e16840df040f15088dc2f81fe391c3923bec73e23a9662efc9c229c6a009081549060ff8260401c166100bd57506001600160401b036002600160401b031982821601610078575b6040516122ad90816100d282396080518181816117aa015261188a0152f35b6001600160401b031990911681179091556040519081527fc7f505b2f371ae2175ee4913f4499e1f2633a7b5936321eed1cdaeb6115181d290602090a1388080610059565b63f92ee8a960e01b8152600490fd5b600080fdfe608060408181526004918236101561001657600080fd5b600092833560e01c91826302972eaa14611ccb5750816313219c9914611c7f5781631d48da0c14611c58578163262f201614611bb057816329c08b2c14611add57816332fe7b2614611aae578163384316e814611a8e5781634e6fd6c414611a715781634f1ef2861461180e57816352d1902d14611795578163551a7ebb1461177657816358ca140e1461169a5781636194c8b01461167557816366270efd146115ff578163715018a614611595578163718190db1461156e5781637560ea79146115045781638da5cb5b146114ce5781639c8f9f2314610e365781639e1fc81614610dfe578163ad3cb1cc14610d5f578163bfd9041b14610d36578163c0c53b8b146109ae578163c54e44eb1461097f578163c91d079c1461045b578163ccef4efc14610407578163d2ae914b146103de578163d5b9221b146103a0578163da1a7be914610377578163e302d85f1461034f578163e63ea4081461025157508063e6b165ed146101ec578063f2fde38b146101bc5763f7e4cd0d1461019b57600080fd5b346101b857816003193601126101b8576020906006549051908152f35b5080fd5b82346101e95760203660031901126101e9576101e66101d9611d92565b6101e1612153565b6120df565b80f35b80fd5b50346101b85760203660031901126101b857610206611d92565b61020e612153565b6001600160a01b03168083526008602052908220805460ff191690557f98a35376356c1565159c1b44676fcfa951a2287e2a816e208cf92e7aeb585a4f8280a280f35b9190503461034b57606036600319011261034b578260206102b8610273611d92565b61027b611dad565b610283612153565b855163a9059cbb60e01b81526001600160a01b0390911687820190815260443560208201529094859384928391604090910190565b03926001600160a01b03165af1908115610341578491610312575b50156102dd578280f35b906020606492519162461bcd60e51b8352820152600f60248201526e151c985b9cd9995c8819985a5b1959608a1b6044820152fd5b610334915060203d60201161033a575b61032c8183611dc3565b810190611f86565b386102d3565b503d610322565b82513d86823e3d90fd5b8280fd5b5050346101b857816003193601126101b857905490516001600160a01b039091168152602090f35b5050346101b857816003193601126101b85760035490516001600160a01b039091168152602090f35b5050346101b85760203660031901126101b85760209160ff9082906001600160a01b036103cb611d92565b1681526008855220541690519015158152f35b5050346101b857816003193601126101b85760015490516001600160a01b039091168152602090f35b90503461034b57602036600319011261034b57608092503561042c6002821115611e86565b6006549161043c60075492611ec3565b9061044682611f55565b92815194855260208501528301526060820152f35b9190503461034b578060031936011261034b57610476611d92565b9260249283359461048561218c565b3383526020956008875260ff85852054161561093d57801561090a5733845260098752848420549285516323b872dd60e01b81523382820152308882015260449083828201527355d398326f99059ff775485246999027b3197955908a816064818b865af190811561090057928a9261050a8b9387968f8d926108e3575b5050611f9e565b898d8860011c988461051c8b83611e17565b96518094819363095ea7b360e01b9a8b84527310ed43c718714eb63d5aa57b78b54704e256024e809d850152830152865af180156108d957908e916108bb575b50508a51936060850185811067ffffffffffffffff8211176108a9578c52600285528d85018c368237855115610897578290528a546001600160a01b03989089166105a687612000565b528c5163d06ca61f60e01b8152888101829052808f018e90528c81806105ce8882018b6120a2565b03818b5afa90811561088d57906105ee918e8092610872575b5050612000565b519061251c918281029281840414901517156108605761012c42019687421161084e57908f8f8f938c92612710610647935197889687966338ed173960e01b8852870152049084015260a08984015260a48301906120a2565b3060648301528960848301520381838b5af1908115610822578f908f958f948f8297968e6106808f96988f99859161082c575b50612000565b519a8b918454169251988997889687528601528401525af18015610822578f90918d9998979695949392610804575b5050888854169d8d519e8f9862e8e33760e81b8a5289015287015285015260648401528360848401528360a48401523060c484015260e4830152815a9361010492606095f19586156107fa5784966107ba575b509161078b8692867f64b83944e79c3ce8d4c297411de637c3e102d064677aac0c163976ebdcd6f50e9561073585611ec3565b921680885260058b528188208589528b52962080548290156107a6575061075d858254611f48565b90555b61076c84600654611f48565b6006558651938493846040919493926060820195825260208201520152565b0390a260016000805160206122818339815191525551908152f35b908086600292554260018201550155610760565b90939495506060813d6060116107f2575b816107d860609383611dc3565b810103126107ee5785015194939261078b610702565b8480fd5b3d91506107cb565b85513d86823e3d90fd5b8161081a92903d1061033a5761032c8183611dc3565b508e386106af565b8d513d8e823e3d90fd5b61084891503d8087833e6108408183611dc3565b810190612026565b3861067a565b634e487b7160e01b8e5260118a528f8efd5b634e487b7160e01b8d52601189528e8dfd5b61088692503d8091833e6108408183611dc3565b388e6105e7565b8e513d8f823e3d90fd5b634e487b7160e01b8c52603288528d8cfd5b634e487b7160e01b8c52604188528d8cfd5b816108d192903d1061033a5761032c8183611dc3565b508c3861055c565b8c513d8d823e3d90fd5b6108f99250803d1061033a5761032c8183611dc3565b388f610503565b89513d8a823e3d90fd5b845162461bcd60e51b8152808401889052600e818801526d125b9d985b1a5908185b5bdd5b9d60921b6044820152606490fd5b845162461bcd60e51b81528084018890526017818801527f4e6f7420617574686f72697a656420636f6e74726163740000000000000000006044820152606490fd5b5050346101b857816003193601126101b857602090517355d398326f99059ff775485246999027b31979558152f35b9190503461034b57606036600319011261034b576109ca611d92565b916109d3611dad565b916044359360018060a01b0392838616809603610d32577ff0c57e16840df040f15088dc2f81fe391c3923bec73e23a9662efc9c229c6a009586549460ff86861c16159367ffffffffffffffff871696871580610d2b575b60018099149081610d21575b159081610d18575b50610d085767ffffffffffffffff19811688178a5582919086610ce9575b5016968715610cb057811691610a74831515611e3a565b610a7f811515611efc565b6001600160601b0360a01b9288848c5416178b558388541617875582600354161760035584519663c45a015560e01b8852602097888186817310ed43c718714eb63d5aa57b78b54704e256024e5afa908115610ca6579083918c91610c89575b50169086519063e6a4390560e01b825280868301527355d398326f99059ff775485246999027b3197955918260248201528a81604481875afa908d8215610c7e578c949392879290610c61575b501680610c4d57506044908d8a5195869485936364e329cb60e11b85528b85015260248401525af1908115610c43578a91610c16575b50169060025416176002555b86805284526369bd36c0808388205583875280838820556002875282872055610b956121bc565b610b9d6121bc565b610ba6336120df565b610bae6121bc565b610bb66121bc565b610bbe6121bc565b8260008051602061228183398151915255610bd7578480f35b7fc7f505b2f371ae2175ee4913f4499e1f2633a7b5936321eed1cdaeb6115181d29368ff000000000000000019815416905551908152a1388080808480f35b610c369150883d8a11610c3c575b610c2e8183611dc3565b810190611fe1565b38610b62565b503d610c24565b86513d8c823e3d90fd5b959450505050506002541617600255610b6e565b610c789150853d8711610c3c57610c2e8183611dc3565b38610b2c565b8a51903d90823e3d90fd5b610ca091508a3d8c11610c3c57610c2e8183611dc3565b38610adf565b87513d8d823e3d90fd5b855162461bcd60e51b81526020818601526013602482015272496e76616c696420504441206164647265737360681b6044820152606490fd5b68ffffffffffffffffff191668010000000000000001178a5538610a5d565b865163f92ee8a960e01b81528590fd5b90501538610a3f565b303b159150610a37565b5085610a2b565b8680fd5b5050346101b857816003193601126101b85760025490516001600160a01b039091168152602090f35b90503461034b578260031936011261034b578151908282019082821067ffffffffffffffff831117610deb5750825260058152602090640352e302e360dc1b6020820152825193849260208452825192836020860152825b848110610dd557505050828201840152601f01601f19168101030190f35b8181018301518882018801528795508201610db7565b634e487b7160e01b855260419052602484fd5b5050346101b85760203660031901126101b85760209181906001600160a01b03610e26611d92565b1681526009845220549051908152f35b90503461034b576020806003193601126114ca57813591610e5561218c565b610e626002841115611e86565b33855260058252838520838652825283852090815491821561149557600201549060018060a01b03938785600254169588519363095ea7b360e01b85527310ed43c718714eb63d5aa57b78b54704e256024e948582820152848160249a8a8c8301528160449788925af1801561145c57611478575b50818b541661012c420195864211611466578860e48b94938f8f9485519b8c958694635d5155ef60e11b8652898601527355d398326f99059ff775485246999027b3197955809a8601528b8501528260648501528260848501523060a485015260c48401525af196871561145c578c968d98611420575b50610f5890611f55565b80870290878204148715171561140e57906127108d969594939204998a87988181116113fb575b505086548d51639358928b60e01b8152908516948e888386818a5afa998a156113f0578c978f8d95839d6113b1575b50829c839661130e575b508b9c9d50809b9a9b61125c575b50508b6111a2575b836110d1575b905163a9059cbb60e01b815233958101958652602086019790975295975087958694909350849250604001905003925af19081156110c757916110477f04f7e4f53152cb2cd0e424b2fc990199f0ed4255c7a97a848131f1eeff165f7b9899926110929695948c916110aa575b50611f9e565b338a5260058152818a2090898b52528860028282208281558260018201550155519485943398869192608093969594919660a084019784526020840152604083015260608201520152565b0390a260016000805160206122818339815191525580f35b6110c19150833d851161033a5761032c8183611dc3565b38611041565b88513d8b823e3d90fd5b61111395989496999750828154169260035416915180968195829463a9059cbb60e01b84528c840160209093929193604081019460018060a01b031681520152565b03925af1908115611198578d9161117b575b501561113a57849281889386938f8f90610fd4565b8a5162461bcd60e51b8152928301859052601f908301527f504441207472616e7366657220746f207265636569766572206661696c65640090820152606490fd5b6111929150863d881161033a5761032c8183611dc3565b38611125565b8c513d8f823e3d90fd5b929496509681939597898c85948554169251948593849263a9059cbb60e01b845261dead8d8501528b8401525af19182156112515791611234575b501561120157918893918795938f8f906111f98c600754611f48565b600755610fce565b8c5162461bcd60e51b8152808501889052600f818501526e14111048189d5c9b8819985a5b1959608a1b81880152606490fd5b61124b9150883d8a1161033a5761032c8183611dc3565b386111dd565b8f51903d90823e3d90fd5b925163a9059cbb60e01b815233818901908152602081019490945297999698509496939592949093929183919082908690829060400103925af191821561125157916112f1575b50156112ba57918893918795938f8f90388f610fc6565b8c5162461bcd60e51b815280850188905260138185015272141110481d1c985b9cd9995c8819985a5b1959606a1b81880152606490fd5b6113089150883d8a1161033a5761032c8183611dc3565b386112a3565b9496989a9b9c93909195979992690472698b413b43200000861160001461139e575050505050690472698b413b431fffff19810190811161138b57918f8f908c9795938f9b9a999795808e11156000146113735750999a98998b995b8d9c9b9a610fb8565b8b9c955080611385919c9b9c9e611e17565b9461136a565b50634e487b7160e01b8f5260118552838ffd5b92999750929c8c9a98969450949061136a565b9550509a509650508782813d83116113e9575b6113ce8183611dc3565b810103126113e5578e8b968e9a8c94519b38610fae565b8580fd5b503d6113c4565b9051903d90823e3d90fd5b611406929950611e17565b968a38610f7f565b634e487b7160e01b8d5260118252898dfd5b8c809299508198503d8311611455575b61143a8183611dc3565b810103126114515785519585015196610f58610f4e565b8b80fd5b503d611430565b8b513d8e823e3d90fd5b634e487b7160e01b8d5260118352898dfd5b61148e90853d871161033a5761032c8183611dc3565b5038610ed7565b855162461bcd60e51b8152808301859052600f60248201526e4e6f204c5020746f2072656d6f766560881b6044820152606490fd5b8380fd5b5050346101b857816003193601126101b8576000805160206122618339815191525490516001600160a01b039091168152602090f35b5050346101b857806003193601126101b8579081906001600160a01b03611529611d92565b16815260056020528181206024358252602052209061156a825491600260018501549401549051938493846040919493926060820195825260208201520152565b0390f35b8284346101e95760203660031901126101e9575061158e60209235611f55565b9051908152f35b83346101e957806003193601126101e9576115ae612153565b60008051602061226183398151915280546001600160a01b0319811690915581906001600160a01b03167f8be0079c531659141344cd1fd0a4f28419497f9722a3daafe3b4186f6b6457e08280a380f35b83346101e95760203660031901126101e957611619611d92565b611621612153565b6001600160a01b0390811690611638821515611efc565b600354826001600160601b0360a01b821617600355167f5153ec18786716602a0f5b0e4201be2118da680c8a06e34eed5dfb6544f8abb28380a380f35b5050346101b857816003193601126101b85760209051690472698b413b432000008152f35b5050346101b85760208060031936011261034b5760c0926001600160a01b036116c1611d92565b1680825260058084528483208380528452848320828452818552858420600185528552858420928452908452848320600284528452848320815495909291861561176f576002611712910154611f55565b8254928315611767576002611728910154611f55565b935b805495861561175f57506002611741910154611f55565b955b82519788528701528501526060840152608083015260a0820152f35b905095611743565b50849361172a565b5083611712565b5050346101b857816003193601126101b8576020906007549051908152f35b8284346101e957806003193601126101e957507f00000000000000000000000000000000000000000000000000000000000000006001600160a01b0316300361180157602090517f360894a13ba1a3210667c828492db98dca3e2076cc3735a920a3ca505d382bbc8152f35b5163703e46dd60e11b8152fd5b9180915060031936011261034b57611824611d92565b90602493843567ffffffffffffffff81116101b857366023820112156101b8578085013561185181611dfb565b9461185e85519687611dc3565b81865260209182870193368a83830101116113e5578186928b8693018737880101526001600160a01b037f00000000000000000000000000000000000000000000000000000000000000008116308114908115611a43575b50611a33576118c3612153565b81169585516352d1902d60e01b815283818a818b5afa869181611a04575b506118fd575050505050505191634c9c8ce360e01b8352820152fd5b9088888894938c7f360894a13ba1a3210667c828492db98dca3e2076cc3735a920a3ca505d382bbc918281036119ef5750853b156119db575080546001600160a01b031916821790558451889392917fbc7cd75a20ee27fd9adebab32041f755214dbc6bffa90cc0225b39da2e5c2d3b8580a28251156119bd5750506119af9582915190845af4913d156119b3573d6119a161199882611dfb565b92519283611dc3565b81528581943d92013e6121fd565b5080f35b50606092506121fd565b9550955050505050346119cf57505080f35b63b398979f60e01b8152fd5b8651634c9c8ce360e01b8152808501849052fd5b8751632a87526960e21b815280860191909152fd5b9091508481813d8311611a2c575b611a1c8183611dc3565b81010312610d32575190386118e1565b503d611a12565b855163703e46dd60e11b81528890fd5b9050817f360894a13ba1a3210667c828492db98dca3e2076cc3735a920a3ca505d382bbc54161415386118b6565b5050346101b857816003193601126101b8576020905161dead8152f35b8284346101e95760203660031901126101e9575061158e60209235611ec3565b5050346101b857816003193601126101b857602090517310ed43c718714eb63d5aa57b78b54704e256024e8152f35b9190503461034b578060031936011261034b57611af8611d92565b9060243591611b05612153565b6001600160a01b0316928315611b6e575081602091611b4860027f9f867247cd07d370933af4d95576c7517863b00bd24b1d1236e7d5ede46de261951115611e86565b84865260088352808620600160ff1982541617905560098352818187205551908152a280f35b6020606492519162461bcd60e51b8352820152601860248201527f496e76616c696420636f6e7472616374206164647265737300000000000000006044820152fd5b8284346101e957816003193601126101e957611bca611d92565b60243590611bdb6002831115611e86565b60018060a01b03168252600560205282822090825260205261156a8282209283549260026001860154950154611c1081611f55565b918615611c52575062015180611c268742611e17565b04925b51958695869192608093969594919660a084019784526020840152604083015260608201520152565b92611c29565b90503461034b57602036600319011261034b57602092818392358252845220549051908152f35b83346101e95760203660031901126101e957611c99611d92565b611ca1612153565b6001600160a01b0316611cb5811515611e3a565b6001600160601b0360a01b600154161760015580f35b915091346114ca5760803660031901126114ca57611ce7611d92565b600154604435936001600160a01b039291831633148015611d7d575b15611d4b5750926201518092611d44926002951687526005602052808720606435885260205280872095602435875582600188015560205286205490611e17565b0491015580f35b62461bcd60e51b8152602086820152600e60248201526d139bdd08185d5d1a1bdc9a5e995960921b6044820152606490fd5b50338752600860205260ff8488205416611d03565b600435906001600160a01b0382168203611da857565b600080fd5b602435906001600160a01b0382168203611da857565b90601f8019910116810190811067ffffffffffffffff821117611de557604052565b634e487b7160e01b600052604160045260246000fd5b67ffffffffffffffff8111611de557601f01601f191660200190565b91908203918211611e2457565b634e487b7160e01b600052601160045260246000fd5b15611e4157565b60405162461bcd60e51b815260206004820152601b60248201527f496e76616c6964204e46544c50536574746572206164647265737300000000006044820152606490fd5b15611e8d57565b60405162461bcd60e51b815260206004820152600e60248201526d496e76616c696420736f7572636560901b6044820152606490fd5b611ed06002821115611e86565b60005260046020526040600020548015611ef657611ef2620151809142611e17565b0490565b50600090565b15611f0357565b60405162461bcd60e51b815260206004820152601d60248201527f496e76616c6964206275726e20726563656976657220616464726573730000006044820152606490fd5b91908201809211611e2457565b603281029080820460321490151715611e245760640180606411611e2457611388808211611f81575090565b905090565b90816020910312611da857518015158103611da85790565b15611fa557565b60405162461bcd60e51b81526020600482015260146024820152731554d115081d1c985b9cd9995c8819985a5b195960621b6044820152606490fd5b90816020910312611da857516001600160a01b0381168103611da85790565b8051600110156120105760400190565b634e487b7160e01b600052603260045260246000fd5b906020908183820312611da857825167ffffffffffffffff93848211611da8570181601f82011215611da8578051938411611de5578360051b906040519461207085840187611dc3565b85528380860192820101928311611da8578301905b828210612093575050505090565b81518152908301908301612085565b90815180825260208080930193019160005b8281106120c2575050505090565b83516001600160a01b0316855293810193928101926001016120b4565b6001600160a01b0390811690811561213a5760008051602061226183398151915280546001600160a01b031981168417909155167f8be0079c531659141344cd1fd0a4f28419497f9722a3daafe3b4186f6b6457e0600080a3565b604051631e4fbdf760e01b815260006004820152602490fd5b600080516020612261833981519152546001600160a01b0316330361217457565b60405163118cdaa760e01b8152336004820152602490fd5b60008051602061228183398151915260028154146121aa5760029055565b604051633ee5aeb560e01b8152600490fd5b60ff7ff0c57e16840df040f15088dc2f81fe391c3923bec73e23a9662efc9c229c6a005460401c16156121eb57565b604051631afcd79f60e31b8152600490fd5b90612224575080511561221257602081519101fd5b60405163d6bda27560e01b8152600490fd5b81511580612257575b612235575090565b604051639996b31560e01b81526001600160a01b039091166004820152602490fd5b50803b1561222d56fe9016d09d72d40fdae2fd8ceac6b6234c7706214fd39c1cd1e609a0528c1993009b779b17422d0df92223018b32b4d1fa46e071723d6817e2486d003becc55f00a164736f6c6343000817000a",
  "implementation": "0xa73305eD51360a7d9BE8186672265363973477DF"
}