{
  "address": "0x3d75408c0d0fF867d5D3Ac246E4024Cfd074710E",
  "abi": [
    {
      "inputs": [],
      "stateMutability": "nonpayable",
      "type": "constructor"
    },
    {
      "inputs": [
        {
          "internalType": "address",
          "name": "owner",
          "type": "address"
        }
      ],
      "name": "OwnableInvalidOwner",
      "type": "error"
    },
    {
      "inputs": [
        {
          "internalType": "address",
          "name": "account",
          "type": "address"
        }
      ],
      "name": "OwnableUnauthorizedAccount",
      "type": "error"
    },
    {
      "anonymous": false,
      "inputs": [
        {
          "indexed": true,
          "internalType": "address",
          "name": "contractAddress",
          "type": "address"
        }
      ],
      "name": "AuthorizedContractAdded",
      "type": "event"
    },
    {
      "anonymous": false,
      "inputs": [
        {
          "indexed": true,
          "internalType": "address",
          "name": "contractAddress",
          "type": "address"
        }
      ],
      "name": "AuthorizedContractRemoved",
      "type": "event"
    },
    {
      "anonymous": false,
      "inputs": [
        {
          "indexed": true,
          "internalType": "address",
          "name": "previousOwner",
          "type": "address"
        },
        {
          "indexed": true,
          "internalType": "address",
          "name": "newOwner",
          "type": "address"
        }
      ],
      "name": "OwnershipTransferred",
      "type": "event"
    },
    {
      "anonymous": false,
      "inputs": [
        {
          "indexed": true,
          "internalType": "address",
          "name": "user",
          "type": "address"
        },
        {
          "indexed": true,
          "internalType": "address",
          "name": "referrer",
          "type": "address"
        },
        {
          "indexed": true,
          "internalType": "address",
          "name": "binder",
          "type": "address"
        }
      ],
      "name": "ReferrerBound",
      "type": "event"
    },
    {
      "anonymous": false,
      "inputs": [
        {
          "indexed": true,
          "internalType": "address",
          "name": "user",
          "type": "address"
        }
      ],
      "name": "UserActivated",
      "type": "event"
    },
    {
      "inputs": [
        {
          "internalType": "address",
          "name": "user",
          "type": "address"
        }
      ],
      "name": "activateUser",
      "outputs": [],
      "stateMutability": "nonpayable",
      "type": "function"
    },
    {
      "inputs": [
        {
          "internalType": "address",
          "name": "",
          "type": "address"
        }
      ],
      "name": "activeReferralCount",
      "outputs": [
        {
          "internalType": "uint256",
          "name": "",
          "type": "uint256"
        }
      ],
      "stateMutability": "view",
      "type": "function"
    },
    {
      "inputs": [
        {
          "internalType": "address",
          "name": "contractAddress",
          "type": "address"
        }
      ],
      "name": "addAuthorizedContract",
      "outputs": [],
      "stateMutability": "nonpayable",
      "type": "function"
    },
    {
      "inputs": [
        {
          "internalType": "address",
          "name": "",
          "type": "address"
        }
      ],
      "name": "authorizedContracts",
      "outputs": [
        {
          "internalType": "bool",
          "name": "",
          "type": "bool"
        }
      ],
      "stateMutability": "view",
      "type": "function"
    },
    {
      "inputs": [
        {
          "internalType": "address[]",
          "name": "users",
          "type": "address[]"
        },
        {
          "internalType": "address[]",
          "name": "referrers",
          "type": "address[]"
        }
      ],
      "name": "batchBindReferrer",
      "outputs": [],
      "stateMutability": "nonpayable",
      "type": "function"
    },
    {
      "inputs": [
        {
          "internalType": "address",
          "name": "user",
          "type": "address"
        },
        {
          "internalType": "address",
          "name": "_referrer",
          "type": "address"
        }
      ],
      "name": "bindReferrerByContract",
      "outputs": [],
      "stateMutability": "nonpayable",
      "type": "function"
    },
    {
      "inputs": [
        {
          "internalType": "address",
          "name": "user",
          "type": "address"
        }
      ],
      "name": "getMaxLevel",
      "outputs": [
        {
          "internalType": "uint256",
          "name": "",
          "type": "uint256"
        }
      ],
      "stateMutability": "view",
      "type": "function"
    },
    {
      "inputs": [
        {
          "internalType": "address",
          "name": "user",
          "type": "address"
        }
      ],
      "name": "getReferrals",
      "outputs": [
        {
          "internalType": "address[]",
          "name": "",
          "type": "address[]"
        }
      ],
      "stateMutability": "view",
      "type": "function"
    },
    {
      "inputs": [
        {
          "internalType": "address",
          "name": "user",
          "type": "address"
        },
        {
          "internalType": "uint256",
          "name": "levels",
          "type": "uint256"
        }
      ],
      "name": "getReferrerChain",
      "outputs": [
        {
          "internalType": "address[]",
          "name": "",
          "type": "address[]"
        }
      ],
      "stateMutability": "view",
      "type": "function"
    },
    {
      "inputs": [
        {
          "internalType": "address",
          "name": "user",
          "type": "address"
        }
      ],
      "name": "hasReferrer",
      "outputs": [
        {
          "internalType": "bool",
          "name": "",
          "type": "bool"
        }
      ],
      "stateMutability": "view",
      "type": "function"
    },
    {
      "inputs": [
        {
          "internalType": "address",
          "name": "",
          "type": "address"
        }
      ],
      "name": "isActiveUser",
      "outputs": [
        {
          "internalType": "bool",
          "name": "",
          "type": "bool"
        }
      ],
      "stateMutability": "view",
      "type": "function"
    },
    {
      "inputs": [
        {
          "internalType": "address",
          "name": "contractAddress",
          "type": "address"
        }
      ],
      "name": "isAuthorizedContract",
      "outputs": [
        {
          "internalType": "bool",
          "name": "",
          "type": "bool"
        }
      ],
      "stateMutability": "view",
      "type": "function"
    },
    {
      "inputs": [],
      "name": "owner",
      "outputs": [
        {
          "internalType": "address",
          "name": "",
          "type": "address"
        }
      ],
      "stateMutability": "view",
      "type": "function"
    },
    {
      "inputs": [
        {
          "internalType": "address",
          "name": "",
          "type": "address"
        }
      ],
      "name": "referralCount",
      "outputs": [
        {
          "internalType": "uint256",
          "name": "",
          "type": "uint256"
        }
      ],
      "stateMutability": "view",
      "type": "function"
    },
    {
      "inputs": [
        {
          "internalType": "address",
          "name": "",
          "type": "address"
        },
        {
          "internalType": "uint256",
          "name": "",
          "type": "uint256"
        }
      ],
      "name": "referrals",
      "outputs": [
        {
          "internalType": "address",
          "name": "",
          "type": "address"
        }
      ],
      "stateMutability": "view",
      "type": "function"
    },
    {
      "inputs": [
        {
          "internalType": "address",
          "name": "",
          "type": "address"
        }
      ],
      "name": "referrer",
      "outputs": [
        {
          "internalType": "address",
          "name": "",
          "type": "address"
        }
      ],
      "stateMutability": "view",
      "type": "function"
    },
    {
      "inputs": [
        {
          "internalType": "address",
          "name": "contractAddress",
          "type": "address"
        }
      ],
      "name": "removeAuthorizedContract",
      "outputs": [],
      "stateMutability": "nonpayable",
      "type": "function"
    },
    {
      "inputs": [],
      "name": "renounceOwnership",
      "outputs": [],
      "stateMutability": "nonpayable",
      "type": "function"
    },
    {
      "inputs": [
        {
          "internalType": "address",
          "name": "newOwner",
          "type": "address"
        }
      ],
      "name": "transferOwnership",
      "outputs": [],
      "stateMutability": "nonpayable",
      "type": "function"
    }
  ],
  "transactionHash": "0xc9e8f67c2a5ea163fd717fd138423e4e81dfbb3a1bbffe5483b8ce216394c756",
  "args": [],
  "numDeployments": 1,
  "solcInputHash": "63e4a340441cee575031c4c3a6ce8651",
  "bytecode": "0x6080806040523461007a5733156100645760008054336001600160a01b03198216811783556040519290916001600160a01b0316907f8be0079c531659141344cd1fd0a4f28419497f9722a3daafe3b4186f6b6457e09080a3610dd790816100808239f35b631e4fbdf760e01b815260006004820152602490fd5b600080fdfe6040608081526004908136101561001557600080fd5b600091823560e01c90816305f47053146107f457816318452cd8146107b75781632cf003c21461077c57816341a0894d146106f15781634202d214146106b457816366d0ead3146102b3578163715018a61461065a57816375d20f3b1461062d5781637e540b2b146105df5781637fe9d955146104855781638da5cb5b1461045d57816398eaa4a7146103aa578163b4acfe1c146102f1578163d5b9221b146102b3578163db74559b1461027b578163e697b5d81461021f578163e6b165ed146101b9578163f2fde38b1461012e575063fad99ddc146100f457600080fd5b3461012a57602036600319011261012a5760209181906001600160a01b0361011a6108e5565b1681526005845220549051908152f35b5080fd5b9050346101b55760203660031901126101b5576101496108e5565b90610152610b34565b6001600160a01b0391821692831561019f57505082546001600160a01b0319811683178455167f8be0079c531659141344cd1fd0a4f28419497f9722a3daafe3b4186f6b6457e08380a380f35b51631e4fbdf760e01b8152908101849052602490fd5b8280fd5b50503461012a57602036600319011261012a576101d46108e5565b6101dc610b34565b6001600160a01b03168083526006602052908220805460ff191690557f98a35376356c1565159c1b44676fcfa951a2287e2a816e208cf92e7aeb585a4f8280a280f35b50503461012a578060031936011261012a576102396108e5565b6001600160a01b039081168352600260205281832080546024359490851015610278575060209361026991610976565b92905490519260031b1c168152f35b80fd5b50503461012a57602036600319011261012a5760209181906001600160a01b036102a36108e5565b1681526003845220549051908152f35b50503461012a57602036600319011261012a5760209160ff9082906001600160a01b036102de6108e5565b1681526006855220541690519015158152f35b9050346101b55760203660031901126101b55761030c6108e5565b90338452600660205261032460ff8486205416610ac4565b6001600160a01b03918216808552602091909152828420805460ff81161561034a578580f35b60ff191660011790557fd4719dd6c50c53a868b4c8eb187c166965be87e084f350aab18e6b0f141c77348480a2600160205281832054168061038e575b8080808580f35b8252600560205281206103a181546109f4565b90553880610387565b919050346101b55760203660031901126101b5576103c66108e5565b6103ce610b34565b6001600160a01b031691821561041b575081835260066020528220805460ff191660011790557f351e40fe333cede9dd79a1ef4d16228b1702f272eb2c2166ec3c7ee6a9d4ce2c8280a280f35b6020606492519162461bcd60e51b8352820152601860248201527f496e76616c696420636f6e7472616374206164647265737300000000000000006044820152fd5b50503461012a578160031936011261012a57905490516001600160a01b039091168152602090f35b9050346101b557816003193601126101b55767ffffffffffffffff9080358281116105db576104b79036908301610945565b926024359081116105d7576104cf9036908401610945565b93909284820361059c5750855b8181106104e7578680f35b6001906001600160a01b0380610506610501848789610b10565b610b20565b1689528260205280888a205416159081610571575b81610558575b5061052d575b016104dc565b61055361053e610501838688610b10565b61054c610501848a8a610b10565b3391610b60565b610527565b9050610568610501838989610b10565b16151538610521565b9050610581610501838688610b10565b8180610591610501868c8c610b10565b16911614159061051b565b606490602087519162461bcd60e51b83528201526015602482015274082e4e4c2f240d8cadccee8d040dad2e6dac2e8c6d605b1b6044820152fd5b8580fd5b8480fd5b50503461012a578060031936011261012a576105f96108e5565b6024356001600160a01b03811681036106295761054c60ff61062694338752600660205286205416610ac4565b80f35b8380fd5b50503461012a57602036600319011261012a5760209061065361064e6108e5565b610a19565b9051908152f35b8334610278578060031936011261027857610673610b34565b80546001600160a01b03198116825581906001600160a01b03167f8be0079c531659141344cd1fd0a4f28419497f9722a3daafe3b4186f6b6457e08280a380f35b9050346101b55760203660031901126101b55760209260ff918391906001600160a01b036106e06108e5565b168252855220541690519015158152f35b50503461012a5760209060206003193601126101b5576001600160a01b0392836107196108e5565b16815260026020528181209382519081946020875493848152019684526020842093915b8383106107635761075f8787610755828c03836109a4565b5191829182610900565b0390f35b845481168852968101966001948501949092019161073d565b50503461012a57602036600319011261012a576020916001600160a01b03908290826107a66108e5565b168152600185522054169051908152f35b50503461012a57602036600319011261012a576020916001600160a01b03908290826107e16108e5565b1681526001855220541615159051908152f35b8284346102785781600319360112610278579161080f6108e5565b6024936024359461081f866109dc565b9561082c865197886109a4565b808752610838816109dc565b60209290601f190136898501376001600160a01b03948516845260016020819052878520549096859390918716885b610879575b89518061075f8d82610900565b818510806108da575b156108d5578a518510156108c35790878996959493921680868d8760051b01015287528585526108b7888b89205416946109f4565b94959390919293610867565b634e487b7160e01b8752603283528387fd5b61086c565b508781161515610882565b600435906001600160a01b03821682036108fb57565b600080fd5b602090602060408183019282815285518094520193019160005b828110610928575050505090565b83516001600160a01b03168552938101939281019260010161091a565b9181601f840112156108fb5782359167ffffffffffffffff83116108fb576020808501948460051b0101116108fb57565b805482101561098e5760005260206000200190600090565b634e487b7160e01b600052603260045260246000fd5b90601f8019910116810190811067ffffffffffffffff8211176109c657604052565b634e487b7160e01b600052604160045260246000fd5b67ffffffffffffffff81116109c65760051b60200190565b6000198114610a035760010190565b634e487b7160e01b600052601160045260246000fd5b6001600160a01b031660009081526004602052604081205460ff1615610ac1576005602052604081205480610a4c575090565b60018103610a5b575050600290565b600f8110610a6a575050601e90565b6000198101908111610aad578060011b9080820460021490151715610aad576002019081600211610a99575090565b634e487b7160e01b81526011600452602490fd5b634e487b7160e01b82526011600452602482fd5b90565b15610acb57565b60405162461bcd60e51b815260206004820152601760248201527f4e6f7420617574686f72697a656420636f6e74726163740000000000000000006044820152606490fd5b919081101561098e5760051b0190565b356001600160a01b03811681036108fb5790565b6000546001600160a01b03163303610b4857565b60405163118cdaa760e01b8152336004820152602490fd5b60018060a01b038091169060009382855260016020818152604091848389205416610d9757848716968715610d6057868814610d24578789528183528686858b20541614610ceb578582918a925b610c60575b50505085885280825282882080546001600160a01b031916881790558688526002825282882080549168010000000000000000831015610c4c57827f5b6dcb011725a9616ecced5408efb270f5e20477283b63e06c8b4eb0b4da42969796959492610c2392600395018155610976565b815490841b90878a831b921b1916179055878952528620610c4481546109f4565b9055169380a4565b634e487b7160e01b8a52604160045260248afd5b601e831080610ce0575b15610cdb5716878114610c97579082918a52818452610c8e87868c205416916109f4565b91908791610bae565b845162461bcd60e51b815260048101859052601b60248201527f43697263756c6172207265666572656e636520646574656374656400000000006044820152606490fd5b610bb3565b508181161515610c6a565b835162461bcd60e51b815260048101849052601260248201527143697263756c6172207265666572656e636560701b6044820152606490fd5b835162461bcd60e51b815260048101849052601560248201527421b0b73737ba103932b332b9103cb7bab939b2b63360591b6044820152606490fd5b835162461bcd60e51b815260048101849052601060248201526f24b73b30b634b2103932b332b93932b960811b6044820152606490fd5b50606491519062461bcd60e51b82526004820152600d60248201526c105b1c9958591e48189bdd5b99609a1b6044820152fdfea164736f6c6343000816000a",
  "devdoc": {
    "errors": {
      "OwnableInvalidOwner(address)": [
        {
          "details": "The owner is not a valid owner account. (eg. `address(0)`)"
        }
      ],
      "OwnableUnauthorizedAccount(address)": [
        {
          "details": "The caller account is not authorized to perform an operation."
        }
      ]
    },
    "kind": "dev",
    "methods": {
      "owner()": {
        "details": "Returns the address of the current owner."
      },
      "renounceOwnership()": {
        "details": "Leaves the contract without owner. It will not be possible to call `onlyOwner` functions. Can only be called by the current owner. NOTE: Renouncing ownership will leave the contract without an owner, thereby disabling any functionality that is only available to the owner."
      },
      "transferOwnership(address)": {
        "details": "Transfers ownership of the contract to a new account (`newOwner`). Can only be called by the current owner."
      }
    },
    "version": 1
  },
  "userdoc": {
    "kind": "user",
    "methods": {},
    "version": 1
  },
  "storageLayout": {
    "storage": [
      {
        "astId": 828,
        "contract": "contracts/PDAReferral.sol:PDAReferral",
        "label": "_owner",
        "offset": 0,
        "slot": "0",
        "type": "t_address"
      },
      {
        "astId": 3029,
        "contract": "contracts/PDAReferral.sol:PDAReferral",
        "label": "referrer",
        "offset": 0,
        "slot": "1",
        "type": "t_mapping(t_address,t_address)"
      },
      {
        "astId": 3034,
        "contract": "contracts/PDAReferral.sol:PDAReferral",
        "label": "referrals",
        "offset": 0,
        "slot": "2",
        "type": "t_mapping(t_address,t_array(t_address)dyn_storage)"
      },
      {
        "astId": 3038,
        "contract": "contracts/PDAReferral.sol:PDAReferral",
        "label": "referralCount",
        "offset": 0,
        "slot": "3",
        "type": "t_mapping(t_address,t_uint256)"
      },
      {
        "astId": 3042,
        "contract": "contracts/PDAReferral.sol:PDAReferral",
        "label": "isActiveUser",
        "offset": 0,
        "slot": "4",
        "type": "t_mapping(t_address,t_bool)"
      },
      {
        "astId": 3046,
        "contract": "contracts/PDAReferral.sol:PDAReferral",
        "label": "activeReferralCount",
        "offset": 0,
        "slot": "5",
        "type": "t_mapping(t_address,t_uint256)"
      },
      {
        "astId": 3050,
        "contract": "contracts/PDAReferral.sol:PDAReferral",
        "label": "authorizedContracts",
        "offset": 0,
        "slot": "6",
        "type": "t_mapping(t_address,t_bool)"
      }
    ],
    "types": {
      "t_address": {
        "encoding": "inplace",
        "label": "address",
        "numberOfBytes": "20"
      },
      "t_array(t_address)dyn_storage": {
        "base": "t_address",
        "encoding": "dynamic_array",
        "label": "address[]",
        "numberOfBytes": "32"
      },
      "t_bool": {
        "encoding": "inplace",
        "label": "bool",
        "numberOfBytes": "1"
      },
      "t_mapping(t_address,t_address)": {
        "encoding": "mapping",
        "key": "t_address",
        "label": "mapping(address => address)",
        "numberOfBytes": "32",
        "value": "t_address"
      },
      "t_mapping(t_address,t_array(t_address)dyn_storage)": {
        "encoding": "mapping",
        "key": "t_address",
        "label": "mapping(address => address[])",
        "numberOfBytes": "32",
        "value": "t_array(t_address)dyn_storage"
      },
      "t_mapping(t_address,t_bool)": {
        "encoding": "mapping",
        "key": "t_address",
        "label": "mapping(address => bool)",
        "numberOfBytes": "32",
        "value": "t_bool"
      },
      "t_mapping(t_address,t_uint256)": {
        "encoding": "mapping",
        "key": "t_address",
        "label": "mapping(address => uint256)",
        "numberOfBytes": "32",
        "value": "t_uint256"
      },
      "t_uint256": {
        "encoding": "inplace",
        "label": "uint256",
        "numberOfBytes": "32"
      }
    }
  }
}