{
  "address": "0xB5076e7DbD1AC088B8A7Bc8fe4aBf5F1378128d7",
  "abi": [
    {
      "inputs": [],
      "stateMutability": "nonpayable",
      "type": "constructor"
    },
    {
      "inputs": [
        {
          "internalType": "address",
          "name": "owner",
          "type": "address"
        }
      ],
      "name": "OwnableInvalidOwner",
      "type": "error"
    },
    {
      "inputs": [
        {
          "internalType": "address",
          "name": "account",
          "type": "address"
        }
      ],
      "name": "OwnableUnauthorizedAccount",
      "type": "error"
    },
    {
      "anonymous": false,
      "inputs": [
        {
          "indexed": true,
          "internalType": "address",
          "name": "binder",
          "type": "address"
        }
      ],
      "name": "AuthorizedBinderAdded",
      "type": "event"
    },
    {
      "anonymous": false,
      "inputs": [
        {
          "indexed": true,
          "internalType": "address",
          "name": "binder",
          "type": "address"
        }
      ],
      "name": "AuthorizedBinderRemoved",
      "type": "event"
    },
    {
      "anonymous": false,
      "inputs": [
        {
          "indexed": true,
          "internalType": "address",
          "name": "contractAddress",
          "type": "address"
        }
      ],
      "name": "AuthorizedContractAdded",
      "type": "event"
    },
    {
      "anonymous": false,
      "inputs": [
        {
          "indexed": true,
          "internalType": "address",
          "name": "contractAddress",
          "type": "address"
        }
      ],
      "name": "AuthorizedContractRemoved",
      "type": "event"
    },
    {
      "anonymous": false,
      "inputs": [
        {
          "indexed": true,
          "internalType": "address",
          "name": "previousOwner",
          "type": "address"
        },
        {
          "indexed": true,
          "internalType": "address",
          "name": "newOwner",
          "type": "address"
        }
      ],
      "name": "OwnershipTransferred",
      "type": "event"
    },
    {
      "anonymous": false,
      "inputs": [
        {
          "indexed": true,
          "internalType": "address",
          "name": "user",
          "type": "address"
        },
        {
          "indexed": true,
          "internalType": "address",
          "name": "referrer",
          "type": "address"
        },
        {
          "indexed": true,
          "internalType": "address",
          "name": "binder",
          "type": "address"
        }
      ],
      "name": "ReferrerBound",
      "type": "event"
    },
    {
      "anonymous": false,
      "inputs": [
        {
          "indexed": true,
          "internalType": "address",
          "name": "user",
          "type": "address"
        }
      ],
      "name": "UserActivated",
      "type": "event"
    },
    {
      "inputs": [
        {
          "internalType": "address",
          "name": "user",
          "type": "address"
        }
      ],
      "name": "activateUser",
      "outputs": [],
      "stateMutability": "nonpayable",
      "type": "function"
    },
    {
      "inputs": [
        {
          "internalType": "address",
          "name": "",
          "type": "address"
        }
      ],
      "name": "activeReferralCount",
      "outputs": [
        {
          "internalType": "uint256",
          "name": "",
          "type": "uint256"
        }
      ],
      "stateMutability": "view",
      "type": "function"
    },
    {
      "inputs": [
        {
          "internalType": "address",
          "name": "binder",
          "type": "address"
        }
      ],
      "name": "addAuthorizedBinder",
      "outputs": [],
      "stateMutability": "nonpayable",
      "type": "function"
    },
    {
      "inputs": [
        {
          "internalType": "address",
          "name": "contractAddress",
          "type": "address"
        }
      ],
      "name": "addAuthorizedContract",
      "outputs": [],
      "stateMutability": "nonpayable",
      "type": "function"
    },
    {
      "inputs": [
        {
          "internalType": "address",
          "name": "",
          "type": "address"
        }
      ],
      "name": "authorizedBinders",
      "outputs": [
        {
          "internalType": "bool",
          "name": "",
          "type": "bool"
        }
      ],
      "stateMutability": "view",
      "type": "function"
    },
    {
      "inputs": [
        {
          "internalType": "address",
          "name": "",
          "type": "address"
        }
      ],
      "name": "authorizedContracts",
      "outputs": [
        {
          "internalType": "bool",
          "name": "",
          "type": "bool"
        }
      ],
      "stateMutability": "view",
      "type": "function"
    },
    {
      "inputs": [
        {
          "internalType": "address[]",
          "name": "users",
          "type": "address[]"
        },
        {
          "internalType": "address[]",
          "name": "referrers",
          "type": "address[]"
        }
      ],
      "name": "batchBindReferrer",
      "outputs": [],
      "stateMutability": "nonpayable",
      "type": "function"
    },
    {
      "inputs": [
        {
          "internalType": "address",
          "name": "user",
          "type": "address"
        },
        {
          "internalType": "address",
          "name": "_referrer",
          "type": "address"
        }
      ],
      "name": "bindReferrerByContract",
      "outputs": [],
      "stateMutability": "nonpayable",
      "type": "function"
    },
    {
      "inputs": [
        {
          "internalType": "address",
          "name": "user",
          "type": "address"
        }
      ],
      "name": "getMaxLevel",
      "outputs": [
        {
          "internalType": "uint256",
          "name": "",
          "type": "uint256"
        }
      ],
      "stateMutability": "view",
      "type": "function"
    },
    {
      "inputs": [
        {
          "internalType": "address",
          "name": "user",
          "type": "address"
        }
      ],
      "name": "getReferrals",
      "outputs": [
        {
          "internalType": "address[]",
          "name": "",
          "type": "address[]"
        }
      ],
      "stateMutability": "view",
      "type": "function"
    },
    {
      "inputs": [
        {
          "internalType": "address",
          "name": "user",
          "type": "address"
        },
        {
          "internalType": "uint256",
          "name": "levels",
          "type": "uint256"
        }
      ],
      "name": "getReferrerChain",
      "outputs": [
        {
          "internalType": "address[]",
          "name": "",
          "type": "address[]"
        }
      ],
      "stateMutability": "view",
      "type": "function"
    },
    {
      "inputs": [
        {
          "internalType": "address",
          "name": "user",
          "type": "address"
        }
      ],
      "name": "hasReferrer",
      "outputs": [
        {
          "internalType": "bool",
          "name": "",
          "type": "bool"
        }
      ],
      "stateMutability": "view",
      "type": "function"
    },
    {
      "inputs": [
        {
          "internalType": "address",
          "name": "",
          "type": "address"
        }
      ],
      "name": "isActiveUser",
      "outputs": [
        {
          "internalType": "bool",
          "name": "",
          "type": "bool"
        }
      ],
      "stateMutability": "view",
      "type": "function"
    },
    {
      "inputs": [
        {
          "internalType": "address",
          "name": "binder",
          "type": "address"
        }
      ],
      "name": "isAuthorizedBinder",
      "outputs": [
        {
          "internalType": "bool",
          "name": "",
          "type": "bool"
        }
      ],
      "stateMutability": "view",
      "type": "function"
    },
    {
      "inputs": [
        {
          "internalType": "address",
          "name": "contractAddress",
          "type": "address"
        }
      ],
      "name": "isAuthorizedContract",
      "outputs": [
        {
          "internalType": "bool",
          "name": "",
          "type": "bool"
        }
      ],
      "stateMutability": "view",
      "type": "function"
    },
    {
      "inputs": [],
      "name": "owner",
      "outputs": [
        {
          "internalType": "address",
          "name": "",
          "type": "address"
        }
      ],
      "stateMutability": "view",
      "type": "function"
    },
    {
      "inputs": [
        {
          "internalType": "address",
          "name": "",
          "type": "address"
        }
      ],
      "name": "referralCount",
      "outputs": [
        {
          "internalType": "uint256",
          "name": "",
          "type": "uint256"
        }
      ],
      "stateMutability": "view",
      "type": "function"
    },
    {
      "inputs": [
        {
          "internalType": "address",
          "name": "",
          "type": "address"
        },
        {
          "internalType": "uint256",
          "name": "",
          "type": "uint256"
        }
      ],
      "name": "referrals",
      "outputs": [
        {
          "internalType": "address",
          "name": "",
          "type": "address"
        }
      ],
      "stateMutability": "view",
      "type": "function"
    },
    {
      "inputs": [
        {
          "internalType": "address",
          "name": "",
          "type": "address"
        }
      ],
      "name": "referrer",
      "outputs": [
        {
          "internalType": "address",
          "name": "",
          "type": "address"
        }
      ],
      "stateMutability": "view",
      "type": "function"
    },
    {
      "inputs": [
        {
          "internalType": "address",
          "name": "binder",
          "type": "address"
        }
      ],
      "name": "removeAuthorizedBinder",
      "outputs": [],
      "stateMutability": "nonpayable",
      "type": "function"
    },
    {
      "inputs": [
        {
          "internalType": "address",
          "name": "contractAddress",
          "type": "address"
        }
      ],
      "name": "removeAuthorizedContract",
      "outputs": [],
      "stateMutability": "nonpayable",
      "type": "function"
    },
    {
      "inputs": [],
      "name": "renounceOwnership",
      "outputs": [],
      "stateMutability": "nonpayable",
      "type": "function"
    },
    {
      "inputs": [
        {
          "internalType": "address",
          "name": "newOwner",
          "type": "address"
        }
      ],
      "name": "transferOwnership",
      "outputs": [],
      "stateMutability": "nonpayable",
      "type": "function"
    }
  ],
  "transactionHash": "0xeeaa8f85ee5049211a3d8c59b703093ce94a38c1b4887597e1bbc4f86a09f3be",
  "args": [],
  "numDeployments": 1,
  "solcInputHash": "2fde9de745e9afea6cd8799fc3279858",
  "bytecode": "0x6080806040523461009157331561007b5760008054336001600160a01b0319821681178355604080519390929091906001600160a01b03167f8be0079c531659141344cd1fd0a4f28419497f9722a3daafe3b4186f6b6457e08380a3338152600660205220805460ff19166001179055610fa790816100978239f35b631e4fbdf760e01b815260006004820152602490fd5b600080fdfe6040608081526004908136101561001557600080fd5b600091823560e01c90816305f47053146109c45781630fb10f5c1461095e57816318452cd8146109215781632cf003c2146108e657816341a0894d1461085b5781634202d2141461081e57816366d0ead3146102df578163715018a6146107c457816375d20f3b1461079757816376af7962146106ad57816378829753146106eb5781637a9bc58e146106ad5781637e540b2b1461065c5781637fe9d955146104b15781638da5cb5b1461048957816398eaa4a7146103d6578163b4acfe1c1461031d578163d5b9221b146102df578163db74559b146102a7578163e697b5d81461024b578163e6b165ed146101e5578163f2fde38b1461015a575063fad99ddc1461012057600080fd5b346101565760203660031901126101565760209181906001600160a01b03610146610ab5565b1681526005845220549051908152f35b5080fd5b9050346101e15760203660031901126101e157610175610ab5565b9061017e610d04565b6001600160a01b039182169283156101cb57505082546001600160a01b0319811683178455167f8be0079c531659141344cd1fd0a4f28419497f9722a3daafe3b4186f6b6457e08380a380f35b51631e4fbdf760e01b8152908101849052602490fd5b8280fd5b50503461015657602036600319011261015657610200610ab5565b610208610d04565b6001600160a01b03168083526007602052908220805460ff191690557f98a35376356c1565159c1b44676fcfa951a2287e2a816e208cf92e7aeb585a4f8280a280f35b505034610156578060031936011261015657610265610ab5565b6001600160a01b0390811683526002602052818320805460243594908510156102a4575060209361029591610b46565b92905490519260031b1c168152f35b80fd5b5050346101565760203660031901126101565760209181906001600160a01b036102cf610ab5565b1681526003845220549051908152f35b5050346101565760203660031901126101565760209160ff9082906001600160a01b0361030a610ab5565b1681526007855220541690519015158152f35b9050346101e15760203660031901126101e157610338610ab5565b90338452600760205261035060ff8486205416610c94565b6001600160a01b03918216808552602091909152828420805460ff811615610376578580f35b60ff191660011790557fd4719dd6c50c53a868b4c8eb187c166965be87e084f350aab18e6b0f141c77348480a260016020528183205416806103ba575b8080808580f35b8252600560205281206103cd8154610bc4565b905538806103b3565b919050346101e15760203660031901126101e1576103f2610ab5565b6103fa610d04565b6001600160a01b0316918215610447575081835260076020528220805460ff191660011790557f351e40fe333cede9dd79a1ef4d16228b1702f272eb2c2166ec3c7ee6a9d4ce2c8280a280f35b6020606492519162461bcd60e51b8352820152601860248201527f496e76616c696420636f6e7472616374206164647265737300000000000000006044820152fd5b505034610156578160031936011261015657905490516001600160a01b039091168152602090f35b83833461015657806003193601126101565767ffffffffffffffff8335818111610658576104e29036908601610b15565b91602435908111610654576104fa9036908701610b15565b919092338652602096600660205260ff868820541615610619578382036105de5750855b818110610529578680f35b6001906001600160a01b0380610548610543848789610ce0565b610cf0565b168952828a5280888a2054161590816105b3575b8161059a575b5061056e575b0161051e565b61059561057f610543838688610ce0565b339061058f610543858a8c610ce0565b90610d30565b610568565b90506105aa61054383888a610ce0565b1615158a610562565b90506105c3610543838688610ce0565b81806105d3610543868b8d610ce0565b16911614159061055c565b606490602087519162461bcd60e51b83528201526015602482015274082e4e4c2f240d8cadccee8d040dad2e6dac2e8c6d605b1b6044820152fd5b606490602087519162461bcd60e51b835282015260156024820152742737ba1030baba3437b934bd32b2103134b73232b960591b6044820152fd5b8480fd5b8380fd5b505034610156578060031936011261015657610676610ab5565b6024356001600160a01b0381168103610658576106a360ff6106aa94338752600760205286205416610c94565b3391610d30565b80f35b5050346101565760203660031901126101565760209160ff9082906001600160a01b036106d8610ab5565b1681526006855220541690519015158152f35b919050346101e15760203660031901126101e157610707610ab5565b61070f610d04565b6001600160a01b031691821561075c575081835260066020528220805460ff191660011790557f84745608d795c9ec4837b1cda8651042584acc8c61a70fd23239b02c80413a608280a280f35b6020606492519162461bcd60e51b83528201526016602482015275496e76616c69642062696e646572206164647265737360501b6044820152fd5b505034610156576020366003190112610156576020906107bd6107b8610ab5565b610be9565b9051908152f35b83346102a457806003193601126102a4576107dd610d04565b80546001600160a01b03198116825581906001600160a01b03167f8be0079c531659141344cd1fd0a4f28419497f9722a3daafe3b4186f6b6457e08280a380f35b9050346101e15760203660031901126101e15760209260ff918391906001600160a01b0361084a610ab5565b168252855220541690519015158152f35b5050346101565760209060206003193601126101e1576001600160a01b039283610883610ab5565b16815260026020528181209382519081946020875493848152019684526020842093915b8383106108cd576108c987876108bf828c0383610b74565b5191829182610ad0565b0390f35b84548116885296810196600194850194909201916108a7565b505034610156576020366003190112610156576020916001600160a01b0390829082610910610ab5565b168152600185522054169051908152f35b505034610156576020366003190112610156576020916001600160a01b039082908261094b610ab5565b1681526001855220541615159051908152f35b50503461015657602036600319011261015657610979610ab5565b610981610d04565b6001600160a01b03168083526006602052908220805460ff191690557fae10edb9f70095bec7b9973f34cbdeb4d1996f2ea0a8ab9fe870f902d56b63558280a280f35b8284346102a457816003193601126102a457916109df610ab5565b602493602435946109ef86610bac565b956109fc86519788610b74565b808752610a0881610bac565b60209290601f190136898501376001600160a01b03948516845260016020819052878520549096859390918716885b610a49575b8951806108c98d82610ad0565b81851080610aaa575b15610aa5578a51851015610a935790878996959493921680868d8760051b0101528752858552610a87888b8920541694610bc4565b94959390919293610a37565b634e487b7160e01b8752603283528387fd5b610a3c565b508781161515610a52565b600435906001600160a01b0382168203610acb57565b600080fd5b602090602060408183019282815285518094520193019160005b828110610af8575050505090565b83516001600160a01b031685529381019392810192600101610aea565b9181601f84011215610acb5782359167ffffffffffffffff8311610acb576020808501948460051b010111610acb57565b8054821015610b5e5760005260206000200190600090565b634e487b7160e01b600052603260045260246000fd5b90601f8019910116810190811067ffffffffffffffff821117610b9657604052565b634e487b7160e01b600052604160045260246000fd5b67ffffffffffffffff8111610b965760051b60200190565b6000198114610bd35760010190565b634e487b7160e01b600052601160045260246000fd5b6001600160a01b031660009081526004602052604081205460ff1615610c91576005602052604081205480610c1c575090565b60018103610c2b575050600290565b600f8110610c3a575050601e90565b6000198101908111610c7d578060011b9080820460021490151715610c7d576002019081600211610c69575090565b634e487b7160e01b81526011600452602490fd5b634e487b7160e01b82526011600452602482fd5b90565b15610c9b57565b60405162461bcd60e51b815260206004820152601760248201527f4e6f7420617574686f72697a656420636f6e74726163740000000000000000006044820152606490fd5b9190811015610b5e5760051b0190565b356001600160a01b0381168103610acb5790565b6000546001600160a01b03163303610d1857565b60405163118cdaa760e01b8152336004820152602490fd5b60018060a01b038091169060009382855260016020818152604091848389205416610f6757848716968715610f3057868814610ef4578789528183528686858b20541614610ebb578582918a925b610e30575b50505085885280825282882080546001600160a01b031916881790558688526002825282882080549168010000000000000000831015610e1c57827f5b6dcb011725a9616ecced5408efb270f5e20477283b63e06c8b4eb0b4da42969796959492610df392600395018155610b46565b815490841b90878a831b921b1916179055878952528620610e148154610bc4565b9055169380a4565b634e487b7160e01b8a52604160045260248afd5b601e831080610eb0575b15610eab5716878114610e67579082918a52818452610e5e87868c20541691610bc4565b91908791610d7e565b845162461bcd60e51b815260048101859052601b60248201527f43697263756c6172207265666572656e636520646574656374656400000000006044820152606490fd5b610d83565b508181161515610e3a565b835162461bcd60e51b815260048101849052601260248201527143697263756c6172207265666572656e636560701b6044820152606490fd5b835162461bcd60e51b815260048101849052601560248201527421b0b73737ba103932b332b9103cb7bab939b2b63360591b6044820152606490fd5b835162461bcd60e51b815260048101849052601060248201526f24b73b30b634b2103932b332b93932b960811b6044820152606490fd5b50606491519062461bcd60e51b82526004820152600d60248201526c105b1c9958591e48189bdd5b99609a1b6044820152fdfea164736f6c6343000816000a",
  "devdoc": {
    "errors": {
      "OwnableInvalidOwner(address)": [
        {
          "details": "The owner is not a valid owner account. (eg. `address(0)`)"
        }
      ],
      "OwnableUnauthorizedAccount(address)": [
        {
          "details": "The caller account is not authorized to perform an operation."
        }
      ]
    },
    "kind": "dev",
    "methods": {
      "owner()": {
        "details": "Returns the address of the current owner."
      },
      "renounceOwnership()": {
        "details": "Leaves the contract without owner. It will not be possible to call `onlyOwner` functions. Can only be called by the current owner. NOTE: Renouncing ownership will leave the contract without an owner, thereby disabling any functionality that is only available to the owner."
      },
      "transferOwnership(address)": {
        "details": "Transfers ownership of the contract to a new account (`newOwner`). Can only be called by the current owner."
      }
    },
    "version": 1
  },
  "userdoc": {
    "kind": "user",
    "methods": {},
    "version": 1
  },
  "storageLayout": {
    "storage": [
      {
        "astId": 828,
        "contract": "contracts/PDAReferral.sol:PDAReferral",
        "label": "_owner",
        "offset": 0,
        "slot": "0",
        "type": "t_address"
      },
      {
        "astId": 4637,
        "contract": "contracts/PDAReferral.sol:PDAReferral",
        "label": "referrer",
        "offset": 0,
        "slot": "1",
        "type": "t_mapping(t_address,t_address)"
      },
      {
        "astId": 4642,
        "contract": "contracts/PDAReferral.sol:PDAReferral",
        "label": "referrals",
        "offset": 0,
        "slot": "2",
        "type": "t_mapping(t_address,t_array(t_address)dyn_storage)"
      },
      {
        "astId": 4646,
        "contract": "contracts/PDAReferral.sol:PDAReferral",
        "label": "referralCount",
        "offset": 0,
        "slot": "3",
        "type": "t_mapping(t_address,t_uint256)"
      },
      {
        "astId": 4650,
        "contract": "contracts/PDAReferral.sol:PDAReferral",
        "label": "isActiveUser",
        "offset": 0,
        "slot": "4",
        "type": "t_mapping(t_address,t_bool)"
      },
      {
        "astId": 4654,
        "contract": "contracts/PDAReferral.sol:PDAReferral",
        "label": "activeReferralCount",
        "offset": 0,
        "slot": "5",
        "type": "t_mapping(t_address,t_uint256)"
      },
      {
        "astId": 4658,
        "contract": "contracts/PDAReferral.sol:PDAReferral",
        "label": "authorizedBinders",
        "offset": 0,
        "slot": "6",
        "type": "t_mapping(t_address,t_bool)"
      },
      {
        "astId": 4662,
        "contract": "contracts/PDAReferral.sol:PDAReferral",
        "label": "authorizedContracts",
        "offset": 0,
        "slot": "7",
        "type": "t_mapping(t_address,t_bool)"
      }
    ],
    "types": {
      "t_address": {
        "encoding": "inplace",
        "label": "address",
        "numberOfBytes": "20"
      },
      "t_array(t_address)dyn_storage": {
        "base": "t_address",
        "encoding": "dynamic_array",
        "label": "address[]",
        "numberOfBytes": "32"
      },
      "t_bool": {
        "encoding": "inplace",
        "label": "bool",
        "numberOfBytes": "1"
      },
      "t_mapping(t_address,t_address)": {
        "encoding": "mapping",
        "key": "t_address",
        "label": "mapping(address => address)",
        "numberOfBytes": "32",
        "value": "t_address"
      },
      "t_mapping(t_address,t_array(t_address)dyn_storage)": {
        "encoding": "mapping",
        "key": "t_address",
        "label": "mapping(address => address[])",
        "numberOfBytes": "32",
        "value": "t_array(t_address)dyn_storage"
      },
      "t_mapping(t_address,t_bool)": {
        "encoding": "mapping",
        "key": "t_address",
        "label": "mapping(address => bool)",
        "numberOfBytes": "32",
        "value": "t_bool"
      },
      "t_mapping(t_address,t_uint256)": {
        "encoding": "mapping",
        "key": "t_address",
        "label": "mapping(address => uint256)",
        "numberOfBytes": "32",
        "value": "t_uint256"
      },
      "t_uint256": {
        "encoding": "inplace",
        "label": "uint256",
        "numberOfBytes": "32"
      }
    }
  }
}