{
  "address": "0x03B835C6a524Da60354130F199d99263841C853E",
  "abi": [
    {
      "inputs": [],
      "stateMutability": "nonpayable",
      "type": "constructor"
    },
    {
      "inputs": [
        {
          "internalType": "address",
          "name": "target",
          "type": "address"
        }
      ],
      "name": "AddressEmptyCode",
      "type": "error"
    },
    {
      "inputs": [
        {
          "internalType": "address",
          "name": "implementation",
          "type": "address"
        }
      ],
      "name": "ERC1967InvalidImplementation",
      "type": "error"
    },
    {
      "inputs": [],
      "name": "ERC1967NonPayable",
      "type": "error"
    },
    {
      "inputs": [],
      "name": "FailedCall",
      "type": "error"
    },
    {
      "inputs": [],
      "name": "InvalidInitialization",
      "type": "error"
    },
    {
      "inputs": [],
      "name": "NotInitializing",
      "type": "error"
    },
    {
      "inputs": [
        {
          "internalType": "address",
          "name": "owner",
          "type": "address"
        }
      ],
      "name": "OwnableInvalidOwner",
      "type": "error"
    },
    {
      "inputs": [
        {
          "internalType": "address",
          "name": "account",
          "type": "address"
        }
      ],
      "name": "OwnableUnauthorizedAccount",
      "type": "error"
    },
    {
      "inputs": [],
      "name": "ReentrancyGuardReentrantCall",
      "type": "error"
    },
    {
      "inputs": [],
      "name": "UUPSUnauthorizedCallContext",
      "type": "error"
    },
    {
      "inputs": [
        {
          "internalType": "bytes32",
          "name": "slot",
          "type": "bytes32"
        }
      ],
      "name": "UUPSUnsupportedProxiableUUID",
      "type": "error"
    },
    {
      "anonymous": false,
      "inputs": [
        {
          "indexed": true,
          "internalType": "address",
          "name": "user",
          "type": "address"
        },
        {
          "indexed": false,
          "internalType": "uint256",
          "name": "amount",
          "type": "uint256"
        },
        {
          "indexed": false,
          "internalType": "uint8",
          "name": "level",
          "type": "uint8"
        }
      ],
      "name": "CommissionPaid",
      "type": "event"
    },
    {
      "anonymous": false,
      "inputs": [
        {
          "indexed": true,
          "internalType": "address",
          "name": "user",
          "type": "address"
        },
        {
          "indexed": false,
          "internalType": "uint256",
          "name": "amount",
          "type": "uint256"
        },
        {
          "indexed": true,
          "internalType": "address",
          "name": "referrer",
          "type": "address"
        }
      ],
      "name": "Deposited",
      "type": "event"
    },
    {
      "anonymous": false,
      "inputs": [
        {
          "indexed": false,
          "internalType": "uint64",
          "name": "version",
          "type": "uint64"
        }
      ],
      "name": "Initialized",
      "type": "event"
    },
    {
      "anonymous": false,
      "inputs": [
        {
          "indexed": true,
          "internalType": "address",
          "name": "owner",
          "type": "address"
        },
        {
          "indexed": false,
          "internalType": "address",
          "name": "referral",
          "type": "address"
        },
        {
          "indexed": false,
          "internalType": "address",
          "name": "liquidityMgr",
          "type": "address"
        }
      ],
      "name": "Initialized",
      "type": "event"
    },
    {
      "anonymous": false,
      "inputs": [
        {
          "indexed": true,
          "internalType": "address",
          "name": "user",
          "type": "address"
        },
        {
          "indexed": false,
          "internalType": "uint256",
          "name": "usdtAmount",
          "type": "uint256"
        },
        {
          "indexed": false,
          "internalType": "uint256",
          "name": "lpAmount",
          "type": "uint256"
        }
      ],
      "name": "LiquidityAdded",
      "type": "event"
    },
    {
      "anonymous": false,
      "inputs": [
        {
          "indexed": true,
          "internalType": "address",
          "name": "previousOwner",
          "type": "address"
        },
        {
          "indexed": true,
          "internalType": "address",
          "name": "newOwner",
          "type": "address"
        }
      ],
      "name": "OwnershipTransferred",
      "type": "event"
    },
    {
      "anonymous": false,
      "inputs": [
        {
          "indexed": true,
          "internalType": "address",
          "name": "implementation",
          "type": "address"
        }
      ],
      "name": "Upgraded",
      "type": "event"
    },
    {
      "inputs": [],
      "name": "MAX_DEPOSIT",
      "outputs": [
        {
          "internalType": "uint256",
          "name": "",
          "type": "uint256"
        }
      ],
      "stateMutability": "view",
      "type": "function"
    },
    {
      "inputs": [],
      "name": "MIN_DEPOSIT",
      "outputs": [
        {
          "internalType": "uint256",
          "name": "",
          "type": "uint256"
        }
      ],
      "stateMutability": "view",
      "type": "function"
    },
    {
      "inputs": [],
      "name": "UPGRADE_INTERFACE_VERSION",
      "outputs": [
        {
          "internalType": "string",
          "name": "",
          "type": "string"
        }
      ],
      "stateMutability": "view",
      "type": "function"
    },
    {
      "inputs": [],
      "name": "USDT",
      "outputs": [
        {
          "internalType": "address",
          "name": "",
          "type": "address"
        }
      ],
      "stateMutability": "view",
      "type": "function"
    },
    {
      "inputs": [],
      "name": "commissionReceiver",
      "outputs": [
        {
          "internalType": "address",
          "name": "",
          "type": "address"
        }
      ],
      "stateMutability": "view",
      "type": "function"
    },
    {
      "inputs": [],
      "name": "dappAddress",
      "outputs": [
        {
          "internalType": "address",
          "name": "",
          "type": "address"
        }
      ],
      "stateMutability": "view",
      "type": "function"
    },
    {
      "inputs": [
        {
          "internalType": "uint256",
          "name": "amount",
          "type": "uint256"
        },
        {
          "internalType": "address",
          "name": "referrer",
          "type": "address"
        }
      ],
      "name": "deposit",
      "outputs": [],
      "stateMutability": "nonpayable",
      "type": "function"
    },
    {
      "inputs": [
        {
          "internalType": "address",
          "name": "",
          "type": "address"
        }
      ],
      "name": "depositCount",
      "outputs": [
        {
          "internalType": "uint256",
          "name": "",
          "type": "uint256"
        }
      ],
      "stateMutability": "view",
      "type": "function"
    },
    {
      "inputs": [
        {
          "internalType": "address",
          "name": "token",
          "type": "address"
        },
        {
          "internalType": "uint256",
          "name": "amount",
          "type": "uint256"
        }
      ],
      "name": "emergencyWithdraw",
      "outputs": [],
      "stateMutability": "nonpayable",
      "type": "function"
    },
    {
      "inputs": [
        {
          "internalType": "address",
          "name": "user",
          "type": "address"
        }
      ],
      "name": "getMaxLevel",
      "outputs": [
        {
          "internalType": "uint256",
          "name": "",
          "type": "uint256"
        }
      ],
      "stateMutability": "view",
      "type": "function"
    },
    {
      "inputs": [
        {
          "internalType": "address",
          "name": "user",
          "type": "address"
        }
      ],
      "name": "getReferrals",
      "outputs": [
        {
          "internalType": "address[]",
          "name": "",
          "type": "address[]"
        }
      ],
      "stateMutability": "view",
      "type": "function"
    },
    {
      "inputs": [
        {
          "internalType": "address",
          "name": "user",
          "type": "address"
        }
      ],
      "name": "getReferrer",
      "outputs": [
        {
          "internalType": "address",
          "name": "",
          "type": "address"
        }
      ],
      "stateMutability": "view",
      "type": "function"
    },
    {
      "inputs": [
        {
          "internalType": "address",
          "name": "_referralContract",
          "type": "address"
        },
        {
          "internalType": "address",
          "name": "_liquidityManager",
          "type": "address"
        },
        {
          "internalType": "address",
          "name": "_operationAddress",
          "type": "address"
        },
        {
          "internalType": "address",
          "name": "_dappAddress",
          "type": "address"
        },
        {
          "internalType": "address",
          "name": "_commissionReceiver",
          "type": "address"
        }
      ],
      "name": "initialize",
      "outputs": [],
      "stateMutability": "nonpayable",
      "type": "function"
    },
    {
      "inputs": [],
      "name": "liquidityManager",
      "outputs": [
        {
          "internalType": "contract IPDALiquidityManager",
          "name": "",
          "type": "address"
        }
      ],
      "stateMutability": "view",
      "type": "function"
    },
    {
      "inputs": [],
      "name": "operationAddress",
      "outputs": [
        {
          "internalType": "address",
          "name": "",
          "type": "address"
        }
      ],
      "stateMutability": "view",
      "type": "function"
    },
    {
      "inputs": [],
      "name": "owner",
      "outputs": [
        {
          "internalType": "address",
          "name": "",
          "type": "address"
        }
      ],
      "stateMutability": "view",
      "type": "function"
    },
    {
      "inputs": [],
      "name": "proxiableUUID",
      "outputs": [
        {
          "internalType": "bytes32",
          "name": "",
          "type": "bytes32"
        }
      ],
      "stateMutability": "view",
      "type": "function"
    },
    {
      "inputs": [],
      "name": "referralContract",
      "outputs": [
        {
          "internalType": "contract IPDAReferral",
          "name": "",
          "type": "address"
        }
      ],
      "stateMutability": "view",
      "type": "function"
    },
    {
      "inputs": [],
      "name": "renounceOwnership",
      "outputs": [],
      "stateMutability": "nonpayable",
      "type": "function"
    },
    {
      "inputs": [
        {
          "internalType": "address",
          "name": "_commissionReceiver",
          "type": "address"
        }
      ],
      "name": "setCommissionReceiver",
      "outputs": [],
      "stateMutability": "nonpayable",
      "type": "function"
    },
    {
      "inputs": [
        {
          "internalType": "address",
          "name": "_dappAddress",
          "type": "address"
        }
      ],
      "name": "setDappAddress",
      "outputs": [],
      "stateMutability": "nonpayable",
      "type": "function"
    },
    {
      "inputs": [
        {
          "internalType": "address",
          "name": "_liquidityManager",
          "type": "address"
        }
      ],
      "name": "setLiquidityManager",
      "outputs": [],
      "stateMutability": "nonpayable",
      "type": "function"
    },
    {
      "inputs": [
        {
          "internalType": "address",
          "name": "_operationAddress",
          "type": "address"
        }
      ],
      "name": "setOperationAddress",
      "outputs": [],
      "stateMutability": "nonpayable",
      "type": "function"
    },
    {
      "inputs": [
        {
          "internalType": "address",
          "name": "",
          "type": "address"
        }
      ],
      "name": "totalDeposited",
      "outputs": [
        {
          "internalType": "uint256",
          "name": "",
          "type": "uint256"
        }
      ],
      "stateMutability": "view",
      "type": "function"
    },
    {
      "inputs": [
        {
          "internalType": "address",
          "name": "newOwner",
          "type": "address"
        }
      ],
      "name": "transferOwnership",
      "outputs": [],
      "stateMutability": "nonpayable",
      "type": "function"
    },
    {
      "inputs": [
        {
          "internalType": "address",
          "name": "newImplementation",
          "type": "address"
        },
        {
          "internalType": "bytes",
          "name": "data",
          "type": "bytes"
        }
      ],
      "name": "upgradeToAndCall",
      "outputs": [],
      "stateMutability": "payable",
      "type": "function"
    }
  ],
  "transactionHash": "0x5e24519254cd356ebf416e17fa9f5d7c6abaf6a2448e52a2f8d9ecfcb567de99",
  "numDeployments": 1,
  "bytecode": "0x60a080604052346100cc57306080527ff0c57e16840df040f15088dc2f81fe391c3923bec73e23a9662efc9c229c6a009081549060ff8260401c166100bd57506001600160401b036002600160401b031982821601610078575b604051611efd90816100d282396080518181816112c901526113af0152f35b6001600160401b031990911681179091556040519081527fc7f505b2f371ae2175ee4913f4499e1f2633a7b5936321eed1cdaeb6115181d290602090a1388080610059565b63f92ee8a960e01b8152600490fd5b600080fdfe608080604052600436101561001357600080fd5b600090813560e01c9081631459457a146118b8575080631a721b7b1461188f57806333827438146118665780633c1624d4146117d057806341a0894d1461167757806348aa44dd1461162b5780634a9fefc71461158f5780634f1ef2861461133357806352d1902d146112b6578063530554811461127d5780636e553f6514610601578063715018a61461059657806375d20f3b146104fa5780637dad19db146104d35780638da5cb5b1461049d57806395ccea67146103ae578063a441c30214610385578063a576cf9d14610339578063ad3cb1cc14610293578063c54e44eb14610264578063d53ce95614610218578063dd5967c3146101f4578063e1e158a5146101d0578063f2fde38b146101a3578063f4443d9a1461016a5763f92aa57f1461013f57600080fd5b346101675780600319360112610167576004546040516001600160a01b039091168152602090f35b80fd5b5034610167576020366003190112610167576020906040906001600160a01b03610192611b9c565b168152600683522054604051908152f35b5034610167576020366003190112610167576101cd6101c0611b9c565b6101c8611dd3565b611d5f565b80f35b5034610167578060031936011261016757602060405168056bc75e2d631000008152f35b50346101675780600319360112610167576020604051683635c9adc5dea000008152f35b503461016757602036600319011261016757610232611b9c565b61023a611dd3565b6001600160a01b031661024e811515611c1a565b6001600160601b0360a01b600254161760025580f35b503461016757806003193601126101675760206040517355d398326f99059ff775485246999027b31979558152f35b50346101675780600319360112610167576040516040810181811067ffffffffffffffff8211176103235760405260058152602091640352e302e360dc1b602083015260405192839160208352835191826020850152815b83811061030c57505060408094508284010152601f80199101168101030190f35b8086018201518782016040015286945081016102eb565b634e487b7160e01b600052604160045260246000fd5b503461016757602036600319011261016757610353611b9c565b61035b611dd3565b6001600160a01b031661036f811515611ca9565b6001600160601b0360a01b600454161760045580f35b50346101675780600319360112610167576002546040516001600160a01b039091168152602090f35b5034610167576040366003190112610167576103c8611b9c565b6103d0611dd3565b600080516020611eb18339815191525460405163a9059cbb60e01b81526001600160a01b039182166004820152602480359082015291602091839160449183918791165af1908115610492578291610463575b501561042c5780f35b60405162461bcd60e51b815260206004820152600f60248201526e151c985b9cd9995c8819985a5b1959608a1b6044820152606490fd5b610485915060203d60201161048b575b61047d8183611bdc565b810190611d15565b38610423565b503d610473565b6040513d84823e3d90fd5b5034610167578060031936011261016757600080516020611eb1833981519152546040516001600160a01b039091168152602090f35b5034610167578060031936011261016757546040516001600160a01b039091168152602090f35b5034610167576020908160031936011261016757610516611b9c565b81546040516375d20f3b60e01b81526001600160a01b03928316600482015291849183916024918391165afa91821561058a5791610558575b50604051908152f35b90508181813d8311610583575b61056f8183611bdc565b8101031261057e57513861054f565b600080fd5b503d610565565b604051903d90823e3d90fd5b50346101675780600319360112610167576105af611dd3565b600080516020611eb183398151915280546001600160a01b031981169091556000906001600160a01b03167f8be0079c531659141344cd1fd0a4f28419497f9722a3daafe3b4186f6b6457e08280a380f35b50346101675760403660031901126101675761061b611bb2565b6002600080516020611ed1833981519152541461126b576002600080516020611ed18339815191525568056bc75e2d63100000600435101580611256575b15611218578154604051630308a59b60e31b81523360048201526001600160a01b0390911690602081602481855afa908115610f2c5784916111f9575b501561114f575b50506040516323b872dd60e01b81523360048201523060248201526004356044820152602081606481857355d398326f99059ff775485246999027b31979555af1908115610492578291611130575b50156110f457805481906001600160a01b0316803b156110f157818091602460405180948193632d2b3f8760e21b83523360048401525af18015610492576110dd575b505033815260056020526040812061074a6004358254611d2d565b90553381526006602052604081206107628154611d50565b90558060043560196004350204601914600435151715610ac257815460405163167801e160e11b815233600482015290602090829060249082906001600160a01b03165afa908115610a9857839161109f575b506001600160a01b038116610cc9575b506064601960043502048110610ba9575b506005600435026004358104600514600435151715610ac25760025460405163a9059cbb60e01b8082526001600160a01b0390921660048201526064909204602483015290602081604481867355d398326f99059ff775485246999027b31979555af1908115610a98578391610b8a575b5015610b4557600a60043502906004358204600a14600435151715610b31576003546040519182526001600160a01b0316600482015260649091046024820152602081604481857355d398326f99059ff775485246999027b31979555af1908115610492578291610b12575b5015610ad657603c600435026004358104603c14600435151715610ac25760015460405163095ea7b360e01b81526001600160a01b03909116600482015260649091046024820181905290602081604481867355d398326f99059ff775485246999027b31979555af18015610a9857610aa3575b5060015460405163324741e760e21b815233600482015260248101839052906020908290604490829087906001600160a01b03165af1908115610a98578391610a66575b5060405191825260208201527fac1d76749e5447b7b16f5ab61447e1bd502f3bb4807af3b28e620d1700a6ee4560403392a2805460405163167801e160e11b815233600482015290602090829060249082906001600160a01b03165afa908115610492578291610a28575b5060405160043581526001600160a01b039091169033907fb4e1304f97b5093610f51b33ddab6622388422e2dac138b0d32f93dcfbd39edf90602090a36001600080516020611ed18339815191525580f35b90506020813d602011610a5e575b81610a4360209383611bdc565b81010312610a5a57610a5490611d01565b386109d6565b5080fd5b3d9150610a36565b90506020813d602011610a90575b81610a8160209383611bdc565b8101031261057e57513861096b565b3d9150610a74565b6040513d85823e3d90fd5b610abb9060203d60201161048b5761047d8183611bdc565b5038610927565b634e487b7160e01b82526011600452602482fd5b60405162461bcd60e51b815260206004820152601460248201527311185c1c081d1c985b9cd9995c8819985a5b195960621b6044820152606490fd5b610b2b915060203d60201161048b5761047d8183611bdc565b386108b3565b634e487b7160e01b83526011600452602483fd5b60405162461bcd60e51b815260206004820152601960248201527f4f7065726174696f6e207472616e73666572206661696c6564000000000000006044820152606490fd5b610ba3915060203d60201161048b5761047d8183611bdc565b38610847565b606460043560190204908103908111610ac2576004805460405163a9059cbb60e01b81526001600160a01b039091169181019190915260248101829052602081604481867355d398326f99059ff775485246999027b31979555af1908115610a98578391610caa575b5015610c59577f4b84cdc8f2d1b9b6be433a7d5adaf3f8a237fb2dc7dfde0233244fdef1673ca0604060018060a01b0360045416928151908152846020820152a2386107d6565b60405162461bcd60e51b8152602060048201526024808201527f52656d61696e696e6720636f6d6d697373696f6e207472616e736665722066616044820152631a5b195960e21b6064820152608490fd5b610cc3915060203d60201161048b5761047d8183611bdc565b38610c12565b916001925b601e841115808061108d575b15611083578254604051631080b48560e21b81526001600160a01b03848116600483015290911690602081602481855afa908115611078578591611059575b50610da7575b5050815460405163167801e160e11b81526001600160a01b0392831660048201529160209183916024918391165afa8015610492578290610d6c575b610d66915093611d50565b92610cce565b506020813d602011610d9f575b81610d8660209383611bdc565b81010312610a5a57610d9a610d6691611d01565b610d5b565b3d9150610d79565b6040516375d20f3b60e01b81526001600160a01b038416600482015290602090829060249082905afa908115610f2c578491611027575b50851115610ded575b80610d1f565b829060018603610f3757505060043560043560021b04600414600435151715610ac257606460043560021b045b8015610de75760405163a9059cbb60e01b81526001600160a01b038316600482015260248101829052909390602081604481877355d398326f99059ff775485246999027b31979555af1908115610f2c578491610f0d575b5015610ec85783610e8291611d2d565b6040805194855260ff8616602086015290936001600160a01b038316917f4b84cdc8f2d1b9b6be433a7d5adaf3f8a237fb2dc7dfde0233244fdef1673ca091a238610de7565b60405162461bcd60e51b815260206004820152601a60248201527f436f6d6d697373696f6e207472616e73666572206661696c65640000000000006044820152606490fd5b610f26915060203d60201161048b5761047d8183611bdc565b38610e72565b6040513d86823e3d90fd5b60028603610f6757505060043560043560011b04600214600435151715610ac257606460043560011b045b610e1a565b60038610158061101c575b15610f9857505060043560043504600114600435151715610ac257606460043504610e1a565b600b86101580611011575b15610fd057505060043560066004350204600614600435151715610ac2576103e860066004350204610e1a565b60158610159081611009575b5015610f62575060043560056004350204600514600435151715610ac2576103e860056004350204610e1a565b905038610fdc565b506014861115610fa3565b50600a861115610f72565b90506020813d602011611051575b8161104260209383611bdc565b8101031261057e575138610dde565b3d9150611035565b611072915060203d60201161048b5761047d8183611bdc565b38610d19565b6040513d87823e3d90fd5b50509150386107c5565b506001600160a01b0382161515610cda565b90506020813d6020116110d5575b816110ba60209383611bdc565b810103126110d1576110cb90611d01565b386107b5565b8280fd5b3d91506110ad565b6110e690611bc8565b61016757803861072f565b50fd5b60405162461bcd60e51b81526020600482015260146024820152731554d115081d1c985b9cd9995c8819985a5b195960621b6044820152606490fd5b611149915060203d60201161048b5761047d8183611bdc565b386106ec565b6001600160a01b038216156111bc578291813b156111b857604051637e540b2b60e01b81523360048201526001600160a01b0391909116602482015291908290604490829084905af18015610492576111a9575b8061069d565b6111b290611bc8565b386111a3565b5050fd5b60405162461bcd60e51b815260206004820152601560248201527426bab9ba10383937bb34b232903932b332b93932b960591b6044820152606490fd5b611212915060203d60201161048b5761047d8183611bdc565b38610696565b60405162461bcd60e51b8152602060048201526016602482015275125b9d985b1a590819195c1bdcda5d08185b5bdd5b9d60521b6044820152606490fd5b50683635c9adc5dea000006004351115610659565b604051633ee5aeb560e01b8152600490fd5b5034610167576020366003190112610167576020906040906001600160a01b036112a5611b9c565b168152600583522054604051908152f35b50346101675780600319360112610167577f00000000000000000000000000000000000000000000000000000000000000006001600160a01b031630036113215760206040517f360894a13ba1a3210667c828492db98dca3e2076cc3735a920a3ca505d382bbc8152f35b60405163703e46dd60e11b8152600490fd5b50604036600319011261016757611348611b9c565b602491823567ffffffffffffffff8111610a5a5736602382011215610a5a57806004013561137581611bfe565b936113836040519586611bdc565b818552602091828601933688838301011161158b57818692898693018737870101526001600160a01b037f0000000000000000000000000000000000000000000000000000000000000000811630811490811561155d575b50611321576113e8611dd3565b8116946040516352d1902d60e01b815283816004818a5afa86918161152a575b5061142557604051634c9c8ce360e01b8152600481018890528890fd5b8690887f360894a13ba1a3210667c828492db98dca3e2076cc3735a920a3ca505d382bbc918281036115155750843b156114ff575080546001600160a01b031916821790556040518692917fbc7cd75a20ee27fd9adebab32041f755214dbc6bffa90cc0225b39da2e5c2d3b8480a28151156114e157506114d49482915190845af4903d156114d8573d6114b881611bfe565b906114c66040519283611bdc565b81528581943d92013e611e4d565b5080f35b60609250611e4d565b945050505050346114f0575080f35b63b398979f60e01b8152600490fd5b604051634c9c8ce360e01b815260048101849052fd5b60405190632a87526960e21b82526004820152fd5b9091508481813d8311611556575b6115428183611bdc565b8101031261155257519038611408565b8680fd5b503d611538565b9050817f360894a13ba1a3210667c828492db98dca3e2076cc3735a920a3ca505d382bbc54161415386113db565b8580fd5b50346101675760209081600319360112610167576115ab611b9c565b815460405163167801e160e11b81526001600160a01b0392831660048201529084908290602490829086165afa92831561058a5780936115f1575b505060405191168152f35b909192508382813d8311611624575b61160a8183611bdc565b81010312610167575061161c90611d01565b9038806115e6565b503d611600565b503461016757602036600319011261016757611645611b9c565b61164d611dd3565b6001600160a01b0316611661811515611c66565b6001600160601b0360a01b600354161760035580f35b503461016757602080600319360112610a5a57611692611b9c565b82546040516341a0894d60e01b81526001600160a01b03928316600482015291939081908390602490829088165afa9182156117c357819261170c575b506040519280840190808552835180925280604086019401925b8281106116f65785850386f35b83518716855293810193928101926001016116e9565b9091503d8083833e61171e8183611bdc565b810183828203126110d157815167ffffffffffffffff928382116117a7570181601f820112156117bf5780519283116117ab578260051b906040519361176687840186611bdc565b845285808501928201019283116117a75785809101915b83831061178f575050505090386116cf565b819061179a84611d01565b815201910190859061177d565b8480fd5b634e487b7160e01b84526041600452602484fd5b8380fd5b50604051903d90823e3d90fd5b5034610167576020366003190112610167576117ea611b9c565b6117f2611dd3565b6001600160a01b03168015611817576001600160601b0360a01b600154161760015580f35b60405162461bcd60e51b815260206004820152602160248201527f496e76616c6964206c6971756964697479206d616e61676572206164647265736044820152607360f81b6064820152608490fd5b50346101675780600319360112610167576001546040516001600160a01b039091168152602090f35b50346101675780600319360112610167576003546040516001600160a01b039091168152602090f35b905034610a5a5760a0366003190112610a5a576118d3611b9c565b6118db611bb2565b906001600160a01b03906044358281169081900361158b576064358381168091036115525760843594848616809603611b98577ff0c57e16840df040f15088dc2f81fe391c3923bec73e23a9662efc9c229c6a009586549560ff8760401c16159667ffffffffffffffff8116998a1580611b91575b6001809c149081611b87575b159081611b7e575b50611b6f575067ffffffffffffffff1981168a17895587611b50575b50808616908115611b0b578316938415611ac65785611a79958c936119c77fad307780531f6353137c35adc50ad58d71b76e76aa891e729387f2e720f2de20991515611c1a565b6119d2841515611c66565b6119dd861515611ca9565b6119e5611e0c565b6119ed611e0c565b6119f633611d5f565b6119fe611e0c565b611a06611e0c565b611a0e611e0c565b8c600080516020611ed1833981519152556001600160601b0360a01b80955416178d55838c5416178b55826002541617600255816003541617600355600454161760045560405191829133958390602090939293604083019460018060a01b03809216845216910152565b0390a2611a84578280f35b805468ff0000000000000000191690556040519081527fc7f505b2f371ae2175ee4913f4499e1f2633a7b5936321eed1cdaeb6115181d290602090a138808280f35b60405162461bcd60e51b815260206004820152601960248201527f496e76616c6964206c6971756964697479206d616e61676572000000000000006044820152606490fd5b60405162461bcd60e51b815260206004820152601960248201527f496e76616c696420726566657272616c20636f6e7472616374000000000000006044820152606490fd5b68ffffffffffffffffff19166801000000000000000117885538611980565b63f92ee8a960e01b8152600490fd5b90501538611964565b303b15915061195c565b5088611950565b8780fd5b600435906001600160a01b038216820361057e57565b602435906001600160a01b038216820361057e57565b67ffffffffffffffff811161032357604052565b90601f8019910116810190811067ffffffffffffffff82111761032357604052565b67ffffffffffffffff811161032357601f01601f191660200190565b15611c2157565b60405162461bcd60e51b815260206004820152601960248201527f496e76616c6964206f7065726174696f6e2061646472657373000000000000006044820152606490fd5b15611c6d57565b60405162461bcd60e51b8152602060048201526014602482015273496e76616c69642064617070206164647265737360601b6044820152606490fd5b15611cb057565b60405162461bcd60e51b815260206004820152602360248201527f496e76616c696420636f6d6d697373696f6e207265636569766572206164647260448201526265737360e81b6064820152608490fd5b51906001600160a01b038216820361057e57565b9081602091031261057e5751801515810361057e5790565b91908201809211611d3a57565b634e487b7160e01b600052601160045260246000fd5b6000198114611d3a5760010190565b6001600160a01b03908116908115611dba57600080516020611eb183398151915280546001600160a01b031981168417909155167f8be0079c531659141344cd1fd0a4f28419497f9722a3daafe3b4186f6b6457e0600080a3565b604051631e4fbdf760e01b815260006004820152602490fd5b600080516020611eb1833981519152546001600160a01b03163303611df457565b60405163118cdaa760e01b8152336004820152602490fd5b60ff7ff0c57e16840df040f15088dc2f81fe391c3923bec73e23a9662efc9c229c6a005460401c1615611e3b57565b604051631afcd79f60e31b8152600490fd5b90611e745750805115611e6257602081519101fd5b60405163d6bda27560e01b8152600490fd5b81511580611ea7575b611e85575090565b604051639996b31560e01b81526001600160a01b039091166004820152602490fd5b50803b15611e7d56fe9016d09d72d40fdae2fd8ceac6b6234c7706214fd39c1cd1e609a0528c1993009b779b17422d0df92223018b32b4d1fa46e071723d6817e2486d003becc55f00a164736f6c6343000816000a",
  "implementation": "0x030309f073ac45B78F45c2be8246902f0F6866d7"
}