{
  "address": "0xc814F7D6D3796cad1511895E70249a356f1FB3D3",
  "abi": [
    {
      "inputs": [],
      "stateMutability": "nonpayable",
      "type": "constructor"
    },
    {
      "inputs": [
        {
          "internalType": "address",
          "name": "target",
          "type": "address"
        }
      ],
      "name": "AddressEmptyCode",
      "type": "error"
    },
    {
      "inputs": [
        {
          "internalType": "address",
          "name": "implementation",
          "type": "address"
        }
      ],
      "name": "ERC1967InvalidImplementation",
      "type": "error"
    },
    {
      "inputs": [],
      "name": "ERC1967NonPayable",
      "type": "error"
    },
    {
      "inputs": [],
      "name": "FailedCall",
      "type": "error"
    },
    {
      "inputs": [],
      "name": "InvalidInitialization",
      "type": "error"
    },
    {
      "inputs": [],
      "name": "NotInitializing",
      "type": "error"
    },
    {
      "inputs": [
        {
          "internalType": "address",
          "name": "owner",
          "type": "address"
        }
      ],
      "name": "OwnableInvalidOwner",
      "type": "error"
    },
    {
      "inputs": [
        {
          "internalType": "address",
          "name": "account",
          "type": "address"
        }
      ],
      "name": "OwnableUnauthorizedAccount",
      "type": "error"
    },
    {
      "inputs": [],
      "name": "ReentrancyGuardReentrantCall",
      "type": "error"
    },
    {
      "inputs": [],
      "name": "UUPSUnauthorizedCallContext",
      "type": "error"
    },
    {
      "inputs": [
        {
          "internalType": "bytes32",
          "name": "slot",
          "type": "bytes32"
        }
      ],
      "name": "UUPSUnsupportedProxiableUUID",
      "type": "error"
    },
    {
      "anonymous": false,
      "inputs": [
        {
          "indexed": true,
          "internalType": "address",
          "name": "user",
          "type": "address"
        },
        {
          "indexed": false,
          "internalType": "uint256",
          "name": "amount",
          "type": "uint256"
        },
        {
          "indexed": false,
          "internalType": "uint8",
          "name": "level",
          "type": "uint8"
        }
      ],
      "name": "CommissionPaid",
      "type": "event"
    },
    {
      "anonymous": false,
      "inputs": [
        {
          "indexed": true,
          "internalType": "address",
          "name": "user",
          "type": "address"
        },
        {
          "indexed": false,
          "internalType": "uint256",
          "name": "amount",
          "type": "uint256"
        },
        {
          "indexed": true,
          "internalType": "address",
          "name": "referrer",
          "type": "address"
        }
      ],
      "name": "Deposited",
      "type": "event"
    },
    {
      "anonymous": false,
      "inputs": [
        {
          "indexed": false,
          "internalType": "uint64",
          "name": "version",
          "type": "uint64"
        }
      ],
      "name": "Initialized",
      "type": "event"
    },
    {
      "anonymous": false,
      "inputs": [
        {
          "indexed": true,
          "internalType": "address",
          "name": "owner",
          "type": "address"
        },
        {
          "indexed": false,
          "internalType": "address",
          "name": "referral",
          "type": "address"
        },
        {
          "indexed": false,
          "internalType": "address",
          "name": "liquidityMgr",
          "type": "address"
        }
      ],
      "name": "Initialized",
      "type": "event"
    },
    {
      "anonymous": false,
      "inputs": [
        {
          "indexed": true,
          "internalType": "address",
          "name": "user",
          "type": "address"
        },
        {
          "indexed": false,
          "internalType": "uint256",
          "name": "usdtAmount",
          "type": "uint256"
        },
        {
          "indexed": false,
          "internalType": "uint256",
          "name": "lpAmount",
          "type": "uint256"
        }
      ],
      "name": "LiquidityAdded",
      "type": "event"
    },
    {
      "anonymous": false,
      "inputs": [
        {
          "indexed": true,
          "internalType": "address",
          "name": "previousOwner",
          "type": "address"
        },
        {
          "indexed": true,
          "internalType": "address",
          "name": "newOwner",
          "type": "address"
        }
      ],
      "name": "OwnershipTransferred",
      "type": "event"
    },
    {
      "anonymous": false,
      "inputs": [
        {
          "indexed": true,
          "internalType": "address",
          "name": "implementation",
          "type": "address"
        }
      ],
      "name": "Upgraded",
      "type": "event"
    },
    {
      "inputs": [],
      "name": "MAX_DEPOSIT",
      "outputs": [
        {
          "internalType": "uint256",
          "name": "",
          "type": "uint256"
        }
      ],
      "stateMutability": "view",
      "type": "function"
    },
    {
      "inputs": [],
      "name": "MIN_DEPOSIT",
      "outputs": [
        {
          "internalType": "uint256",
          "name": "",
          "type": "uint256"
        }
      ],
      "stateMutability": "view",
      "type": "function"
    },
    {
      "inputs": [],
      "name": "UPGRADE_INTERFACE_VERSION",
      "outputs": [
        {
          "internalType": "string",
          "name": "",
          "type": "string"
        }
      ],
      "stateMutability": "view",
      "type": "function"
    },
    {
      "inputs": [],
      "name": "USDT",
      "outputs": [
        {
          "internalType": "address",
          "name": "",
          "type": "address"
        }
      ],
      "stateMutability": "view",
      "type": "function"
    },
    {
      "inputs": [],
      "name": "commissionReceiver",
      "outputs": [
        {
          "internalType": "address",
          "name": "",
          "type": "address"
        }
      ],
      "stateMutability": "view",
      "type": "function"
    },
    {
      "inputs": [],
      "name": "dappAddress",
      "outputs": [
        {
          "internalType": "address",
          "name": "",
          "type": "address"
        }
      ],
      "stateMutability": "view",
      "type": "function"
    },
    {
      "inputs": [
        {
          "internalType": "uint256",
          "name": "amount",
          "type": "uint256"
        },
        {
          "internalType": "address",
          "name": "referrer",
          "type": "address"
        }
      ],
      "name": "deposit",
      "outputs": [],
      "stateMutability": "nonpayable",
      "type": "function"
    },
    {
      "inputs": [
        {
          "internalType": "address",
          "name": "",
          "type": "address"
        }
      ],
      "name": "depositCount",
      "outputs": [
        {
          "internalType": "uint256",
          "name": "",
          "type": "uint256"
        }
      ],
      "stateMutability": "view",
      "type": "function"
    },
    {
      "inputs": [
        {
          "internalType": "address",
          "name": "token",
          "type": "address"
        },
        {
          "internalType": "uint256",
          "name": "amount",
          "type": "uint256"
        }
      ],
      "name": "emergencyWithdraw",
      "outputs": [],
      "stateMutability": "nonpayable",
      "type": "function"
    },
    {
      "inputs": [
        {
          "internalType": "address",
          "name": "user",
          "type": "address"
        }
      ],
      "name": "getMaxLevel",
      "outputs": [
        {
          "internalType": "uint256",
          "name": "",
          "type": "uint256"
        }
      ],
      "stateMutability": "view",
      "type": "function"
    },
    {
      "inputs": [
        {
          "internalType": "address",
          "name": "user",
          "type": "address"
        }
      ],
      "name": "getReferrals",
      "outputs": [
        {
          "internalType": "address[]",
          "name": "",
          "type": "address[]"
        }
      ],
      "stateMutability": "view",
      "type": "function"
    },
    {
      "inputs": [
        {
          "internalType": "address",
          "name": "user",
          "type": "address"
        }
      ],
      "name": "getReferrer",
      "outputs": [
        {
          "internalType": "address",
          "name": "",
          "type": "address"
        }
      ],
      "stateMutability": "view",
      "type": "function"
    },
    {
      "inputs": [
        {
          "internalType": "address",
          "name": "_referralContract",
          "type": "address"
        },
        {
          "internalType": "address",
          "name": "_liquidityManager",
          "type": "address"
        },
        {
          "internalType": "address",
          "name": "_operationAddress",
          "type": "address"
        },
        {
          "internalType": "address",
          "name": "_dappAddress",
          "type": "address"
        },
        {
          "internalType": "address",
          "name": "_commissionReceiver",
          "type": "address"
        }
      ],
      "name": "initialize",
      "outputs": [],
      "stateMutability": "nonpayable",
      "type": "function"
    },
    {
      "inputs": [],
      "name": "liquidityManager",
      "outputs": [
        {
          "internalType": "contract IPDALiquidityManager",
          "name": "",
          "type": "address"
        }
      ],
      "stateMutability": "view",
      "type": "function"
    },
    {
      "inputs": [],
      "name": "operationAddress",
      "outputs": [
        {
          "internalType": "address",
          "name": "",
          "type": "address"
        }
      ],
      "stateMutability": "view",
      "type": "function"
    },
    {
      "inputs": [],
      "name": "owner",
      "outputs": [
        {
          "internalType": "address",
          "name": "",
          "type": "address"
        }
      ],
      "stateMutability": "view",
      "type": "function"
    },
    {
      "inputs": [],
      "name": "proxiableUUID",
      "outputs": [
        {
          "internalType": "bytes32",
          "name": "",
          "type": "bytes32"
        }
      ],
      "stateMutability": "view",
      "type": "function"
    },
    {
      "inputs": [],
      "name": "referralContract",
      "outputs": [
        {
          "internalType": "contract IPDAReferral",
          "name": "",
          "type": "address"
        }
      ],
      "stateMutability": "view",
      "type": "function"
    },
    {
      "inputs": [],
      "name": "renounceOwnership",
      "outputs": [],
      "stateMutability": "nonpayable",
      "type": "function"
    },
    {
      "inputs": [
        {
          "internalType": "address",
          "name": "_commissionReceiver",
          "type": "address"
        }
      ],
      "name": "setCommissionReceiver",
      "outputs": [],
      "stateMutability": "nonpayable",
      "type": "function"
    },
    {
      "inputs": [
        {
          "internalType": "address",
          "name": "_dappAddress",
          "type": "address"
        }
      ],
      "name": "setDappAddress",
      "outputs": [],
      "stateMutability": "nonpayable",
      "type": "function"
    },
    {
      "inputs": [
        {
          "internalType": "address",
          "name": "_liquidityManager",
          "type": "address"
        }
      ],
      "name": "setLiquidityManager",
      "outputs": [],
      "stateMutability": "nonpayable",
      "type": "function"
    },
    {
      "inputs": [
        {
          "internalType": "address",
          "name": "_operationAddress",
          "type": "address"
        }
      ],
      "name": "setOperationAddress",
      "outputs": [],
      "stateMutability": "nonpayable",
      "type": "function"
    },
    {
      "inputs": [
        {
          "internalType": "address",
          "name": "",
          "type": "address"
        }
      ],
      "name": "totalDeposited",
      "outputs": [
        {
          "internalType": "uint256",
          "name": "",
          "type": "uint256"
        }
      ],
      "stateMutability": "view",
      "type": "function"
    },
    {
      "inputs": [
        {
          "internalType": "address",
          "name": "newOwner",
          "type": "address"
        }
      ],
      "name": "transferOwnership",
      "outputs": [],
      "stateMutability": "nonpayable",
      "type": "function"
    },
    {
      "inputs": [
        {
          "internalType": "address",
          "name": "newImplementation",
          "type": "address"
        },
        {
          "internalType": "bytes",
          "name": "data",
          "type": "bytes"
        }
      ],
      "name": "upgradeToAndCall",
      "outputs": [],
      "stateMutability": "payable",
      "type": "function"
    }
  ],
  "transactionHash": "0xb48cd6d386031b2de7515493e53d6d875aeb7799dcb4040ea664afe8c3632289",
  "numDeployments": 1,
  "bytecode": "0x60a080604052346100cc57306080527ff0c57e16840df040f15088dc2f81fe391c3923bec73e23a9662efc9c229c6a009081549060ff8260401c166100bd57506001600160401b036002600160401b031982821601610078575b604051611ef790816100d282396080518181816112c301526113a90152f35b6001600160401b031990911681179091556040519081527fc7f505b2f371ae2175ee4913f4499e1f2633a7b5936321eed1cdaeb6115181d290602090a1388080610059565b63f92ee8a960e01b8152600490fd5b600080fdfe608080604052600436101561001357600080fd5b600090813560e01c9081631459457a146118b2575080631a721b7b1461188957806333827438146118605780633c1624d4146117ca57806341a0894d1461167157806348aa44dd146116255780634a9fefc7146115895780634f1ef2861461132d57806352d1902d146112b057806353055481146112775780636e553f65146105fe578063715018a61461059357806375d20f3b146104f75780637dad19db146104d05780638da5cb5b1461049a57806395ccea67146103ab578063a441c30214610382578063a576cf9d14610336578063ad3cb1cc14610290578063c54e44eb14610261578063d53ce95614610215578063dd5967c3146101f2578063e1e158a5146101d0578063f2fde38b146101a3578063f4443d9a1461016a5763f92aa57f1461013f57600080fd5b346101675780600319360112610167576004546040516001600160a01b039091168152602090f35b80fd5b5034610167576020366003190112610167576020906040906001600160a01b03610192611b96565b168152600683522054604051908152f35b5034610167576020366003190112610167576101cd6101c0611b96565b6101c8611dcd565b611d59565b80f35b50346101675780600319360112610167576020604051662386f26fc100008152f35b5034610167578060031936011261016757602060405167016345785d8a00008152f35b50346101675760203660031901126101675761022f611b96565b610237611dcd565b6001600160a01b031661024b811515611c14565b6001600160601b0360a01b600254161760025580f35b503461016757806003193601126101675760206040517355d398326f99059ff775485246999027b31979558152f35b50346101675780600319360112610167576040516040810181811067ffffffffffffffff8211176103205760405260058152602091640352e302e360dc1b602083015260405192839160208352835191826020850152815b83811061030957505060408094508284010152601f80199101168101030190f35b8086018201518782016040015286945081016102e8565b634e487b7160e01b600052604160045260246000fd5b503461016757602036600319011261016757610350611b96565b610358611dcd565b6001600160a01b031661036c811515611ca3565b6001600160601b0360a01b600454161760045580f35b50346101675780600319360112610167576002546040516001600160a01b039091168152602090f35b5034610167576040366003190112610167576103c5611b96565b6103cd611dcd565b600080516020611eab8339815191525460405163a9059cbb60e01b81526001600160a01b039182166004820152602480359082015291602091839160449183918791165af190811561048f578291610460575b50156104295780f35b60405162461bcd60e51b815260206004820152600f60248201526e151c985b9cd9995c8819985a5b1959608a1b6044820152606490fd5b610482915060203d602011610488575b61047a8183611bd6565b810190611d0f565b38610420565b503d610470565b6040513d84823e3d90fd5b5034610167578060031936011261016757600080516020611eab833981519152546040516001600160a01b039091168152602090f35b5034610167578060031936011261016757546040516001600160a01b039091168152602090f35b5034610167576020908160031936011261016757610513611b96565b81546040516375d20f3b60e01b81526001600160a01b03928316600482015291849183916024918391165afa9182156105875791610555575b50604051908152f35b90508181813d8311610580575b61056c8183611bd6565b8101031261057b57513861054c565b600080fd5b503d610562565b604051903d90823e3d90fd5b50346101675780600319360112610167576105ac611dcd565b600080516020611eab83398151915280546001600160a01b031981169091556000906001600160a01b03167f8be0079c531659141344cd1fd0a4f28419497f9722a3daafe3b4186f6b6457e08280a380f35b503461016757604036600319011261016757610618611bac565b6002600080516020611ecb8339815191525414611265576002600080516020611ecb83398151915255662386f26fc10000600435101580611251575b15611213578154604051630308a59b60e31b81523360048201526001600160a01b0390911690602081602481855afa908115610f275784916111f4575b501561114a575b50506040516323b872dd60e01b81523360048201523060248201526004356044820152602081606481857355d398326f99059ff775485246999027b31979555af190811561048f57829161112b575b50156110ef57805481906001600160a01b0316803b156110ec57818091602460405180948193632d2b3f8760e21b83523360048401525af1801561048f576110d8575b50503381526005602052604081206107456004358254611d27565b905533815260066020526040812061075d8154611d4a565b90558060043560196004350204601914600435151715610abd57815460405163167801e160e11b815233600482015290602090829060249082906001600160a01b03165afa908115610a9357839161109a575b506001600160a01b038116610cc4575b506064601960043502048110610ba4575b506005600435026004358104600514600435151715610abd5760025460405163a9059cbb60e01b8082526001600160a01b0390921660048201526064909204602483015290602081604481867355d398326f99059ff775485246999027b31979555af1908115610a93578391610b85575b5015610b4057600a60043502906004358204600a14600435151715610b2c576003546040519182526001600160a01b0316600482015260649091046024820152602081604481857355d398326f99059ff775485246999027b31979555af190811561048f578291610b0d575b5015610ad157603c600435026004358104603c14600435151715610abd5760015460405163095ea7b360e01b81526001600160a01b03909116600482015260649091046024820181905290602081604481867355d398326f99059ff775485246999027b31979555af18015610a9357610a9e575b5060015460405163324741e760e21b815233600482015260248101839052906020908290604490829087906001600160a01b03165af1908115610a93578391610a61575b5060405191825260208201527fac1d76749e5447b7b16f5ab61447e1bd502f3bb4807af3b28e620d1700a6ee4560403392a2805460405163167801e160e11b815233600482015290602090829060249082906001600160a01b03165afa90811561048f578291610a23575b5060405160043581526001600160a01b039091169033907fb4e1304f97b5093610f51b33ddab6622388422e2dac138b0d32f93dcfbd39edf90602090a36001600080516020611ecb8339815191525580f35b90506020813d602011610a59575b81610a3e60209383611bd6565b81010312610a5557610a4f90611cfb565b386109d1565b5080fd5b3d9150610a31565b90506020813d602011610a8b575b81610a7c60209383611bd6565b8101031261057b575138610966565b3d9150610a6f565b6040513d85823e3d90fd5b610ab69060203d6020116104885761047a8183611bd6565b5038610922565b634e487b7160e01b82526011600452602482fd5b60405162461bcd60e51b815260206004820152601460248201527311185c1c081d1c985b9cd9995c8819985a5b195960621b6044820152606490fd5b610b26915060203d6020116104885761047a8183611bd6565b386108ae565b634e487b7160e01b83526011600452602483fd5b60405162461bcd60e51b815260206004820152601960248201527f4f7065726174696f6e207472616e73666572206661696c6564000000000000006044820152606490fd5b610b9e915060203d6020116104885761047a8183611bd6565b38610842565b606460043560190204908103908111610abd576004805460405163a9059cbb60e01b81526001600160a01b039091169181019190915260248101829052602081604481867355d398326f99059ff775485246999027b31979555af1908115610a93578391610ca5575b5015610c54577f4b84cdc8f2d1b9b6be433a7d5adaf3f8a237fb2dc7dfde0233244fdef1673ca0604060018060a01b0360045416928151908152846020820152a2386107d1565b60405162461bcd60e51b8152602060048201526024808201527f52656d61696e696e6720636f6d6d697373696f6e207472616e736665722066616044820152631a5b195960e21b6064820152608490fd5b610cbe915060203d6020116104885761047a8183611bd6565b38610c0d565b916001925b601e8411158080611088575b1561107e578254604051631080b48560e21b81526001600160a01b03848116600483015290911690602081602481855afa908115611073578591611054575b50610da2575b5050815460405163167801e160e11b81526001600160a01b0392831660048201529160209183916024918391165afa801561048f578290610d67575b610d61915093611d4a565b92610cc9565b506020813d602011610d9a575b81610d8160209383611bd6565b81010312610a5557610d95610d6191611cfb565b610d56565b3d9150610d74565b6040516375d20f3b60e01b81526001600160a01b038416600482015290602090829060249082905afa908115610f27578491611022575b50851115610de8575b80610d1a565b829060018603610f3257505060043560043560021b04600414600435151715610abd57606460043560021b045b8015610de25760405163a9059cbb60e01b81526001600160a01b038316600482015260248101829052909390602081604481877355d398326f99059ff775485246999027b31979555af1908115610f27578491610f08575b5015610ec35783610e7d91611d27565b6040805194855260ff8616602086015290936001600160a01b038316917f4b84cdc8f2d1b9b6be433a7d5adaf3f8a237fb2dc7dfde0233244fdef1673ca091a238610de2565b60405162461bcd60e51b815260206004820152601a60248201527f436f6d6d697373696f6e207472616e73666572206661696c65640000000000006044820152606490fd5b610f21915060203d6020116104885761047a8183611bd6565b38610e6d565b6040513d86823e3d90fd5b60028603610f6257505060043560043560011b04600214600435151715610abd57606460043560011b045b610e15565b600386101580611017575b15610f9357505060043560043504600114600435151715610abd57606460043504610e15565b600b8610158061100c575b15610fcb57505060043560066004350204600614600435151715610abd576103e860066004350204610e15565b60158610159081611004575b5015610f5d575060043560056004350204600514600435151715610abd576103e860056004350204610e15565b905038610fd7565b506014861115610f9e565b50600a861115610f6d565b90506020813d60201161104c575b8161103d60209383611bd6565b8101031261057b575138610dd9565b3d9150611030565b61106d915060203d6020116104885761047a8183611bd6565b38610d14565b6040513d87823e3d90fd5b50509150386107c0565b506001600160a01b0382161515610cd5565b90506020813d6020116110d0575b816110b560209383611bd6565b810103126110cc576110c690611cfb565b386107b0565b8280fd5b3d91506110a8565b6110e190611bc2565b61016757803861072a565b50fd5b60405162461bcd60e51b81526020600482015260146024820152731554d115081d1c985b9cd9995c8819985a5b195960621b6044820152606490fd5b611144915060203d6020116104885761047a8183611bd6565b386106e7565b6001600160a01b038216156111b7578291813b156111b357604051637e540b2b60e01b81523360048201526001600160a01b0391909116602482015291908290604490829084905af1801561048f576111a4575b80610698565b6111ad90611bc2565b3861119e565b5050fd5b60405162461bcd60e51b815260206004820152601560248201527426bab9ba10383937bb34b232903932b332b93932b960591b6044820152606490fd5b61120d915060203d6020116104885761047a8183611bd6565b38610691565b60405162461bcd60e51b8152602060048201526016602482015275125b9d985b1a590819195c1bdcda5d08185b5bdd5b9d60521b6044820152606490fd5b5067016345785d8a00006004351115610654565b604051633ee5aeb560e01b8152600490fd5b5034610167576020366003190112610167576020906040906001600160a01b0361129f611b96565b168152600583522054604051908152f35b50346101675780600319360112610167577f00000000000000000000000000000000000000000000000000000000000000006001600160a01b0316300361131b5760206040517f360894a13ba1a3210667c828492db98dca3e2076cc3735a920a3ca505d382bbc8152f35b60405163703e46dd60e11b8152600490fd5b50604036600319011261016757611342611b96565b602491823567ffffffffffffffff8111610a555736602382011215610a5557806004013561136f81611bf8565b9361137d6040519586611bd6565b818552602091828601933688838301011161158557818692898693018737870101526001600160a01b037f00000000000000000000000000000000000000000000000000000000000000008116308114908115611557575b5061131b576113e2611dcd565b8116946040516352d1902d60e01b815283816004818a5afa869181611524575b5061141f57604051634c9c8ce360e01b8152600481018890528890fd5b8690887f360894a13ba1a3210667c828492db98dca3e2076cc3735a920a3ca505d382bbc9182810361150f5750843b156114f9575080546001600160a01b031916821790556040518692917fbc7cd75a20ee27fd9adebab32041f755214dbc6bffa90cc0225b39da2e5c2d3b8480a28151156114db57506114ce9482915190845af4903d156114d2573d6114b281611bf8565b906114c06040519283611bd6565b81528581943d92013e611e47565b5080f35b60609250611e47565b945050505050346114ea575080f35b63b398979f60e01b8152600490fd5b604051634c9c8ce360e01b815260048101849052fd5b60405190632a87526960e21b82526004820152fd5b9091508481813d8311611550575b61153c8183611bd6565b8101031261154c57519038611402565b8680fd5b503d611532565b9050817f360894a13ba1a3210667c828492db98dca3e2076cc3735a920a3ca505d382bbc54161415386113d5565b8580fd5b50346101675760209081600319360112610167576115a5611b96565b815460405163167801e160e11b81526001600160a01b0392831660048201529084908290602490829086165afa9283156105875780936115eb575b505060405191168152f35b909192508382813d831161161e575b6116048183611bd6565b81010312610167575061161690611cfb565b9038806115e0565b503d6115fa565b50346101675760203660031901126101675761163f611b96565b611647611dcd565b6001600160a01b031661165b811515611c60565b6001600160601b0360a01b600354161760035580f35b503461016757602080600319360112610a555761168c611b96565b82546040516341a0894d60e01b81526001600160a01b03928316600482015291939081908390602490829088165afa9182156117bd578192611706575b506040519280840190808552835180925280604086019401925b8281106116f05785850386f35b83518716855293810193928101926001016116e3565b9091503d8083833e6117188183611bd6565b810183828203126110cc57815167ffffffffffffffff928382116117a1570181601f820112156117b95780519283116117a5578260051b906040519361176087840186611bd6565b845285808501928201019283116117a15785809101915b838310611789575050505090386116c9565b819061179484611cfb565b8152019101908590611777565b8480fd5b634e487b7160e01b84526041600452602484fd5b8380fd5b50604051903d90823e3d90fd5b5034610167576020366003190112610167576117e4611b96565b6117ec611dcd565b6001600160a01b03168015611811576001600160601b0360a01b600154161760015580f35b60405162461bcd60e51b815260206004820152602160248201527f496e76616c6964206c6971756964697479206d616e61676572206164647265736044820152607360f81b6064820152608490fd5b50346101675780600319360112610167576001546040516001600160a01b039091168152602090f35b50346101675780600319360112610167576003546040516001600160a01b039091168152602090f35b905034610a555760a0366003190112610a55576118cd611b96565b6118d5611bac565b906001600160a01b0390604435828116908190036115855760643583811680910361154c5760843594848616809603611b92577ff0c57e16840df040f15088dc2f81fe391c3923bec73e23a9662efc9c229c6a009586549560ff8760401c16159667ffffffffffffffff8116998a1580611b8b575b6001809c149081611b81575b159081611b78575b50611b69575067ffffffffffffffff1981168a17895587611b4a575b50808616908115611b05578316938415611ac05785611a73958c936119c17fad307780531f6353137c35adc50ad58d71b76e76aa891e729387f2e720f2de20991515611c14565b6119cc841515611c60565b6119d7861515611ca3565b6119df611e06565b6119e7611e06565b6119f033611d59565b6119f8611e06565b611a00611e06565b611a08611e06565b8c600080516020611ecb833981519152556001600160601b0360a01b80955416178d55838c5416178b55826002541617600255816003541617600355600454161760045560405191829133958390602090939293604083019460018060a01b03809216845216910152565b0390a2611a7e578280f35b805468ff0000000000000000191690556040519081527fc7f505b2f371ae2175ee4913f4499e1f2633a7b5936321eed1cdaeb6115181d290602090a138808280f35b60405162461bcd60e51b815260206004820152601960248201527f496e76616c6964206c6971756964697479206d616e61676572000000000000006044820152606490fd5b60405162461bcd60e51b815260206004820152601960248201527f496e76616c696420726566657272616c20636f6e7472616374000000000000006044820152606490fd5b68ffffffffffffffffff1916680100000000000000011788553861197a565b63f92ee8a960e01b8152600490fd5b9050153861195e565b303b159150611956565b508861194a565b8780fd5b600435906001600160a01b038216820361057b57565b602435906001600160a01b038216820361057b57565b67ffffffffffffffff811161032057604052565b90601f8019910116810190811067ffffffffffffffff82111761032057604052565b67ffffffffffffffff811161032057601f01601f191660200190565b15611c1b57565b60405162461bcd60e51b815260206004820152601960248201527f496e76616c6964206f7065726174696f6e2061646472657373000000000000006044820152606490fd5b15611c6757565b60405162461bcd60e51b8152602060048201526014602482015273496e76616c69642064617070206164647265737360601b6044820152606490fd5b15611caa57565b60405162461bcd60e51b815260206004820152602360248201527f496e76616c696420636f6d6d697373696f6e207265636569766572206164647260448201526265737360e81b6064820152608490fd5b51906001600160a01b038216820361057b57565b9081602091031261057b5751801515810361057b5790565b91908201809211611d3457565b634e487b7160e01b600052601160045260246000fd5b6000198114611d345760010190565b6001600160a01b03908116908115611db457600080516020611eab83398151915280546001600160a01b031981168417909155167f8be0079c531659141344cd1fd0a4f28419497f9722a3daafe3b4186f6b6457e0600080a3565b604051631e4fbdf760e01b815260006004820152602490fd5b600080516020611eab833981519152546001600160a01b03163303611dee57565b60405163118cdaa760e01b8152336004820152602490fd5b60ff7ff0c57e16840df040f15088dc2f81fe391c3923bec73e23a9662efc9c229c6a005460401c1615611e3557565b604051631afcd79f60e31b8152600490fd5b90611e6e5750805115611e5c57602081519101fd5b60405163d6bda27560e01b8152600490fd5b81511580611ea1575b611e7f575090565b604051639996b31560e01b81526001600160a01b039091166004820152602490fd5b50803b15611e7756fe9016d09d72d40fdae2fd8ceac6b6234c7706214fd39c1cd1e609a0528c1993009b779b17422d0df92223018b32b4d1fa46e071723d6817e2486d003becc55f00a164736f6c6343000816000a",
  "implementation": "0x1A7fbb38d712BCC5387684B90b37B8c7A4c74068"
}