{
  "address": "0xF4e4a7Fb82b0b047afbc61EEe395BF9e39C5e464",
  "abi": [
    {
      "inputs": [],
      "stateMutability": "nonpayable",
      "type": "constructor"
    },
    {
      "inputs": [
        {
          "internalType": "address",
          "name": "target",
          "type": "address"
        }
      ],
      "name": "AddressEmptyCode",
      "type": "error"
    },
    {
      "inputs": [
        {
          "internalType": "address",
          "name": "implementation",
          "type": "address"
        }
      ],
      "name": "ERC1967InvalidImplementation",
      "type": "error"
    },
    {
      "inputs": [],
      "name": "ERC1967NonPayable",
      "type": "error"
    },
    {
      "inputs": [],
      "name": "FailedCall",
      "type": "error"
    },
    {
      "inputs": [],
      "name": "InvalidInitialization",
      "type": "error"
    },
    {
      "inputs": [],
      "name": "NotInitializing",
      "type": "error"
    },
    {
      "inputs": [
        {
          "internalType": "address",
          "name": "owner",
          "type": "address"
        }
      ],
      "name": "OwnableInvalidOwner",
      "type": "error"
    },
    {
      "inputs": [
        {
          "internalType": "address",
          "name": "account",
          "type": "address"
        }
      ],
      "name": "OwnableUnauthorizedAccount",
      "type": "error"
    },
    {
      "inputs": [],
      "name": "ReentrancyGuardReentrantCall",
      "type": "error"
    },
    {
      "inputs": [],
      "name": "UUPSUnauthorizedCallContext",
      "type": "error"
    },
    {
      "inputs": [
        {
          "internalType": "bytes32",
          "name": "slot",
          "type": "bytes32"
        }
      ],
      "name": "UUPSUnsupportedProxiableUUID",
      "type": "error"
    },
    {
      "anonymous": false,
      "inputs": [
        {
          "indexed": true,
          "internalType": "uint256",
          "name": "gameId",
          "type": "uint256"
        },
        {
          "indexed": false,
          "internalType": "uint256",
          "name": "betAmount",
          "type": "uint256"
        }
      ],
      "name": "GameCreated",
      "type": "event"
    },
    {
      "anonymous": false,
      "inputs": [
        {
          "indexed": true,
          "internalType": "uint256",
          "name": "gameId",
          "type": "uint256"
        },
        {
          "indexed": true,
          "internalType": "address",
          "name": "winner",
          "type": "address"
        }
      ],
      "name": "GameFinished",
      "type": "event"
    },
    {
      "anonymous": false,
      "inputs": [
        {
          "indexed": true,
          "internalType": "uint256",
          "name": "gameId",
          "type": "uint256"
        }
      ],
      "name": "GameRefunded",
      "type": "event"
    },
    {
      "anonymous": false,
      "inputs": [
        {
          "indexed": false,
          "internalType": "uint64",
          "name": "version",
          "type": "uint64"
        }
      ],
      "name": "Initialized",
      "type": "event"
    },
    {
      "anonymous": false,
      "inputs": [
        {
          "indexed": true,
          "internalType": "address",
          "name": "owner",
          "type": "address"
        },
        {
          "indexed": false,
          "internalType": "address",
          "name": "referral",
          "type": "address"
        },
        {
          "indexed": false,
          "internalType": "address",
          "name": "liquidityMgr",
          "type": "address"
        }
      ],
      "name": "Initialized",
      "type": "event"
    },
    {
      "anonymous": false,
      "inputs": [
        {
          "indexed": true,
          "internalType": "address",
          "name": "previousOwner",
          "type": "address"
        },
        {
          "indexed": true,
          "internalType": "address",
          "name": "newOwner",
          "type": "address"
        }
      ],
      "name": "OwnershipTransferred",
      "type": "event"
    },
    {
      "anonymous": false,
      "inputs": [
        {
          "indexed": true,
          "internalType": "uint256",
          "name": "gameId",
          "type": "uint256"
        },
        {
          "indexed": true,
          "internalType": "address",
          "name": "player",
          "type": "address"
        },
        {
          "indexed": false,
          "internalType": "uint256",
          "name": "playerIndex",
          "type": "uint256"
        }
      ],
      "name": "PlayerJoined",
      "type": "event"
    },
    {
      "anonymous": false,
      "inputs": [
        {
          "indexed": true,
          "internalType": "uint256",
          "name": "gameId",
          "type": "uint256"
        },
        {
          "indexed": true,
          "internalType": "address",
          "name": "recipient",
          "type": "address"
        },
        {
          "indexed": false,
          "internalType": "uint256",
          "name": "amount",
          "type": "uint256"
        },
        {
          "indexed": false,
          "internalType": "string",
          "name": "reason",
          "type": "string"
        }
      ],
      "name": "PrizePaid",
      "type": "event"
    },
    {
      "anonymous": false,
      "inputs": [
        {
          "indexed": true,
          "internalType": "address",
          "name": "implementation",
          "type": "address"
        }
      ],
      "name": "Upgraded",
      "type": "event"
    },
    {
      "inputs": [],
      "name": "GAME_TIMEOUT",
      "outputs": [
        {
          "internalType": "uint256",
          "name": "",
          "type": "uint256"
        }
      ],
      "stateMutability": "view",
      "type": "function"
    },
    {
      "inputs": [],
      "name": "GAME_TYPE_100",
      "outputs": [
        {
          "internalType": "uint256",
          "name": "",
          "type": "uint256"
        }
      ],
      "stateMutability": "view",
      "type": "function"
    },
    {
      "inputs": [],
      "name": "GAME_TYPE_200",
      "outputs": [
        {
          "internalType": "uint256",
          "name": "",
          "type": "uint256"
        }
      ],
      "stateMutability": "view",
      "type": "function"
    },
    {
      "inputs": [],
      "name": "GAME_TYPE_300",
      "outputs": [
        {
          "internalType": "uint256",
          "name": "",
          "type": "uint256"
        }
      ],
      "stateMutability": "view",
      "type": "function"
    },
    {
      "inputs": [],
      "name": "PLAYERS_PER_GAME",
      "outputs": [
        {
          "internalType": "uint256",
          "name": "",
          "type": "uint256"
        }
      ],
      "stateMutability": "view",
      "type": "function"
    },
    {
      "inputs": [],
      "name": "UPGRADE_INTERFACE_VERSION",
      "outputs": [
        {
          "internalType": "string",
          "name": "",
          "type": "string"
        }
      ],
      "stateMutability": "view",
      "type": "function"
    },
    {
      "inputs": [],
      "name": "USDT",
      "outputs": [
        {
          "internalType": "address",
          "name": "",
          "type": "address"
        }
      ],
      "stateMutability": "view",
      "type": "function"
    },
    {
      "inputs": [],
      "name": "commissionReceiver",
      "outputs": [
        {
          "internalType": "address",
          "name": "",
          "type": "address"
        }
      ],
      "stateMutability": "view",
      "type": "function"
    },
    {
      "inputs": [
        {
          "internalType": "uint256",
          "name": "",
          "type": "uint256"
        }
      ],
      "name": "currentGameIndex",
      "outputs": [
        {
          "internalType": "uint256",
          "name": "",
          "type": "uint256"
        }
      ],
      "stateMutability": "view",
      "type": "function"
    },
    {
      "inputs": [],
      "name": "dappAddress",
      "outputs": [
        {
          "internalType": "address",
          "name": "",
          "type": "address"
        }
      ],
      "stateMutability": "view",
      "type": "function"
    },
    {
      "inputs": [
        {
          "internalType": "uint256",
          "name": "gameId",
          "type": "uint256"
        },
        {
          "internalType": "uint256",
          "name": "winnerNumber",
          "type": "uint256"
        }
      ],
      "name": "declareWinner",
      "outputs": [],
      "stateMutability": "nonpayable",
      "type": "function"
    },
    {
      "inputs": [
        {
          "internalType": "address",
          "name": "token",
          "type": "address"
        },
        {
          "internalType": "uint256",
          "name": "amount",
          "type": "uint256"
        }
      ],
      "name": "emergencyWithdraw",
      "outputs": [],
      "stateMutability": "nonpayable",
      "type": "function"
    },
    {
      "inputs": [],
      "name": "gameIdCounter",
      "outputs": [
        {
          "internalType": "uint256",
          "name": "",
          "type": "uint256"
        }
      ],
      "stateMutability": "view",
      "type": "function"
    },
    {
      "inputs": [],
      "name": "gameOperator",
      "outputs": [
        {
          "internalType": "address",
          "name": "",
          "type": "address"
        }
      ],
      "stateMutability": "view",
      "type": "function"
    },
    {
      "inputs": [
        {
          "internalType": "uint256",
          "name": "",
          "type": "uint256"
        }
      ],
      "name": "gameTypes",
      "outputs": [
        {
          "internalType": "uint256",
          "name": "",
          "type": "uint256"
        }
      ],
      "stateMutability": "view",
      "type": "function"
    },
    {
      "inputs": [
        {
          "internalType": "uint256",
          "name": "",
          "type": "uint256"
        }
      ],
      "name": "games",
      "outputs": [
        {
          "internalType": "uint256",
          "name": "gameId",
          "type": "uint256"
        },
        {
          "internalType": "uint256",
          "name": "betAmount",
          "type": "uint256"
        },
        {
          "internalType": "uint256",
          "name": "startTime",
          "type": "uint256"
        },
        {
          "internalType": "uint256",
          "name": "endTime",
          "type": "uint256"
        },
        {
          "internalType": "bool",
          "name": "finished",
          "type": "bool"
        },
        {
          "internalType": "bool",
          "name": "refunded",
          "type": "bool"
        },
        {
          "internalType": "address",
          "name": "winner",
          "type": "address"
        }
      ],
      "stateMutability": "view",
      "type": "function"
    },
    {
      "inputs": [
        {
          "internalType": "uint256",
          "name": "",
          "type": "uint256"
        },
        {
          "internalType": "uint256",
          "name": "",
          "type": "uint256"
        }
      ],
      "name": "gamesByType",
      "outputs": [
        {
          "internalType": "uint256",
          "name": "gameId",
          "type": "uint256"
        },
        {
          "internalType": "uint256",
          "name": "betAmount",
          "type": "uint256"
        },
        {
          "internalType": "uint256",
          "name": "startTime",
          "type": "uint256"
        },
        {
          "internalType": "uint256",
          "name": "endTime",
          "type": "uint256"
        },
        {
          "internalType": "bool",
          "name": "finished",
          "type": "bool"
        },
        {
          "internalType": "bool",
          "name": "refunded",
          "type": "bool"
        },
        {
          "internalType": "address",
          "name": "winner",
          "type": "address"
        }
      ],
      "stateMutability": "view",
      "type": "function"
    },
    {
      "inputs": [
        {
          "internalType": "uint256",
          "name": "betAmount",
          "type": "uint256"
        }
      ],
      "name": "getCurrentGame",
      "outputs": [
        {
          "internalType": "uint256",
          "name": "gameId",
          "type": "uint256"
        },
        {
          "internalType": "uint256",
          "name": "playerCount",
          "type": "uint256"
        },
        {
          "internalType": "uint256",
          "name": "startTime",
          "type": "uint256"
        },
        {
          "internalType": "bool",
          "name": "canJoin",
          "type": "bool"
        }
      ],
      "stateMutability": "view",
      "type": "function"
    },
    {
      "inputs": [
        {
          "internalType": "uint256",
          "name": "gameId",
          "type": "uint256"
        }
      ],
      "name": "getGame",
      "outputs": [
        {
          "internalType": "uint256",
          "name": "id",
          "type": "uint256"
        },
        {
          "internalType": "uint256",
          "name": "betAmount",
          "type": "uint256"
        },
        {
          "internalType": "address[]",
          "name": "players",
          "type": "address[]"
        },
        {
          "internalType": "uint256",
          "name": "startTime",
          "type": "uint256"
        },
        {
          "internalType": "uint256",
          "name": "endTime",
          "type": "uint256"
        },
        {
          "internalType": "bool",
          "name": "finished",
          "type": "bool"
        },
        {
          "internalType": "bool",
          "name": "refunded",
          "type": "bool"
        },
        {
          "internalType": "address",
          "name": "winner",
          "type": "address"
        }
      ],
      "stateMutability": "view",
      "type": "function"
    },
    {
      "inputs": [
        {
          "internalType": "uint256",
          "name": "gameId",
          "type": "uint256"
        }
      ],
      "name": "getGamePlayers",
      "outputs": [
        {
          "internalType": "uint256",
          "name": "",
          "type": "uint256"
        }
      ],
      "stateMutability": "view",
      "type": "function"
    },
    {
      "inputs": [
        {
          "internalType": "address",
          "name": "user",
          "type": "address"
        }
      ],
      "name": "getUserGames",
      "outputs": [
        {
          "internalType": "uint256[]",
          "name": "",
          "type": "uint256[]"
        }
      ],
      "stateMutability": "view",
      "type": "function"
    },
    {
      "inputs": [
        {
          "internalType": "address",
          "name": "_referralContract",
          "type": "address"
        },
        {
          "internalType": "address",
          "name": "_liquidityManager",
          "type": "address"
        },
        {
          "internalType": "address",
          "name": "_operationAddress",
          "type": "address"
        },
        {
          "internalType": "address",
          "name": "_dappAddress",
          "type": "address"
        },
        {
          "internalType": "address",
          "name": "_gameOperator",
          "type": "address"
        },
        {
          "internalType": "address",
          "name": "_commissionReceiver",
          "type": "address"
        }
      ],
      "name": "initialize",
      "outputs": [],
      "stateMutability": "nonpayable",
      "type": "function"
    },
    {
      "inputs": [
        {
          "internalType": "uint256",
          "name": "betAmount",
          "type": "uint256"
        },
        {
          "internalType": "address",
          "name": "referrer",
          "type": "address"
        }
      ],
      "name": "joinGame",
      "outputs": [],
      "stateMutability": "nonpayable",
      "type": "function"
    },
    {
      "inputs": [],
      "name": "liquidityManager",
      "outputs": [
        {
          "internalType": "contract IPDALiquidityManager",
          "name": "",
          "type": "address"
        }
      ],
      "stateMutability": "view",
      "type": "function"
    },
    {
      "inputs": [],
      "name": "operationAddress",
      "outputs": [
        {
          "internalType": "address",
          "name": "",
          "type": "address"
        }
      ],
      "stateMutability": "view",
      "type": "function"
    },
    {
      "inputs": [],
      "name": "owner",
      "outputs": [
        {
          "internalType": "address",
          "name": "",
          "type": "address"
        }
      ],
      "stateMutability": "view",
      "type": "function"
    },
    {
      "inputs": [],
      "name": "proxiableUUID",
      "outputs": [
        {
          "internalType": "bytes32",
          "name": "",
          "type": "bytes32"
        }
      ],
      "stateMutability": "view",
      "type": "function"
    },
    {
      "inputs": [],
      "name": "referralContract",
      "outputs": [
        {
          "internalType": "contract IPDAReferral",
          "name": "",
          "type": "address"
        }
      ],
      "stateMutability": "view",
      "type": "function"
    },
    {
      "inputs": [
        {
          "internalType": "uint256",
          "name": "gameId",
          "type": "uint256"
        }
      ],
      "name": "refundGame",
      "outputs": [],
      "stateMutability": "nonpayable",
      "type": "function"
    },
    {
      "inputs": [],
      "name": "renounceOwnership",
      "outputs": [],
      "stateMutability": "nonpayable",
      "type": "function"
    },
    {
      "inputs": [
        {
          "internalType": "address",
          "name": "_commissionReceiver",
          "type": "address"
        }
      ],
      "name": "setCommissionReceiver",
      "outputs": [],
      "stateMutability": "nonpayable",
      "type": "function"
    },
    {
      "inputs": [
        {
          "internalType": "address",
          "name": "_dappAddress",
          "type": "address"
        }
      ],
      "name": "setDappAddress",
      "outputs": [],
      "stateMutability": "nonpayable",
      "type": "function"
    },
    {
      "inputs": [
        {
          "internalType": "address",
          "name": "_gameOperator",
          "type": "address"
        }
      ],
      "name": "setGameOperator",
      "outputs": [],
      "stateMutability": "nonpayable",
      "type": "function"
    },
    {
      "inputs": [
        {
          "internalType": "address",
          "name": "_liquidityManager",
          "type": "address"
        }
      ],
      "name": "setLiquidityManager",
      "outputs": [],
      "stateMutability": "nonpayable",
      "type": "function"
    },
    {
      "inputs": [
        {
          "internalType": "address",
          "name": "_operationAddress",
          "type": "address"
        }
      ],
      "name": "setOperationAddress",
      "outputs": [],
      "stateMutability": "nonpayable",
      "type": "function"
    },
    {
      "inputs": [
        {
          "internalType": "address",
          "name": "newOwner",
          "type": "address"
        }
      ],
      "name": "transferOwnership",
      "outputs": [],
      "stateMutability": "nonpayable",
      "type": "function"
    },
    {
      "inputs": [
        {
          "internalType": "address",
          "name": "newImplementation",
          "type": "address"
        },
        {
          "internalType": "bytes",
          "name": "data",
          "type": "bytes"
        }
      ],
      "name": "upgradeToAndCall",
      "outputs": [],
      "stateMutability": "payable",
      "type": "function"
    },
    {
      "inputs": [
        {
          "internalType": "address",
          "name": "",
          "type": "address"
        },
        {
          "internalType": "uint256",
          "name": "",
          "type": "uint256"
        }
      ],
      "name": "userGames",
      "outputs": [
        {
          "internalType": "uint256",
          "name": "",
          "type": "uint256"
        }
      ],
      "stateMutability": "view",
      "type": "function"
    }
  ],
  "transactionHash": "0x84cae7b6335c12474531a319672a4479fda861453441267c14eeb496c0a099aa",
  "numDeployments": 1,
  "bytecode": "0x60a080604052346100cd57306080527ff0c57e16840df040f15088dc2f81fe391c3923bec73e23a9662efc9c229c6a009081549060ff8260401c166100be57506001600160401b036002600160401b031982821601610079575b604051612b6a9081620000d382396080518181816112fb01526113e10152f35b6001600160401b031990911681179091556040519081527fc7f505b2f371ae2175ee4913f4499e1f2633a7b5936321eed1cdaeb6115181d290602090a1388080610059565b63f92ee8a960e01b8152600490fd5b600080fdfe608080604052600436101561001357600080fd5b600090813560e01c908163099420b61461260257508063117a5b9014612580578063120aace6146124d257806315a40f49146124a55780631643c8c4146117e55780631a721b7b146117bc5780631bb412d61461179e5780631c063c7714611710578063288db7c6146116ee57806333827438146116c55780633c1624d41461162f57806343d289141461160d57806348aa44dd146115c15780634f1ef2861461136557806352d1902d146112e85780636470b366146112b7578063715018a61461124c57806373f9c767146112305780637dad19db1461120957806381cba5e21461117c578063869104991461115a5780638da5cb5b1461112457806395ccea6714611050578063a2f77bcc14610f49578063a441c30214610f20578063a576cf9d14610ed4578063ad3cb1cc14610e2e578063bc0167cd14610dd8578063c2ead6b914610daf578063c54e44eb14610d80578063cc2a9a5b14610a56578063d53ce95614610a0a578063d7260cba146107c2578063da46a73c14610776578063ead00e0214610245578063f2fde38b14610218578063f7804590146101ee5763f92aa57f146101c357600080fd5b346101eb57806003193601126101eb576004546040516001600160a01b039091168152602090f35b80fd5b50346101eb5760203660031901126101eb5760406020916004358152600983522054604051908152f35b50346101eb5760203660031901126101eb5761024261023561261e565b61023d612a01565b61295d565b80f35b50346101eb5760403660031901126101eb57600435610262612634565b9061026b6129d1565b662386f26fc1000081148015610766575b8015610756575b1561071c578254604051630308a59b60e31b81523360048201526024936020939290916001600160a01b03918216919085818881865afa9081156107115788916106f4575b501561063e575b5050506040516323b872dd60e01b815233600482015230848201528160448201528281606481887355d398326f99059ff775485246999027b31979555af1908115610633578591610606575b50156105cc578084526009825260408420549260088352604085208486528352604085209060028201548015600014610500575061035a600654612913565b8060065580928188526007865260058060408a20848155876001820155426003820155019161ffff1992838154169055838155866001820155426003820155019081541690557fa26856d25e558c79e1632806bc6824075cf59885a115825f2aab62385a3f714285604051868152a25b818652600784526103e13360026040892001612922565b828652600884526040862085875284526104013360026040892001612922565b338652600a845260408620805490600160401b8210156104ed579061042b916001820181556126b2565b919080549260031b600019938486831b921b19161790558287526007855260026040882001549182019182116104db5750604051908152817f03dfbe1fcb4e2d61f3b4a0c93d8f814c92250618b3387f396cc9fc9fafe2c203853393a384526007825260408420600b6002820154146104b5575b846001600080516020612b1e8339815191525580f35b60044291015583526008815260408320918352524260046040832001553880808061049f565b634e487b7160e01b8752601160045286fd5b634e487b7160e01b885260416004528288fd5b90949190600b116105c457505080845260098252604084206105228154612913565b90558084526009825260408420549261053c600654612913565b908160065581808752600785526005604088208281558560018201554260038201550161ffff199081815416905584885260088652604088208789528652600560408920838155866001820155426003820155019081541690557fa26856d25e558c79e1632806bc6824075cf59885a115825f2aab62385a3f714285604051868152a26103ca565b5490936103ca565b5060146064926040519262461bcd60e51b84526004840152820152731554d115081d1c985b9cd9995c8819985a5b195960621b6044820152fd5b6106269150833d851161062c575b61061e8183612674565b8101906127e8565b3861031b565b503d610614565b6040513d87823e3d90fd5b8216156106b857908186923b156106b457604051637e540b2b60e01b81523360048201526001600160a01b0392909216602483015282908290604490829084905af180156106a957610691575b806102cf565b61069a90612660565b6106a557833861068b565b8380fd5b6040513d84823e3d90fd5b8280fd5b60405162461bcd60e51b8152600481018590526015818701527426bab9ba10383937bb34b232903932b332b93932b960591b6044820152606490fd5b61070b9150863d881161062c5761061e8183612674565b386102c8565b6040513d8a823e3d90fd5b60405162461bcd60e51b8152602060048201526012602482015271125b9d985b1a590818995d08185b5bdd5b9d60721b6044820152606490fd5b50666a94d74f4300008114610283565b5066470de4df820000811461027c565b50346101eb5760203660031901126101eb5761079061261e565b610798612a01565b6001600160a01b03166107ac8115156128a4565b6001600160601b0360a01b600554161760055580f35b50346101eb57602090816003193601126101eb576004356107e16129d1565b8082526007835260408220926107f9828554146126e0565b600584019081549461080e60ff87161561271d565b61081e60ff8760081c1615612761565b6002810192600b845410156109d65760039060038301546105a081018091116109c2574210610984576101006001959861ff001916179055859684859301925b61089e575b86867f3f089de9d7a24f4fa13fc08c92aea5efef51005bfc944583d8062c43f78672b88280a26001600080516020612b1e8339815191525580f35b805488101561097f576108ec846108b58a846126b2565b9054865460405163a9059cbb60e01b815292871b9190911c6001600160a01b03166004830152602482015291829081906044820190565b03818b7355d398326f99059ff775485246999027b31979555af1908115610711578891610962575b501561092457968401968461085e565b60405162461bcd60e51b81526004810185905260166024820152751499599d5b99081d1c985b9cd9995c8819985a5b195960521b6044820152606490fd5b6109799150853d871161062c5761061e8183612674565b38610914565b610863565b60405162461bcd60e51b815260048101859052601660248201527511d85b59481b9bdd081d1a5b5959081bdd5d081e595d60521b6044820152606490fd5b634e487b7160e01b88526011600452602488fd5b60405162461bcd60e51b815260048101849052600c60248201526b11d85b59481a5cc8199d5b1b60a21b6044820152606490fd5b50346101eb5760203660031901126101eb57610a2461261e565b610a2c612a01565b6001600160a01b0316610a40811515612858565b6001600160601b0360a01b600254161760025580f35b50346101eb5760c03660031901126101eb57610a7061261e565b610a78612634565b6001600160a01b03916044358381169190829003610d7b5760643591848316809303610d7b5760843592858416809403610d7b5760a43594868616809603610d7b577ff0c57e16840df040f15088dc2f81fe391c3923bec73e23a9662efc9c229c6a009586549760ff8960401c16159667ffffffffffffffff8a16998a1580610d74575b6001809c149081610d6a575b159081610d61575b50610d4f5767ffffffffffffffff1981168b178a5588610d30575b50818716918215610ceb578416948515610ca65786610c5996610b707fad307780531f6353137c35adc50ad58d71b76e76aa891e729387f2e720f2de20991515612858565b610b7b8315156127a5565b610b868415156128a4565b610b91861515612800565b610b99612a59565b610ba1612a59565b610baa3361295d565b610bb2612a59565b610bba612a59565b610bc2612a59565b8c600080516020612b1e833981519152558d6001600160601b0360a01b9586825416179055848d5416178c558360025416176002558260035416176003558160055416176005556004541617600455662386f26fc10000600b5566470de4df820000600c55666a94d74f430000600d5560405191829133958390602090939293604083019460018060a01b03809216845216910152565b0390a2610c64578280f35b805468ff0000000000000000191690556040519081527fc7f505b2f371ae2175ee4913f4499e1f2633a7b5936321eed1cdaeb6115181d290602090a138808280f35b60405162461bcd60e51b815260206004820152601960248201527f496e76616c6964206c6971756964697479206d616e61676572000000000000006044820152606490fd5b60405162461bcd60e51b815260206004820152601960248201527f496e76616c696420726566657272616c20636f6e7472616374000000000000006044820152606490fd5b68ffffffffffffffffff19166801000000000000000117895538610b2b565b60405163f92ee8a960e01b8152600490fd5b90501538610b10565b303b159150610b08565b5088610afc565b600080fd5b50346101eb57806003193601126101eb5760206040517355d398326f99059ff775485246999027b31979558152f35b50346101eb57806003193601126101eb576005546040516001600160a01b039091168152602090f35b50346101eb5760403660031901126101eb57610df261261e565b6001600160a01b03168152600a60205260408120805460243592908310156101eb576020610e2084846126b2565b90546040519160031b1c8152f35b50346101eb57806003193601126101eb576040516040810181811067ffffffffffffffff821117610ebe5760405260058152602091640352e302e360dc1b602083015260405192839160208352835191826020850152815b838110610ea757505060408094508284010152601f80199101168101030190f35b808601820151878201604001528694508101610e86565b634e487b7160e01b600052604160045260246000fd5b50346101eb5760203660031901126101eb57610eee61261e565b610ef6612a01565b6001600160a01b0316610f0a811515612800565b6001600160601b0360a01b600454161760045580f35b50346101eb57806003193601126101eb576002546040516001600160a01b039091168152602090f35b50346101eb57602090816003193601126101eb5760043581526007825260408120908154926001936001840154936002810193600382015490600560048401549301549360018060a01b039560405180828a54918281520190819a8652838620908d875b8c83821061103c57505050505081610fc6910382612674565b6040519961010090818c01948c52838c015260408b015251809252610120890197925b82811061102757505050508596506060860152608085015260ff8116151560a085015260ff8160081c16151560c085015260101c1660e08301520390f35b83518816895297810197928101928a01610fe9565b845416855293860193928101928101610fad565b50346101eb5760403660031901126101eb5761106a61261e565b611072612a01565b600080516020612afe8339815191525460405163a9059cbb60e01b81526001600160a01b039182166004820152602480359082015291602091839160449183918791165af19081156106a9578291611105575b50156110ce5780f35b60405162461bcd60e51b815260206004820152600f60248201526e151c985b9cd9995c8819985a5b1959608a1b6044820152606490fd5b61111e915060203d60201161062c5761061e8183612674565b386110c5565b50346101eb57806003193601126101eb57600080516020612afe833981519152546040516001600160a01b039091168152602090f35b50346101eb57806003193601126101eb576020604051666a94d74f4300008152f35b50346101eb5760409061118e3661264a565b90825260086020818152848420928452918252929091208054600182015460038301546004840154600590940154604080519485529584019290925293820193909352606081019190915260ff808316151560808301529282901c909216151560a083015260101c6001600160a01b031660c082015260e090f35b50346101eb57806003193601126101eb57546040516001600160a01b039091168152602090f35b50346101eb57806003193601126101eb576020604051600b8152f35b50346101eb57806003193601126101eb57611265612a01565b600080516020612afe83398151915280546001600160a01b031981169091556000906001600160a01b03167f8be0079c531659141344cd1fd0a4f28419497f9722a3daafe3b4186f6b6457e08280a380f35b50346101eb5760203660031901126101eb5760043560038110156112e457602090600b0154604051908152f35b5080fd5b50346101eb57806003193601126101eb577f00000000000000000000000000000000000000000000000000000000000000006001600160a01b031630036113535760206040517f360894a13ba1a3210667c828492db98dca3e2076cc3735a920a3ca505d382bbc8152f35b60405163703e46dd60e11b8152600490fd5b5060403660031901126101eb5761137a61261e565b602491823567ffffffffffffffff81116112e457366023820112156112e45780600401356113a781612696565b936113b56040519586612674565b81855260209182860193368883830101116115bd57818692898693018737870101526001600160a01b037f0000000000000000000000000000000000000000000000000000000000000000811630811490811561158f575b506113535761141a612a01565b8116946040516352d1902d60e01b815283816004818a5afa86918161155c575b5061145757604051634c9c8ce360e01b8152600481018890528890fd5b8690887f360894a13ba1a3210667c828492db98dca3e2076cc3735a920a3ca505d382bbc918281036115475750843b15611531575080546001600160a01b031916821790556040518692917fbc7cd75a20ee27fd9adebab32041f755214dbc6bffa90cc0225b39da2e5c2d3b8480a281511561151357506115069482915190845af4903d1561150a573d6114ea81612696565b906114f86040519283612674565b81528581943d92013e612a9a565b5080f35b60609250612a9a565b94505050505034611522575080f35b63b398979f60e01b8152600490fd5b604051634c9c8ce360e01b815260048101849052fd5b60405190632a87526960e21b82526004820152fd5b9091508481813d8311611588575b6115748183612674565b810103126115845751903861143a565b8680fd5b503d61156a565b9050817f360894a13ba1a3210667c828492db98dca3e2076cc3735a920a3ca505d382bbc541614153861140d565b8580fd5b50346101eb5760203660031901126101eb576115db61261e565b6115e3612a01565b6001600160a01b03166115f78115156127a5565b6001600160601b0360a01b600354161760035580f35b50346101eb57806003193601126101eb57602060405166470de4df8200008152f35b50346101eb5760203660031901126101eb5761164961261e565b611651612a01565b6001600160a01b03168015611676576001600160601b0360a01b600154161760015580f35b60405162461bcd60e51b815260206004820152602160248201527f496e76616c6964206c6971756964697479206d616e61676572206164647265736044820152607360f81b6064820152608490fd5b50346101eb57806003193601126101eb576001546040516001600160a01b039091168152602090f35b50346101eb57806003193601126101eb576020604051662386f26fc100008152f35b50346101eb5760203660031901126101eb57604060809160043581526009602052818120546008602052828220908252602052206002810154600b8110908161178e575b8161177b575b60038354930154906040519384526020840152604083015215156060820152f35b600583015460081c60ff1615915061175a565b600583015460ff16159150611754565b50346101eb57806003193601126101eb576020600654604051908152f35b50346101eb57806003193601126101eb576003546040516001600160a01b039091168152602090f35b50346101eb576117f43661264a565b906117fd6129d1565b6005546001600160a01b031633036124525780835260076020526040832090611828818354146126e0565b600582019182549261183d60ff85161561271d565b61184d60ff8560081c1615612761565b60028201600b81540361241d57600b8610156123e05761186f866001926126b2565b90549060031b1c94620100008260b01b038660101b169061ff018360b01b0319161717905560044291015580845260076020526040842093600185015493848060011b04600214851517156123cc576118ce60648660011b04866128f0565b93825b6002880154811015611a2f578281036118ed575b6001016118d1565b6119386020876119008460028d016126b2565b905460405163a9059cbb60e01b815260039290921b1c6001600160a01b03166004820152602481019190915291829081906044820190565b0381887355d398326f99059ff775485246999027b31979555af1908115610633578591611a10575b50156119cb578061197660019260028b016126b2565b838060a01b0391549060031b1c1686600080516020612b3e83398151915260806040518b815260406020820152601060408201526f4e6f6e2d77696e6e657220736861726560801b6060820152a390506118e5565b60405162461bcd60e51b815260206004820152601a60248201527f4e6f6e2d77696e6e6572207472616e73666572206661696c65640000000000006044820152606490fd5b611a29915060203d60201161062c5761061e8183612674565b38611960565b5085611a3f859360028a016126b2565b60018060a01b0391549060031b1c169084818060031b046008148215171561200657855460405163167801e160e11b81526004810185905290602090829060249082906001600160a01b03165afa908115611e545787916123ad575b506001600160a01b03811661201a575b5060648260031b048110611ec3575b50808060011b0460021481151715611de55760025460405163a9059cbb60e01b81526001600160a01b0390911660048201526064600183901b046024820152602081604481897355d398326f99059ff775485246999027b31979555af1908115611dda578691611ea4575b5015611e5f5760018060a01b036002541684600080516020612b3e833981519152608060405160648660011b04815260406020820152600960408201526827b832b930ba34b7b760b91b6060820152a380600a810204600a1481151715611de55760035460405163a9059cbb60e01b81526001600160a01b0390911660048201526064600a83020460248201819052906020816044818a7355d398326f99059ff775485246999027b31979555af1908115611e54578791611e35575b5015611df95784600080516020612b3e833981519152608060018060a01b0360035416936040519081526040602082015260046040820152630446170760e41b6060820152a3603c810290808204603c1490151715611de55760015460405163095ea7b360e01b81526001600160a01b039091166004820152606490910460248201819052909190602083604481897355d398326f99059ff775485246999027b31979555af1918215611dda57611cd893602093611dbd575b5060015460405163324741e760e21b81526001600160a01b039283166004820152602481019390935291938492909116908290889082906044820190565b03925af18015611d8757611d92575b50825483906001600160a01b0316803b156112e457604051632d2b3f8760e21b81526001600160a01b038416600482015291908290602490829084905af18015611d8757611d74575b506001600160a01b0316907fb7f35e624e036288272fbf3342c09219261ff29fdddd826989b289134e9ae5358380a36001600080516020612b1e8339815191525580f35b611d8090939193612660565b9183611d30565b6040513d86823e3d90fd5b602090813d8311611db6575b611da88183612674565b810103126106b45783611ce7565b503d611d9e565b611dd390843d861161062c5761061e8183612674565b5087611c9a565b6040513d88823e3d90fd5b634e487b7160e01b85526011600452602485fd5b60405162461bcd60e51b815260206004820152601460248201527311185c1c081d1c985b9cd9995c8819985a5b195960621b6044820152606490fd5b611e4e915060203d60201161062c5761061e8183612674565b87611be1565b6040513d89823e3d90fd5b60405162461bcd60e51b815260206004820152601960248201527f4f7065726174696f6e207472616e73666572206661696c6564000000000000006044820152606490fd5b611ebd915060203d60201161062c5761061e8183612674565b86611b25565b6064600383901b0481810311612006576004805460405163a9059cbb60e01b81526001600160a01b03909116918101919091526064600384901b0482900360248201526020816044818a7355d398326f99059ff775485246999027b31979555af1908115611e54578791611fe7575b5015611f965784600080516020612b3e833981519152608060018060a01b0360045416936040519060648760031b040381526040602082015260146040820152732932b6b0b4b734b7339031b7b6b6b4b9b9b4b7b760611b6060820152a385611aba565b60405162461bcd60e51b8152602060048201526024808201527f52656d61696e696e6720636f6d6d697373696f6e207472616e736665722066616044820152631a5b195960e21b6064820152608490fd5b612000915060203d60201161062c5761061e8183612674565b87611f32565b634e487b7160e01b86526011600452602486fd5b93949190926001945b601e861115808061239b575b1561238d578854604051631080b48560e21b81526001600160a01b03848116600483015290911690602081602481855afa908115612382578b91612363575b506120f0575b5050875460405163167801e160e11b81526001600160a01b0392831660048201529160209183916024918391165afa8015610711576120bb9189916120c1575b5095612913565b94612023565b6120e3915060203d6020116120e9575b6120db8183612674565b810190612a3a565b896120b4565b503d6120d1565b6040516375d20f3b60e01b81526001600160a01b038416600482015290602090829060249082905afa908115612279578a9161232d575b50871115612136575b80612074565b889060018803612284575050828060011b04600214831517156109c25760648360011b045b80156121305760405163a9059cbb60e01b81526001600160a01b0383166004820152602481018290529095906020816044818d7355d398326f99059ff775485246999027b31979555af1908115612279578a9161225a575b501561221557856121c3916128f0565b946040519081526040602082015260116040820152702ab83634b7329031b7b6b6b4b9b9b4b7b760791b606082015284600080516020612b3e833981519152608060018060a01b03851693a388612130565b60405162461bcd60e51b815260206004820152601a60248201527f436f6d6d697373696f6e207472616e73666572206661696c65640000000000006044820152606490fd5b612273915060203d60201161062c5761061e8183612674565b8a6121b3565b6040513d8c823e3d90fd5b600288036122a6575050828004600114831517156109c257606483045b61215b565b600388101580612322575b156122d6575050826003810204600314831517156109c2576103e8600384020461215b565b600b881015908161231a575b50156122a15750600d8381810204811484151715612306576127109084020461215b565b634e487b7160e01b89526011600452602489fd5b90508a6122e2565b50600a8811156122b1565b90506020813d60201161235b575b8161234860209383612674565b8101031261235757518a612127565b8980fd5b3d915061233b565b61237c915060203d60201161062c5761061e8183612674565b8b61206e565b6040513d8d823e3d90fd5b505092909194935086611aab565b506001600160a01b038216151561202f565b6123c6915060203d6020116120e9576120db8183612674565b87611a9b565b634e487b7160e01b82526011600452602482fd5b60405162461bcd60e51b815260206004820152601560248201527424b73b30b634b2103bb4b73732b910373ab6b132b960591b6044820152606490fd5b60405162461bcd60e51b815260206004820152600d60248201526c11d85b59481b9bdd08199d5b1b609a1b6044820152606490fd5b60405162461bcd60e51b815260206004820152602560248201527f4f6e6c792067616d65206f70657261746f722063616e206465636c617265207760448201526434b73732b960d91b6064820152608490fd5b50346101eb5760203660031901126101eb5760026040602092600435815260078452200154604051908152f35b50346101eb576020806003193601126112e4576001600160a01b036124f561261e565b168252600a81526040822060405192838383549182815201908193835284832090835b81811061256c575050508461252e910385612674565b60405193838594850191818652518092526040850193925b82811061255557505050500390f35b835185528695509381019392810192600101612546565b825484529286019260019283019201612518565b50346101eb5760203660031901126101eb57600480358252600760209081526040928390208054600182015460038301549483015460059093015486519283529382015293840192909252606083019190915260ff80821615156080840152600882901c16151560a083015260101c6001600160a01b031660c082015260e090f35b9050346112e457816003193601126112e457806105a060209252f35b600435906001600160a01b0382168203610d7b57565b602435906001600160a01b0382168203610d7b57565b6040906003190112610d7b576004359060243590565b67ffffffffffffffff8111610ebe57604052565b90601f8019910116810190811067ffffffffffffffff821117610ebe57604052565b67ffffffffffffffff8111610ebe57601f01601f191660200190565b80548210156126ca5760005260206000200190600090565b634e487b7160e01b600052603260045260246000fd5b156126e757565b60405162461bcd60e51b815260206004820152600e60248201526d11d85b59481b9bdd08199bdd5b9960921b6044820152606490fd5b1561272457565b60405162461bcd60e51b815260206004820152601560248201527411d85b5948185b1c9958591e48199a5b9a5cda1959605a1b6044820152606490fd5b1561276857565b60405162461bcd60e51b815260206004820152601560248201527411d85b5948185b1c9958591e481c99599d5b991959605a1b6044820152606490fd5b156127ac57565b60405162461bcd60e51b8152602060048201526014602482015273496e76616c69642064617070206164647265737360601b6044820152606490fd5b90816020910312610d7b57518015158103610d7b5790565b1561280757565b60405162461bcd60e51b815260206004820152602360248201527f496e76616c696420636f6d6d697373696f6e207265636569766572206164647260448201526265737360e81b6064820152608490fd5b1561285f57565b60405162461bcd60e51b815260206004820152601960248201527f496e76616c6964206f7065726174696f6e2061646472657373000000000000006044820152606490fd5b156128ab57565b60405162461bcd60e51b815260206004820152601d60248201527f496e76616c69642067616d65206f70657261746f7220616464726573730000006044820152606490fd5b919082018092116128fd57565b634e487b7160e01b600052601160045260246000fd5b60001981146128fd5760010190565b8054600160401b811015610ebe5761293f916001820181556126b2565b60018060a09493941b038084549260031b9316831b921b1916179055565b6001600160a01b039081169081156129b857600080516020612afe83398151915280546001600160a01b031981168417909155167f8be0079c531659141344cd1fd0a4f28419497f9722a3daafe3b4186f6b6457e0600080a3565b604051631e4fbdf760e01b815260006004820152602490fd5b600080516020612b1e83398151915260028154146129ef5760029055565b604051633ee5aeb560e01b8152600490fd5b600080516020612afe833981519152546001600160a01b03163303612a2257565b60405163118cdaa760e01b8152336004820152602490fd5b90816020910312610d7b57516001600160a01b0381168103610d7b5790565b60ff7ff0c57e16840df040f15088dc2f81fe391c3923bec73e23a9662efc9c229c6a005460401c1615612a8857565b604051631afcd79f60e31b8152600490fd5b90612ac15750805115612aaf57602081519101fd5b60405163d6bda27560e01b8152600490fd5b81511580612af4575b612ad2575090565b604051639996b31560e01b81526001600160a01b039091166004820152602490fd5b50803b15612aca56fe9016d09d72d40fdae2fd8ceac6b6234c7706214fd39c1cd1e609a0528c1993009b779b17422d0df92223018b32b4d1fa46e071723d6817e2486d003becc55f00a806e44d925d7b288bf49aebca26e1dcb893e0955d906c773b6264ec978cbd5da164736f6c6343000816000a",
  "implementation": "0xf198b278eb3D5583d02d45BC2526209492ff0714"
}