{
  "address": "0xB94a38B0512F076B762F260DCe2e262330db2662",
  "abi": [
    {
      "inputs": [],
      "stateMutability": "nonpayable",
      "type": "constructor"
    },
    {
      "inputs": [
        {
          "internalType": "address",
          "name": "target",
          "type": "address"
        }
      ],
      "name": "AddressEmptyCode",
      "type": "error"
    },
    {
      "inputs": [
        {
          "internalType": "address",
          "name": "implementation",
          "type": "address"
        }
      ],
      "name": "ERC1967InvalidImplementation",
      "type": "error"
    },
    {
      "inputs": [],
      "name": "ERC1967NonPayable",
      "type": "error"
    },
    {
      "inputs": [],
      "name": "FailedCall",
      "type": "error"
    },
    {
      "inputs": [],
      "name": "InvalidInitialization",
      "type": "error"
    },
    {
      "inputs": [],
      "name": "NotInitializing",
      "type": "error"
    },
    {
      "inputs": [
        {
          "internalType": "address",
          "name": "owner",
          "type": "address"
        }
      ],
      "name": "OwnableInvalidOwner",
      "type": "error"
    },
    {
      "inputs": [
        {
          "internalType": "address",
          "name": "account",
          "type": "address"
        }
      ],
      "name": "OwnableUnauthorizedAccount",
      "type": "error"
    },
    {
      "inputs": [],
      "name": "ReentrancyGuardReentrantCall",
      "type": "error"
    },
    {
      "inputs": [],
      "name": "UUPSUnauthorizedCallContext",
      "type": "error"
    },
    {
      "inputs": [
        {
          "internalType": "bytes32",
          "name": "slot",
          "type": "bytes32"
        }
      ],
      "name": "UUPSUnsupportedProxiableUUID",
      "type": "error"
    },
    {
      "anonymous": false,
      "inputs": [
        {
          "indexed": true,
          "internalType": "uint256",
          "name": "gameId",
          "type": "uint256"
        },
        {
          "indexed": false,
          "internalType": "uint256",
          "name": "betAmount",
          "type": "uint256"
        }
      ],
      "name": "GameCreated",
      "type": "event"
    },
    {
      "anonymous": false,
      "inputs": [
        {
          "indexed": true,
          "internalType": "uint256",
          "name": "gameId",
          "type": "uint256"
        },
        {
          "indexed": true,
          "internalType": "address",
          "name": "winner",
          "type": "address"
        }
      ],
      "name": "GameFinished",
      "type": "event"
    },
    {
      "anonymous": false,
      "inputs": [
        {
          "indexed": true,
          "internalType": "uint256",
          "name": "gameId",
          "type": "uint256"
        }
      ],
      "name": "GameRefunded",
      "type": "event"
    },
    {
      "anonymous": false,
      "inputs": [
        {
          "indexed": false,
          "internalType": "uint64",
          "name": "version",
          "type": "uint64"
        }
      ],
      "name": "Initialized",
      "type": "event"
    },
    {
      "anonymous": false,
      "inputs": [
        {
          "indexed": true,
          "internalType": "address",
          "name": "owner",
          "type": "address"
        },
        {
          "indexed": false,
          "internalType": "address",
          "name": "referral",
          "type": "address"
        },
        {
          "indexed": false,
          "internalType": "address",
          "name": "liquidityMgr",
          "type": "address"
        }
      ],
      "name": "Initialized",
      "type": "event"
    },
    {
      "anonymous": false,
      "inputs": [
        {
          "indexed": true,
          "internalType": "address",
          "name": "previousOwner",
          "type": "address"
        },
        {
          "indexed": true,
          "internalType": "address",
          "name": "newOwner",
          "type": "address"
        }
      ],
      "name": "OwnershipTransferred",
      "type": "event"
    },
    {
      "anonymous": false,
      "inputs": [
        {
          "indexed": true,
          "internalType": "uint256",
          "name": "gameId",
          "type": "uint256"
        },
        {
          "indexed": true,
          "internalType": "address",
          "name": "player",
          "type": "address"
        },
        {
          "indexed": false,
          "internalType": "uint256",
          "name": "playerIndex",
          "type": "uint256"
        }
      ],
      "name": "PlayerJoined",
      "type": "event"
    },
    {
      "anonymous": false,
      "inputs": [
        {
          "indexed": true,
          "internalType": "uint256",
          "name": "gameId",
          "type": "uint256"
        },
        {
          "indexed": true,
          "internalType": "address",
          "name": "recipient",
          "type": "address"
        },
        {
          "indexed": false,
          "internalType": "uint256",
          "name": "amount",
          "type": "uint256"
        },
        {
          "indexed": false,
          "internalType": "string",
          "name": "reason",
          "type": "string"
        }
      ],
      "name": "PrizePaid",
      "type": "event"
    },
    {
      "anonymous": false,
      "inputs": [
        {
          "indexed": true,
          "internalType": "address",
          "name": "implementation",
          "type": "address"
        }
      ],
      "name": "Upgraded",
      "type": "event"
    },
    {
      "inputs": [],
      "name": "GAME_TIMEOUT",
      "outputs": [
        {
          "internalType": "uint256",
          "name": "",
          "type": "uint256"
        }
      ],
      "stateMutability": "view",
      "type": "function"
    },
    {
      "inputs": [],
      "name": "GAME_TYPE_100",
      "outputs": [
        {
          "internalType": "uint256",
          "name": "",
          "type": "uint256"
        }
      ],
      "stateMutability": "view",
      "type": "function"
    },
    {
      "inputs": [],
      "name": "GAME_TYPE_200",
      "outputs": [
        {
          "internalType": "uint256",
          "name": "",
          "type": "uint256"
        }
      ],
      "stateMutability": "view",
      "type": "function"
    },
    {
      "inputs": [],
      "name": "GAME_TYPE_300",
      "outputs": [
        {
          "internalType": "uint256",
          "name": "",
          "type": "uint256"
        }
      ],
      "stateMutability": "view",
      "type": "function"
    },
    {
      "inputs": [],
      "name": "PLAYERS_PER_GAME",
      "outputs": [
        {
          "internalType": "uint256",
          "name": "",
          "type": "uint256"
        }
      ],
      "stateMutability": "view",
      "type": "function"
    },
    {
      "inputs": [],
      "name": "UPGRADE_INTERFACE_VERSION",
      "outputs": [
        {
          "internalType": "string",
          "name": "",
          "type": "string"
        }
      ],
      "stateMutability": "view",
      "type": "function"
    },
    {
      "inputs": [],
      "name": "USDT",
      "outputs": [
        {
          "internalType": "address",
          "name": "",
          "type": "address"
        }
      ],
      "stateMutability": "view",
      "type": "function"
    },
    {
      "inputs": [
        {
          "internalType": "uint256",
          "name": "",
          "type": "uint256"
        }
      ],
      "name": "currentGameIndex",
      "outputs": [
        {
          "internalType": "uint256",
          "name": "",
          "type": "uint256"
        }
      ],
      "stateMutability": "view",
      "type": "function"
    },
    {
      "inputs": [],
      "name": "dappAddress",
      "outputs": [
        {
          "internalType": "address",
          "name": "",
          "type": "address"
        }
      ],
      "stateMutability": "view",
      "type": "function"
    },
    {
      "inputs": [
        {
          "internalType": "uint256",
          "name": "gameId",
          "type": "uint256"
        },
        {
          "internalType": "address",
          "name": "winner",
          "type": "address"
        }
      ],
      "name": "declareWinner",
      "outputs": [],
      "stateMutability": "nonpayable",
      "type": "function"
    },
    {
      "inputs": [
        {
          "internalType": "address",
          "name": "token",
          "type": "address"
        },
        {
          "internalType": "uint256",
          "name": "amount",
          "type": "uint256"
        }
      ],
      "name": "emergencyWithdraw",
      "outputs": [],
      "stateMutability": "nonpayable",
      "type": "function"
    },
    {
      "inputs": [],
      "name": "gameIdCounter",
      "outputs": [
        {
          "internalType": "uint256",
          "name": "",
          "type": "uint256"
        }
      ],
      "stateMutability": "view",
      "type": "function"
    },
    {
      "inputs": [],
      "name": "gameOperator",
      "outputs": [
        {
          "internalType": "address",
          "name": "",
          "type": "address"
        }
      ],
      "stateMutability": "view",
      "type": "function"
    },
    {
      "inputs": [
        {
          "internalType": "uint256",
          "name": "",
          "type": "uint256"
        }
      ],
      "name": "gameTypes",
      "outputs": [
        {
          "internalType": "uint256",
          "name": "",
          "type": "uint256"
        }
      ],
      "stateMutability": "view",
      "type": "function"
    },
    {
      "inputs": [
        {
          "internalType": "uint256",
          "name": "",
          "type": "uint256"
        }
      ],
      "name": "games",
      "outputs": [
        {
          "internalType": "uint256",
          "name": "gameId",
          "type": "uint256"
        },
        {
          "internalType": "uint256",
          "name": "betAmount",
          "type": "uint256"
        },
        {
          "internalType": "uint256",
          "name": "startTime",
          "type": "uint256"
        },
        {
          "internalType": "uint256",
          "name": "endTime",
          "type": "uint256"
        },
        {
          "internalType": "bool",
          "name": "finished",
          "type": "bool"
        },
        {
          "internalType": "bool",
          "name": "refunded",
          "type": "bool"
        },
        {
          "internalType": "address",
          "name": "winner",
          "type": "address"
        }
      ],
      "stateMutability": "view",
      "type": "function"
    },
    {
      "inputs": [
        {
          "internalType": "uint256",
          "name": "",
          "type": "uint256"
        },
        {
          "internalType": "uint256",
          "name": "",
          "type": "uint256"
        }
      ],
      "name": "gamesByType",
      "outputs": [
        {
          "internalType": "uint256",
          "name": "gameId",
          "type": "uint256"
        },
        {
          "internalType": "uint256",
          "name": "betAmount",
          "type": "uint256"
        },
        {
          "internalType": "uint256",
          "name": "startTime",
          "type": "uint256"
        },
        {
          "internalType": "uint256",
          "name": "endTime",
          "type": "uint256"
        },
        {
          "internalType": "bool",
          "name": "finished",
          "type": "bool"
        },
        {
          "internalType": "bool",
          "name": "refunded",
          "type": "bool"
        },
        {
          "internalType": "address",
          "name": "winner",
          "type": "address"
        }
      ],
      "stateMutability": "view",
      "type": "function"
    },
    {
      "inputs": [
        {
          "internalType": "uint256",
          "name": "betAmount",
          "type": "uint256"
        }
      ],
      "name": "getCurrentGame",
      "outputs": [
        {
          "internalType": "uint256",
          "name": "gameId",
          "type": "uint256"
        },
        {
          "internalType": "uint256",
          "name": "playerCount",
          "type": "uint256"
        },
        {
          "internalType": "uint256",
          "name": "startTime",
          "type": "uint256"
        },
        {
          "internalType": "bool",
          "name": "canJoin",
          "type": "bool"
        }
      ],
      "stateMutability": "view",
      "type": "function"
    },
    {
      "inputs": [
        {
          "internalType": "uint256",
          "name": "gameId",
          "type": "uint256"
        }
      ],
      "name": "getGame",
      "outputs": [
        {
          "internalType": "uint256",
          "name": "id",
          "type": "uint256"
        },
        {
          "internalType": "uint256",
          "name": "betAmount",
          "type": "uint256"
        },
        {
          "internalType": "address[]",
          "name": "players",
          "type": "address[]"
        },
        {
          "internalType": "uint256",
          "name": "startTime",
          "type": "uint256"
        },
        {
          "internalType": "uint256",
          "name": "endTime",
          "type": "uint256"
        },
        {
          "internalType": "bool",
          "name": "finished",
          "type": "bool"
        },
        {
          "internalType": "bool",
          "name": "refunded",
          "type": "bool"
        },
        {
          "internalType": "address",
          "name": "winner",
          "type": "address"
        }
      ],
      "stateMutability": "view",
      "type": "function"
    },
    {
      "inputs": [
        {
          "internalType": "uint256",
          "name": "gameId",
          "type": "uint256"
        }
      ],
      "name": "getGamePlayers",
      "outputs": [
        {
          "internalType": "uint256",
          "name": "",
          "type": "uint256"
        }
      ],
      "stateMutability": "view",
      "type": "function"
    },
    {
      "inputs": [
        {
          "internalType": "address",
          "name": "user",
          "type": "address"
        }
      ],
      "name": "getUserGames",
      "outputs": [
        {
          "internalType": "uint256[]",
          "name": "",
          "type": "uint256[]"
        }
      ],
      "stateMutability": "view",
      "type": "function"
    },
    {
      "inputs": [
        {
          "internalType": "address",
          "name": "_referralContract",
          "type": "address"
        },
        {
          "internalType": "address",
          "name": "_liquidityManager",
          "type": "address"
        },
        {
          "internalType": "address",
          "name": "_operationAddress",
          "type": "address"
        },
        {
          "internalType": "address",
          "name": "_dappAddress",
          "type": "address"
        }
      ],
      "name": "initialize",
      "outputs": [],
      "stateMutability": "nonpayable",
      "type": "function"
    },
    {
      "inputs": [
        {
          "internalType": "uint256",
          "name": "betAmount",
          "type": "uint256"
        },
        {
          "internalType": "address",
          "name": "referrer",
          "type": "address"
        }
      ],
      "name": "joinGame",
      "outputs": [],
      "stateMutability": "nonpayable",
      "type": "function"
    },
    {
      "inputs": [],
      "name": "liquidityManager",
      "outputs": [
        {
          "internalType": "contract IPDALiquidityManager",
          "name": "",
          "type": "address"
        }
      ],
      "stateMutability": "view",
      "type": "function"
    },
    {
      "inputs": [],
      "name": "operationAddress",
      "outputs": [
        {
          "internalType": "address",
          "name": "",
          "type": "address"
        }
      ],
      "stateMutability": "view",
      "type": "function"
    },
    {
      "inputs": [],
      "name": "owner",
      "outputs": [
        {
          "internalType": "address",
          "name": "",
          "type": "address"
        }
      ],
      "stateMutability": "view",
      "type": "function"
    },
    {
      "inputs": [],
      "name": "proxiableUUID",
      "outputs": [
        {
          "internalType": "bytes32",
          "name": "",
          "type": "bytes32"
        }
      ],
      "stateMutability": "view",
      "type": "function"
    },
    {
      "inputs": [],
      "name": "referralContract",
      "outputs": [
        {
          "internalType": "contract IPDAReferral",
          "name": "",
          "type": "address"
        }
      ],
      "stateMutability": "view",
      "type": "function"
    },
    {
      "inputs": [
        {
          "internalType": "uint256",
          "name": "gameId",
          "type": "uint256"
        }
      ],
      "name": "refundGame",
      "outputs": [],
      "stateMutability": "nonpayable",
      "type": "function"
    },
    {
      "inputs": [],
      "name": "renounceOwnership",
      "outputs": [],
      "stateMutability": "nonpayable",
      "type": "function"
    },
    {
      "inputs": [
        {
          "internalType": "address",
          "name": "_dappAddress",
          "type": "address"
        }
      ],
      "name": "setDappAddress",
      "outputs": [],
      "stateMutability": "nonpayable",
      "type": "function"
    },
    {
      "inputs": [
        {
          "internalType": "address",
          "name": "_gameOperator",
          "type": "address"
        }
      ],
      "name": "setGameOperator",
      "outputs": [],
      "stateMutability": "nonpayable",
      "type": "function"
    },
    {
      "inputs": [
        {
          "internalType": "address",
          "name": "_operationAddress",
          "type": "address"
        }
      ],
      "name": "setOperationAddress",
      "outputs": [],
      "stateMutability": "nonpayable",
      "type": "function"
    },
    {
      "inputs": [
        {
          "internalType": "address",
          "name": "newOwner",
          "type": "address"
        }
      ],
      "name": "transferOwnership",
      "outputs": [],
      "stateMutability": "nonpayable",
      "type": "function"
    },
    {
      "inputs": [
        {
          "internalType": "address",
          "name": "newImplementation",
          "type": "address"
        },
        {
          "internalType": "bytes",
          "name": "data",
          "type": "bytes"
        }
      ],
      "name": "upgradeToAndCall",
      "outputs": [],
      "stateMutability": "payable",
      "type": "function"
    },
    {
      "inputs": [
        {
          "internalType": "address",
          "name": "",
          "type": "address"
        },
        {
          "internalType": "uint256",
          "name": "",
          "type": "uint256"
        }
      ],
      "name": "userGames",
      "outputs": [
        {
          "internalType": "uint256",
          "name": "",
          "type": "uint256"
        }
      ],
      "stateMutability": "view",
      "type": "function"
    }
  ],
  "transactionHash": "0xb922fd239c90fa3a0a465a4cbc13ec8888c79af6e260cb75cf63afc0be3ceb2a",
  "numDeployments": 4,
  "bytecode": "0x60a080604052346100cc57306080527ff0c57e16840df040f15088dc2f81fe391c3923bec73e23a9662efc9c229c6a009081549060ff8260401c166100bd57506001600160401b036002600160401b031982821601610078575b6040516128de90816100d28239608051818181611a890152611b6f0152f35b6001600160401b031990911681179091556040519081527fc7f505b2f371ae2175ee4913f4499e1f2633a7b5936321eed1cdaeb6115181d290602090a1388080610059565b63f92ee8a960e01b8152600490fd5b600080fdfe608080604052600436101561001357600080fd5b600090813560e01c908163099420b61461203657508063117a5b9014611fb4578063120aace614611f0657806315a40f4914611ed95780631a721b7b14611eb05780631bb412d614611e925780631c063c7714611e04578063288db7c614611de25780633382743814611db957806343d2891414611d9757806348aa44dd14611d4b5780634f1ef28614611af357806352d1902d14611a765780636470b36614611a49578063715018a6146119df57806373f9c767146119c35780637dad19db1461199c57806381cba5e21461191057806386910499146118ee5780638da5cb5b146118b857806395ccea67146117e4578063a2f77bcc146116dd578063a441c302146116b4578063ad3cb1cc14611610578063bc0167cd146115ba578063c2ead6b914611591578063c54e44eb14611562578063d53ce95614611516578063d7260cba146112ce578063da46a73c14611242578063e374b09714610acd578063ead00e02146104e1578063f2fde38b146104b4578063f78045901461048a5763f8c8765e146101a257600080fd5b34610487576080366003190112610487576101bb612052565b6101c3612068565b906001600160a01b039060443582811691908290036104825760643591838316809303610482577ff0c57e16840df040f15088dc2f81fe391c3923bec73e23a9662efc9c229c6a009384549560ff8760401c16159467ffffffffffffffff88169788158061047b575b6001809a149081610471575b159081610468575b506104565767ffffffffffffffff1981168917885586610437575b508285169283156103f25782169283156103ad5784610360946102a07fad307780531f6353137c35adc50ad58d71b76e76aa891e729387f2e720f2de2097151561216f565b6102ab841515612114565b6102b36127cd565b6102bb6127cd565b6102c4336122e0565b6102cc6127cd565b6102d46127cd565b6102dc6127cd565b8a600080516020612892833981519152556001600160601b0360a01b92838d5416178c55828b5416178a55816002541617600255600354161760035566038d7ea4c68000600a5566071afd498d0000600b55660aa87bee538000600c5560405191829133958390602090939293604083019460018060a01b03809216845216910152565b0390a261036b578280f35b805468ff0000000000000000191690556040519081527fc7f505b2f371ae2175ee4913f4499e1f2633a7b5936321eed1cdaeb6115181d290602090a138808280f35b60405162461bcd60e51b815260206004820152601960248201527f496e76616c6964206c6971756964697479206d616e61676572000000000000006044820152606490fd5b60405162461bcd60e51b815260206004820152601960248201527f496e76616c696420726566657272616c20636f6e7472616374000000000000006044820152606490fd5b68ffffffffffffffffff1916680100000000000000011787553861025b565b60405163f92ee8a960e01b8152600490fd5b90501538610240565b303b159150610238565b508661022c565b600080fd5b80fd5b50346104875760203660031901126104875760406020916004358152600883522054604051908152f35b5034610487576020366003190112610487576104de6104d1612052565b6104d9612354565b6122e0565b80f35b5034610487576040366003190112610487576004356104fe612068565b61050661238d565b66038d7ea4c6800082148015610abd575b8015610aad575b15610a73578254604051630308a59b60e31b815233600482015260249360209390926001600160a01b0392908316919085818881865afa908115610a68578891610a4b575b50156109a4575b50506040516323b872dd60e01b81523360048201523085820152604481018390528381606481897355d398326f99059ff775485246999027b31979555af190811561099957869161096c575b5015610931578185526008835260408520549360078452604086208587528452856040812092600284015480156000146107f657506105f6600554612280565b8060055580948184526006885260058060408620848155896001820155426003820155019161ffff1992838154169055838155886001820155426003820155019081541690557fa26856d25e558c79e1632806bc6824075cf59885a115825f2aab62385a3f714287604051888152a25b815416803b156107f2578180918460405180948193632d2b3f8760e21b83523360048401525af180156107e7576107cf575b50829052600684526106b033600260408920016122a5565b828652600784526040862085875284526106d033600260408920016122a5565b3386526009845260408620805490600160401b8210156107bc57906106fa916001820181556120e6565b919080549260031b600019938486831b921b19161790558287526006855260026040882001549182019182116107aa5750604051908152817f03dfbe1fcb4e2d61f3b4a0c93d8f814c92250618b3387f396cc9fc9fafe2c203853393a384526006825260408420600b600282015414610784575b8460016000805160206128928339815191525580f35b60044291015583526007815260408320918352524260046040832001553880808061076e565b634e487b7160e01b8752601160045286fd5b634e487b7160e01b885260416004528288fd5b6107d89061207e565b6107e3578538610698565b8580fd5b6040513d84823e3d90fd5b5080fd5b9296909392909190600b116109275750506005015460ff8116908115610919575b50156108d55781855260088352604085206108328154612280565b9055818552600883526040852054938561084d600554612280565b928360055583808352600687526005604084208281558760018201554260038201550161ffff199081815416905586845260078852604084208985528852600560408520838155886001820155426003820155019081541690557fa26856d25e558c79e1632806bc6824075cf59885a115825f2aab62385a3f714287604051888152a2610666565b60405162461bcd60e51b815260048101849052601d818601527f43757272656e742067616d65206e6f742066696e6973686564207965740000006044820152606490fd5b60ff915060081c1638610817565b9095915492610666565b60405162461bcd60e51b815260048101849052601481860152731554d115081d1c985b9cd9995c8819985a5b195960621b6044820152606490fd5b61098c9150843d8611610992575b61098481836120a8565b810190612157565b386105b6565b503d61097a565b6040513d88823e3d90fd5b82811615610a0f57908691813b15610a0b57604051637e540b2b60e01b81523360048201526001600160a01b0391909116602482015291908290604490829084905af18015610999576109f8575b8061056a565b610a049095919561207e565b93386109f2565b8280fd5b60405162461bcd60e51b8152600481018690526015818801527426bab9ba10383937bb34b232903932b332b93932b960591b6044820152606490fd5b610a629150863d88116109925761098481836120a8565b38610563565b6040513d8a823e3d90fd5b60405162461bcd60e51b8152602060048201526012602482015271125b9d985b1a590818995d08185b5bdd5b9d60721b6044820152606490fd5b50660aa87bee538000821461051e565b5066071afd498d00008214610517565b503461048757604036600319011261048757610ae7612068565b90610af061238d565b6004546001600160a01b031633036111ef576004358152600660205260408120610b1e6004358254146121bb565b600581018054610b3160ff8216156121f8565b610b4160ff8260081c161561223c565b600283018054600b81036111ba578591865b82811061117e575b505050156111395761ff01600160b01b031916601085901b62010000600160b01b0316176001908117909155426004928301559035825260066020526040822090810154909290918215600b808502859004141715611125576016830291600b84028304600214600b850215171561111157815b6002860154811015610d6157610be881600288016120e6565b90546001600160a01b0384811660039390931b9190911c1603610c0e575b600101610bcf565b610c596020610c208360028a016120e6565b905460405163a9059cbb60e01b815260039290921b1c6001600160a01b0316600482015260648704602482015291829081906044820190565b0381877355d398326f99059ff775485246999027b31979555af1908115610d56578491610d37575b5015610cf25780610c97600192600289016120e6565b838060a01b0391549060031b1c1660405160648704815260406020820152601060408201526f4e6f6e2d77696e6e657220736861726560801b60608201526000805160206128b2833981519152608060043592a39050610c06565b60405162461bcd60e51b815260206004820152601a60248201527f4e6f6e2d77696e6e6572207472616e73666572206661696c65640000000000006044820152606490fd5b610d50915060203d6020116109925761098481836120a8565b38610c81565b6040513d86823e3d90fd5b508383610d74600b8302846004356123dc565b5060025460405163a9059cbb60e01b81526001600160a01b039091166004820152606482046024820152602081604481887355d398326f99059ff775485246999027b31979555af19081156110a25785916110f2575b50156110ad5760018060a01b03600254169060646040519104815260406020820152600960408201526827b832b930ba34b7b760b91b60608201526000805160206128b2833981519152608060043592a3600b8102606e820204600a14600b82021517156110335760035460405163a9059cbb60e01b81526001600160a01b0390911660048201526064606e8302046024820181905290602081604481887355d398326f99059ff775485246999027b31979555af19081156110a2578591611083575b50156110475760018060a01b0360035416906040519081526040602082015260046040820152630446170760e41b60608201526000805160206128b2833981519152608060043592a3610294810290600b8082028304603c1491021517156110335760015460405163095ea7b360e01b81526001600160a01b039091166004820152606490910460248201819052839190602082604481867355d398326f99059ff775485246999027b31979555af190811561100b57602092610f8b92611016575b5060015460405163324741e760e21b81526001600160a01b03878116600483015260248201939093529485939190921691839182906044820190565b03925af1801561100b57610fe0575b506001600160a01b03166004357fb7f35e624e036288272fbf3342c09219261ff29fdddd826989b289134e9ae5358380a360016000805160206128928339815191525580f35b602090813d8311611004575b610ff681836120a8565b810103126107f25782610f9a565b503d610fec565b6040513d85823e3d90fd5b61102c90843d86116109925761098481836120a8565b5086610f4f565b634e487b7160e01b83526011600452602483fd5b60405162461bcd60e51b815260206004820152601460248201527311185c1c081d1c985b9cd9995c8819985a5b195960621b6044820152606490fd5b61109c915060203d6020116109925761098481836120a8565b85610e8d565b6040513d87823e3d90fd5b60405162461bcd60e51b815260206004820152601960248201527f4f7065726174696f6e207472616e73666572206661696c6564000000000000006044820152606490fd5b61110b915060203d6020116109925761098481836120a8565b85610dca565b634e487b7160e01b82526011600452602482fd5b634e487b7160e01b81526011600452602490fd5b60405162461bcd60e51b815260206004820152601760248201527f57696e6e6572206d757374206265206120706c617965720000000000000000006044820152606490fd5b61118881836120e6565b905460039190911b1c6001600160a01b03908116908a16146111ac57600101610b53565b505050506001388080610b5b565b60405162461bcd60e51b815260206004820152600d60248201526c11d85b59481b9bdd08199d5b1b609a1b6044820152606490fd5b60405162461bcd60e51b815260206004820152602560248201527f4f6e6c792067616d65206f70657261746f722063616e206465636c617265207760448201526434b73732b960d91b6064820152608490fd5b50346104875760203660031901126104875761125c612052565b611264612354565b6001600160a01b03168015611289576001600160601b0360a01b600454161760045580f35b60405162461bcd60e51b815260206004820152601d60248201527f496e76616c69642067616d65206f70657261746f7220616464726573730000006044820152606490fd5b50346104875760209081600319360112610487576004356112ed61238d565b808252600683526040822092611305828554146121bb565b600584019081549461131a60ff8716156121f8565b61132a60ff8760081c161561223c565b6002810192600b845410156114e257600390600383015461070881018091116114ce574210611490576101006001959861ff001916179055859684859301925b6113aa575b86867f3f089de9d7a24f4fa13fc08c92aea5efef51005bfc944583d8062c43f78672b88280a260016000805160206128928339815191525580f35b805488101561148b576113f8846113c18a846120e6565b9054865460405163a9059cbb60e01b815292871b9190911c6001600160a01b03166004830152602482015291829081906044820190565b03818b7355d398326f99059ff775485246999027b31979555af1908115610a6857889161146e575b501561143057968401968461136a565b60405162461bcd60e51b81526004810185905260166024820152751499599d5b99081d1c985b9cd9995c8819985a5b195960521b6044820152606490fd5b6114859150853d87116109925761098481836120a8565b38611420565b61136f565b60405162461bcd60e51b815260048101859052601660248201527511d85b59481b9bdd081d1a5b5959081bdd5d081e595d60521b6044820152606490fd5b634e487b7160e01b88526011600452602488fd5b60405162461bcd60e51b815260048101849052600c60248201526b11d85b59481a5cc8199d5b1b60a21b6044820152606490fd5b503461048757602036600319011261048757611530612052565b611538612354565b6001600160a01b031661154c81151561216f565b6001600160601b0360a01b600254161760025580f35b503461048757806003193601126104875760206040517355d398326f99059ff775485246999027b31979558152f35b50346104875780600319360112610487576004546040516001600160a01b039091168152602090f35b5034610487576040366003190112610487576115d4612052565b6001600160a01b031681526009602052604081208054602435929083101561048757602061160284846120e6565b90546040519160031b1c8152f35b50346104875780600319360112610487576040516040810181811067ffffffffffffffff8211176116a05760405260058152602091640352e302e360dc1b602083015260405192839160208352835191826020850152815b83811061168957505060408094508284010152601f80199101168101030190f35b808601820151878201604001528694508101611668565b634e487b7160e01b83526041600452602483fd5b50346104875780600319360112610487576002546040516001600160a01b039091168152602090f35b503461048757602090816003193601126104875760043581526006825260408120908154926001936001840154936002810193600382015490600560048401549301549360018060a01b039560405180828a54918281520190819a8652838620908d875b8c8382106117d05750505050508161175a9103826120a8565b6040519961010090818c01948c52838c015260408b015251809252610120890197925b8281106117bb57505050508596506060860152608085015260ff8116151560a085015260ff8160081c16151560c085015260101c1660e08301520390f35b83518816895297810197928101928a0161177d565b845416855293860193928101928101611741565b5034610487576040366003190112610487576117fe612052565b611806612354565b6000805160206128728339815191525460405163a9059cbb60e01b81526001600160a01b039182166004820152602480359082015291602091839160449183918791165af19081156107e7578291611899575b50156118625780f35b60405162461bcd60e51b815260206004820152600f60248201526e151c985b9cd9995c8819985a5b1959608a1b6044820152606490fd5b6118b2915060203d6020116109925761098481836120a8565b38611859565b5034610487578060031936011261048757600080516020612872833981519152546040516001600160a01b039091168152602090f35b50346104875780600319360112610487576020604051660aa87bee5380008152f35b50346104875760403660031901126104875760048035825260076020908152604080842060243585528252928390208054600182015460038301549483015460059093015486519283529382015293840192909252606083019190915260ff80821615156080840152600882901c16151560a083015260101c6001600160a01b031660c082015260e090f35b5034610487578060031936011261048757546040516001600160a01b039091168152602090f35b50346104875780600319360112610487576020604051600b8152f35b50346104875780600319360112610487576119f8612354565b60008051602061287283398151915280546001600160a01b0319811690915581906001600160a01b03167f8be0079c531659141344cd1fd0a4f28419497f9722a3daafe3b4186f6b6457e08280a380f35b50346104875760203660031901126104875760043560038110156107f257602090600a0154604051908152f35b50346104875780600319360112610487577f00000000000000000000000000000000000000000000000000000000000000006001600160a01b03163003611ae15760206040517f360894a13ba1a3210667c828492db98dca3e2076cc3735a920a3ca505d382bbc8152f35b60405163703e46dd60e11b8152600490fd5b50604036600319011261048757611b08612052565b602491823567ffffffffffffffff81116107f257366023820112156107f2578060040135611b35816120ca565b93611b4360405195866120a8565b81855260209182860193368883830101116107e357818692898693018737870101526001600160a01b037f00000000000000000000000000000000000000000000000000000000000000008116308114908115611d1d575b50611ae157611ba8612354565b8116946040516352d1902d60e01b815283816004818a5afa869181611cea575b50611be557604051634c9c8ce360e01b8152600481018890528890fd5b8690887f360894a13ba1a3210667c828492db98dca3e2076cc3735a920a3ca505d382bbc91828103611cd55750843b15611cbf575080546001600160a01b031916821790556040518692917fbc7cd75a20ee27fd9adebab32041f755214dbc6bffa90cc0225b39da2e5c2d3b8480a2815115611ca15750611c949482915190845af4903d15611c98573d611c78816120ca565b90611c8660405192836120a8565b81528581943d92013e61280e565b5080f35b6060925061280e565b94505050505034611cb0575080f35b63b398979f60e01b8152600490fd5b604051634c9c8ce360e01b815260048101849052fd5b60405190632a87526960e21b82526004820152fd5b9091508481813d8311611d16575b611d0281836120a8565b81010312611d1257519038611bc8565b8680fd5b503d611cf8565b9050817f360894a13ba1a3210667c828492db98dca3e2076cc3735a920a3ca505d382bbc5416141538611b9b565b503461048757602036600319011261048757611d65612052565b611d6d612354565b6001600160a01b0316611d81811515612114565b6001600160601b0360a01b600354161760035580f35b5034610487578060031936011261048757602060405166071afd498d00008152f35b50346104875780600319360112610487576001546040516001600160a01b039091168152602090f35b5034610487578060031936011261048757602060405166038d7ea4c680008152f35b503461048757602036600319011261048757604060809160043581526008602052818120546007602052828220908252602052206002810154600b81109081611e82575b81611e6f575b60038354930154906040519384526020840152604083015215156060820152f35b600583015460081c60ff16159150611e4e565b600583015460ff16159150611e48565b50346104875780600319360112610487576020600554604051908152f35b50346104875780600319360112610487576003546040516001600160a01b039091168152602090f35b50346104875760203660031901126104875760026040602092600435815260068452200154604051908152f35b5034610487576020806003193601126107f2576001600160a01b03611f29612052565b168252600981526040822060405192838383549182815201908193835284832090835b818110611fa05750505084611f629103856120a8565b60405193838594850191818652518092526040850193925b828110611f8957505050500390f35b835185528695509381019392810192600101611f7a565b825484529286019260019283019201611f4c565b503461048757602036600319011261048757600480358252600660209081526040928390208054600182015460038301549483015460059093015486519283529382015293840192909252606083019190915260ff80821615156080840152600882901c16151560a083015260101c6001600160a01b031660c082015260e090f35b9050346107f257816003193601126107f2578061070860209252f35b600435906001600160a01b038216820361048257565b602435906001600160a01b038216820361048257565b67ffffffffffffffff811161209257604052565b634e487b7160e01b600052604160045260246000fd5b90601f8019910116810190811067ffffffffffffffff82111761209257604052565b67ffffffffffffffff811161209257601f01601f191660200190565b80548210156120fe5760005260206000200190600090565b634e487b7160e01b600052603260045260246000fd5b1561211b57565b60405162461bcd60e51b8152602060048201526014602482015273496e76616c69642064617070206164647265737360601b6044820152606490fd5b90816020910312610482575180151581036104825790565b1561217657565b60405162461bcd60e51b815260206004820152601960248201527f496e76616c6964206f7065726174696f6e2061646472657373000000000000006044820152606490fd5b156121c257565b60405162461bcd60e51b815260206004820152600e60248201526d11d85b59481b9bdd08199bdd5b9960921b6044820152606490fd5b156121ff57565b60405162461bcd60e51b815260206004820152601560248201527411d85b5948185b1c9958591e48199a5b9a5cda1959605a1b6044820152606490fd5b1561224357565b60405162461bcd60e51b815260206004820152601560248201527411d85b5948185b1c9958591e481c99599d5b991959605a1b6044820152606490fd5b600019811461228f5760010190565b634e487b7160e01b600052601160045260246000fd5b8054600160401b811015612092576122c2916001820181556120e6565b60018060a09493941b038084549260031b9316831b921b1916179055565b6001600160a01b0390811690811561233b5760008051602061287283398151915280546001600160a01b031981168417909155167f8be0079c531659141344cd1fd0a4f28419497f9722a3daafe3b4186f6b6457e0600080a3565b604051631e4fbdf760e01b815260006004820152602490fd5b600080516020612872833981519152546001600160a01b0316330361237557565b60405163118cdaa760e01b8152336004820152602490fd5b60008051602061289283398151915260028154146123ab5760029055565b604051633ee5aeb560e01b8152600490fd5b9081602091031261048257516001600160a01b03811681036104825790565b6000805460405163167801e160e11b81526001600160a01b0394851660048201529594919360209187916024918391165afa94851561100b5783956127ac575b506001600160a01b038516156127a5578283955b601e871080612793575b1561278a57600054604051631080b48560e21b81526001600160a01b03838116600483015290911690602081602481855afa9081156124fe5760009161276b575b5061250a575b5060005460405163167801e160e11b81526001600160a01b0392831660048201529160209183916024918391165afa80156124fe576124c9916000916124cf575b5096612280565b95612430565b6124f1915060203d6020116124f7575b6124e981836120a8565b8101906123bd565b386124c2565b503d6124df565b6040513d6000823e3d90fd5b916020612518602492612280565b6040516375d20f3b60e01b81526001600160a01b038516600482015290949092839182905afa9081156124fe57600091612739575b5082111561255c575b38612481565b82600160008482036126a357501b8381046002148415171561228f57606490045b80612589575b50612556565b60405163a9059cbb60e01b81526001600160a01b03831660048201526024810182905290959060208160448160007355d398326f99059ff775485246999027b31979555af19081156124fe57600091612684575b501561263f5785810180911161228f57946040519081526040602082015260116040820152702ab83634b7329031b7b6b6b4b9b9b4b7b760791b6060820152846000805160206128b2833981519152608060018060a01b03851693a338612583565b60405162461bcd60e51b815260206004820152601a60248201527f436f6d6d697373696f6e207472616e73666572206661696c65640000000000006044820152606490fd5b61269d915060203d6020116109925761098481836120a8565b386125dd565b909150600284036126c55750838004148315171561228f57606483045b61257d565b60039150818410158061272e575b156126f3575080840290848204148415171561228f576103e8900461257d565b9050600b83101580612723575b156126c057600d908185029185830414851517156111255750612710900461257d565b50601e831115612700565b50600a8411156126d3565b906020823d602011612763575b81612753602093836120a8565b810103126104875750513861254d565b3d9150612746565b612784915060203d6020116109925761098481836120a8565b3861247b565b50929450505050565b506001600160a01b038116151561243a565b5090925050565b6127c691955060203d6020116124f7576124e981836120a8565b933861241c565b60ff7ff0c57e16840df040f15088dc2f81fe391c3923bec73e23a9662efc9c229c6a005460401c16156127fc57565b604051631afcd79f60e31b8152600490fd5b90612835575080511561282357602081519101fd5b60405163d6bda27560e01b8152600490fd5b81511580612868575b612846575090565b604051639996b31560e01b81526001600160a01b039091166004820152602490fd5b50803b1561283e56fe9016d09d72d40fdae2fd8ceac6b6234c7706214fd39c1cd1e609a0528c1993009b779b17422d0df92223018b32b4d1fa46e071723d6817e2486d003becc55f00a806e44d925d7b288bf49aebca26e1dcb893e0955d906c773b6264ec978cbd5da164736f6c6343000816000a",
  "implementation": "0x390ef1296FCcCE64e6f67925250A3A2dAc7b5Cbd"
}