{
  "address": "0x6E6b90DD50b8EC288F5b7c652951B81b68611C1e",
  "abi": [
    {
      "inputs": [],
      "stateMutability": "nonpayable",
      "type": "constructor"
    },
    {
      "inputs": [
        {
          "internalType": "address",
          "name": "target",
          "type": "address"
        }
      ],
      "name": "AddressEmptyCode",
      "type": "error"
    },
    {
      "inputs": [
        {
          "internalType": "address",
          "name": "implementation",
          "type": "address"
        }
      ],
      "name": "ERC1967InvalidImplementation",
      "type": "error"
    },
    {
      "inputs": [],
      "name": "ERC1967NonPayable",
      "type": "error"
    },
    {
      "inputs": [],
      "name": "FailedCall",
      "type": "error"
    },
    {
      "inputs": [],
      "name": "InvalidInitialization",
      "type": "error"
    },
    {
      "inputs": [],
      "name": "NotInitializing",
      "type": "error"
    },
    {
      "inputs": [
        {
          "internalType": "address",
          "name": "owner",
          "type": "address"
        }
      ],
      "name": "OwnableInvalidOwner",
      "type": "error"
    },
    {
      "inputs": [
        {
          "internalType": "address",
          "name": "account",
          "type": "address"
        }
      ],
      "name": "OwnableUnauthorizedAccount",
      "type": "error"
    },
    {
      "inputs": [],
      "name": "ReentrancyGuardReentrantCall",
      "type": "error"
    },
    {
      "inputs": [],
      "name": "UUPSUnauthorizedCallContext",
      "type": "error"
    },
    {
      "inputs": [
        {
          "internalType": "bytes32",
          "name": "slot",
          "type": "bytes32"
        }
      ],
      "name": "UUPSUnsupportedProxiableUUID",
      "type": "error"
    },
    {
      "anonymous": false,
      "inputs": [
        {
          "indexed": true,
          "internalType": "uint256",
          "name": "gameId",
          "type": "uint256"
        },
        {
          "indexed": false,
          "internalType": "uint256",
          "name": "betAmount",
          "type": "uint256"
        }
      ],
      "name": "GameCreated",
      "type": "event"
    },
    {
      "anonymous": false,
      "inputs": [
        {
          "indexed": true,
          "internalType": "uint256",
          "name": "gameId",
          "type": "uint256"
        },
        {
          "indexed": true,
          "internalType": "address",
          "name": "winner",
          "type": "address"
        }
      ],
      "name": "GameFinished",
      "type": "event"
    },
    {
      "anonymous": false,
      "inputs": [
        {
          "indexed": true,
          "internalType": "uint256",
          "name": "gameId",
          "type": "uint256"
        }
      ],
      "name": "GameRefunded",
      "type": "event"
    },
    {
      "anonymous": false,
      "inputs": [
        {
          "indexed": false,
          "internalType": "uint64",
          "name": "version",
          "type": "uint64"
        }
      ],
      "name": "Initialized",
      "type": "event"
    },
    {
      "anonymous": false,
      "inputs": [
        {
          "indexed": true,
          "internalType": "address",
          "name": "owner",
          "type": "address"
        },
        {
          "indexed": false,
          "internalType": "address",
          "name": "referral",
          "type": "address"
        },
        {
          "indexed": false,
          "internalType": "address",
          "name": "liquidityMgr",
          "type": "address"
        }
      ],
      "name": "Initialized",
      "type": "event"
    },
    {
      "anonymous": false,
      "inputs": [
        {
          "indexed": true,
          "internalType": "address",
          "name": "previousOwner",
          "type": "address"
        },
        {
          "indexed": true,
          "internalType": "address",
          "name": "newOwner",
          "type": "address"
        }
      ],
      "name": "OwnershipTransferred",
      "type": "event"
    },
    {
      "anonymous": false,
      "inputs": [
        {
          "indexed": true,
          "internalType": "uint256",
          "name": "gameId",
          "type": "uint256"
        },
        {
          "indexed": true,
          "internalType": "address",
          "name": "player",
          "type": "address"
        },
        {
          "indexed": false,
          "internalType": "uint256",
          "name": "playerIndex",
          "type": "uint256"
        }
      ],
      "name": "PlayerJoined",
      "type": "event"
    },
    {
      "anonymous": false,
      "inputs": [
        {
          "indexed": true,
          "internalType": "uint256",
          "name": "gameId",
          "type": "uint256"
        },
        {
          "indexed": true,
          "internalType": "address",
          "name": "recipient",
          "type": "address"
        },
        {
          "indexed": false,
          "internalType": "uint256",
          "name": "amount",
          "type": "uint256"
        },
        {
          "indexed": false,
          "internalType": "string",
          "name": "reason",
          "type": "string"
        }
      ],
      "name": "PrizePaid",
      "type": "event"
    },
    {
      "anonymous": false,
      "inputs": [
        {
          "indexed": true,
          "internalType": "address",
          "name": "implementation",
          "type": "address"
        }
      ],
      "name": "Upgraded",
      "type": "event"
    },
    {
      "inputs": [],
      "name": "GAME_TIMEOUT",
      "outputs": [
        {
          "internalType": "uint256",
          "name": "",
          "type": "uint256"
        }
      ],
      "stateMutability": "view",
      "type": "function"
    },
    {
      "inputs": [],
      "name": "GAME_TYPE_100",
      "outputs": [
        {
          "internalType": "uint256",
          "name": "",
          "type": "uint256"
        }
      ],
      "stateMutability": "view",
      "type": "function"
    },
    {
      "inputs": [],
      "name": "GAME_TYPE_200",
      "outputs": [
        {
          "internalType": "uint256",
          "name": "",
          "type": "uint256"
        }
      ],
      "stateMutability": "view",
      "type": "function"
    },
    {
      "inputs": [],
      "name": "GAME_TYPE_300",
      "outputs": [
        {
          "internalType": "uint256",
          "name": "",
          "type": "uint256"
        }
      ],
      "stateMutability": "view",
      "type": "function"
    },
    {
      "inputs": [],
      "name": "PLAYERS_PER_GAME",
      "outputs": [
        {
          "internalType": "uint256",
          "name": "",
          "type": "uint256"
        }
      ],
      "stateMutability": "view",
      "type": "function"
    },
    {
      "inputs": [],
      "name": "UPGRADE_INTERFACE_VERSION",
      "outputs": [
        {
          "internalType": "string",
          "name": "",
          "type": "string"
        }
      ],
      "stateMutability": "view",
      "type": "function"
    },
    {
      "inputs": [],
      "name": "USDT",
      "outputs": [
        {
          "internalType": "address",
          "name": "",
          "type": "address"
        }
      ],
      "stateMutability": "view",
      "type": "function"
    },
    {
      "inputs": [],
      "name": "commissionReceiver",
      "outputs": [
        {
          "internalType": "address",
          "name": "",
          "type": "address"
        }
      ],
      "stateMutability": "view",
      "type": "function"
    },
    {
      "inputs": [
        {
          "internalType": "uint256",
          "name": "",
          "type": "uint256"
        }
      ],
      "name": "currentGameIndex",
      "outputs": [
        {
          "internalType": "uint256",
          "name": "",
          "type": "uint256"
        }
      ],
      "stateMutability": "view",
      "type": "function"
    },
    {
      "inputs": [],
      "name": "dappAddress",
      "outputs": [
        {
          "internalType": "address",
          "name": "",
          "type": "address"
        }
      ],
      "stateMutability": "view",
      "type": "function"
    },
    {
      "inputs": [
        {
          "internalType": "uint256",
          "name": "gameId",
          "type": "uint256"
        },
        {
          "internalType": "uint256",
          "name": "winnerNumber",
          "type": "uint256"
        }
      ],
      "name": "declareWinner",
      "outputs": [],
      "stateMutability": "nonpayable",
      "type": "function"
    },
    {
      "inputs": [
        {
          "internalType": "address",
          "name": "token",
          "type": "address"
        },
        {
          "internalType": "uint256",
          "name": "amount",
          "type": "uint256"
        }
      ],
      "name": "emergencyWithdraw",
      "outputs": [],
      "stateMutability": "nonpayable",
      "type": "function"
    },
    {
      "inputs": [],
      "name": "gameIdCounter",
      "outputs": [
        {
          "internalType": "uint256",
          "name": "",
          "type": "uint256"
        }
      ],
      "stateMutability": "view",
      "type": "function"
    },
    {
      "inputs": [],
      "name": "gameOperator",
      "outputs": [
        {
          "internalType": "address",
          "name": "",
          "type": "address"
        }
      ],
      "stateMutability": "view",
      "type": "function"
    },
    {
      "inputs": [
        {
          "internalType": "uint256",
          "name": "",
          "type": "uint256"
        }
      ],
      "name": "gameTypes",
      "outputs": [
        {
          "internalType": "uint256",
          "name": "",
          "type": "uint256"
        }
      ],
      "stateMutability": "view",
      "type": "function"
    },
    {
      "inputs": [
        {
          "internalType": "uint256",
          "name": "",
          "type": "uint256"
        }
      ],
      "name": "games",
      "outputs": [
        {
          "internalType": "uint256",
          "name": "gameId",
          "type": "uint256"
        },
        {
          "internalType": "uint256",
          "name": "betAmount",
          "type": "uint256"
        },
        {
          "internalType": "uint256",
          "name": "startTime",
          "type": "uint256"
        },
        {
          "internalType": "uint256",
          "name": "endTime",
          "type": "uint256"
        },
        {
          "internalType": "bool",
          "name": "finished",
          "type": "bool"
        },
        {
          "internalType": "bool",
          "name": "refunded",
          "type": "bool"
        },
        {
          "internalType": "address",
          "name": "winner",
          "type": "address"
        }
      ],
      "stateMutability": "view",
      "type": "function"
    },
    {
      "inputs": [
        {
          "internalType": "uint256",
          "name": "",
          "type": "uint256"
        },
        {
          "internalType": "uint256",
          "name": "",
          "type": "uint256"
        }
      ],
      "name": "gamesByType",
      "outputs": [
        {
          "internalType": "uint256",
          "name": "gameId",
          "type": "uint256"
        },
        {
          "internalType": "uint256",
          "name": "betAmount",
          "type": "uint256"
        },
        {
          "internalType": "uint256",
          "name": "startTime",
          "type": "uint256"
        },
        {
          "internalType": "uint256",
          "name": "endTime",
          "type": "uint256"
        },
        {
          "internalType": "bool",
          "name": "finished",
          "type": "bool"
        },
        {
          "internalType": "bool",
          "name": "refunded",
          "type": "bool"
        },
        {
          "internalType": "address",
          "name": "winner",
          "type": "address"
        }
      ],
      "stateMutability": "view",
      "type": "function"
    },
    {
      "inputs": [
        {
          "internalType": "uint256",
          "name": "betAmount",
          "type": "uint256"
        }
      ],
      "name": "getCurrentGame",
      "outputs": [
        {
          "internalType": "uint256",
          "name": "gameId",
          "type": "uint256"
        },
        {
          "internalType": "uint256",
          "name": "playerCount",
          "type": "uint256"
        },
        {
          "internalType": "uint256",
          "name": "startTime",
          "type": "uint256"
        },
        {
          "internalType": "bool",
          "name": "canJoin",
          "type": "bool"
        }
      ],
      "stateMutability": "view",
      "type": "function"
    },
    {
      "inputs": [
        {
          "internalType": "uint256",
          "name": "gameId",
          "type": "uint256"
        }
      ],
      "name": "getGame",
      "outputs": [
        {
          "internalType": "uint256",
          "name": "id",
          "type": "uint256"
        },
        {
          "internalType": "uint256",
          "name": "betAmount",
          "type": "uint256"
        },
        {
          "internalType": "address[]",
          "name": "players",
          "type": "address[]"
        },
        {
          "internalType": "uint256",
          "name": "startTime",
          "type": "uint256"
        },
        {
          "internalType": "uint256",
          "name": "endTime",
          "type": "uint256"
        },
        {
          "internalType": "bool",
          "name": "finished",
          "type": "bool"
        },
        {
          "internalType": "bool",
          "name": "refunded",
          "type": "bool"
        },
        {
          "internalType": "address",
          "name": "winner",
          "type": "address"
        }
      ],
      "stateMutability": "view",
      "type": "function"
    },
    {
      "inputs": [
        {
          "internalType": "uint256",
          "name": "gameId",
          "type": "uint256"
        }
      ],
      "name": "getGamePlayers",
      "outputs": [
        {
          "internalType": "uint256",
          "name": "",
          "type": "uint256"
        }
      ],
      "stateMutability": "view",
      "type": "function"
    },
    {
      "inputs": [
        {
          "internalType": "address",
          "name": "user",
          "type": "address"
        }
      ],
      "name": "getUserGames",
      "outputs": [
        {
          "internalType": "uint256[]",
          "name": "",
          "type": "uint256[]"
        }
      ],
      "stateMutability": "view",
      "type": "function"
    },
    {
      "inputs": [
        {
          "internalType": "address",
          "name": "_referralContract",
          "type": "address"
        },
        {
          "internalType": "address",
          "name": "_liquidityManager",
          "type": "address"
        },
        {
          "internalType": "address",
          "name": "_operationAddress",
          "type": "address"
        },
        {
          "internalType": "address",
          "name": "_dappAddress",
          "type": "address"
        },
        {
          "internalType": "address",
          "name": "_gameOperator",
          "type": "address"
        },
        {
          "internalType": "address",
          "name": "_commissionReceiver",
          "type": "address"
        }
      ],
      "name": "initialize",
      "outputs": [],
      "stateMutability": "nonpayable",
      "type": "function"
    },
    {
      "inputs": [
        {
          "internalType": "uint256",
          "name": "betAmount",
          "type": "uint256"
        },
        {
          "internalType": "address",
          "name": "referrer",
          "type": "address"
        }
      ],
      "name": "joinGame",
      "outputs": [],
      "stateMutability": "nonpayable",
      "type": "function"
    },
    {
      "inputs": [],
      "name": "liquidityManager",
      "outputs": [
        {
          "internalType": "contract IPDALiquidityManager",
          "name": "",
          "type": "address"
        }
      ],
      "stateMutability": "view",
      "type": "function"
    },
    {
      "inputs": [],
      "name": "operationAddress",
      "outputs": [
        {
          "internalType": "address",
          "name": "",
          "type": "address"
        }
      ],
      "stateMutability": "view",
      "type": "function"
    },
    {
      "inputs": [],
      "name": "owner",
      "outputs": [
        {
          "internalType": "address",
          "name": "",
          "type": "address"
        }
      ],
      "stateMutability": "view",
      "type": "function"
    },
    {
      "inputs": [],
      "name": "proxiableUUID",
      "outputs": [
        {
          "internalType": "bytes32",
          "name": "",
          "type": "bytes32"
        }
      ],
      "stateMutability": "view",
      "type": "function"
    },
    {
      "inputs": [],
      "name": "referralContract",
      "outputs": [
        {
          "internalType": "contract IPDAReferral",
          "name": "",
          "type": "address"
        }
      ],
      "stateMutability": "view",
      "type": "function"
    },
    {
      "inputs": [
        {
          "internalType": "uint256",
          "name": "gameId",
          "type": "uint256"
        }
      ],
      "name": "refundGame",
      "outputs": [],
      "stateMutability": "nonpayable",
      "type": "function"
    },
    {
      "inputs": [],
      "name": "renounceOwnership",
      "outputs": [],
      "stateMutability": "nonpayable",
      "type": "function"
    },
    {
      "inputs": [
        {
          "internalType": "address",
          "name": "_commissionReceiver",
          "type": "address"
        }
      ],
      "name": "setCommissionReceiver",
      "outputs": [],
      "stateMutability": "nonpayable",
      "type": "function"
    },
    {
      "inputs": [
        {
          "internalType": "address",
          "name": "_dappAddress",
          "type": "address"
        }
      ],
      "name": "setDappAddress",
      "outputs": [],
      "stateMutability": "nonpayable",
      "type": "function"
    },
    {
      "inputs": [
        {
          "internalType": "address",
          "name": "_gameOperator",
          "type": "address"
        }
      ],
      "name": "setGameOperator",
      "outputs": [],
      "stateMutability": "nonpayable",
      "type": "function"
    },
    {
      "inputs": [
        {
          "internalType": "address",
          "name": "_liquidityManager",
          "type": "address"
        }
      ],
      "name": "setLiquidityManager",
      "outputs": [],
      "stateMutability": "nonpayable",
      "type": "function"
    },
    {
      "inputs": [
        {
          "internalType": "address",
          "name": "_operationAddress",
          "type": "address"
        }
      ],
      "name": "setOperationAddress",
      "outputs": [],
      "stateMutability": "nonpayable",
      "type": "function"
    },
    {
      "inputs": [
        {
          "internalType": "address",
          "name": "newOwner",
          "type": "address"
        }
      ],
      "name": "transferOwnership",
      "outputs": [],
      "stateMutability": "nonpayable",
      "type": "function"
    },
    {
      "inputs": [
        {
          "internalType": "address",
          "name": "newImplementation",
          "type": "address"
        },
        {
          "internalType": "bytes",
          "name": "data",
          "type": "bytes"
        }
      ],
      "name": "upgradeToAndCall",
      "outputs": [],
      "stateMutability": "payable",
      "type": "function"
    },
    {
      "inputs": [
        {
          "internalType": "address",
          "name": "",
          "type": "address"
        },
        {
          "internalType": "uint256",
          "name": "",
          "type": "uint256"
        }
      ],
      "name": "userGames",
      "outputs": [
        {
          "internalType": "uint256",
          "name": "",
          "type": "uint256"
        }
      ],
      "stateMutability": "view",
      "type": "function"
    }
  ],
  "transactionHash": "0xaedac3bc6305b1f2540a524c7f5e05af3af3552ec184234d68d852074e4b5c7d",
  "numDeployments": 1,
  "bytecode": "0x60a080604052346100cd57306080527ff0c57e16840df040f15088dc2f81fe391c3923bec73e23a9662efc9c229c6a009081549060ff8260401c166100be57506001600160401b036002600160401b031982821601610079575b604051612b7e9081620000d3823960805181818161130a01526113f00152f35b6001600160401b031990911681179091556040519081527fc7f505b2f371ae2175ee4913f4499e1f2633a7b5936321eed1cdaeb6115181d290602090a1388080610059565b63f92ee8a960e01b8152600490fd5b600080fdfe608080604052600436101561001357600080fd5b600090813560e01c908163099420b61461261557508063117a5b9014612593578063120aace6146124e557806315a40f49146124b85780631643c8c4146117f85780631a721b7b146117cf5780631bb412d6146117b15780631c063c7714611723578063288db7c6146116ff57806333827438146116d65780633c1624d41461164057806343d289141461161c57806348aa44dd146115d05780634f1ef2861461137457806352d1902d146112f75780636470b366146112c6578063715018a61461125b57806373f9c7671461123f5780637dad19db1461121857806381cba5e21461118b57806386910499146111675780638da5cb5b1461113157806395ccea671461105d578063a2f77bcc14610f56578063a441c30214610f2d578063a576cf9d14610ee1578063ad3cb1cc14610e3b578063bc0167cd14610de5578063c2ead6b914610dbc578063c54e44eb14610d8d578063cc2a9a5b14610a5d578063d53ce95614610a11578063d7260cba146107c8578063da46a73c1461077c578063ead00e0214610245578063f2fde38b14610218578063f7804590146101ee5763f92aa57f146101c357600080fd5b346101eb57806003193601126101eb576004546040516001600160a01b039091168152602090f35b80fd5b50346101eb5760203660031901126101eb5760406020916004358152600983522054604051908152f35b50346101eb5760203660031901126101eb57610242610235612632565b61023d612a15565b612971565b80f35b50346101eb5760403660031901126101eb57600435610262612648565b9061026b6129e5565b68056bc75e2d631000008114801561076a575b8015610758575b1561071e578254604051630308a59b60e31b81523360048201526024936020939290916001600160a01b03918216919085818881865afa9081156107135788916106f6575b5015610640575b5050506040516323b872dd60e01b815233600482015230848201528160448201528281606481887355d398326f99059ff775485246999027b31979555af1908115610635578591610608575b50156105ce578084526009825260408420549260088352604085208486528352604085209060028201548015600014610502575061035c600654612927565b8060065580928188526007865260058060408a20848155876001820155426003820155019161ffff1992838154169055838155866001820155426003820155019081541690557fa26856d25e558c79e1632806bc6824075cf59885a115825f2aab62385a3f714285604051868152a25b818652600784526103e33360026040892001612936565b828652600884526040862085875284526104033360026040892001612936565b338652600a845260408620805490600160401b8210156104ef579061042d916001820181556126c6565b919080549260031b600019938486831b921b19161790558287526007855260026040882001549182019182116104dd5750604051908152817f03dfbe1fcb4e2d61f3b4a0c93d8f814c92250618b3387f396cc9fc9fafe2c203853393a384526007825260408420600b6002820154146104b7575b846001600080516020612b328339815191525580f35b6004429101558352600881526040832091835252426004604083200155388080806104a1565b634e487b7160e01b8752601160045286fd5b634e487b7160e01b885260416004528288fd5b90949190600b116105c657505080845260098252604084206105248154612927565b90558084526009825260408420549261053e600654612927565b908160065581808752600785526005604088208281558560018201554260038201550161ffff199081815416905584885260088652604088208789528652600560408920838155866001820155426003820155019081541690557fa26856d25e558c79e1632806bc6824075cf59885a115825f2aab62385a3f714285604051868152a26103cc565b5490936103cc565b5060146064926040519262461bcd60e51b84526004840152820152731554d115081d1c985b9cd9995c8819985a5b195960621b6044820152fd5b6106289150833d851161062e575b6106208183612688565b8101906127fc565b3861031d565b503d610616565b6040513d87823e3d90fd5b8216156106ba57908186923b156106b657604051637e540b2b60e01b81523360048201526001600160a01b0392909216602483015282908290604490829084905af180156106ab57610693575b806102d1565b61069c90612674565b6106a757833861068d565b8380fd5b6040513d84823e3d90fd5b8280fd5b60405162461bcd60e51b8152600481018590526015818701527426bab9ba10383937bb34b232903932b332b93932b960591b6044820152606490fd5b61070d9150863d881161062e576106208183612688565b386102ca565b6040513d8a823e3d90fd5b60405162461bcd60e51b8152602060048201526012602482015271125b9d985b1a590818995d08185b5bdd5b9d60721b6044820152606490fd5b50681043561a88293000008114610285565b50680ad78ebc5ac6200000811461027e565b50346101eb5760203660031901126101eb57610796612632565b61079e612a15565b6001600160a01b03166107b28115156128b8565b6001600160601b0360a01b600554161760055580f35b50346101eb57602090816003193601126101eb576004356107e76129e5565b8082526007835260408220926107ff828554146126f4565b600584019081549461081460ff871615612731565b61082460ff8760081c1615612775565b6002810192600b845410156109dd5760039060038301546201518081018091116109c957421061098b576101006001959861ff001916179055859684859301925b6108a5575b86867f3f089de9d7a24f4fa13fc08c92aea5efef51005bfc944583d8062c43f78672b88280a26001600080516020612b328339815191525580f35b8054881015610986576108f3846108bc8a846126c6565b9054865460405163a9059cbb60e01b815292871b9190911c6001600160a01b03166004830152602482015291829081906044820190565b03818b7355d398326f99059ff775485246999027b31979555af1908115610713578891610969575b501561092b579684019684610865565b60405162461bcd60e51b81526004810185905260166024820152751499599d5b99081d1c985b9cd9995c8819985a5b195960521b6044820152606490fd5b6109809150853d871161062e576106208183612688565b3861091b565b61086a565b60405162461bcd60e51b815260048101859052601660248201527511d85b59481b9bdd081d1a5b5959081bdd5d081e595d60521b6044820152606490fd5b634e487b7160e01b88526011600452602488fd5b60405162461bcd60e51b815260048101849052600c60248201526b11d85b59481a5cc8199d5b1b60a21b6044820152606490fd5b50346101eb5760203660031901126101eb57610a2b612632565b610a33612a15565b6001600160a01b0316610a4781151561286c565b6001600160601b0360a01b600254161760025580f35b50346101eb5760c03660031901126101eb57610a77612632565b610a7f612648565b6001600160a01b03916044358381169190829003610d885760643591848316809303610d885760843592858416809403610d885760a43594868616809603610d88577ff0c57e16840df040f15088dc2f81fe391c3923bec73e23a9662efc9c229c6a009586549760ff8960401c16159667ffffffffffffffff8a16998a1580610d81575b6001809c149081610d77575b159081610d6e575b50610d5c5767ffffffffffffffff1981168b178a5588610d3d575b50818716918215610cf8578416948515610cb35786610c6696610b777fad307780531f6353137c35adc50ad58d71b76e76aa891e729387f2e720f2de2099151561286c565b610b828315156127b9565b610b8d8415156128b8565b610b98861515612814565b610ba0612a6d565b610ba8612a6d565b610bb133612971565b610bb9612a6d565b610bc1612a6d565b610bc9612a6d565b8c600080516020612b32833981519152558d6001600160601b0360a01b9586825416179055848d5416178c55836002541617600255826003541617600355816005541617600555600454161760045568056bc75e2d63100000600b55680ad78ebc5ac6200000600c55681043561a8829300000600d5560405191829133958390602090939293604083019460018060a01b03809216845216910152565b0390a2610c71578280f35b805468ff0000000000000000191690556040519081527fc7f505b2f371ae2175ee4913f4499e1f2633a7b5936321eed1cdaeb6115181d290602090a138808280f35b60405162461bcd60e51b815260206004820152601960248201527f496e76616c6964206c6971756964697479206d616e61676572000000000000006044820152606490fd5b60405162461bcd60e51b815260206004820152601960248201527f496e76616c696420726566657272616c20636f6e7472616374000000000000006044820152606490fd5b68ffffffffffffffffff19166801000000000000000117895538610b32565b60405163f92ee8a960e01b8152600490fd5b90501538610b17565b303b159150610b0f565b5088610b03565b600080fd5b50346101eb57806003193601126101eb5760206040517355d398326f99059ff775485246999027b31979558152f35b50346101eb57806003193601126101eb576005546040516001600160a01b039091168152602090f35b50346101eb5760403660031901126101eb57610dff612632565b6001600160a01b03168152600a60205260408120805460243592908310156101eb576020610e2d84846126c6565b90546040519160031b1c8152f35b50346101eb57806003193601126101eb576040516040810181811067ffffffffffffffff821117610ecb5760405260058152602091640352e302e360dc1b602083015260405192839160208352835191826020850152815b838110610eb457505060408094508284010152601f80199101168101030190f35b808601820151878201604001528694508101610e93565b634e487b7160e01b600052604160045260246000fd5b50346101eb5760203660031901126101eb57610efb612632565b610f03612a15565b6001600160a01b0316610f17811515612814565b6001600160601b0360a01b600454161760045580f35b50346101eb57806003193601126101eb576002546040516001600160a01b039091168152602090f35b50346101eb57602090816003193601126101eb5760043581526007825260408120908154926001936001840154936002810193600382015490600560048401549301549360018060a01b039560405180828a54918281520190819a8652838620908d875b8c83821061104957505050505081610fd3910382612688565b6040519961010090818c01948c52838c015260408b015251809252610120890197925b82811061103457505050508596506060860152608085015260ff8116151560a085015260ff8160081c16151560c085015260101c1660e08301520390f35b83518816895297810197928101928a01610ff6565b845416855293860193928101928101610fba565b50346101eb5760403660031901126101eb57611077612632565b61107f612a15565b600080516020612b128339815191525460405163a9059cbb60e01b81526001600160a01b039182166004820152602480359082015291602091839160449183918791165af19081156106ab578291611112575b50156110db5780f35b60405162461bcd60e51b815260206004820152600f60248201526e151c985b9cd9995c8819985a5b1959608a1b6044820152606490fd5b61112b915060203d60201161062e576106208183612688565b386110d2565b50346101eb57806003193601126101eb57600080516020612b12833981519152546040516001600160a01b039091168152602090f35b50346101eb57806003193601126101eb576020604051681043561a88293000008152f35b50346101eb5760409061119d3661265e565b90825260086020818152848420928452918252929091208054600182015460038301546004840154600590940154604080519485529584019290925293820193909352606081019190915260ff808316151560808301529282901c909216151560a083015260101c6001600160a01b031660c082015260e090f35b50346101eb57806003193601126101eb57546040516001600160a01b039091168152602090f35b50346101eb57806003193601126101eb576020604051600b8152f35b50346101eb57806003193601126101eb57611274612a15565b600080516020612b1283398151915280546001600160a01b031981169091556000906001600160a01b03167f8be0079c531659141344cd1fd0a4f28419497f9722a3daafe3b4186f6b6457e08280a380f35b50346101eb5760203660031901126101eb5760043560038110156112f357602090600b0154604051908152f35b5080fd5b50346101eb57806003193601126101eb577f00000000000000000000000000000000000000000000000000000000000000006001600160a01b031630036113625760206040517f360894a13ba1a3210667c828492db98dca3e2076cc3735a920a3ca505d382bbc8152f35b60405163703e46dd60e11b8152600490fd5b5060403660031901126101eb57611389612632565b602491823567ffffffffffffffff81116112f357366023820112156112f35780600401356113b6816126aa565b936113c46040519586612688565b81855260209182860193368883830101116115cc57818692898693018737870101526001600160a01b037f0000000000000000000000000000000000000000000000000000000000000000811630811490811561159e575b5061136257611429612a15565b8116946040516352d1902d60e01b815283816004818a5afa86918161156b575b5061146657604051634c9c8ce360e01b8152600481018890528890fd5b8690887f360894a13ba1a3210667c828492db98dca3e2076cc3735a920a3ca505d382bbc918281036115565750843b15611540575080546001600160a01b031916821790556040518692917fbc7cd75a20ee27fd9adebab32041f755214dbc6bffa90cc0225b39da2e5c2d3b8480a281511561152257506115159482915190845af4903d15611519573d6114f9816126aa565b906115076040519283612688565b81528581943d92013e612aae565b5080f35b60609250612aae565b94505050505034611531575080f35b63b398979f60e01b8152600490fd5b604051634c9c8ce360e01b815260048101849052fd5b60405190632a87526960e21b82526004820152fd5b9091508481813d8311611597575b6115838183612688565b8101031261159357519038611449565b8680fd5b503d611579565b9050817f360894a13ba1a3210667c828492db98dca3e2076cc3735a920a3ca505d382bbc541614153861141c565b8580fd5b50346101eb5760203660031901126101eb576115ea612632565b6115f2612a15565b6001600160a01b03166116068115156127b9565b6001600160601b0360a01b600354161760035580f35b50346101eb57806003193601126101eb576020604051680ad78ebc5ac62000008152f35b50346101eb5760203660031901126101eb5761165a612632565b611662612a15565b6001600160a01b03168015611687576001600160601b0360a01b600154161760015580f35b60405162461bcd60e51b815260206004820152602160248201527f496e76616c6964206c6971756964697479206d616e61676572206164647265736044820152607360f81b6064820152608490fd5b50346101eb57806003193601126101eb576001546040516001600160a01b039091168152602090f35b50346101eb57806003193601126101eb57602060405168056bc75e2d631000008152f35b50346101eb5760203660031901126101eb57604060809160043581526009602052818120546008602052828220908252602052206002810154600b811090816117a1575b8161178e575b60038354930154906040519384526020840152604083015215156060820152f35b600583015460081c60ff1615915061176d565b600583015460ff16159150611767565b50346101eb57806003193601126101eb576020600654604051908152f35b50346101eb57806003193601126101eb576003546040516001600160a01b039091168152602090f35b50346101eb576118073661265e565b906118106129e5565b6005546001600160a01b03163303612465578083526007602052604083209061183b818354146126f4565b600582019182549261185060ff851615612731565b61186060ff8560081c1615612775565b60028201600b81540361243057600b8610156123f357611882866001926126c6565b90549060031b1c94620100008260b01b038660101b169061ff018360b01b0319161717905560044291015580845260076020526040842093600185015493848060011b04600214851517156123df576118e160648660011b0486612904565b93825b6002880154811015611a4257828103611900575b6001016118e4565b61194b6020876119138460028d016126c6565b905460405163a9059cbb60e01b815260039290921b1c6001600160a01b03166004820152602481019190915291829081906044820190565b0381887355d398326f99059ff775485246999027b31979555af1908115610635578591611a23575b50156119de578061198960019260028b016126c6565b838060a01b0391549060031b1c1686600080516020612b5283398151915260806040518b815260406020820152601060408201526f4e6f6e2d77696e6e657220736861726560801b6060820152a390506118f8565b60405162461bcd60e51b815260206004820152601a60248201527f4e6f6e2d77696e6e6572207472616e73666572206661696c65640000000000006044820152606490fd5b611a3c915060203d60201161062e576106208183612688565b38611973565b5085611a52859360028a016126c6565b60018060a01b0391549060031b1c169084818060031b046008148215171561201957855460405163167801e160e11b81526004810185905290602090829060249082906001600160a01b03165afa908115611e675787916123c0575b506001600160a01b03811661202d575b5060648260031b048110611ed6575b50808060011b0460021481151715611df85760025460405163a9059cbb60e01b81526001600160a01b0390911660048201526064600183901b046024820152602081604481897355d398326f99059ff775485246999027b31979555af1908115611ded578691611eb7575b5015611e725760018060a01b036002541684600080516020612b52833981519152608060405160648660011b04815260406020820152600960408201526827b832b930ba34b7b760b91b6060820152a380600a810204600a1481151715611df85760035460405163a9059cbb60e01b81526001600160a01b0390911660048201526064600a83020460248201819052906020816044818a7355d398326f99059ff775485246999027b31979555af1908115611e67578791611e48575b5015611e0c5784600080516020612b52833981519152608060018060a01b0360035416936040519081526040602082015260046040820152630446170760e41b6060820152a3603c810290808204603c1490151715611df85760015460405163095ea7b360e01b81526001600160a01b039091166004820152606490910460248201819052909190602083604481897355d398326f99059ff775485246999027b31979555af1918215611ded57611ceb93602093611dd0575b5060015460405163324741e760e21b81526001600160a01b039283166004820152602481019390935291938492909116908290889082906044820190565b03925af18015611d9a57611da5575b50825483906001600160a01b0316803b156112f357604051632d2b3f8760e21b81526001600160a01b038416600482015291908290602490829084905af18015611d9a57611d87575b506001600160a01b0316907fb7f35e624e036288272fbf3342c09219261ff29fdddd826989b289134e9ae5358380a36001600080516020612b328339815191525580f35b611d9390939193612674565b9183611d43565b6040513d86823e3d90fd5b602090813d8311611dc9575b611dbb8183612688565b810103126106b65783611cfa565b503d611db1565b611de690843d861161062e576106208183612688565b5087611cad565b6040513d88823e3d90fd5b634e487b7160e01b85526011600452602485fd5b60405162461bcd60e51b815260206004820152601460248201527311185c1c081d1c985b9cd9995c8819985a5b195960621b6044820152606490fd5b611e61915060203d60201161062e576106208183612688565b87611bf4565b6040513d89823e3d90fd5b60405162461bcd60e51b815260206004820152601960248201527f4f7065726174696f6e207472616e73666572206661696c6564000000000000006044820152606490fd5b611ed0915060203d60201161062e576106208183612688565b86611b38565b6064600383901b0481810311612019576004805460405163a9059cbb60e01b81526001600160a01b03909116918101919091526064600384901b0482900360248201526020816044818a7355d398326f99059ff775485246999027b31979555af1908115611e67578791611ffa575b5015611fa95784600080516020612b52833981519152608060018060a01b0360045416936040519060648760031b040381526040602082015260146040820152732932b6b0b4b734b7339031b7b6b6b4b9b9b4b7b760611b6060820152a385611acd565b60405162461bcd60e51b8152602060048201526024808201527f52656d61696e696e6720636f6d6d697373696f6e207472616e736665722066616044820152631a5b195960e21b6064820152608490fd5b612013915060203d60201161062e576106208183612688565b87611f45565b634e487b7160e01b86526011600452602486fd5b93949190926001945b601e86111580806123ae575b156123a0578854604051631080b48560e21b81526001600160a01b03848116600483015290911690602081602481855afa908115612395578b91612376575b50612103575b5050875460405163167801e160e11b81526001600160a01b0392831660048201529160209183916024918391165afa8015610713576120ce9189916120d4575b5095612927565b94612036565b6120f6915060203d6020116120fc575b6120ee8183612688565b810190612a4e565b896120c7565b503d6120e4565b6040516375d20f3b60e01b81526001600160a01b038416600482015290602090829060249082905afa90811561228c578a91612340575b50871115612149575b80612087565b889060018803612297575050828060011b04600214831517156109c95760648360011b045b80156121435760405163a9059cbb60e01b81526001600160a01b0383166004820152602481018290529095906020816044818d7355d398326f99059ff775485246999027b31979555af190811561228c578a9161226d575b501561222857856121d691612904565b946040519081526040602082015260116040820152702ab83634b7329031b7b6b6b4b9b9b4b7b760791b606082015284600080516020612b52833981519152608060018060a01b03851693a388612143565b60405162461bcd60e51b815260206004820152601a60248201527f436f6d6d697373696f6e207472616e73666572206661696c65640000000000006044820152606490fd5b612286915060203d60201161062e576106208183612688565b8a6121c6565b6040513d8c823e3d90fd5b600288036122b9575050828004600114831517156109c957606483045b61216e565b600388101580612335575b156122e9575050826003810204600314831517156109c9576103e8600384020461216e565b600b881015908161232d575b50156122b45750600d8381810204811484151715612319576127109084020461216e565b634e487b7160e01b89526011600452602489fd5b90508a6122f5565b50600a8811156122c4565b90506020813d60201161236e575b8161235b60209383612688565b8101031261236a57518a61213a565b8980fd5b3d915061234e565b61238f915060203d60201161062e576106208183612688565b8b612081565b6040513d8d823e3d90fd5b505092909194935086611abe565b506001600160a01b0382161515612042565b6123d9915060203d6020116120fc576120ee8183612688565b87611aae565b634e487b7160e01b82526011600452602482fd5b60405162461bcd60e51b815260206004820152601560248201527424b73b30b634b2103bb4b73732b910373ab6b132b960591b6044820152606490fd5b60405162461bcd60e51b815260206004820152600d60248201526c11d85b59481b9bdd08199d5b1b609a1b6044820152606490fd5b60405162461bcd60e51b815260206004820152602560248201527f4f6e6c792067616d65206f70657261746f722063616e206465636c617265207760448201526434b73732b960d91b6064820152608490fd5b50346101eb5760203660031901126101eb5760026040602092600435815260078452200154604051908152f35b50346101eb576020806003193601126112f3576001600160a01b03612508612632565b168252600a81526040822060405192838383549182815201908193835284832090835b81811061257f5750505084612541910385612688565b60405193838594850191818652518092526040850193925b82811061256857505050500390f35b835185528695509381019392810192600101612559565b82548452928601926001928301920161252b565b50346101eb5760203660031901126101eb57600480358252600760209081526040928390208054600182015460038301549483015460059093015486519283529382015293840192909252606083019190915260ff80821615156080840152600882901c16151560a083015260101c6001600160a01b031660c082015260e090f35b9050346112f357816003193601126112f357806201518060209252f35b600435906001600160a01b0382168203610d8857565b602435906001600160a01b0382168203610d8857565b6040906003190112610d88576004359060243590565b67ffffffffffffffff8111610ecb57604052565b90601f8019910116810190811067ffffffffffffffff821117610ecb57604052565b67ffffffffffffffff8111610ecb57601f01601f191660200190565b80548210156126de5760005260206000200190600090565b634e487b7160e01b600052603260045260246000fd5b156126fb57565b60405162461bcd60e51b815260206004820152600e60248201526d11d85b59481b9bdd08199bdd5b9960921b6044820152606490fd5b1561273857565b60405162461bcd60e51b815260206004820152601560248201527411d85b5948185b1c9958591e48199a5b9a5cda1959605a1b6044820152606490fd5b1561277c57565b60405162461bcd60e51b815260206004820152601560248201527411d85b5948185b1c9958591e481c99599d5b991959605a1b6044820152606490fd5b156127c057565b60405162461bcd60e51b8152602060048201526014602482015273496e76616c69642064617070206164647265737360601b6044820152606490fd5b90816020910312610d8857518015158103610d885790565b1561281b57565b60405162461bcd60e51b815260206004820152602360248201527f496e76616c696420636f6d6d697373696f6e207265636569766572206164647260448201526265737360e81b6064820152608490fd5b1561287357565b60405162461bcd60e51b815260206004820152601960248201527f496e76616c6964206f7065726174696f6e2061646472657373000000000000006044820152606490fd5b156128bf57565b60405162461bcd60e51b815260206004820152601d60248201527f496e76616c69642067616d65206f70657261746f7220616464726573730000006044820152606490fd5b9190820180921161291157565b634e487b7160e01b600052601160045260246000fd5b60001981146129115760010190565b8054600160401b811015610ecb57612953916001820181556126c6565b60018060a09493941b038084549260031b9316831b921b1916179055565b6001600160a01b039081169081156129cc57600080516020612b1283398151915280546001600160a01b031981168417909155167f8be0079c531659141344cd1fd0a4f28419497f9722a3daafe3b4186f6b6457e0600080a3565b604051631e4fbdf760e01b815260006004820152602490fd5b600080516020612b328339815191526002815414612a035760029055565b604051633ee5aeb560e01b8152600490fd5b600080516020612b12833981519152546001600160a01b03163303612a3657565b60405163118cdaa760e01b8152336004820152602490fd5b90816020910312610d8857516001600160a01b0381168103610d885790565b60ff7ff0c57e16840df040f15088dc2f81fe391c3923bec73e23a9662efc9c229c6a005460401c1615612a9c57565b604051631afcd79f60e31b8152600490fd5b90612ad55750805115612ac357602081519101fd5b60405163d6bda27560e01b8152600490fd5b81511580612b08575b612ae6575090565b604051639996b31560e01b81526001600160a01b039091166004820152602490fd5b50803b15612ade56fe9016d09d72d40fdae2fd8ceac6b6234c7706214fd39c1cd1e609a0528c1993009b779b17422d0df92223018b32b4d1fa46e071723d6817e2486d003becc55f00a806e44d925d7b288bf49aebca26e1dcb893e0955d906c773b6264ec978cbd5da164736f6c6343000816000a",
  "implementation": "0x0c2A431caed24db90e1dDe3629ac41195983374D"
}