{
  "address": "0xAEc7EA41A1cB5F73983cF4574A3de91101a6A6Db",
  "abi": [
    {
      "inputs": [],
      "stateMutability": "nonpayable",
      "type": "constructor"
    },
    {
      "inputs": [
        {
          "internalType": "address",
          "name": "target",
          "type": "address"
        }
      ],
      "name": "AddressEmptyCode",
      "type": "error"
    },
    {
      "inputs": [
        {
          "internalType": "address",
          "name": "implementation",
          "type": "address"
        }
      ],
      "name": "ERC1967InvalidImplementation",
      "type": "error"
    },
    {
      "inputs": [],
      "name": "ERC1967NonPayable",
      "type": "error"
    },
    {
      "inputs": [],
      "name": "FailedCall",
      "type": "error"
    },
    {
      "inputs": [],
      "name": "InvalidInitialization",
      "type": "error"
    },
    {
      "inputs": [],
      "name": "NotInitializing",
      "type": "error"
    },
    {
      "inputs": [
        {
          "internalType": "address",
          "name": "owner",
          "type": "address"
        }
      ],
      "name": "OwnableInvalidOwner",
      "type": "error"
    },
    {
      "inputs": [
        {
          "internalType": "address",
          "name": "account",
          "type": "address"
        }
      ],
      "name": "OwnableUnauthorizedAccount",
      "type": "error"
    },
    {
      "inputs": [],
      "name": "ReentrancyGuardReentrantCall",
      "type": "error"
    },
    {
      "inputs": [],
      "name": "UUPSUnauthorizedCallContext",
      "type": "error"
    },
    {
      "inputs": [
        {
          "internalType": "bytes32",
          "name": "slot",
          "type": "bytes32"
        }
      ],
      "name": "UUPSUnsupportedProxiableUUID",
      "type": "error"
    },
    {
      "anonymous": false,
      "inputs": [
        {
          "indexed": true,
          "internalType": "address",
          "name": "contractAddress",
          "type": "address"
        },
        {
          "indexed": false,
          "internalType": "uint256",
          "name": "source",
          "type": "uint256"
        }
      ],
      "name": "AuthorizedContractAdded",
      "type": "event"
    },
    {
      "anonymous": false,
      "inputs": [
        {
          "indexed": true,
          "internalType": "address",
          "name": "contractAddress",
          "type": "address"
        }
      ],
      "name": "AuthorizedContractRemoved",
      "type": "event"
    },
    {
      "anonymous": false,
      "inputs": [
        {
          "indexed": true,
          "internalType": "address",
          "name": "oldReceiver",
          "type": "address"
        },
        {
          "indexed": true,
          "internalType": "address",
          "name": "newReceiver",
          "type": "address"
        }
      ],
      "name": "BurnReceiverUpdated",
      "type": "event"
    },
    {
      "anonymous": false,
      "inputs": [
        {
          "indexed": false,
          "internalType": "uint64",
          "name": "version",
          "type": "uint64"
        }
      ],
      "name": "Initialized",
      "type": "event"
    },
    {
      "anonymous": false,
      "inputs": [
        {
          "indexed": true,
          "internalType": "address",
          "name": "user",
          "type": "address"
        },
        {
          "indexed": false,
          "internalType": "uint256",
          "name": "source",
          "type": "uint256"
        },
        {
          "indexed": false,
          "internalType": "uint256",
          "name": "lpAmount",
          "type": "uint256"
        },
        {
          "indexed": false,
          "internalType": "uint256",
          "name": "depositDay",
          "type": "uint256"
        }
      ],
      "name": "LiquidityAdded",
      "type": "event"
    },
    {
      "anonymous": false,
      "inputs": [
        {
          "indexed": true,
          "internalType": "address",
          "name": "user",
          "type": "address"
        },
        {
          "indexed": false,
          "internalType": "uint256",
          "name": "source",
          "type": "uint256"
        },
        {
          "indexed": false,
          "internalType": "uint256",
          "name": "lpAmount",
          "type": "uint256"
        },
        {
          "indexed": false,
          "internalType": "uint256",
          "name": "pdaReturned",
          "type": "uint256"
        },
        {
          "indexed": false,
          "internalType": "uint256",
          "name": "pdaBurned",
          "type": "uint256"
        },
        {
          "indexed": false,
          "internalType": "uint256",
          "name": "usdtReturned",
          "type": "uint256"
        }
      ],
      "name": "LiquidityRemoved",
      "type": "event"
    },
    {
      "anonymous": false,
      "inputs": [
        {
          "indexed": true,
          "internalType": "address",
          "name": "previousOwner",
          "type": "address"
        },
        {
          "indexed": true,
          "internalType": "address",
          "name": "newOwner",
          "type": "address"
        }
      ],
      "name": "OwnershipTransferred",
      "type": "event"
    },
    {
      "anonymous": false,
      "inputs": [
        {
          "indexed": true,
          "internalType": "address",
          "name": "implementation",
          "type": "address"
        }
      ],
      "name": "Upgraded",
      "type": "event"
    },
    {
      "inputs": [],
      "name": "DEAD_ADDRESS",
      "outputs": [
        {
          "internalType": "address",
          "name": "",
          "type": "address"
        }
      ],
      "stateMutability": "view",
      "type": "function"
    },
    {
      "inputs": [],
      "name": "LP_TOKEN",
      "outputs": [
        {
          "internalType": "address",
          "name": "",
          "type": "address"
        }
      ],
      "stateMutability": "view",
      "type": "function"
    },
    {
      "inputs": [],
      "name": "MIN_CIRCULATING_SUPPLY",
      "outputs": [
        {
          "internalType": "uint256",
          "name": "",
          "type": "uint256"
        }
      ],
      "stateMutability": "view",
      "type": "function"
    },
    {
      "inputs": [],
      "name": "NFTLPSetter",
      "outputs": [
        {
          "internalType": "address",
          "name": "",
          "type": "address"
        }
      ],
      "stateMutability": "view",
      "type": "function"
    },
    {
      "inputs": [],
      "name": "PDA",
      "outputs": [
        {
          "internalType": "address",
          "name": "",
          "type": "address"
        }
      ],
      "stateMutability": "view",
      "type": "function"
    },
    {
      "inputs": [],
      "name": "ROUTER",
      "outputs": [
        {
          "internalType": "address",
          "name": "",
          "type": "address"
        }
      ],
      "stateMutability": "view",
      "type": "function"
    },
    {
      "inputs": [],
      "name": "UPGRADE_INTERFACE_VERSION",
      "outputs": [
        {
          "internalType": "string",
          "name": "",
          "type": "string"
        }
      ],
      "stateMutability": "view",
      "type": "function"
    },
    {
      "inputs": [],
      "name": "USDT",
      "outputs": [
        {
          "internalType": "address",
          "name": "",
          "type": "address"
        }
      ],
      "stateMutability": "view",
      "type": "function"
    },
    {
      "inputs": [
        {
          "internalType": "address",
          "name": "contractAddress",
          "type": "address"
        },
        {
          "internalType": "uint256",
          "name": "source",
          "type": "uint256"
        }
      ],
      "name": "addAuthorizedContract",
      "outputs": [],
      "stateMutability": "nonpayable",
      "type": "function"
    },
    {
      "inputs": [
        {
          "internalType": "address",
          "name": "user",
          "type": "address"
        },
        {
          "internalType": "uint256",
          "name": "usdtAmount",
          "type": "uint256"
        }
      ],
      "name": "addLiquidityForUser",
      "outputs": [
        {
          "internalType": "uint256",
          "name": "",
          "type": "uint256"
        }
      ],
      "stateMutability": "nonpayable",
      "type": "function"
    },
    {
      "inputs": [
        {
          "internalType": "address",
          "name": "",
          "type": "address"
        }
      ],
      "name": "authorizedContracts",
      "outputs": [
        {
          "internalType": "bool",
          "name": "",
          "type": "bool"
        }
      ],
      "stateMutability": "view",
      "type": "function"
    },
    {
      "inputs": [],
      "name": "burnReceiver",
      "outputs": [
        {
          "internalType": "address",
          "name": "",
          "type": "address"
        }
      ],
      "stateMutability": "view",
      "type": "function"
    },
    {
      "inputs": [
        {
          "internalType": "uint256",
          "name": "depositDay",
          "type": "uint256"
        }
      ],
      "name": "calculateReturnRate",
      "outputs": [
        {
          "internalType": "uint256",
          "name": "",
          "type": "uint256"
        }
      ],
      "stateMutability": "pure",
      "type": "function"
    },
    {
      "inputs": [
        {
          "internalType": "address",
          "name": "",
          "type": "address"
        }
      ],
      "name": "contractSource",
      "outputs": [
        {
          "internalType": "uint256",
          "name": "",
          "type": "uint256"
        }
      ],
      "stateMutability": "view",
      "type": "function"
    },
    {
      "inputs": [
        {
          "internalType": "address",
          "name": "token",
          "type": "address"
        },
        {
          "internalType": "address",
          "name": "to",
          "type": "address"
        },
        {
          "internalType": "uint256",
          "name": "amount",
          "type": "uint256"
        }
      ],
      "name": "emergencyWithdraw",
      "outputs": [],
      "stateMutability": "nonpayable",
      "type": "function"
    },
    {
      "inputs": [
        {
          "internalType": "uint256",
          "name": "source",
          "type": "uint256"
        }
      ],
      "name": "getContractStats",
      "outputs": [
        {
          "internalType": "uint256",
          "name": "_totalLPLocked",
          "type": "uint256"
        },
        {
          "internalType": "uint256",
          "name": "_totalPDABurned",
          "type": "uint256"
        },
        {
          "internalType": "uint256",
          "name": "_currentDay",
          "type": "uint256"
        },
        {
          "internalType": "uint256",
          "name": "_currentReturnRate",
          "type": "uint256"
        }
      ],
      "stateMutability": "view",
      "type": "function"
    },
    {
      "inputs": [
        {
          "internalType": "uint256",
          "name": "source",
          "type": "uint256"
        }
      ],
      "name": "getCurrentDay",
      "outputs": [
        {
          "internalType": "uint256",
          "name": "",
          "type": "uint256"
        }
      ],
      "stateMutability": "view",
      "type": "function"
    },
    {
      "inputs": [
        {
          "internalType": "address",
          "name": "user",
          "type": "address"
        }
      ],
      "name": "getUserAllLPInfo",
      "outputs": [
        {
          "internalType": "uint256",
          "name": "depositAmount",
          "type": "uint256"
        },
        {
          "internalType": "uint256",
          "name": "depositReturnRate",
          "type": "uint256"
        },
        {
          "internalType": "uint256",
          "name": "gameAmount",
          "type": "uint256"
        },
        {
          "internalType": "uint256",
          "name": "gameReturnRate",
          "type": "uint256"
        },
        {
          "internalType": "uint256",
          "name": "nftAmount",
          "type": "uint256"
        },
        {
          "internalType": "uint256",
          "name": "nftReturnRate",
          "type": "uint256"
        }
      ],
      "stateMutability": "view",
      "type": "function"
    },
    {
      "inputs": [
        {
          "internalType": "address",
          "name": "user",
          "type": "address"
        },
        {
          "internalType": "uint256",
          "name": "source",
          "type": "uint256"
        }
      ],
      "name": "getUserLPInfo",
      "outputs": [
        {
          "internalType": "uint256",
          "name": "amount",
          "type": "uint256"
        },
        {
          "internalType": "uint256",
          "name": "depositTime",
          "type": "uint256"
        },
        {
          "internalType": "uint256",
          "name": "depositDay",
          "type": "uint256"
        },
        {
          "internalType": "uint256",
          "name": "currentReturnRate",
          "type": "uint256"
        },
        {
          "internalType": "uint256",
          "name": "daysHeld",
          "type": "uint256"
        }
      ],
      "stateMutability": "view",
      "type": "function"
    },
    {
      "inputs": [
        {
          "internalType": "address",
          "name": "_pda",
          "type": "address"
        },
        {
          "internalType": "address",
          "name": "_NFTLPSetter",
          "type": "address"
        },
        {
          "internalType": "address",
          "name": "_burnReceiver",
          "type": "address"
        }
      ],
      "name": "initialize",
      "outputs": [],
      "stateMutability": "nonpayable",
      "type": "function"
    },
    {
      "inputs": [],
      "name": "owner",
      "outputs": [
        {
          "internalType": "address",
          "name": "",
          "type": "address"
        }
      ],
      "stateMutability": "view",
      "type": "function"
    },
    {
      "inputs": [],
      "name": "proxiableUUID",
      "outputs": [
        {
          "internalType": "bytes32",
          "name": "",
          "type": "bytes32"
        }
      ],
      "stateMutability": "view",
      "type": "function"
    },
    {
      "inputs": [
        {
          "internalType": "address",
          "name": "contractAddress",
          "type": "address"
        }
      ],
      "name": "removeAuthorizedContract",
      "outputs": [],
      "stateMutability": "nonpayable",
      "type": "function"
    },
    {
      "inputs": [
        {
          "internalType": "uint256",
          "name": "source",
          "type": "uint256"
        }
      ],
      "name": "removeLiquidity",
      "outputs": [],
      "stateMutability": "nonpayable",
      "type": "function"
    },
    {
      "inputs": [],
      "name": "renounceOwnership",
      "outputs": [],
      "stateMutability": "nonpayable",
      "type": "function"
    },
    {
      "inputs": [
        {
          "internalType": "address",
          "name": "_burnReceiver",
          "type": "address"
        }
      ],
      "name": "setBurnReceiver",
      "outputs": [],
      "stateMutability": "nonpayable",
      "type": "function"
    },
    {
      "inputs": [
        {
          "internalType": "address",
          "name": "_NFTLPSetter",
          "type": "address"
        }
      ],
      "name": "setNFTLPSetter",
      "outputs": [],
      "stateMutability": "nonpayable",
      "type": "function"
    },
    {
      "inputs": [
        {
          "internalType": "address",
          "name": "user",
          "type": "address"
        },
        {
          "internalType": "uint256",
          "name": "amount",
          "type": "uint256"
        },
        {
          "internalType": "uint256",
          "name": "depositTime",
          "type": "uint256"
        },
        {
          "internalType": "uint256",
          "name": "depositDay",
          "type": "uint256"
        }
      ],
      "name": "setUserLPInfo",
      "outputs": [],
      "stateMutability": "nonpayable",
      "type": "function"
    },
    {
      "inputs": [
        {
          "internalType": "uint256",
          "name": "",
          "type": "uint256"
        }
      ],
      "name": "sourceStartTime",
      "outputs": [
        {
          "internalType": "uint256",
          "name": "",
          "type": "uint256"
        }
      ],
      "stateMutability": "view",
      "type": "function"
    },
    {
      "inputs": [],
      "name": "totalLPLocked",
      "outputs": [
        {
          "internalType": "uint256",
          "name": "",
          "type": "uint256"
        }
      ],
      "stateMutability": "view",
      "type": "function"
    },
    {
      "inputs": [],
      "name": "totalPDABurned",
      "outputs": [
        {
          "internalType": "uint256",
          "name": "",
          "type": "uint256"
        }
      ],
      "stateMutability": "view",
      "type": "function"
    },
    {
      "inputs": [
        {
          "internalType": "address",
          "name": "newOwner",
          "type": "address"
        }
      ],
      "name": "transferOwnership",
      "outputs": [],
      "stateMutability": "nonpayable",
      "type": "function"
    },
    {
      "inputs": [
        {
          "internalType": "address",
          "name": "newImplementation",
          "type": "address"
        },
        {
          "internalType": "bytes",
          "name": "data",
          "type": "bytes"
        }
      ],
      "name": "upgradeToAndCall",
      "outputs": [],
      "stateMutability": "payable",
      "type": "function"
    },
    {
      "inputs": [
        {
          "internalType": "address",
          "name": "",
          "type": "address"
        },
        {
          "internalType": "uint256",
          "name": "",
          "type": "uint256"
        }
      ],
      "name": "userLPInfo",
      "outputs": [
        {
          "internalType": "uint256",
          "name": "amount",
          "type": "uint256"
        },
        {
          "internalType": "uint256",
          "name": "depositTime",
          "type": "uint256"
        },
        {
          "internalType": "uint256",
          "name": "depositDay",
          "type": "uint256"
        }
      ],
      "stateMutability": "view",
      "type": "function"
    }
  ],
  "transactionHash": "0x1e4f64f6dc794db99faec9d84a66f84bcca91ec74d34845b5b2703fbd822f342",
  "numDeployments": 1,
  "bytecode": "0x60a080604052346100cc57306080527ff0c57e16840df040f15088dc2f81fe391c3923bec73e23a9662efc9c229c6a009081549060ff8260401c166100bd57506001600160401b036002600160401b031982821601610078575b60405161222090816100d2823960805181818161183e01526119240152f35b6001600160401b031990911681179091556040519081527fc7f505b2f371ae2175ee4913f4499e1f2633a7b5936321eed1cdaeb6115181d290602090a1388080610059565b63f92ee8a960e01b8152600490fd5b600080fdfe608080604052600436101561001357600080fd5b60003560e01c90816302972eaa14611d5f5750806313219c9914611d125780631d48da0c14611ce6578063262f201614611c3957806329c08b2c14611b6257806332fe7b2614611b33578063384316e814611b155780634e6fd6c414611af85780634f1ef286146118a857806352d1902d1461182b578063551a7ebb1461180d57806358ca140e146117145780636194c8b0146116ef57806366270efd1461167a578063715018a614611610578063718190db146115ea5780637560ea791461157d5780638da5cb5b146115475780639c8f9f2314610ed85780639e1fc81614610e9e578063ad3cb1cc14610e09578063bfd9041b14610de0578063c0c53b8b14610a98578063c54e44eb14610a69578063c91d079c14610451578063ccef4efc146103fd578063d2ae914b146103d4578063d5b9221b14610395578063da1a7be91461036c578063e302d85f14610343578063e63ea40814610249578063e6b165ed146101e3578063f2fde38b146101b85763f7e4cd0d1461019557600080fd5b346101b35760003660031901126101b3576020600654604051908152f35b600080fd5b346101b35760203660031901126101b3576101e16101d4611e05565b6101dc6120c6565b612052565b005b346101b35760203660031901126101b3576101fc611e05565b6102046120c6565b6001600160a01b03166000818152600860205260408120805460ff191690557f98a35376356c1565159c1b44676fcfa951a2287e2a816e208cf92e7aeb585a4f9080a2005b346101b35760603660031901126101b357600060206102ad610269611e05565b610271611e1b565b6102796120c6565b60405163a9059cbb60e01b81526001600160a01b039091166004820152604480356024830152909485938492839190820190565b03926001600160a01b03165af190811561033757600091610308575b50156102d157005b60405162461bcd60e51b815260206004820152600f60248201526e151c985b9cd9995c8819985a5b1959608a1b6044820152606490fd5b61032a915060203d602011610330575b6103228183611e31565b810190611fc8565b816102c9565b503d610318565b6040513d6000823e3d90fd5b346101b35760003660031901126101b3576000546040516001600160a01b039091168152602090f35b346101b35760003660031901126101b3576003546040516001600160a01b039091168152602090f35b346101b35760203660031901126101b3576001600160a01b036103b6611e05565b166000526008602052602060ff604060002054166040519015158152f35b346101b35760003660031901126101b3576001546040516001600160a01b039091168152602090f35b346101b35760203660031901126101b35760806004356104206002821115611ebb565b6006549061043060075491611f05565b61043981611f97565b91604051938452602084015260408301526060820152f35b346101b35760403660031901126101b35761046a611e05565b6024356104756120ff565b33600052600860205260ff6040600020541615610a245780156109ee573360005260096020526040600020549182600052600460205260406000208054156109e5575b506040516323b872dd60e01b81523360048201523060248201526044810183905260208160648160007355d398326f99059ff775485246999027b31979555af1801561033757610510916000916109c6575b50611fe0565b61051d8260011c83611ef8565b9160405163095ea7b360e01b81527310ed43c718714eb63d5aa57b78b54704e256024e600482015281602482015260208160448160007355d398326f99059ff775485246999027b31979555af18015610337576109a7575b506040516060810181811067ffffffffffffffff82111761094357604052600281526040366020830137805115610991577355d398326f99059ff775485246999027b319795560208201526000546001600160a01b03166105d582612042565b5261012c4201421161097b57906040519182916338ed173960e01b835260a483019060011c60048401526000602484015260a060448401528151809152602060c4840192019060005b81811061095957505050908060009230606483015261012c420160848301520381837310ed43c718714eb63d5aa57b78b54704e256024e5af1801561033757600090610894575b61066f9150612042565b51916000602060018060a01b0382541660446040518094819363095ea7b360e01b83527310ed43c718714eb63d5aa57b78b54704e256024e60048401528960248401525af1801561033757610875575b5060018060a01b0360005416926040519362e8e33760e81b855260048501527355d398326f99059ff775485246999027b319795560248501526044840152606483015260006084830152600060a48301523060c483015261012c420160e48301526060826101048160007310ed43c718714eb63d5aa57b78b54704e256024e5af191821561033757600092610819575b507f64b83944e79c3ce8d4c297411de637c3e102d064677aac0c163976ebdcd6f50e82846107e8610781602097611f05565b6001600160a01b0390951660008181526005895260408082208583528a529020805491969182901561080557506107b9858254611f8a565b90555b6107c884600654611f8a565b600655604051938493846040919493926060820195825260208201520152565b0390a260016000805160206121f483398151915255604051908152f35b9080866002925542600182015501556107bc565b9291506060833d60601161086d575b8161083560609383611e31565b810103126101b3577f64b83944e79c3ce8d4c297411de637c3e102d064677aac0c163976ebdcd6f50e6040602094015192935061074f565b3d9150610828565b61088d9060203d602011610330576103228183611e31565b50846106bf565b503d806000833e6108a58183611e31565b8101906020818303126101b35780519167ffffffffffffffff83116101b35780601f8484010112156101b357828201519267ffffffffffffffff8411610943578360051b604051946108fa6020830187611e31565b855260208501926020828487010101116101b35790602081850101925b6020838387010101841061093357505050505061066f90610665565b8351815260209384019301610917565b634e487b7160e01b600052604160045260246000fd5b82516001600160a01b031684528594506020938401939092019160010161061e565b634e487b7160e01b600052601160045260246000fd5b634e487b7160e01b600052603260045260246000fd5b6109bf9060203d602011610330576103228183611e31565b5084610575565b6109df915060203d602011610330576103228183611e31565b8561050a565b429055836104b8565b60405162461bcd60e51b815260206004820152600e60248201526d125b9d985b1a5908185b5bdd5b9d60921b6044820152606490fd5b60405162461bcd60e51b815260206004820152601760248201527f4e6f7420617574686f72697a656420636f6e74726163740000000000000000006044820152606490fd5b346101b35760003660031901126101b35760206040517355d398326f99059ff775485246999027b31979558152f35b346101b35760603660031901126101b357610ab1611e05565b610ab9611e1b565b6044356001600160a01b0381811693918490036101b3577ff0c57e16840df040f15088dc2f81fe391c3923bec73e23a9662efc9c229c6a009384549160ff8360401c16159267ffffffffffffffff811694851580610dd9575b60018097149081610dcf575b159081610dc6575b50610db45767ffffffffffffffff19821686178855829185610d95575b5016948515610d5a57811691610b5a831515611e6f565b610b65811515611f3e565b6001600160601b0360a01b9286846000541617600055838654161785558260035416176003556040519463c45a015560e01b865260209586816004817310ed43c718714eb63d5aa57b78b54704e256024e5afa8015610337578391600091610d3d575b5016906040519063e6a4390560e01b82528060048301527355d398326f99059ff775485246999027b3197955908160248401528883604481875afa9283156103375789938691600091610d20575b501680610d0c5750604490600060405195869485936364e329cb60e11b8552600485015260248401525af190811561033757600091610cdf575b50169060025416176002555b610c6461212f565b610c6c61212f565b610c7533612052565b610c7d61212f565b610c8561212f565b610c8d61212f565b816000805160206121f483398151915255610ca457005b7fc7f505b2f371ae2175ee4913f4499e1f2633a7b5936321eed1cdaeb6115181d29268ff0000000000000000198154169055604051908152a1005b610cff9150863d8811610d05575b610cf78183611e31565b810190612023565b87610c50565b503d610ced565b959450505050506002541617600255610c5c565b610d379150853d8711610d0557610cf78183611e31565b8c610c16565b610d549150883d8a11610d0557610cf78183611e31565b89610bc8565b60405162461bcd60e51b8152602060048201526013602482015272496e76616c696420504441206164647265737360681b6044820152606490fd5b68ffffffffffffffffff19166801000000000000000117885588610b43565b60405163f92ee8a960e01b8152600490fd5b90501589610b26565b303b159150610b1e565b5084610b12565b346101b35760003660031901126101b3576002546040516001600160a01b039091168152602090f35b346101b35760003660031901126101b3576040516040810181811067ffffffffffffffff8211176109435760405260058152602090640352e302e360dc1b60208201526040518092602082528251908160208401526000935b828510610e85575050604092506000838284010152601f80199101168101030190f35b8481018201518686016040015293810193859350610e62565b346101b35760203660031901126101b3576001600160a01b03610ebf611e05565b1660005260096020526020604060002054604051908152f35b346101b35760203660031901126101b357600435610ef46120ff565b610f016002821115611ebb565b3360005260056020526040600020816000526020526040600020805490811561151057600201549160018060a01b03600254169160405163095ea7b360e01b815260208160448160007310ed43c718714eb63d5aa57b78b54704e256024e988960048401528760248401525af18015610337576114f1575b506000546001600160a01b03164261012c810190811061097b5760e4604092600084519788948593635d5155ef60e11b855260048501527355d398326f99059ff775485246999027b319795560248501528760448501528260648501528260848501523060a485015260c48401525af1938415610337576000936000956114b3575b5061100590611f97565b9384840294848604148415171561097b576000936127108604811161149b575b50600054604051639358928b60e01b8152906001600160a01b0316602082600481845afa91821561033757600092611467575b50600095600092816113f2575b50506127108704611350575b508461129a575b806111e1575b5060405163a9059cbb60e01b81523360048201526024810182905260208160448160007355d398326f99059ff775485246999027b31979555af18015610337576110cf916000916111c25750611fe0565b6006549082821061117d577f04f7e4f53152cb2cd0e424b2fc990199f0ed4255c7a97a848131f1eeff165f7b946111098461116694611ef8565b6006553360005260056020526040600020856000526020526000600260408220828155826001820155015560405194859461271033990491869192608093969594919660a084019784526020840152604083015260608201520152565b0390a260016000805160206121f483398151915255005b60405162461bcd60e51b815260206004820152601c60248201527f546f74616c204c50206c6f636b656420696e73756666696369656e74000000006044820152606490fd5b6111db915060203d602011610330576103228183611e31565b8761050a565b6000805460035460405163a9059cbb60e01b81526001600160a01b03918216600482015260248101949094526020928492604492849291165af19081156103375760009161127b575b5015611236578561107e565b60405162461bcd60e51b815260206004820152601f60248201527f504441207472616e7366657220746f207265636569766572206661696c6564006044820152606490fd5b611294915060203d602011610330576103228183611e31565b8661122a565b6000805460405163a9059cbb60e01b815261dead6004820152602481018890529160209183916044918391906001600160a01b03165af190811561033757600091611331575b50156112fa576112f285600754611f8a565b600755611078565b60405162461bcd60e51b815260206004820152600f60248201526e14111048189d5c9b8819985a5b1959608a1b6044820152606490fd5b61134a915060203d602011610330576103228183611e31565b876112e0565b60405163a9059cbb60e01b81523360048201526127108804602482015290602090829060449082906000905af1908115610337576000916113d3575b50156113985786611071565b60405162461bcd60e51b8152602060048201526013602482015272141110481d1c985b9cd9995c8819985a5b1959606a1b6044820152606490fd5b6113ec915060203d602011610330576103228183611e31565b8761138c565b909196690472698b413b43200000821160001461145d575080690472698b413b431fffff1981011161097b57690472698b413b431fffff198101821161143c5750945b8780611065565b690472698b413b431fffff1901959150611457908690611ef8565b90611435565b9692505090611435565b9091506020813d602011611493575b8161148360209383611e31565b810103126101b357519087611058565b3d9150611476565b6114ac919450612710860490611ef8565b9285611025565b935093506040833d6040116114e9575b816114d060409383611e31565b810103126101b357611005602084519401519490610ffb565b3d91506114c3565b6115099060203d602011610330576103228183611e31565b5084610f79565b60405162461bcd60e51b815260206004820152600f60248201526e4e6f204c5020746f2072656d6f766560881b6044820152606490fd5b346101b35760003660031901126101b3576000805160206121d4833981519152546040516001600160a01b039091168152602090f35b346101b35760403660031901126101b3576001600160a01b0361159e611e05565b1660005260056020526040600020602435600052602052604060002080546115e660026001840154930154604051938493846040919493926060820195825260208201520152565b0390f35b346101b35760203660031901126101b3576020611608600435611f97565b604051908152f35b346101b35760003660031901126101b3576116296120c6565b6000805160206121d483398151915280546001600160a01b031981169091556000906001600160a01b03167f8be0079c531659141344cd1fd0a4f28419497f9722a3daafe3b4186f6b6457e08280a3005b346101b35760203660031901126101b357611693611e05565b61169b6120c6565b6001600160a01b03908116906116b2821515611f3e565b600354826001600160601b0360a01b821617600355167f5153ec18786716602a0f5b0e4201be2118da680c8a06e34eed5dfb6544f8abb2600080a3005b346101b35760003660031901126101b3576020604051690472698b413b432000008152f35b346101b3576020806003193601126101b35760c0906001600160a01b03611739611e05565b1690816000526005815260406000206000805281526040600020918060005260058252604060002060016000528252604060002090600052600582526040600020600260005282526040600020908354938415156000146118045760026117a1910154611f97565b905b80549081156117fb5760026117b9910154611f97565b915b83549384156117f25760026117d1910154611f97565b945b60405196875286015260408501526060840152608083015260a0820152f35b506000946117d3565b506000916117bb565b506000906117a3565b346101b35760003660031901126101b3576020600754604051908152f35b346101b35760003660031901126101b3577f00000000000000000000000000000000000000000000000000000000000000006001600160a01b031630036118965760206040517f360894a13ba1a3210667c828492db98dca3e2076cc3735a920a3ca505d382bbc8152f35b60405163703e46dd60e11b8152600490fd5b60403660031901126101b3576118bc611e05565b602490813567ffffffffffffffff81116101b357366023820112156101b35780600401356118e981611e53565b926118f76040519485611e31565b81845260209182850193368783830101116101b35781600092888693018737860101526001600160a01b037f00000000000000000000000000000000000000000000000000000000000000008116308114908115611aca575b506118965761195d6120c6565b8116936040516352d1902d60e01b81528381600481895afa60009181611a9b575b5061199b57604051634c9c8ce360e01b8152600481018790528790fd5b8590877f360894a13ba1a3210667c828492db98dca3e2076cc3735a920a3ca505d382bbc91828103611a865750843b15611a70575080546001600160a01b03191682179055604051907fbc7cd75a20ee27fd9adebab32041f755214dbc6bffa90cc0225b39da2e5c2d3b600080a2815115611a55575060006101e19481925190845af4903d15611a4c573d611a2f81611e53565b90611a3d6040519283611e31565b8152600081943d92013e612170565b60609250612170565b935050505034611a6157005b63b398979f60e01b8152600490fd5b604051634c9c8ce360e01b815260048101849052fd5b60405190632a87526960e21b82526004820152fd5b9091508481813d8311611ac3575b611ab38183611e31565b810103126101b35751908861197e565b503d611aa9565b9050817f360894a13ba1a3210667c828492db98dca3e2076cc3735a920a3ca505d382bbc5416141587611950565b346101b35760003660031901126101b357602060405161dead8152f35b346101b35760203660031901126101b3576020611608600435611f05565b346101b35760003660031901126101b35760206040517310ed43c718714eb63d5aa57b78b54704e256024e8152f35b346101b35760403660031901126101b357611b7b611e05565b60243590611b876120c6565b6001600160a01b0316908115611bf457602081611bc860027f9f867247cd07d370933af4d95576c7517863b00bd24b1d1236e7d5ede46de261941115611ebb565b83600052600882526040600020600160ff198254161790556009825280604060002055604051908152a2005b60405162461bcd60e51b815260206004820152601860248201527f496e76616c696420636f6e7472616374206164647265737300000000000000006044820152606490fd5b346101b35760403660031901126101b357611c52611e05565b60243590611c636002831115611ebb565b60018060a01b03166000526005602052604060002090600052602052604060002080546115e660026001840154930154611c9c81611f97565b8415611cde5762015180611cb08642611ef8565b04915b604051958695869192608093969594919660a084019784526020840152604083015260608201520152565b600091611cb3565b346101b35760203660031901126101b35760043560005260046020526020604060002054604051908152f35b346101b35760203660031901126101b357611d2b611e05565b611d336120c6565b6001600160a01b0316611d47811515611e6f565b6001600160601b0360a01b6001541617600155600080f35b346101b35760803660031901126101b357611d78611e05565b6001546001600160a01b03929083163303611dc35750166000526005602052604060002060026000526020526040600020602435815560443560018201556002606435910155600080f35b62461bcd60e51b815260206004820152601960248201527f4f6e6c79204e46544c505365747465722063616e2063616c6c000000000000006044820152606490fd5b600435906001600160a01b03821682036101b357565b602435906001600160a01b03821682036101b357565b90601f8019910116810190811067ffffffffffffffff82111761094357604052565b67ffffffffffffffff811161094357601f01601f191660200190565b15611e7657565b60405162461bcd60e51b815260206004820152601b60248201527f496e76616c6964204e46544c50536574746572206164647265737300000000006044820152606490fd5b15611ec257565b60405162461bcd60e51b815260206004820152600e60248201526d496e76616c696420736f7572636560901b6044820152606490fd5b9190820391821161097b57565b611f126002821115611ebb565b60005260046020526040600020548015611f3857611f34620151809142611ef8565b0490565b50600090565b15611f4557565b60405162461bcd60e51b815260206004820152601d60248201527f496e76616c6964206275726e20726563656976657220616464726573730000006044820152606490fd5b9190820180921161097b57565b60328102908082046032149015171561097b576064018060641161097b57611388808211611fc3575090565b905090565b908160209103126101b3575180151581036101b35790565b15611fe757565b60405162461bcd60e51b81526020600482015260146024820152731554d115081d1c985b9cd9995c8819985a5b195960621b6044820152606490fd5b908160209103126101b357516001600160a01b03811681036101b35790565b8051600110156109915760400190565b6001600160a01b039081169081156120ad576000805160206121d483398151915280546001600160a01b031981168417909155167f8be0079c531659141344cd1fd0a4f28419497f9722a3daafe3b4186f6b6457e0600080a3565b604051631e4fbdf760e01b815260006004820152602490fd5b6000805160206121d4833981519152546001600160a01b031633036120e757565b60405163118cdaa760e01b8152336004820152602490fd5b6000805160206121f4833981519152600281541461211d5760029055565b604051633ee5aeb560e01b8152600490fd5b60ff7ff0c57e16840df040f15088dc2f81fe391c3923bec73e23a9662efc9c229c6a005460401c161561215e57565b604051631afcd79f60e31b8152600490fd5b90612197575080511561218557602081519101fd5b60405163d6bda27560e01b8152600490fd5b815115806121ca575b6121a8575090565b604051639996b31560e01b81526001600160a01b039091166004820152602490fd5b50803b156121a056fe9016d09d72d40fdae2fd8ceac6b6234c7706214fd39c1cd1e609a0528c1993009b779b17422d0df92223018b32b4d1fa46e071723d6817e2486d003becc55f00a164736f6c6343000816000a",
  "implementation": "0x29408bD005D1CD148244E8f8FEDDa215D0aFa0e3"
}